:1000000000800020A9410000DF410000E141000024
:10001000E3410000E5410000E7410000DD41000050
:10002000DD410000DD410000DD410000E94100004C
:10003000EB410000DD410000ED410000EF41000018
:10004000D512000011300000F5410000F74100001A
:10005000F9410000FB410000FD410000FF410000AC
:1000600001420000034200002D6400003530000012
:10007000094200000B4200000D4200000F42000048
:100080001142000013420000154200001742000018
:10009000194200001B4200001D4200001F420000E8
:1000A0008968000023420000E56D0000274200003F
:1000B000294200002B420000D53100002F420000F1
:1000C0003142000033420000354200003742000058
:1000D000394200003B4200003D42000000000000A9
:1000E0000000000000000000000000000000000010
:1000F0000000000000000000000000000000000000
:1001000010B5054C237833B9044B13B10448AFF351
:1001100000800123237010BD0005002000000000B6
:10012000B888000008B5064B1BB106480649AFF376
:1001300000800648036813B1054B03B1984708BD1A
:1001400000000000B888000004050020AC04002076
:1001500000000000154B002B08BF134B9D46A3F574
:10016000803A00218B460F461348144A121A07F0B2
:100170001CF90F4B002B00D098470E4B002B00D0E2
:1001800098470020002104000D000D48002802D0EF
:100190000C48AFF3008007F055F82000290006F066
:1001A0004DFE06F09FFE00BF00000800008000200A
:1001B00000000000000000000005002010190020D1
:1001C000000000000000000086B003900291019240
:1001D000039B03F10473DA00029B13449B00059315
:1001E000059B019A1A6006B0704700BF82B0204B91
:1001F000DB6C03F47F031B0C8DF807309DF8073090
:100200004A2B04D04B2B2CD0482B28D02BE0194B59
:100210001B699BB203F03F039BB21B02ADF8043095
:10022000144B9B699BB203F0F0039AB2BDF8043003
:100230001343ADF804300F4BDB6903F0F0031B09E7
:100240009AB2BDF804301343ADF80430BDF8043061
:10025000B3F5017F01D3084B06E0084B04E0074BE0
:1002600002E0054B00E00023184602B0704700BFD3
:10027000B081E00FD0FF0FE000366E010048E801CA
:1002800084B001902A4BDB6B002B0CBF00230123B1
:100290008DF80A30264B41F67132DA63244B5B68E5
:1002A00003F007030393039B012B01D9042B03D114
:1002B00000238DF80B3003E001238DF80B3000BFD5
:1002C000019A1C4B9A4208D99DF80B30002B01D0A3
:1002D000052300E00423039318E0019A154B9A428A
:1002E0000CD8019A144B9A4208D99DF80B30002B78
:1002F00001D0032300E00123039307E09DF80B30B6
:10030000002B01D0022300E000230393084B084A8E
:10031000526822F00701039A0A435A609DF80A3096
:10032000002B02D0024B0022DA6304B0704700BFFA
:1003300000000C400048E8010024F40000B583B040
:10034000034B01930198FFF79BFF03B05DF804FB9B
:10035000006CDC0286B00190019B002B04D0019B55
:10036000B3F5004F00D800BF019B0493049BB3FA80
:1003700083F30393039BDBB2C3F11F030593059B38
:10038000184606B0704700BF00B583B0104800F0B3
:1003900089FB03468DF803309DF80330032B07D00B
:1003A000082B09D0022B0BD104F032F801900AE09F
:1003B00004F026F8019006E003F0A2FF019002E0AD
:1003C0000023019300BF019B184603B05DF804FBB6
:1003D00005231C0082B0194B5B6903F4E063B3F59D
:1003E000007F14D0B3F5007F05D8002B15D0B3F5EE
:1003F000807F0FD01AE0B3F5C06F14D0B3F5E06F73
:100400000ED0B3F5407F11D10D4B019311E00D4B90
:1004100001930EE00C4B01930BE00C4B019308E0B1
:100420000B4B019305E00B4B019302E0002301937A
:1004300000BF019B184602B0704700BF00800C400F
:1004400040420F00C0CF6A00C0D8A700809FD500EF
:10045000406F4001003FAB0100B583B0124800F08F
:1004600021FB03468DF803309DF80330072B0FD096
:10047000082B11D103F044FF01900C4B1B6803F4CF
:10048000E0339B0B0133019AB2FBF3F3019306E0D7
:10049000FFF7A0FF019002E00023019300BF019B42
:1004A000184603B05DF804FB0400180000800C40FF
:1004B00000B585B00190019B002B02D0019B012B60
:1004C00000D100BF264B9A6A019B5B0022FA03F31E
:1004D00003F00303032B3BD801A252F823F000BF23
:1004E00031050000F1040000F904000001050000DE
:1004F00003F086FF03902EE003F08AFF03902AE0CA
:10050000174B5B6803F48073002B05D1144B1B68F9
:1005100003F08043002B05D003F0CEFE03469B087A
:10052000039318E003F0C8FE03465B08039312E050
:100530000B4B9A6A019B04339B0022FA03F3002BB6
:1005400003D003F061FF039005E00023039302E072
:100550000023039300BF039B184605B05DF804FB1E
:1005600000800C4082B00190074B5B6D03F00103EB
:10057000002B00D006E000BF034B1A6D019B134017
:10058000002BF9D102B0704700800C4030B585B027
:1005900001900091019B1B0903F00F030393039B40
:1005A000013B042B00F2FF8001A252F823F000BFB0
:1005B000F9050000230600008F0600005307000025
:1005C000C5050000009B002B03D0009B082B00D822
:1005D00000BFFFF7B3FE754B744A126822F4E03196
:1005E000009A013A92030A431A6003F065FE0290F2
:1005F0000298FFF745FED7E0009B002B04D0009B3C
:10060000B3F5007F00D800BF0098FFF7A3FE00906D
:10061000664B664A926822F00F01009A0A439A607C
:10062000C2E0FFF78BFE512000F040F90246009B2C
:10063000B2FBF3F4FFF7DAFD03469C420AD85B48AD
:100640001E210022FFF7C0FD594808210022FFF7B4
:10065000BBFD09E055481E210122FFF7B5FD5448B6
:1006600008210122FFF7B0FD0098FFF773FE00900C
:100670004E4B4E4A526822F00F01009A0A435A60CC
:1006800003F01AFE02900298FFF7FAFD8CE0019B3E
:10069000484A93421ED0474A934203D8464A93425F
:1006A00007D055E0454A934225D0454A93423FD072
:1006B0004EE00420FFF756FF0098FFF74BFE009036
:1006C0003A4B3A4A926E22F0F001009A12010A4324
:1006D0009A663DE00420FFF745FF0098FFF73AFED9
:1006E0000090324B314A926E22F47061009A1202ED
:1006F0000A439A662CE0009B0F2B03D9009B802BAA
:1007000000D800BF0420FFF72DFF0098FFF722FE5E
:100710000090264C254B9B6E23F440551020FFF78C
:1007200019FE0346009AD31A1B032B43A3660FE05E
:100730000420FFF717FF0098FFF70CFE00901B4BFB
:100740001A4A926E22F00301009A0A439A6600BF89
:100750002AE0019B1B4A934203D01B4A934210D0CC
:1007600020E04020FFF7FEFE0098FFF7F3FD009029
:100770000E4B0E4A126F22F00301009A0A431A67C9
:1007800010E04020FFF7EEFE0098FFF7E3FD009039
:10079000064B064A126F22F03001009A12010A43FA
:1007A0001A6700BF00E000BF05B030BD00800C40FC
:1007B00004800C4030240A003014080030000C0083
:1007C00030041000400514004015160010B586B026
:1007D00001900B468DF8033000230493019B1B0A04
:1007E00003F00F03013B052B4BD801A252F823F075
:1007F000090800000F080000150800004308000069
:100800004D080000570800001F4B059326E01F4BC2
:10081000059323E01E4B05931E4800F047F804465D
:10082000FFF7E4FC03469C420AD91B481E21012223
:10083000FFF7CAFC194808210122FFF7C5FC0DE0AB
:100840000CE0174B05930123049307E0154B059328
:100850001023049302E0144B059300BF019B1B0B74
:1008600003F01F030393049B002B02D00498FFF7AF
:1008700079FE9DF80330059803991A46FFF7A4FC0A
:1008800000E000BF06B010BD08800C4044800C4062
:1008900040800C402000040000800C4004800C408C
:1008A00058800C4060800C4078800C4010B584B0BB
:1008B0000190019B03F47813B3F5602F00F0998049
:1008C000B3F5602F18D8B3F5C02F5ED0B3F5C02FA5
:1008D00008D8B3F5003F3ED0B3F5802F51D0002BA0
:1008E0002BD0D6E0B3F5202F62D0B3F5402F6DD0DA
:1008F000B3F5002F4ED0CCE0B3F5B01F00F0AF80C1
:10090000B3F5B01F0CD8B3F5901F00F09680B3F587
:10091000A01F00F09780B3F5801F00F08180B8E041
:10092000B3F5D01F00F0AD80B3F5E01F00F0AD804F
:10093000B3F5C01F00F0A180ABE003F0E1FC039031
:10094000574B1B6803F4E0339B0B0133039AB2FB54
:10095000F3F30393A0E003F0D3FC0390504B1B6828
:1009600003F4E0339B0B0133039AB2FBF3F30393DD
:100970004B4B9B6803F00F03039A22FA03F3039394
:100980008AE003F099FC039086E00020FFF790FDD9
:10099000039081E00020FFF78BFD0390404B9B6E9E
:1009A00003F0F0031B09039A22FA03F3039373E0A5
:1009B0000020FFF77DFD0390394B9B6E03F47063BD
:1009C0001B0A039A22FA03F3039365E00020FFF762
:1009D0006FFD0390324B9B6E03F440531C0B1020B1
:1009E000FFF7B8FC03462344039A22FA03F3039368
:1009F00052E00020FFF75CFD0390294B9B6E03F44F
:100A000040531B0B039A22FA03F30393244BDB6F2F
:100A100003F007030133039AB2FBF3F303933BE0C4
:100A20000020FFF745FD03901D4B9B6E03F0030371
:100A3000039A22FA03F303932EE00120FFF738FD17
:100A4000039029E00120FFF733FD0390144B1B6F47
:100A500003F00303039A22FA03F303931CE001203B
:100A6000FFF726FD03900E4B1B6F03F030031B09AD
:100A7000039A22FA03F303930EE0FFF7EDFC0390D1
:100A80000AE0FFF7A7FC039006E0FFF77DFC039068
:100A900002E00023039300BF039B184604B010BD7F
:100AA00000800C4086B0019001238DF817304FF480
:100AB00070530493019B03F00F030393039B013BCB
:100AC000042B00F2A58001A252F823F0E10A0000F5
:100AD0001F0B0000630B0000A70B0000D30B0000EE
:100AE000504BDA6A049B1340B3F5805F0AD0B3F52C
:100AF000005F03D0B3F5006F08D00BE002238DF840
:100B000017300BE003238DF8173007E004238DF82E
:100B1000173003E005238DF8173000BF7CE0414B10
:100B20009B6A03F00303022B07D0032B09D0012B90
:100B30000BD103238DF8173012E002238DF8173004
:100B40000EE006238DF817300AE0364B9B6A03F45B
:100B50008033002B03D009238DF8173000E000BF4D
:100B60005AE0304B9B6A03F00C03082B07D00C2B88
:100B700009D0042B0BD103238DF8173012E0022388
:100B80008DF817300EE006238DF817300AE0254B5C
:100B90009B6A03F48013002B03D009238DF81730D0
:100BA00000E000BF38E007238DF817301D4B1B68AD
:100BB00003F08053002B03D0B3F1805F04D02BE00F
:100BC00007238DF8173003E008238DF8173000BF96
:100BD00022E0144BDB6A03F46033B3F5803F06D0A8
:100BE000B3F5003F07D0B3F5004F08D00BE0022368
:100BF0008DF817300BE003238DF8173007E008233A
:100C00008DF8173003E001238DF8173000BF03E0A3
:100C100000238DF8173000BF9DF81730184606B036
:100C2000704700BF00800C4010B588B001900B46A3
:100C30008DF803300323079303238DF81B30002323
:100C40000593019B03F00F030393039B013B042BCC
:100C500000F2358101A252F823F000BF710C0000B0
:100C60004B0D00004B0D0000290E0000550E00003A
:100C70009DF80330023B072B00F2238101A252F8BA
:100C800023F000BFA50C0000B10C0000BD0C00005B
:100C9000130D0000C30E0000C30E0000C30E0000C1
:100CA0001F0D00000423079300238DF81B3037E04D
:100CB0000323079301238DF81B3031E002230793B0
:100CC00002238DF81B3003F093FB0446FFF78EFAE6
:100CD00003469C4213D97D4A7C4B1B6843F08043FA
:100CE00043F060031360794B1B6C03F01003002B7F
:100CF0000ED0774808210122FFF766FA10E0734B07
:100D0000724A126822F0600242F020021A6007E084
:100D100006E00123079303238DF81B3000E000BF9A
:100D20009DF81B3018460121012200F095F9FFF7CC
:100D300005FB664B079A5A6200F006FE03F0BCFA08
:100D400002900298FFF79CFABEE09DF80330013B49
:100D5000082B00F2B88001A252F823F0810D0000A8
:100D6000870D0000970D0000C70E0000C70E0000A1
:100D7000A70D0000C70E0000C70E0000DF0D000029
:100D80000023049330E000200121012200F064F9E7
:100D90000223049328E001200121012200F05CF9E4
:100DA0000123049320E04B4804210122FFF70CFAB1
:100DB0000323049303F080FA0290FFF717FA024628
:100DC000029B9A420AD241481E210122FFF7FCF9F8
:100DD0003F4808210122FFF7F7F905E004E000236E
:100DE00004930123059300BF039B022B0DD1374AC7
:100DF000364B9B6A23F4803323F003030499194391
:100E0000059B1B040B4393625EE0304A2F4B9B6AA9
:100E100023F4801323F00C03049989001943059BE4
:100E20001B050B4393624FE09DF80330072B02D064
:100E3000082B07D048E0254B244A126822F0805244
:100E40001A6006E0214B214A126842F080521A6073
:100E500000BF39E09DF80330032B14D0082B22D0BB
:100E6000022B00D030E000200121012200F0F4F834
:100E7000164B40225A6200BF144BDB6A03F48033E6
:100E8000002BF9D01AE001200121012200F0E4F842
:100E90000E4B60225A6200BF0C4BDB6A03F4003336
:100EA000002BF9D00AE0094B20225A6200BF074B01
:100EB000DB6A03F40043002BF9D000BF04E000BF5D
:100EC00002E000BF00E000BF08B010BD00800C4091
:100ED00004800C4040800C4084B003468DF80730FD
:100EE0009DF80730072B46D801A252F823F000BF27
:100EF000370F0000290F00001B0F0000110F00002A
:100F0000770F0000770F00004B0F0000410F00002B
:100F10001A4B5B6ADBB203931EE0184B5B6A03F467
:100F20007F431B0A039317E0144B5B6A03F47F03B0
:100F30001B0C039310E0114B5B6A1B0E03930BE039
:100F40000E4B9B6ADBB2039306E00C4B9B6A03F4E7
:100F50007F431B0A039300BF094A094B5B6923F4D3
:100F6000FF6323F007039DF8071009021943039B51
:100F70000B43536100E000BF04B07047B081E00F45
:100F800000800C4000B587B003468DF807309DF80F
:100F90000730052B57D801A252F823F0B50F0000F7
:100FA000BF0F0000CD0F0000DB0F0000E50F0000B9
:100FB000EF0F0000264BDB6ADBB205931EE0244BEB
:100FC000DB6A03F47F431B0A059317E0204BDB6ABF
:100FD00003F47F031B0C059310E01D4BDB6A1B0E13
:100FE00005930BE01A4B1B6BDBB2059306E0184B25
:100FF0001B6B03F47F431B0A059300BF5120FFF7CF
:1010000051FD03468DF813309DF81330052B01D1A7
:10101000FFF794F90F4A0F4BDB6823F4FF6323F0CB
:1010200007039DF8071009021943059B0B43D36082
:101030009DF81330052B07D103F03EF90390039878
:10104000FFF71EF900E000BF07B05DF804FB00BF2A
:10105000B081E00F00800C4000B587B01346024617
:101060008DF807200A468DF806208DF805309DF88A
:101070000730052B4DD801A252F823F0CD10000007
:10108000BF100000A310000095100000B110000078
:1010900013110000012304930223039302230593F9
:1010A0001EE004230493082303930823059317E009
:1010B00010230493202303932023059310E040235F
:1010C0000493802303938023059309E04FF48073F6
:1010D00004934FF4007303934FF40073059300BF20
:1010E0009DF80630002B0ED00C4B049A1A629DF826
:1010F0000530002B0AD000BF084BDA6A059B13406D
:10110000002BF9D002E0054B039A1A6200F01CFC98
:1011100000E000BF07B05DF804FB00BF00800C409A
:1011200082B003468DF80730074B9DF9072052091E
:101130009DF8071001F01F01012000FA01F143F8AA
:10114000221002B0704700BF00E100E082B0034609
:101150008DF80730074B9DF9072052099DF80710BD
:1011600001F01F01012000FA01F1203243F82210A2
:1011700002B0704700E100E082B003468DF807300E
:10118000074B9DF9072052099DF8071001F01F0138
:10119000012000FA01F1603243F8221002B07047DA
:1011A00000E100E086B0039002910192039B03F1FD
:1011B0000473DA00029B13449B000593059B019A7C
:1011C0001A6006B0704700BF88B001908DF8031018
:1011D0008DF802208DF80130019B1A013C4B9B6871
:1011E000134406939DF80230002B02D0069B079310
:1011F00005E0019B1A01364BDB6813440793069BFD
:10120000DB680593059B002B03D09DF80220059B0E
:101210001A72099B002B14D0079B9B6803F0406354
:101220009B0E0493049B032B03D1079B099A1A601E
:1012300007E0049B0A9A9A40099B13441A46079BAD
:101240001A60089B002B12D0079B9B689B0F04938E
:10125000049B032B03D1079B089A5A6007E0049B69
:101260000A9A9A40089B13441A46079B5A60019BAE
:10127000012202FA03F303939DF80130002B03D0FF
:10128000134B039A9A6102E0114B039ADA619DF8BD
:101290000230002B03D00E4B039A5A6302E00C4B32
:1012A000039A1A63079B9B6823F47F5323F0370349
:1012B00002930A9B1B01029A134302939DF8033089
:1012C000029A13430293079B029A9A6008B07047F0
:1012D00000200C4000B58BB0354B03F580531B68E4
:1012E0000693334B03F580530C331B68069A134067
:1012F0000693069B002B00DAFEE72D4B9B6B0593B4
:10130000069A059B134008930023079349E00023A6
:1013100009933BE0089B03F00103002B30D0244BE2
:101320009B6804930122099B02FA03F30393204B69
:1013300003F580530833039A1A60099B1B01049A32
:101340001344DB680293029B002B19D0029B1B7A8B
:101350000193029B1B7A83F00103DAB2029B1A729B
:10136000029B1B68002B0BD0029B1B680998019AFB
:10137000002A0CBF00220122D1B2029A526898477B
:10138000089B5B080893099B01330993089B002B7A
:10139000C0D1059BDA43069B13400893079B01339A
:1013A0000793079B012BB2DD0BB05DF804FB00BF78
:1013B00000200C4000B589B0079005930B468DF8CE
:1013C0001B3013468DF81A309DF81B209DF81A30FB
:1013D000059900910A9901910B99029107980121B1
:1013E000FFF7F2FE044B079A012101FA02F29A621A
:1013F00009B05DF804FB00BF00200C4000B585B0CB
:10140000019000911E4B9B680393019B1B01039A63
:101410001344009A9268DA60009B1B78002B06D078
:10142000174B019A012101FA02F29A6305E0144B6D
:10143000019A012101FA02F2DA63114B009A516814
:10144000019A02F5886243F82210009B5B78002B1A
:101450000ED00B4B019A012101FA02F203F58053E1
:1014600008331A60074801990122FFF79BFE04E048
:10147000044801990022FFF795FE05B05DF804FBD2
:1014800000200C400C300C4086B003900B460192BB
:101490008DF80B309DF80B30002B03D0134B9B685D
:1014A000059302E0114BDB680593039B1B01059A32
:1014B00013440593019B1B789A07019B9B781B079C
:1014C0001A43019B5B789B061A43019B9B781B0682
:1014D00013431A46019B1B799B041A43019BDB783B
:1014E0009B031A43059B9A6006B0704700200C408E
:1014F00082B001900B468DF803309DF80330002B2D
:1015000006D0074B019A012101FA02F29A6205E026
:10151000034B019A012101FA02F2DA6202B070472C
:1015200000200C4000B583B0019010480121FFF766
:101530004DF900F01FF80020FFF71EFE0020FFF716
:10154000EFFD0B4B03F580530C334FF000421A6054
:10155000074B019A52689A60054B019A1278520122
:1015600042F001025A6003B05DF804FB000304007E
:1015700000200C4000B583B00020FFF7E7FD1C4BB6
:1015800000225A601A4B40F6FF72DA61184B40F69F
:10159000FF725A62164B40F6FF72DA62144B40F645
:1015A000FF725A63124B40F6FF72DA63104B01224E
:1015B000DA640F4B03F580530C3300221A600C4B96
:1015C00003F5805308330B4A1A600023019309E0A6
:1015D000074B019A02F58862002143F82210019B13
:1015E00001330193019B0B2BF2DD03B05DF804FB8B
:1015F00000200C40FF0F008008B502F05DFE08BD22
:10160000024B4AF6E8529A60704700BF00600C40F7
:10161000024B0022C3F88420704700BF00800C40BA
:10162000024B45F60E02C3F88420704700800C4040
:1016300000B585B0394BD3F8843003F00103039330
:10164000FFF7EEFF00230293354B1B6803F0010305
:10165000029A13430293324B1B6803F01003029A61
:10166000134302932E4B1B6803F04003029A13436B
:1016700002932B4B1B6803F00403029A134302935B
:10168000274B1B6803F48073029A13430293234B86
:10169000029A1A624FF470530193214B1A68019B0E
:1016A0001340B3F5805F06D0B3F5005F0ED0B3F5FD
:1016B000006F16D020E000BF184BDB6A03F08003F8
:1016C000002BF9D0154B03225A6215E000BF134BD3
:1016D000DB6A03F40073002BF9D0104B04225A622A
:1016E0000AE000BF0D4BDB6A03F00803002BF9D0C2
:1016F0000A4B02225A6200BF094B1B6803F0010328
:10170000002B02D1054B02221A62039B002B01D051
:10171000FFF77EFF05B05DF804FB00BF00800C40C2
:101720001C05002082B0194B1B699BB203F03F03DC
:101730009BB21B02ADF80630144B9B699BB203F0C1
:10174000F0039AB2BDF806301343ADF806300F4BE4
:10175000DB6903F0F0031B099AB2BDF806301343AE
:10176000ADF80630BDF80630B3F5827F04D3BDF87E
:101770000630B3F5017F01D1012300E0002303F01F
:101780000103DBB2184602B0704700BFD0FF0FE084
:1017900000B587B003468DF80730214BDA6A214B3C
:1017A0001A60214B204A126942F004021A61FFF7C5
:1017B000B9FF03468DF817309DF81730002B11D074
:1017C0001A4B1A681A4B13400393184B039AC3F829
:1017D0008020164B5B6823F046030493134B049A56
:1017E000C3F8842030BF9DF81730002B05D00F4B75
:1017F000039A1A600D4B049A5A609DF80730002B2B
:1018000002D0FFF715FF07E0064B1B6803F4806367
:10181000002B01D1FFF7F0FE07B05DF804FB00BF1D
:1018200000800C401C05002000ED00E000E100E01D
:101830009CF1FD0000B587B003468DF80730294BB9
:10184000DA6A294B1A60274BD3F8843003F001037E
:101850000593FFF7E5FE234B4FF420721A62059BB8
:10186000002B01D0FFF7D4FE204B204A126942F032
:1018700004021A61FFF756FF03468DF813309DF8F6
:101880001330002B11D01A4B1A681A4B13400293D5
:10189000174B029AC3F88020154B5B6823F0460370
:1018A0000393134B039AC3F8842030BF9DF8133081
:1018B000002B05D00E4B029A1A600D4B039A5A600A
:1018C0009DF80730002B02D0FFF7B2FE07E0064B71
:1018D0001B6803F48063002B01D1FFF78DFE07B076
:1018E0005DF804FB00800C401C05002000ED00E0CA
:1018F00000E100E09CF1FD0000B585B0114B1B68D4
:1019000023F00C0343F0080302930E4B1B6843F0D3
:101910000C030193FFF774FE0023039308E0094BC7
:10192000029A1A60074B019A1A60039B01330393D2
:10193000039B032BF3DD034B029A1A6005B05DF89D
:1019400004FB00BF00600C40024BDA6A024B1A60D5
:10195000704700BF00800C401C05002010B483B00D
:1019600002460B468DF807208DF806309DF80730AB
:10197000052B04D89DF80630032B00D800BF0D4876
:101980009DF807200B4C9DF807100B46DB000B441D
:101990009B0023441B6823F003019DF80630194384
:1019A0001346DB0013449B000344196003B05DF849
:1019B000044B70470060004010B485B00291019361
:1019C00003468DF80F3013468DF80E309DF80F301A
:1019D000052B03D8029B0F2B00D800BF9DF80E30BB
:1019E000002B21D0019B002B0FD04A489DF80F20DF
:1019F000029B012101FA03F319461346DB0013444D
:101A00009B000344103319600EE042489DF80F20FC
:101A1000029B012101FA03F319461346DB0013442C
:101A20009B00034410335960029B072B20D8394890
:101A30009DF80F20374C9DF80F100B46DB000B4430
:101A40009B0023445968029B9B000F2404FA03F374
:101A5000DB4319409DF80E40029B9B0004FA03F300
:101A600019431346DB0013449B000344596027E0ED
:101A700028489DF80F20274C9DF80F100B46DB00DF
:101A80000B449B00234408331968029B03F18043F5
:101A9000083B9B000F2404FA03F3DB4319409DF835
:101AA0000E40029B03F18043083B9B0004FA03F3C2
:101AB00019431346DB0013449B00034408331960A9
:101AC0009DF80E30002B21D1019B002B0FD0114827
:101AD0009DF80F20029B012101FA03F319461346DA
:101AE000DB0013449B000344103319600EE00948E7
:101AF0009DF80F20029B012101FA03F319461346BA
:101B0000DB0013449B0003441033596005B05DF8BB
:101B1000044B70470060004086B003900291019230
:101B2000039B03F10473DA00029B13449B000593AB
:101B3000059B019A1A6006B0704700BF00B587B0D8
:101B40000390029101928DF80330019B002B00D18C
:101B500032E0039B1B6823F44072039B1A60039BD3
:101B60001A689DF803301B021A43039B1A60029BFC
:101B7000002B03D11248FEF799FE02909DF8033026
:101B8000104AD35C0493019B9B00029AD21A049BD7
:101B9000019901FB03F3B2FBF3F30593039B1B686D
:101BA00003F00203002B04D0059B002B01D101237D
:101BB0000593039B059A1A6107B05DF804FB00BF0B
:101BC00010810200E880000000B583B00190009110
:101BD000019A174B9A4203D0019A164B9A4200D1B0
:101BE00000BF019B00225A63019B134A1A63019AAA
:101BF000009B5B78002B01D0002300E001231046FE
:101C000001211A46FFF788FF009B5968009B9A68DC
:101C1000009B1B7B0198FFF791FF019A009B1B78AB
:101C2000104600211A46FFF777FF03B05DF804FB6A
:101C300000A0004000A40040CFFF010088B0019048
:101C4000019A9D4B9A4203D0019A9C4B9A4200D133
:101C500000BF019A984B9A4202D1994B069308E033
:101C6000019A964B9A4202D1964B069301E0FC23CF
:101C700002E2069B9B680593019B9B6A0493049B6D
:101C800003F4C063002B14D0049B03F40073002BF7
:101C900003D0069BFD225A7007E0049B03F4806387
:101CA000002B02D0069BFE225A70069B09221A7056
:101CB000CEE1069B1B78082B00F2C28101A252F8EC
:101CC00023F000BFE91C00003B1D0000C11D000007
:101CD000131E0000651E0000C91E0000511F0000F9
:101CE0008F1F000025200000059B5B8803F0100378
:101CF000002B09D0059B1B881B0A9BB203F006032F
:101D000043F0F00307930EE0059B1B8803F0FE03EE
:101D10000793059B5B8803F00203002B03D0079B0E
:101D200043F001030793069B01221A70019B079A57
:101D30005A62019B01225A608AE1049B03F08003EE
:101D4000002B0CD0019B80221A63069BFF225A7045
:101D5000069B08221A70019B02225A602FE0049B06
:101D600003F04003002B2AD0019B40221A63059BFD
:101D70005B8803F01003002B08D0069B02221A7028
:101D8000059B1B88DAB2019B5A6218E0059B5B88B1
:101D900003F00203002B0ED0069B07221A70069B4D
:101DA0001B79059ADB0013441B89012B07D1019B8A
:101DB00008225A604CE1069B05221A7047E147E170
:101DC000049B03F08003002B0CD0019B80221A633C
:101DD000069BFF225A70069B08221A70019B022262
:101DE0005A6015E0049B03F04003002B10D0019BC8
:101DF00040221A63059B5B8803F00203002B03D08B
:101E0000069B03221A7022E1069B05221A701EE12E
:101E10001EE1059B5B8803F01003002B09D0059B96
:101E20001B881B0A9BB203F0060343F0F0030793E1
:101E300004E0059B1B8803F0FE030793059B5B886A
:101E400003F00403002B03D0079B43F00103079327
:101E5000069B04221A70019B01225A60019B079A7B
:101E60005A62F5E0049B03F08003002B0CD0019B29
:101E700080221A63069BFF225A70069B08221A7062
:101E8000019B02225A6015E0049B03F04003002BE3
:101E900010D0019B40221A63059B5B8803F004036A
:101EA000002B03D0069B07221A7003E0069B052235
:101EB0001A70CCE0CCE000BF00A0004000A40040BD
:101EC000200500202C050020069B5A88069B1B79C4
:101ED0000599DB000B441B899A4224D3069B002200
:101EE0005A80069B1B790133DAB2069B1A71059B57
:101EF0005B8803F00403002B03D0069B03221A70B7
:101F0000A5E0059B5B8803F00103002B03D1069B32
:101F10001B79012B06D9069B08221A70019B02220D
:101F20005A6095E093E0069B1B79059ADB00134409
:101F30005A68069B5B88591C88B2069948801344EE
:101F40001B781A46019B5A62069B06221A707FE094
:101F5000049B03F08003002B0CD0019B80221A63AA
:101F6000069BFF225A70069B08221A70019B0222D0
:101F70005A600BE0049B03F04003002B06D0019B4A
:101F800040221A63069B05221A7060E060E0049B01
:101F900003F02003002B44D0069B1B79059ADB003D
:101FA00013441B890393019BDB698DF80B30069B5F
:101FB0005B881A46039B9A420FD2069B1B79059AAF
:101FC000DB0013445A68069B5B88591C88B206994B
:101FD000488013449DF80B201A70069B5B881A46B4
:101FE000039B9A420CD3039B012B02D1019B082235
:101FF0005A60069B08221A70019B02225A6010E068
:10200000019B04225A60039B012B0AD9069B5B8823
:102010001A46039B013B9A4203D1019B08225A6056
:1020200016E015E0049B03F48073002B07D0019B9E
:102030004FF480721A63069B09221A7008E007E0C9
:10204000069BFB225A70069B09221A7000E013E6D9
:10205000069B1B78092B0BD1019B00225A63069B20
:102060005B785BB2012B05D1069B00225A7001E020
:10207000012301E0069B5B785BB2184608B070470D
:1020800000B585B001900091019A304B9A4203D07F
:10209000019A2F4B9A4200D100BF019A2B4B9A42D2
:1020A00002D12C4B039308E0019A294B9A4202D1AA
:1020B000294B039301E0FC2343E0019B9B6803F061
:1020C0000103002B02D0019B20225A60009B5B88F9
:1020D00003F00203002B03D0009B1B89002B09D0C7
:1020E000009B5B8803F00403002B05D0009B1B8A38
:1020F000002B01D1FC2324E0039B00221A70039BD8
:1021000001225A70039B00225A80039B00221A71FD
:10211000039B009A9A60019BC0225A60019B9B6AB4
:1021200003F02003002B01D0019BDB69019B0B4ACC
:102130001A63019B4FF4FC625A630198FFF77EFD1E
:1021400003465BB2184605B05DF804FB00A00040F2
:1021500000A40040200500202C050020CFFF010036
:1021600084B001900091019A0D4B9A4203D1009BDB
:10217000012B00D800BF009B002B02D0012B04D004
:1021800007E0019B1B69039306E0019B5B690393D6
:1021900002E00023039300BF039B184604B070477E
:1021A0000020084086B0039002910192039A0F4BE1
:1021B0009A4208D1029B012B05D8019B1B0C1B04E2
:1021C000002B00D100BF029B002B02D0012B04D0BA
:1021D0000AE0039B1033059303E0039B143305933C
:1021E00000BF059B019A1A6006B0704700200840A6
:1021F00082B001900B468DF803309DF80330002B20
:1022000003D0019B01225A6002E0019B02225A6026
:1022100002B0704784B00190009100230393009BAB
:102220001B7883F00103DBB2002B08D0019B9B6875
:1022300003F00103002B02D0019B02225A60009B95
:102240005B78002B03D0039B43F480530393009BE4
:102250009B78002B03D0039B43F480630393009B84
:10226000DB78002B03D0039B43F400630393009BB4
:102270001B79002B03D0039B43F400730393009B53
:102280005B79002B03D0039B43F480730393009B83
:102290009B79002B03D0039B43F040030393009BE7
:1022A000DB79002B03D0039B43F080030393009B57
:1022B0001B7A9B00039A13430393009B5B7A1B01D9
:1022C000039A13430393009B9B7A039A134303934C
:1022D000019B039A1A60009B1B78002B08D0019B7E
:1022E0009B6803F00103002B02D1019B01225A607D
:1022F00004B0704782B001900091019B1B6C03F009
:102300000103002B00D006E000BF019B5A6C009B2C
:102310001340002BF9D102B0704700BF00B587B061
:10232000039002910192029B002B12D1039A164B4B
:102330009A4202D1154B059307E0039A144B9A4237
:1023400002D1144B059300E01BE00598FEF7AEFAAE
:102350000290029B5A01019BB2FBF3F30493049B8E
:10236000203B0493049BDB000493049A47F6F87324
:102370001340049303980421FFF7BCFF039B049AC6
:10238000DA6007B05DF804FB004008404005140027
:10239000004408404015160000B585B001900B467A
:1023A0008DF80330019A114B9A4203D0019A104BD9
:1023B0009A4200D100BF9DF80330DB430393039B97
:1023C00003F005030393039B5B0003939DF8033025
:1023D000039A1343039301980221FFF78BFF019B9C
:1023E000039A5A6005B05DF804FB00BF0040084046
:1023F0000044084082B001900B468DF803309DF8F0
:102400000330002B08D000BF019B5B6C002BFBD17D
:10241000019B01221A6402E0019B00221A6402B0AF
:10242000704700BF00B583B001900091019A1B4B2B
:102430009A4203D0019A1A4B9A4200D100BF0198E8
:102440000221FFF757FF019B0A225A6001980121E0
:10245000FFF7D0FF019B1B6823F01C02009B1B7B36
:102460001A43009B5B7B1A43009B9B7B1A43019B97
:102470001A60009B5A68009B9B68019811461A4697
:10248000FFF74CFF009B1B781A46019B5A6001988E
:102490000021FFF7AFFF03B05DF804FB00400840E8
:1024A0000044084082B0019000BF019B9B6803F08C
:1024B0002003002BF9D0019BDB69DBB2184602B088
:1024C000704700BF00B583B001900B468DF8033014
:1024D00000BF019B9B6803F01003002BF9D001980B
:1024E0004021FFF707FF9DF80320019B9A6203B08C
:1024F0005DF804FB72B6074B1B68B3F1FF3F04D0D5
:10250000044B1B685A1C034B1A60024B1B6818468D
:10251000704700BF3805002082B00B4B1B68002BB2
:102520000DD0094B1B685A1E074B1A60064B1B68DF
:102530000193019B002B00D162B6019B00E00023B8
:10254000184602B0704700BF3805002084B00190E3
:102550001A4B039302E0039B013B0393184BDB6987
:1025600003F00103002B02D0039B002BF3D1039B4C
:10257000002B01D1FD231CE0114B019A1A61104B75
:102580000122DA600E4BDB690293029B03F0060323
:10259000002B0DD0029B03F00403002B01D0FF237E
:1025A00007E0029B03F00203002B01D0FE2300E0B2
:1025B00000235BB2184604B0704700BF80969800B5
:1025C00000000C4000B589B00390029113468DF8CD
:1025D000073000238DF8173001230493029B002B52
:1025E00000F08E809DF80730002B3FD101F064FE93
:1025F0000023069335E0464A039B191D03911B688F
:102600009361069B01330693049B022B0FD100BFFD
:102610003F4BDB6903F00803002BF9D03C4A039BD6
:10262000191D03911B689361069B01330693384B78
:102630000822DA60374B079302E0079B013B0793C0
:10264000334BDB6903F00103002B02D0079B002B07
:10265000F3D1079B002B04D1FD238DF8173000BF69
:102660004EE0069A029B9A42C5D349E001F024FE4F
:1026700000230693FFF73EFF27E008E0244BDB69C9
:1026800003F01903102B02D1214B1022DA60204BEA
:10269000DB6903F00803002BF0D01D4B039A12688E
:1026A0009A61049B012B07D0049B022B07D1069B48
:1026B00003F00103002B02D0154B1022DA60039BBC
:1026C00004330393069B01330693069A029B9A42B6
:1026D000D3D3FFF721FF0F4B079302E0079B013B8A
:1026E00007930B4BDB6903F00103002B02D0079B20
:1026F000002BF3D1079B002B02D1FD238DF817305F
:102700009DF817305BB2184609B05DF804FB00BFB6
:1027100000000C408096980000B58BB003900291A9
:1027200001928DF8033000238DF81B302D4B2D4A7C
:10273000926842F001029A60019B9B080593002376
:102740000993029B07933CE0099B9B00039A134467
:102750001846FFF7FBFE03468DF81B309DF91B3032
:10276000002B02D09DF81B3037E0099B9B00039A99
:102770001344C3F30A03C3F500639B080893059A47
:10278000099BD21A089B9A4203D2059A099BD31A35
:1027900008939DF80330079808991A46FFF712FF2F
:1027A00003468DF81B309DF91B30002B00D00CE048
:1027B000099A089B13440993089B9B00079A1344AA
:1027C0000793099A059B9A42BED3064B054A926825
:1027D00022F001029A609DF81B305BB218460BB0E4
:1027E0005DF804FB00000C4084B001901B4B5B695A
:1027F000DBB203F00F03DBB29B008DF80F30174BF9
:102800001B6903F0C0039B09DAB29DF80F30134334
:102810008DF80F30019B9DF80F209A700F4B1B69AC
:10282000DBB203F03F03DAB2019B5A700B4B9B699A
:10283000DBB223F00F038DF80F30084BDB6903F098
:10284000F0031B09DAB29DF80F3013438DF80F30F7
:10285000019B9DF80F201A7004B07047D0FF0FE065
:1028600084B0039002910192039A2A4B9A420BD0B2
:10287000039A294B9A4207D0039A284B9A4203D0D5
:10288000039A274B9A4200D100BF019B1B789A06FE
:10289000019B5B781B061A43019B9B781B041A4320
:1028A000019BDB781B031A43019B1B799B021A4394
:1028B000019B5B791B021A43019B9B791A43019B85
:1028C000DB79002B02D04FF4001300E000231A4301
:1028D000019B1B7A002B02D04FF4801300E00023F1
:1028E0001A43019B5B7A002B01D0102300E00023E8
:1028F0001A43019B9B7A002B01D0042300E00023A4
:102900001A430399029B03331B010B441A6004B062
:10291000704700BF00000140000401400008014072
:10292000000C014000B587B00390029101928DF830
:102930000330029B002B03D12548FDF7B7FF02901F
:102940009DF80330202B0CD0202B02DC002B05D06F
:102950003BE0402B08D0602B09D036E010230593D4
:1029600008E00823059305E00623059302E004230D
:10297000059300BF029B9A00059B019901FB03F39D
:102980005B0813440493059B019A02FB03F3049A2A
:10299000B2FBF3F30493049B043B0493049B9B015D
:1029A0000493049A0B4B13400493039B1B6823F07E
:1029B0006002039B1A60039B1A689DF803301A4358
:1029C000039B1A60039B049A5A6107B05DF804FBED
:1029D00010810200C0FF1F0084B001900B468DF8EB
:1029E0000330019A124B9A420FD0019A114B9A422E
:1029F0000BD0019A104B9A4207D0019A0F4B9A4282
:102A000003D0019A0E4B9A4200D100BF9DF80330CB
:102A1000DB430393039B03F005030393039B5A00DB
:102A2000019BDA609DF80320019BDA6004B07047D7
:102A300000C0004000C4004000C8004000E000406A
:102A400000E4004000B583B001900091019A244B4E
:102A50009A420FD0019A234B9A420BD0019A224BF3
:102A60009A4207D0019A214B9A4203D0019A204BF7
:102A70009A4200D100BF019800F03CF8009B9B7C7B
:102A8000002B05D0019B1B6843F08042019B1A601C
:102A9000009BDB7C002B07D0009B1B7D43F01003C9
:102AA000DBB21A46019B9A65009B5B7B1A46009B32
:102AB0001B8A1A43009BDB891A43019B5A60009BC7
:102AC0005968009B9A68009B1B7B0198FFF72AFFBF
:102AD000009B1B781A46019BDA6003B05DF804FB8B
:102AE00000C0004000C4004000C8004000E00040BA
:102AF00000E4004082B00190019A234B9A420FD02B
:102B0000019A224B9A420BD0019A214B9A4207D04C
:102B1000019A204B9A4203D0019A1F4B9A4200D14E
:102B200000BF019B40F6AA62DA60019B00221A6096
:102B3000019B41F205025A60019B00229A60019BB1
:102B400000225A61019B0022DA64019B41F6F9726E
:102B50009A64019B00225A65019A0B4B9A4202D15A
:102B6000019B00221A65019B00229A65019A074B7E
:102B70009A4203D0019A064B9A4202D1019B00224D
:102B8000DA6502B0704700BF00C0004000C40040DA
:102B900000C8004000E0004000E4004082B0019026
:102BA00000BF019B1B6903F08003002BF9D0019B40
:102BB000DB69DBB2184602B0704700BF82B00190FB
:102BC0000B468DF8033000BF019B1B6903F04003E7
:102BD000002BF9D09DF80320019B5A6302B0704787
:102BE00082B0034600918DF807309DF80730052B21
:102BF00003D8009B0F2B00D800BF08489DF8072082
:102C0000009B012101FA03F319461346DB0013442C
:102C10009B0003441033596002B0704700600040CD
:102C200082B0034600918DF807309DF80730052BE0
:102C300003D8009B0F2B00D800BF08489DF8072041
:102C4000009B012101FA03F319461346DB001344EC
:102C50009B0003441033196002B0704700600040CD
:102C600000B583B001900091009B002B0ED0019B1A
:102C70001B78DBB21B09DAB2019B1B78DBB203F0D5
:102C80000F0310461946FFF7CBFF0DE0019B1B78A1
:102C9000DBB21B09DAB2019B1B78DBB203F00F0336
:102CA00010461946FFF79CFF03B05DF804FB00BF18
:102CB00000B583B001900B468DF803309DF90330C9
:102CC000B3F1FF3F04D10B480B494A2201F064FCE9
:102CD0000A480121FDF77AFD09480121FDF776FD3B
:102CE000019A13789DF8031061F30703137003B082
:102CF0005DF804FB148300002083000010810200B3
:102D000000D2020000B583B001900B468DF803306D
:102D1000019B5B78C3F38113DBB2002B4ED19DF88E
:102D20000330042B04D0122B06D0022B08D00BE06A
:102D300001238DF8033007E012238DF8033003E000
:102D400002238DF8033000BF9DF8033003F0100319
:102D5000002B19D02F48019B1B785BB21B11DBB2F3
:102D6000DBB203F00F02019B1B78DBB203F00F0311
:102D7000012101FA03F319461346DB0013449B00BB
:102D80000344103319602EE02248019B1B785BB28C
:102D90001B11DBB2DBB203F00F02019B1B78DBB22D
:102DA00003F00F03012101FA03F319461346DB0078
:102DB00013449B0003441033596014E09DF8033022
:102DC000042B04D0122B06D0022B08D00BE00423D6
:102DD0008DF8033007E00A238DF8033003E0072362
:102DE0008DF8033000BF9DF8033003F03F03D9B2E4
:102DF000019A537861F305035370019B1B785AB213
:102E00009DF803301046194600F048F903B05DF80C
:102E100004FB00BF0060004000B583B001900B468A
:102E20008DF803309DF8033003F00303D9B2019A03
:102E3000537861F3871353709DF80330002B02D051
:102E4000012B05D009E001980421FFF75BFF04E0A6
:102E500001980421FFF756FF00BF03B05DF804FBA3
:102E600082B00190024B019AC3F81C2102B0704756
:102E70000060004082B0064BD3F810310193044B40
:102E8000D3F81421019B1340184602B0704700BFCD
:102E90000060004082B0034600918DF807309DF835
:102EA0000730052B03D8009B0F2B00D800BF094922
:102EB0009DF807201346DB0013449B000B44183396
:102EC0005A68009B22FA03F303F00103184602B08C
:102ED000704700BF0060004000B585B003468DF824
:102EE00007309DF80720334B53F82230002B00D1D8
:102EF0005DE09DF8073003F00103002B0AD09DF838
:102F000007305B08DBB203F007032B4AD35C1B09D5
:102F1000DBB20AE09DF807305B08DBB203F0070381
:102F2000254AD35C03F00F03DBB29DF80720184657
:102F30001146FFF7AFFF03468DF80E3000238DF8E2
:102F40000F301E4BD3F80C219DF80730012101FAF8
:102F500003F31340002B07D09DF80E30002B03D154
:102F600002238DF80F3011E0144BD3F808219DF89F
:102F70000730012101FA03F31340002B06D09DF81E
:102F80000E30002B02D001238DF80F309DF8073052
:102F90001846FFF765FF0A4B1B689DF80710054AA6
:102FA00052F821109DF80F2008461146984705B0A9
:102FB0005DF804FB3C0500207C050020006000401B
:102FC0008405002000B589B001901BE0019B0693A9
:102FD000069B93FAA3F30593059B0493049BB3FA12
:102FE00083F30393039BDBB20793079B012202FA4F
:102FF00003F3DB43019A13400193079BDBB21846AE
:10300000FFF76AFF019B002BE0D109B05DF804FBDC
:1030100000B583B0FFF72EFF024645F2555313402B
:1030200001930198FFF71CFF0198FFF7CBFF03B056
:103030005DF804FB00B583B0FFF71CFF02464AF6BB
:10304000AA23134001930198FFF70AFF0198FFF7A5
:10305000B9FF03B05DF804FB82B0034600918DF820
:1030600007309DF80730052B03D8009B0F2B00D8A5
:1030700000BF09499DF807201346DB0013449B005D
:103080000B4408335A68009B22FA03F303F0010350
:10309000184602B0704700BF0060004070B586B0AF
:1030A00002460B468DF807208DF806309DF9073053
:1030B00063F0FF03B3F1FF3F04D1194819492D22F2
:1030C00001F06AFA184B1B68002B06D11748012142
:1030D000FDF77CFB144B01221A609DF90730059324
:1030E000059B03F00F030493059B1B090393039BAC
:1030F000DEB2049D9DF8063003F00F03DCB2039BA3
:10310000DAB2049B03F00F0310461946FFF7A4FF41
:103110000346304629462246FEF74EFC06B070BDF7
:10312000A0830000B88300008805002000D20200C0
:1031300082B0034600918DF807300CE0009B1B78AD
:103140009DF907205BB29A4202D1009B9B680AE07E
:10315000009B0C330093009B1B785BB2B3F1FF3FE5
:10316000ECD14FF0FF33184602B0704700B585B080
:10317000034600918DF807309DF90730B3F1FF3F0A
:1031800002D14FF0FF330EE09DF907301846009949
:10319000FFF7CEFF0390039BB3F1FF3F02D104483A
:1031A00001F050FA039B184605B05DF804FB00BF20
:1031B0003484000082B00190024B019A9A6102B0FF
:1031C000704700BF00000840014B1B69184670475C
:1031D0000000084000B583B0FFF7F6FF0190019BA7
:1031E00003F00103002B07D00120FFF7E3FF0B4B97
:1031F0001B685A1C094B1A60019B03F00203002B49
:1032000009D00220FFF7D6FF054B1B68002B02D028
:10321000034B1B68984703B05DF804FB8C05002046
:103220009005002082B0034600918DF807309DF98B
:103230000730002B0CDA0C499DF8073003F00F0320
:10324000043B009AD2B25201D2B20B441A7609E082
:1032500006499DF90730009AD2B25201D2B20B440E
:1032600083F8002302B0704700ED00E000E100E0C9
:1032700082B001900091019B009A9A6402B070475D
:1032800082B00190019BDA6A019B9B6B1340184648
:1032900002B0704708B503480021002200F02EFC60
:1032A00008BD00BF00E0004008B50548002101222C
:1032B00000F024FC02480121FFF7DAFF08BD00BF3F
:1032C00000E0004008B503480121002200F016FC90
:1032D00008BD00BF00E4004008B5054801210122F7
:1032E00000F00CFC02480121FFF7C2FF08BD00BF3F
:1032F00000E4004008B503480221002200F0FEFB74
:1033000008BD00BF00C0004008B5054802210122E9
:1033100000F0F4FB02480121FFF7AAFF08BD00BF3F
:1033200000C0004008B503480321002200F0E6FB7E
:1033300008BD00BF00C4004008B5054803210122B4
:1033400000F0DCFB02480121FFF792FF08BD00BF3F
:1033500000C4004008B503480421002200F0CEFB61
:1033600008BD00BF00C8004008B50548042101227F
:1033700000F0C4FB02480121FFF77AFF08BD00BF3F
:1033800000C8004008B50948FFF77AFF0346002B44
:1033900005D006480521002200F0B0FB04E00348F8
:1033A0000521012200F0AAFB08BD00BF0040084033
:1033B00008B50948FFF764FF0346002B05D006480F
:1033C0000621002200F09AFB04E0034806210122B6
:1033D00000F094FB08BD00BF0044084030B58DB03C
:1033E0000190019B1A68274B9A4204D0019B1A68EE
:1033F000254B9A421ED1254B08AC0FCB84E80F0019
:1034000000238DF820304FF416530A9300238DF8D3
:103410002C3000238DF82D3000238DF82E304FF402
:1034200000430993019B1A6808AB10461946FEF742
:10343000F9FF24E0164B02AC1D460FCD0FC495E8F2
:10344000030084E8030000238DF808304FF416537E
:10345000049300238DF8143005238DF815300023D4
:10346000ADF816304FF48053ADF81830094B039384
:10347000019B1A6802AB10461946FFF7E3FA0DB03C
:1034800030BD00BF004008400044084050840000A8
:1034900060840000C0CF6A0082B00190019B1B686D
:1034A000154A934216D0144A934209D8134A9342BC
:1034B00016D0134A934215D0124A93420ED017E009
:1034C000114A934210D0114A93420FD0104A9342AE
:1034D00002D00DE000230CE001230AE0022308E003
:1034E000032306E0042304E0052302E0062300E0B2
:1034F0000023184602B0704700E0004000C40040BE
:1035000000C8004000C0004000400840004408409F
:1035100000E4004082B00190019B1B68154A934271
:1035200016D0144A934209D8134A934216D0134A2C
:10353000934215D0124A93420ED017E0114A93429B
:1035400010D0114A93420FD0104A934202D00DE09E
:103550000F4B0CE00F4B0AE00F4B08E00F4B06E05F
:103560000F4B04E00F4B02E00F4B00E00F4B1846EF
:1035700002B0704700E0004000C4004000C80040B6
:1035800000C00040004008400044084000E4004003
:10359000003202000042020000020200001202009B
:1035A00000220200400514004015160010810200A0
:1035B00000B589B0019013460A468DF803208DF8B6
:1035C00002309DF9033018465D4901F0D5F80790A7
:1035D0009DF9023018465B4901F0CEF80690079835
:1035E000069901F089F80590059BB3F1FF3F05D1DD
:1035F0005548564940F2591200F0CEFF059A019BFA
:103600001A609DF9033018464D49FFF7AFFD04904D
:103610009DF9023018464B49FFF7A8FD0390049826
:10362000039901F069F80246019B5A60019B5B68AF
:10363000B3F1FF3F05D1464844494FF4B17200F061
:10364000ABFF019B9DF802201A72019B9DF803209D
:103650005A72019B1B683F4A934216D03D4A9342DF
:1036600009D83D4A93423DD03C4A934249D03C4A16
:10367000934228D060E03B4A934251D03A4A934269
:1036800054D03A4A93420FD056E0394B1420194691
:1036900000F0D6FD374B1520194600F0D1FD15205E
:1036A0000121FFF7BFFD47E0334B1620194600F01C
:1036B000C7FD324B1720194600F0C2FD172001212B
:1036C000FFF7B0FD38E02E4B0320194600F0B8FD9F
:1036D0002C4B0420194600F0B3FD04200121FFF714
:1036E000A1FD29E0284B0F20194600F0A9FD274B2A
:1036F0001020194600F0A4FD10200121FFF792FDD3
:103700001AE0234B1220194600F09AFD214B13209A
:10371000194600F095FD13200121FFF783FD0BE012
:103720001D4B1820194600F08BFD05E01B4B19209E
:10373000194600F085FD00BF09B05DF804FB00BF2D
:10374000EC80000000820000FC8400007C8400000B
:103750001085000000E0004000C4004000C80040A8
:1037600000C00040004008400044084000E4004021
:1037700095320000A9320000C5320000D9320000A5
:10378000F532000009330000253300003933000012
:10379000553300006933000085330000B133000069
:1037A00000B583B001900B468DF803309DF80330CF
:1037B000002B0ED0019B1B7A5BB218460121FFF74C
:1037C0006DFC019B5B7A5BB218461421FFF766FC27
:1037D0000DE0019B1B7A5BB218460021FFF75EFCEF
:1037E000019B5B7A5BB218460021FFF757FC03B0E0
:1037F0005DF804FB00B583B0019013460A468DF8CE
:1038000003208DF802309DF903209DF902300198C4
:1038100011461A46FFF7CCFE019B1A683F4B9A42AD
:1038200004D0019B1A683E4B9A4207D13D480221C1
:10383000FDF7FAF93C480121FCF7C8FF0198FFF7B2
:1038400069FE034618460121FCF7C0FF0198FFF707
:10385000C5FD9DF90330402B0DD19DF90230412B60
:1038600009D1019B1A68314B9A4204D101984FF457
:10387000E13100F0A7F8019B1A68284B9A4204D066
:10388000019B1A68264B9A4214D1019B1B68019A2E
:103890005268120242F003025A65019B1B68012222
:1038A0005A63019B1B68019A1268126842F44052E5
:1038B0001A600BE0019B1B68019A5268120242F0E9
:1038C00003025A65019B1B6801229A64019B1A68D6
:1038D000164B9A4207D1164B01221A6015480199DE
:1038E0005C2203F03EFD01980121FFF759FF01988A
:1038F000012100F021F8019B4FF0FF325A61019B3A
:1039000001221A74019B4FF0FF329A62019B01223F
:1039100083F8242003B05DF804FB00BF004008409A
:1039200000440840030012000043040000E000408F
:10393000B4050020B805002000B583B001900B4607
:103940008DF80330019B1A681B4B9A4204D0019BEF
:103950001A681A4B9A4211D19DF80330002B06D0F9
:10396000019B1B6818460521FEF716FD17E0019B19
:103970001B6818460021FEF70FFD10E09DF803308C
:10398000002B06D0019B1B6818460521FFF724F881
:1039900005E0019B1B6818460021FFF71DF8019800
:1039A000FFF77AFD03461A46054B002143F8221023
:1039B00003B05DF804FB00BF00400840004408402D
:1039C0009405002000B585B001900091019B1A6814
:1039D000414B9A4204D0019B1A68404B9A426FD1E6
:1039E000009BFF2B05DC3E483E494FF4FC7200F083
:1039F000D3FD009BB3F5804F4CDD009A3A4B9A42C1
:103A000004DC009A40F659539A4205DC37483549A0
:103A10004FF4FE7200F0C0FD35480621FDF704F9B1
:103A200001238DF80F30009A46F6CF239A4203DD2A
:103A300001238DF80F3014E0009A43F267539A4245
:103A400003DD02238DF80F300BE0009A41F6B3231B
:103A50009A4203DD04238DF80F3002E008238DF82D
:103A60000F300198FFF756FD02469DF80F301046C3
:103A70001946FCF78BFD019B19689DF80F301D4A14
:103A800092FBF3F31A46009B084611461A46FEF7CE
:103A900045FC1EE016480221FDF7C6F80198FFF725
:103AA00039FD034618460121FCF770FD019B1A6899
:103AB000009B10464FF400411A46FEF72FFC08E029
:103AC000019B1A68009B10460B491A460023FEF71B
:103AD00029FF05B05DF804FB0040084000440840A1
:103AE000388500007C840000F0B31A006085000077
:103AF00003001200E0673500C0CF6A0000B585B052
:103B00000390029113468DF807300A4B029A53F83E
:103B10002230002B0AD0084B1B68064A029952F843
:103B200021109DF8072008461146984705B05DF81A
:103B300004FB00BF94050020B005002000B583B051
:103B40000190019B1A680C4B9A4204D0019B1A68A1
:103B50000A4B9A4206D1019B1B681846FEF7A2FC4D
:103B6000034605E0019B1B681846FFF717F803465C
:103B7000184603B05DF804FB0040084000440840CC
:103B800000B583B001900091019B1A680D4B9A42D9
:103B900004D0019B1A680C4B9A4208D1019B1A6809
:103BA000009BDBB210461946FEF78CFC07E0019B38
:103BB0001A68009BDBB210461946FEF7FFFF03B000
:103BC0005DF804FB0040084000440840034B034AF2
:103BD000126922F004021A6130BF704700ED00E064
:103BE00072B6074B1B68B3F1FF3F04D0044B1B6850
:103BF0005A1C034B1A60024B1B681846704700BFE3
:103C00003805002082B00B4B1B68002B0DD0094BF0
:103C10001B685A1E074B1A60064B1B680193019BD9
:103C2000002B00D162B6019B00E00023184602B0D1
:103C3000704700BF3805002008B5104B1B68002BEB
:103C400000D019E00D4B5B68002B02D0FFF7BEFFE0
:103C500011E00A4B9B68002B03D00120FDF798FD73
:103C600009E0064BDB68002B03D00120FDF7E2FDE5
:103C700001E0FDF741FE00BF08BD00BF14060020B3
:103C800000B583B003468DF80730FFF7A9FF9DF814
:103C90000730064A52F82320511C044A42F82310E8
:103CA000FFF7B0FF03B05DF804FB00BF140600206F
:103CB00000B583B003468DF80730FFF791FF9DF8FC
:103CC0000720094B53F82230002B08D09DF807300D
:103CD000054A52F82320511E034A42F82310FFF7E9
:103CE00091FF03B05DF804FB1406002082B0034688
:103CF0008DF80730074B9DF9072052099DF80710F2
:103D000001F01F01012000FA01F143F8221002B076
:103D1000704700BF00E100E084B00390029101927F
:103D2000039A029B03331B011344019A5A6004B0A7
:103D3000704700BF82B001900091019B009A5A62C7
:103D400002B0704782B001900B468DF80330019AA3
:103D50000E4B9A420BD0019A0D4B9A4207D0019A12
:103D60000C4B9A4203D0019A0B4B9A4200D100BFF0
:103D70009DF80330002B03D0019B01225A6002E022
:103D8000019B02225A6002B0704700BF0000014050
:103D90000004014000080140000C014082B0019085
:103DA0000091019B009A9A6102B0704782B0019025
:103DB0000091019BDA68009BDB431A40019BDA60AB
:103DC00002B0704782B001900091019BDA68009BBD
:103DD0001A43019BDA6002B0704700BF82B00190C5
:103DE000019B1B69184602B0704700BF82B001906A
:103DF0000091019B009ADA6102B0704708B525482E
:103E0000FFF7ECFF034603F01003002B24D0224BF6
:103E10001B889BB2002B0FD01F4B1B889BB21D48E9
:103E200000211A46FFF778FF1B4B00221A80194821
:103E30001021FFF7B3FF0FE0184B1B68002B09D0D0
:103E4000164B1B685A1E154B1A6012481021FFF7BB
:103E5000A5FF01E000F05AFE0E48FFF7BFFF034642
:103E600003F00103002B13D00D4B1B685A1C0C4BA5
:103E70001A600C4B1B78DBB21A04094B1B689A4280
:103E800002D8074B00221A6002480121FFF786FF83
:103E900008BD00BF000001402A0600202C060020BB
:103EA000E40200203006002000B585B03E4B1B78B0
:103EB000002B76D13C4B01221A703C480121FCF7C3
:103EC00085FC3B480021FFF735FF3A4B07221A706B
:103ED000384B1B78DBB2002B04D1374837496022BE
:103EE00000F05AFB0023039309E0324B1B78DBB24E
:103EF0005B08DAB22F4B1A70039B013303932D4BEF
:103F00001B78DBB203F00103002B02D1039B0A2BC9
:103F1000EBD9274B264A126822F07061039A1206E9
:103F20000A431A6000238DF8003000238DF8013019
:103F300000238DF8023000238DF8033000238DF824
:103F4000043000238DF8053000238DF8063000235F
:103F50008DF8073000238DF8083000238DF80930E4
:103F600000238DF80A3002238DF806306B46104886
:103F700000211A46FEF774FC0D480121FFF722FFCD
:103F80000F4B0220194600F05BF90220FFF7AEFE4E
:103F900007484FF6FF71FFF729FF05480121FFF79A
:103FA000D1FE05B05DF804FB280600200052020097
:103FB0000000014030060020148600002886000022
:103FC000FD3D000030B587B0254B1B78002B01D19B
:103FD000FFF76AFF234B1B6803932348FFF7FEFE9E
:103FE000034603F00103002B02D0039B013303932C
:103FF0001D4B5B6A01931B4B1B6802931A48FFF72A
:10400000EDFE034603F00103002B02D0029B0133B7
:104010000293039A029B9A42DCD1029B1A464FF00C
:1040200000031D0445EA12451404019B1A464FF093
:10403000000342EA040243EA0503CDE904230B4BE3
:104040001B78DBB2DAB24FF00003DDE9040100F0C7
:104050008BFD02460B461346184607B030BD00BF25
:1040600028060020E4020020000001403006002065
:1040700030B587B0019000230593019B0493FFF7AF
:10408000A1FF03460393374BDB6803F01003002BBB
:1040900002D10120FFF7F4FD32481021FFF786FE20
:1040A000049A039BD31A05932F4B1B78DBB21A4655
:1040B000059B9A4209DB2C4B1B78DBB20593FFF77B
:1040C00081FF034603F580730193274B1B78DBB216
:1040D0001A46059B02FB03F30593234B1B78DBB2C7
:1040E0001A46049B02FB03F30493059B1A464FEA0E
:1040F000E273140C44EA03441D0C22461B4B1A6065
:10410000049B9AB21A4B1A80059B9BB2B3F5004FE1
:1041100013DA164B1B68002B0FD0154B1B889BB274
:1041200003F500430F4800211A46FFF7F5FD0F4B3A
:104130001B685A1E0D4B1A600AE00D4B1B889BB280
:10414000084800211A46FFF7E7FD094B00221A80B4
:1041500004481021FFF722FE02481021FFF732FE2B
:1041600007B030BD00000140300600202C060020C2
:104170002A06002008B5074BDB6803F01003002B6C
:1041800002D00120FFF794FD02481021FFF70EFE38
:1041900008BD00BF0000014008B502481021FFF72C
:1041A000FDFD08BD00000140074880470749084A57
:1041B000084B9B1A40F30580043BC858D0503FF78A
:1041C000FBAF054800470000FD430000C488000025
:1041D00000000020AC04002055010000FEE7FEE7CF
:1041E000FEE7FEE7FEE7FEE7FEE7FEE7FEE7FEE7A7
:1041F000FEE7FEE7FEE7FEE7FEE7FEE7FEE7FEE797
:10420000FEE7FEE7FEE7FEE7FEE7FEE7FEE7FEE786
:10421000FEE7FEE7FEE7FEE7FEE7FEE7FEE7FEE776
:10422000FEE7FEE7FEE7FEE7FEE7FEE7FEE7FEE766
:10423000FEE7FEE7FEE7FEE7FEE7FEE7FEE700BF7C
:1042400086B0034600918DF80730154B9B680593A7
:10425000134B9B68002B19D1059B0393114B0593BE
:10426000002304930CE0049B9B00059A1344049ADA
:10427000920003990A4412681A60049B0133049364
:10428000049B362BEFD9064B064A9A609DF90730FE
:1042900010339B00059A1344009A1A6006B07047C9
:1042A00000ED00E000020020024BDB6C1B0EDBB2D5
:1042B00018467047B081E00F00B583B000F020F8D9
:1042C00001900D4B1B6803F4E0339B0B0133019A03
:1042D000B2FBF3F30193084B5B6803F00F03019A01
:1042E00022FA03F30193054B019A1A60019B1846C9
:1042F00003B05DF804FB00BF00800C4034060020D2
:1043000000B583B02F4BDB6A03F47053B3F5805FC5
:104310000AD0B3F5005F03D0B3F5006F08D00BE00F
:10432000294B1B68019347E04FF40043019343E09E
:10433000264B1B6801933FE0224BDB6803F4E063EC
:10434000B3F5007F1BD0B3F5007F05D8002B24D038
:10435000B3F5807F16D02BE0B3F5806F09D0B3F5AD
:10436000A06F03D0B3F5407F06D021E0184B019336
:1043700021E0184B01931EE0174B01931BE0174BF4
:10438000019318E0FFF790FF0346122B02D9144B5C
:10439000019310E0134B01930DE0FFF785FF0346F7
:1043A000122B02D9104B019305E0104B019302E050
:1043B0000023019300BF00BF019B184603B05DF8C6
:1043C00004FB00BF00800C40EC020020E80200204B
:1043D000003FAB01406F4001809FD500C0D8A700CF
:1043E00040B56400C0CF6A00804F120040420F0009
:1043F000014B1B6818467047E8020020704700BF59
:104400004FF40043184670474FF47A7318467047CC
:10441000014B1B6818467047EC02002000B583B0C2
:10442000019000910198009900F006F8019B184650
:1044300003B05DF804FB00BF82B001900091019BC6
:10444000009A1A60019B00225A6102B0704700BFB7
:1044500000B583B00190019B143318460021FFF78B
:10446000DDFF019B184603B05DF804FB30B583B057
:104470000190019B03241D4604E0284600F01CF82F
:104480003435013CB4F1FF3FF7D1019B0022C3F862
:10449000D020019B0022C3F8D420019B002283F886
:1044A000D820019B184603B030BD00BF82B00190F8
:1044B000019B184602B0704700B583B00190019B84
:1044C00000221A60019B00225A60019B00229A6020
:1044D000019B0022DA60019B00221A61019B0022ED
:1044E0005A61019B00229A61002301991A1D9200D2
:1044F0000A440021D160032B01D00133F5E7019B71
:104500000022DA62019B002283F83020019B0433F1
:104510001846FFF79DFF019B184603B05DF804FBAA
:1045200000B583B001900091019B012B0CD1009A42
:104530004FF6FF739A4207D10548FFF797FF0448EB
:104540000449054A00F00AFB03B05DF804FB00BF14
:10455000380600205D450000E002002010B582B062
:104560000190019B002B0AD0019B03F1D004019B19
:104570009C4204D0343C2046FFF798FFF7E7019BAC
:10458000184602B010BD00BF08B501204FF6FF71FC
:10459000FFF7C6FF08BD00BF00B585B003900291CC
:1045A000019204480399029A019B00F04BF805B070
:1045B0005DF804FBA886000000B585B003AB184683
:1045C000432100F077F802AB1846422100F072F860
:1045D00001AB1846422100F06DF86B4618464321A6
:1045E00000F068F803AB18460121FEF739FB02AB77
:1045F00018460021FEF734FB01AB18460021FEF7F8
:104600002FFB6B4618460121FEF72AFB962000F08F
:1046100085FA03AB18460021FEF722FB02AB1846D1
:104620000121FEF71DFB01AB18460121FEF718FB27
:104630006B4618460021FEF713FB962000F06EFA39
:10464000D0E700BF0FB400B583B005AB0193054BB5
:104650001B68DB6818460499019A03F03BFA0120B5
:1046600002F040FC6403002000B585B00390019384
:104670000B468DF80B3013468DF80A309DF90B3040
:1046800003981946FEF714FB9DF90B30B3F1FF3F79
:104690000DD003980199FEF7E3FA03980121FEF784
:1046A000BBFB9DF80A3003981946FEF72BFB05B0BB
:1046B0005DF804FB00B583B001900B468DF8033024
:1046C0009DF9033001981946002200F003F803B069
:1046D0005DF804FB00B585B003900B4601928DF8A0
:1046E0000B309DF90B30039819460422019BFFF70C
:1046F000BBFF05B05DF804FB00B583B001900091ED
:10470000019A009B9A4201D1019B10E0019BB3F1F9
:10471000FF3F01D1009B0AE0009BB3F1FF3F01D1B5
:10472000019B04E00448FFF78DFF4FF0FF3318466C
:1047300003B05DF804FB00BFF086000082B00346C2
:1047400000918DF807300CE0009B1B789DF9072045
:104750005BB29A4202D1009B5B680AE0009B0C337B
:104760000093009B1B785BB2B3F1FF3FECD14FF09D
:10477000FF33184602B0704700B585B0034600917C
:104780008DF807304FF0FF3303939DF90730B3F1F5
:10479000FF3F02D14FF0FF330EE09DF9073018467E
:1047A0000099FFF7CBFF0390039BB3F1FF3F02D1CA
:1047B0000348FFF747FF039B184605B05DF804FB6D
:1047C0000487000008B5054B1B68002B00D004E0EF
:1047D000034840214122FFF70DF808BDB405002031
:1047E000B805002000B585B00190019B022B01DCCB
:1047F000002318E0019BDA1E0D4B53F8223003937F
:10480000019BDA1E0A4B002143F82210039B002B68
:1048100002D14FF0FF3306E0039B1B6804331B6893
:10482000039898470346184605B05DF804FB00BF9F
:104830001407002000B589B0039002910192009303
:10484000039B022B1ADC1A4B1B68002B01D1FFF7CC
:10485000B9FF002306930AE0029A069B13441B78D3
:1048600014481946FFF78CF9069B01330693069A04
:10487000019B9A42F0D3019B079313E0039BDA1E3E
:104880000D4B53F822300593059B002B02D14FF0BE
:10489000FF3308E0059B1B681B6805980299019A85
:1048A00098470790079B184609B05DF804FB00BFC6
:1048B000B4050020B80500201407002000B587B01B
:1048C0000390029101920093039B022B0FDC154B86
:1048D0001B68002B01D1FFF775FF1348FFF72EF976
:1048E0000346DAB2029B1A700123059314E0039B7E
:1048F000DA1E0E4B53F822300493049B002B02D196
:104900004FF0FF3309E0049B1B6808331B680498D1
:104910000299019A98470590059B184607B05DF8E3
:1049200004FB00BFB4050020B805002014070020D8
:1049300000B585B00190019B022B01DC012312E040
:10494000019BDA1E0A4B53F822300393039B002B82
:1049500002D14FF0FF3306E0039B1B680C331B684A
:10496000039898470346184605B05DF804FB00BF5E
:104970001407002000B587B0039002910192039BB9
:10498000022B01DC002314E0039BDA1E0B4B53F8CF
:1049900022300593059B002B02D14FF0FF3308E036
:1049A000059B1B6810331B6805980299019A98476C
:1049B0000346184607B05DF804FB00BF140700204B
:1049C00000B583B001900091019B012B05D0019BA4
:1049D000022B02D0019B002B05D1009B4FF400520B
:1049E0005A60002306E002F077FA034609221A60B3
:1049F0004FF0FF33184603B05DF804FB10B485B0E8
:104A00000190124B1B680393104B1A68019B1344CF
:104A10000293EFF308831C4623461A46029B9A42F0
:104A20008CBF00230123DBB2002B05D0084B0C22E6
:104A30001A604FF0FF3303E0044B029A1A60039BA5
:104A4000184605B05DF8044B704700BFF002002027
:104A50000C19002000B583B00190094B1B689B68BE
:104A6000184602F001FB064B1B68DB68184602F093
:104A7000FBFA019B002B01D0FFF79EFDFEE700BF74
:104A80006403002010B584B00190019B1B68DB68B3
:104A90009847019B5B685B68002B04D1019B1B68F6
:104AA0009B6898472FE0019B5B685B681C68019BD3
:104AB0001B685B6898470346E31A002B18DC019BD0
:104AC0005B685B680393019B5B68019A526852685C
:104AD00092685A60019B5B681B68002B07D0019BA2
:104AE0005B681B68039A5268104698470AE009E021
:104AF000019B1B681B69019A526852681268104634
:104B0000984700E0C5E704B010BD00BF08B50248F3
:104B1000FFF7B8FF08BD00BF5887000000B583B09D
:104B20000190019B4FF47A7202FB03F3184600F0E8
:104B300003F803B05DF804FB00B585B00190FFF702
:104B400041FA039000BFFFF73DFA0246039BD21AD9
:104B5000019B9A42F7D305B05DF804FB0346084673
:104B6000194602F0A9B900004BB942B9002908BFA3
:104B7000002802D04FF0FF31084600F03BB882B069
:104B8000EC462DE9005000F01DF8DDF804E002B01D
:104B90000CBC70472DE9704F089E14461D46804698
:104BA000894600F029F804FB01F3A4FB00AB00FBED
:104BB00005329344B8EB0A0869EB0B09C6E9008992
:104BC000BDE8708F2DE9704F089E14461D46804643
:104BD000894600F061F900FB05F5A0FB04AB04FB7E
:104BE0000154A344B8EB0A0869EB0B09C6E9008934
:104BF000BDE8708F704700BF00292DE9F00FC0F2AB
:104C0000A1800024002BC0F29880154606460F466E
:104C1000002B3FD18A4258D9B2FA82F34BB1C3F18B
:104C2000200201FA03F720FA02F29D4000FA03F68F
:104C30001743290CB7FBF1F201FB1277A8B200FB76
:104C400002F34FEA164C4CEA0747BB4209D97F19D9
:104C500002F1FF3C80F00581BB4240F20281023A42
:104C60002F44FF1AB7FBF1F301FB137100FB03F0B4
:104C7000B6B246EA0141884208D9491903F1FF3723
:104C800080F0F180884240F2EE80023B43EA02422B
:104C9000002303E08B420AD900231A461046194626
:104CA00014B1404261EB4101BDE8F00F7047B3FA27
:104CB00083F8B8F1000F40F088808B4202D3824223
:104CC00000F2E28000230122E8E712B90123B3FBDE
:104CD000F2F5B5FA85F2002A3AD17F1B280C1FFAAB
:104CE00085FC0123B7FBF0F100FB11770CFB01F20F
:104CF0004FEA164848EA0747BA4207D97F1901F137
:104D0000FF3802D2BA4200F2C4804146BF1AB7FB54
:104D1000F0F200FB12700CFB02FCB6B246EA004057
:104D2000844507D9401902F1FF3702D2844500F2C9
:104D3000AE803A4642EA0142B0E7E443524263EBB6
:104D4000430362E7404261EB41014FF0FF3459E712
:104D50009540C2F1200927FA09F126FA09F997408E
:104D6000280CB1FBF0F800FB18111FFA85FC0CFBB6
:104D700008F349EA07094FEA194747EA01418B421C
:104D800006FA02F608D9491908F1FF327AD28B42A5
:104D900078D9A8F102082944C91AB1FBF0F300FB45
:104DA00013170CFB03F21FFA89F949EA0747BA42C5
:104DB00007D97F1903F1FF3160D2BA425ED9023BB5
:104DC0002F44BF1A43EA08438CE7C8F1200225FAB2
:104DD00002F103FA08FC27FA02F320FA02F207FABA
:104DE00008F741EA0C0C4FEA1C49B3FBF9F109FB47
:104DF00011331FFA8CFA0AFB01FB17433A0C42EA03
:104E000003439B4505FA08F008D913EB0C0301F1A5
:104E1000FF3235D29B4533D902396344CBEB0303D0
:104E2000B3FBF9F209FB12330AFB02FABFB247EAFD
:104E30000347BA4508D917EB0C0702F1FF331BD221
:104E4000BA4519D9023A674442EA0145A5FB000177
:104E5000CAEB07078F424FF000030AD305D02A465A
:104E60001CE76246FDE63B4610E706FA08F6864276
:104E7000F5D26A1E002311E71A46E5E70B46A0E7C4
:104E80001146CBE7904687E74346424606E7023A9B
:104E900050E702392F4439E72DE9F00F1446054653
:104EA0000E46002B43D18A4253D9B2FA82F757B14A
:104EB000C7F1200620FA06F601FA07F302FA07F412
:104EC00000FA07F51E43210CB6FBF1F201FB126656
:104ED000A0B200FB02F32F0C47EA0646B34209D901
:104EE000361902F1FF3780F0FD80B34240F2FA80BC
:104EF000023A2644F61AB6FBF1F301FB136100FBFC
:104F000003F0ADB245EA0141884208D9091903F11D
:104F1000FF3680F0E980884240F2E680023B43EAB7
:104F20000242002310461946BDE8F00F70478B423D
:104F30004CD8B3FA83F6002E4FD18B4202D3824273
:104F400000F2DD80BDE8F00F002301221046194673
:104F5000704712B90124B4FBF2F4B4FA84F2002AC7
:104F600040F08280091B260CA7B20123B1FBF6F0AA
:104F700006FB101107FB00F24FEA154C4CEA014109
:104F80008A4207D9091900F1FF3C02D28A4200F295
:104F9000C8806046891AB1FBF6F206FB121107FBC6
:104FA00002F7ADB245EA0145AF4208D92C1902F12A
:104FB000FF3180F09B80A74240F29880023A42EA9B
:104FC000004210461946BDE8F00F704700231A460C
:104FD00010461946BDE8F00F7047C6F1200522FAC9
:104FE00005F703FA06F421FA05F301FA06FB20FAA5
:104FF00005F53C434FEA1448B3FBF8FC08FB1C33AF
:105000001FFA84F909FB0CFA45EA0B0B4FEA1B4522
:1050100045EA03439A4502FA06F204D91B190CF13A
:10502000FF356FD3AC46CAEB0303B3FBF8F508FBBF
:10503000153309FB05F91FFA8BFB4BEA0347B9450A
:1050400004D93F1905F1FF3362D31D4645EA0C4CE4
:10505000ACFB0223C9EB07079F424FF000054AD380
:1050600046D062462B465DE79440C2F1200921FA02
:1050700009FC914020FA09F9260CBCFBF6F806FB66
:1050800018CCA7B207FB08F349EA01094FEA194116
:1050900041EA0C4C634500FA02F509D91CEB040CFB
:1050A00008F1FF323BD2634539D9A8F10208A44484
:1050B000C3EB0C0CBCFBF6F306FB13C107FB03F2BE
:1050C0001FFA89F949EA01418A4207D9091903F10E
:1050D000FF3022D28A4220D9023B2144891A43EA76
:1050E000084343E73A4605E7334618E70A4666E7CA
:1050F000B0409042B5D20CF1FF32002312E73346A4
:1051000032460FE79A458DD9ACF1020C23448AE769
:10511000B9459AD9023D274498E70346DEE7904611
:10512000C6E70238214435E700B585B002200021EA
:10513000FCF714FC0220012105220123FCF73CFCB2
:105140000320002101220023FCF736FC0220FFF798
:10515000E5FC882302220092EC2019460122764BBE
:1051600001F010F98A2302220092EC201946012254
:10517000724B01F007F98C2302220092EC201946B1
:1051800001226F4B01F0FEF88E2302220092EC20E8
:10519000194601226B4B01F0F5F890230222009290
:1051A000EC2019460122684B01F0ECF89223022210
:1051B0000092EC2019460122644B01F0E3F894239D
:1051C00002220092EC2019460122614B01F0DAF82C
:1051D000962302220092EC20194601225D4B01F039
:1051E000D1F8982302220092EC20194601225A4B52
:1051F00001F0C8F89A2302220092EC2019460122FD
:10520000564B01F0BFF89C2302220092EC20194675
:105210000122534B01F0B6F89E2302220092EC20AB
:10522000194601224F4B01F0ADF8A1230122009253
:10523000EC20194601224C4B01F0A4F8E123022294
:105240000092EC2019460122484B01F09BF8E32321
:1052500001220092EC2019460122454B01F092F800
:10526000E42302220092EC2019460122414B01F076
:1052700089F8E52302220092EC20194601223E4BD8
:1052800001F080F83B4B1B889BB2DBB29BB21B0149
:10529000ADF80E30374B1B889BB203F470631B12C2
:1052A0009AB2344B1A80334B1A88BDF80E30134330
:1052B0009AB2304B1A80304B1B881BB203F47F43E9
:1052C0001B11ADF80E302C4B1B889BB203F0F00382
:1052D0001B119AB2284B1A80274B1A88BDF80E3042
:1052E00013439AB2244B1A80E72301220092EC2048
:1052F00019460122214B01F045F801238DF80D30AC
:105300000DF10D0301220092EC20F221012200F0A8
:10531000E5FF24238DF80D300DF10D0301220092DD
:10532000EC20F421012200F0D9FF012000F028F840
:1053300005B05DF804FB00BF2C0800202E080020FB
:1053400030080020320800203408002036080020F1
:10535000380800203A0800203C0800203E080020C1
:105360004008002042080020440800204608002091
:10537000480800204A0800204C0800204E08002061
:1053800000B587B003468DF80F300DF117030122E9
:105390000092EC20F421012200F0F4FF9DF8173078
:1053A000DBB223F00303DAB29DF80F301343DBB214
:1053B000DBB28DF817300DF1170301220092EC20BB
:1053C000F421012200F08AFF07B05DF804FB00BF62
:1053D00000B587B0002305930023049300230393B3
:1053E00005AB02220092EC20F721012200F0CAFF57
:1053F00003AB02220092EC20FA21012200F0C2FF4E
:1054000004AB02220092EC20FD21012200F0BAFF41
:10541000039B184600F0AEFA03460393059B18461B
:1054200000F0A8FA03460593049B184600F0A2FA80
:1054300003460493039B1B010393059B1B010593E8
:10544000039B184600F03CF80246104B1A60059B7F
:10545000184600F071F803461B0A40F2271202FBBF
:1054600003F20B4BA3FB02135A0B0A4B1A60049B6B
:10547000184600F01BFA024613469B0013445B00DB
:105480009A0A054B1A6007B05DF804FB1C0800205F
:105490005917B7D12008002024080020014B1B68B1
:1054A000184670471C080020014B1B6818467047BF
:1054B00020080020014B1B68184670472408002074
:1054C00086B00190019BDA10174B1B885B00D31A42
:1054D000164A128812B202FB03F3DB120593019BFA
:1054E0001A11114B1B88D31A019A11110E4A1288F6
:1054F0008A1A02FB03F31B130D4A128812B202FB35
:1055000003F39B130493059A049B1A44094B1A60F6
:10551000084B1A6813469B00134480331B120393F5
:10552000039B184606B070472C0800202E08002068
:1055300030080020280800202DE9F04FA1B0199074
:105540005D4B1B681A464FEAE273B2F5FA3243F13B
:10555000FF33CDE91E231F9A1E9B03FB02F11F9A06
:105560001E9B03FB02F319441E9A1E9BA2FB0345DC
:105570004B191D46514B1B881AB24FEAE27302FBCE
:1055800005F004FB03F10144A4FB022319440B467C
:10559000CDE91C23CDE91C23494B1B881AB24FEAE5
:1055A000E2731E9903FB01F01F9902FB01F108440D
:1055B0001E99A1FB0223C1180B465F0447EAD237AC
:1055C0005604DDE91C23921943EB0703CDE91C23A4
:1055D0003C4B1B881AB24FEAE273D00017900021AF
:1055E0001691DDE91C23DDE91645121943EB05038D
:1055F000CDE91C231F9A1E9B03FB02F11F9A1E9BE1
:1056000003FB02F319441E9A1E9BA2FB03454B1990
:105610001D462D4B1B881AB24FEAE27302FB05F0C0
:1056200004FB03F10144A4FB022319440B46150AB1
:105630001495DDF850C04CEA036CCDF850C0181238
:105640001590224B1B8818B24FEAE071DDE91E234A
:10565000121843EB01034FEA033949EA12594FEAA2
:105660000238DDE9142312EB080243EB0903CDE90C
:105670001E23DDE91E23101C43F50041144B1B883B
:105680009AB24FF0000302FB01F500FB03F42C4437
:10569000A0FB0223E1180B4659100A91DC170B946A
:1056A000DDE90A23CDE91E23DDE91E2352EA0304C6
:1056B00010D10023EFE000BF280800203C080020A4
:1056C0003A0800203808002036080020340800205E
:1056D00032080020199BC3F580131A464FEAE27383
:1056E000CDE91A23DDE91A23DD071395DDF84CC057
:1056F0004CEA520CCDF84CC0D0071290DDE91C23C7
:10570000DDE91201801A61EB030102460B46921893
:1057100043EB0303121843EB01039C010994099D19
:1057200045EA926509954FEA821CCDF820C0DDE973
:105730000845121943EB05039D000795DDF81CC0D1
:105740004CEA927CCDF81CC094000694DDE9062357
:10575000121843EB01039D000595DDF814C04CEAD7
:10576000927CCDF814C094000494DDE9042312184F
:1057700043EB010310461946DDE91E2301F080FBCF
:1057800002460B46CDE91A23454B1B881CB24FEA53
:10579000E475DDE91A234FEA523CCDF840C0109879
:1057A00040EAC340109059131191109B03FB05F27E
:1057B000DDF844C004FB0CF3D1181098A4FB0023BF
:1057C00019440B46DDE91A014FEA503A4AEAC14A48
:1057D0004FEA613B0AFB03F002FB0BF10144A2FB21
:1057E0000A2319440B46510E0291029C44EAC31449
:1057F00002945D160395DDE90245CDE91E45294B6E
:105800001B881AB24FEAE2731A9903FB01F01B9945
:1058100002FB01F101441A98A0FB022319440B4634
:10582000D50C0095DDF800C04CEA433CCDF800C033
:10583000D8140190DDE90045CDE91C45DDE91A01E8
:10584000DDE91E23801841EB0301DDE91C2312185A
:1058500043EB0103150A0E95DDF838C04CEA036CE2
:10586000CDF838C018120F900F4B1B881AB24FEAB0
:10587000E27319010D910D9C44EA12740D94150107
:105880000C95DDE90E23DDE90C45121943EB050308
:10589000CDE91A231A9B184621B0BDE8F08F00BF4E
:1058A00042080020400800203E08002084B00190FB
:1058B000294B1B68A3F596330393019B9A03274B4F
:1058C0001B881BB21B05D21A254B1B881BB20399E0
:1058D00001FB03F3D31A03F58043DB13214A12784B
:1058E00052B2039901FB02F292121F490978039800
:1058F00000FB01F1C91201F5004101FB02F2921215
:1059000002F500121949098809B201FB02F202F5F9
:105910000052921302FB03F30393039BDB13039ADE
:10592000D21302FB03F3DB11114A127802FB03F3DB
:105930001B11039AD31A0393039B23EAE373039384
:10594000039BB3F1C85FA8BF4FF0C8530393039BF9
:105950001B13184604B07047280800204A0800208E
:105960004C0800204E08002048080020460800206F
:105970004408002084B00190019B1B029BB203935A
:10598000019B03F47F431B120193019A039B134372
:105990000193019B184604B0704700BF82B00346D4
:1059A0008DF80730074B9DF9072052099DF8071025
:1059B00001F01F01012000FA01F143F8221002B0AA
:1059C000704700BF00E100E000B583B0074B0193D2
:1059D00000238DF800306B461846FBF7A3FD00202E
:1059E000FFF7DCFF03B05DF804FB00BF0000002000
:1059F00082B003468DF807309DF80730064A1B0138
:105A0000134408331A6843F6F07313401B099BB222
:105A1000184602B0704700BF0000002082B001901D
:105A2000019B1B681B681B0EDBB2184602B0704757
:105A300000B583B00190019B1B68184604490622FB
:105A400002F042FB0346184603B05DF804FB00BFBA
:105A5000F402002000B583B00190019B1B6818463A
:105A60000449062202F030FB0346184603B05DF8F5
:105A700004FB00BFF802002084B00190019B1B686A
:105A8000039309E0039B1B68B3F1FF3F01D00023A0
:105A900008E0039B04330393019B5A68039B9A42DB
:105AA000F0D20123184604B0704700BF00B585B09E
:105AB000019013460A46ADF80220ADF80030019B74
:105AC0001B68043303931CE0039B1B68B3F1FF3F87
:105AD00014D1BDF802301B041A46BDF80030134340
