:1000000000800020BD340000F3340000F53400000F
:10001000F7340000F9340000FB340000F134000034
:10002000F1340000F1340000F1340000FD34000030
:10003000FF340000F13400000135000003350000FA
:10004000CD11000021230000093500000B35000010
:100050000D3500000F35000011350000133500008C
:100060001535000017350000193500004523000044
:100070001D3500001F35000021350000233500002C
:100080002535000027350000293500002B350000FC
:100090002D3500002F3500003135000033350000CC
:1000A0003535000037350000F94700003B350000CA
:1000B0003D3500003F350000E524000043350000D9
:1000C0004535000047350000493500004B3500003C
:1000D0004D3500004F350000513500000000000094
:1000E0000000000000000000000000000000000010
:1000F0000000000000000000000000000000000000
:1001000010B5054C237833B9044B13B10448AFF351
:1001100000800123237010BD640100200000000056
:10012000E45E000008B5064B1BB106480649AFF374
:1001300000800648036813B1054B03B1984708BD1A
:1001400000000000E45E000068010020640100205F
:1001500000000000154B002B08BF134B9D46A3F574
:10016000803A00218B460F461348144A121A04F0B5
:1001700032FE0F4B002B00D098470E4B002B00D0C7
:1001800098470020002104000D000D48002802D0EF
:100190000C48AFF3008004F095FD2000290004F026
:1001A000B5FB04F0DFFB00BF00000800008000206A
:1001B0000000000000000000640100207404002022
:1001C000000000000000000086B003900291019240
:1001D000039B03F10473DA00029B13449B00059315
:1001E000059B019A1A6006B0704700BF82B001906B
:1001F00013460A468DF803208DF80230019B5B6898
:1002000023F0F7029DF803301B011A439DF80230DA
:100210001A43019B5A6002B0704700BF00B583B01B
:1002200001900091019A1F4B9A4203D0019A1E4BF4
:100230009A4200D100BF009B1B78DA07009B5B78D5
:100240009B0713431A46009B5B681B061A43009BDF
:100250001B7A5B041A43009B5B7A1B041A43009BC6
:100260009B7A1B021A43009BDB7A1B011A43009BFB
:100270001B7B9B001A43019B1A60009B5B7B1B044A
:100280001A46009B1B691B021A43019B5A60019A84
:10029000009B1B7D104600211A46FFF795FF03B017
:1002A0005DF804FB001000400014004086B003908D
:1002B00002910192039B03F10473DA00029B134441
:1002C0009B000593059B019A1A6006B0704700BF1A
:1002D00082B0204BDB6C03F47F031B0C8DF80730DE
:1002E0009DF807304A2B04D04B2B2CD0482B28D01C
:1002F0002BE0194B1B699BB203F03F039BB21B021F
:10030000ADF80430144B9B699BB203F0F0039AB232
:10031000BDF804301343ADF804300F4BDB6903F034
:10032000F0031B099AB2BDF804301343ADF8043052
:10033000BDF80430B3F5017F01D3084B06E0084B4C
:1003400004E0074B02E0054B00E00023184602B032
:10035000704700BFB081E00FD0FF0FE000366E01A4
:100360000048E80184B001902A4BDB6B002B0CBFE6
:10037000002301238DF80A30264B41F67132DA63EF
:10038000244B5B6803F007030393039B012B01D904
:10039000042B03D100238DF80B3003E001238DF8EB
:1003A0000B3000BF019A1C4B9A4208D99DF80B30C4
:1003B000002B01D0052300E00423039318E0019AE9
:1003C000154B9A420CD8019A144B9A4208D99DF8C1
:1003D0000B30002B01D0032300E00123039307E03F
:1003E0009DF80B30002B01D0022300E00023039383
:1003F000084B084A526822F00701039A0A435A60E0
:100400009DF80A30002B02D0024B0022DA6304B0C0
:10041000704700BF00000C400048E8010024F400D1
:1004200000B583B0034B01930198FFF79BFF03B026
:100430005DF804FB006CDC0286B00190019B002B90
:1004400004D0019BB3F5004F00D800BF019B04937B
:10045000049BB3FA83F30393039BDBB2C3F11F0343
:100460000593059B184606B0704700BF00B583B0E2
:10047000104800F089FB03468DF803309DF80330E7
:10048000032B07D0082B09D0022B0BD103F04AF91C
:1004900001900AE003F03EF9019006E003F0BAF89B
:1004A000019002E00023019300BF019B184603B0B6
:1004B0005DF804FB05231C0082B0194B5B6903F453
:1004C000E063B3F5007F14D0B3F5007F05D8002BAF
:1004D00015D0B3F5807F0FD01AE0B3F5C06F14D0FC
:1004E000B3F5E06F0ED0B3F5407F11D10D4B019302
:1004F00011E00D4B01930EE00C4B01930BE00C4B04
:10050000019308E00B4B019305E00B4B019302E0D4
:100510000023019300BF019B184602B0704700BF43
:1005200000800C4040420F00C0CF6A00C0D8A70036
:10053000809FD500406F4001003FAB0100B583B004
:10054000124800F021FB03468DF803309DF803307C
:10055000072B0FD0082B11D103F05CF801900C4B46
:100560001B6803F4E0339B0B0133019AB2FBF3F3F6
:10057000019306E0FFF7A0FF019002E00023019342
:1005800000BF019B184603B05DF804FB040018008F
:1005900000800C4000B585B00190019B002B02D07B
:1005A000019B012B00D100BF264B9A6A019B5B0087
:1005B00022FA03F303F00303032B3BD801A252F802
:1005C00023F000BF15060000D5050000DD05000082
:1005D000E505000003F09EF803902EE003F0A2F87A
:1005E00003902AE0174B5B6803F48073002B05D15E
:1005F000144B1B6803F08043002B05D002F0E6FF8C
:1006000003469B08039318E002F0E0FF03465B08F3
:10061000039312E00B4B9A6A019B04339B0022FA6E
:1006200003F3002B03D003F079F8039005E00023D7
:10063000039302E00023039300BF039B184605B019
:100640005DF804FB00800C4082B00190074B5B6DAD
:1006500003F00103002B00D006E000BF034B1A6D2E
:10066000019B1340002BF9D102B0704700800C4071
:1006700030B585B001900091019B1B0903F00F0379
:100680000393039B013B042B00F2FF8001A252F86D
:1006900023F000BFDD06000007070000730700001D
:1006A00037080000A9060000009B002B03D0009B28
:1006B000082B00D800BFFFF7B3FE754B744A1268D1
:1006C00022F4E031009A013A92030A431A6002F0E0
:1006D0007DFF02900298FFF745FED7E0009B002BBC
:1006E00004D0009BB3F5007F00D800BF0098FFF74F
:1006F000A3FE0090664B664A926822F00F01009AB2
:100700000A439A60C2E0FFF78BFE512000F040F9E7
:100710000246009BB2FBF3F4FFF7DAFD03469C426E
:100720000AD85B481E210022FFF7C0FD5948082166
:100730000022FFF7BBFD09E055481E210122FFF70B
:10074000B5FD544808210122FFF7B0FD0098FFF7DE
:1007500073FE00904E4B4E4A526822F00F01009AF1
:100760000A435A6002F032FF02900298FFF7FAFD46
:100770008CE0019B484A93421ED0474A934203D8DB
:10078000464A934207D055E0454A934225D0454A10
:1007900093423FD04EE00420FFF756FF0098FFF74A
:1007A0004BFE00903A4B3A4A926E22F0F001009ACA
:1007B00012010A439A663DE00420FFF745FF0098C6
:1007C000FFF73AFE0090324B314A926E22F470618C
:1007D000009A12020A439A662CE0009B0F2B03D961
:1007E000009B802B00D800BF0420FFF72DFF00984E
:1007F000FFF722FE0090264C254B9B6E23F44055BC
:100800001020FFF719FE0346009AD31A1B032B434F
:10081000A3660FE00420FFF717FF0098FFF70CFE18
:1008200000901B4B1A4A926E22F00301009A0A4371
:100830009A6600BF2AE0019B1B4A934203D01B4AE1
:10084000934210D020E04020FFF7FEFE0098FFF713
:10085000F3FD00900E4B0E4A126F22F00301009A36
:100860000A431A6710E04020FFF7EEFE0098FFF7FA
:10087000E3FD0090064B064A126F22F03001009A09
:1008800012010A431A6700BF00E000BF05B030BD87
:1008900000800C4004800C4030240A003014080012
:1008A00030000C0030041000400514004015160004
:1008B00010B586B001900B468DF8033000230493E9
:1008C000019B1B0A03F00F03013B052B4BD801A230
:1008D00052F823F0ED080000F3080000F9080000CA
:1008E00027090000310900003B0900001F4B059358
:1008F00026E01F4B059323E01E4B05931E4800F096
:1009000047F80446FFF7E4FC03469C420AD91B481B
:100910001E210122FFF7CAFC194808210122FFF716
:10092000C5FC0DE00CE0174B05930123049307E091
:10093000154B05931023049302E0144B059300BF5D
:10094000019B1B0B03F01F030393049B002B02D09E
:100950000498FFF779FE9DF80330059803991A462D
:10096000FFF7A4FC00E000BF06B010BD08800C40FB
:1009700044800C4040800C402000040000800C406B
:1009800004800C4058800C4060800C4078800C4003
:1009900010B584B00190019B03F47813B3F5602F78
:1009A00000F09980B3F5602F18D8B3F5C02F5ED052
:1009B000B3F5C02F08D8B3F5003F3ED0B3F5802F74
:1009C00051D0002B2BD0D6E0B3F5202F62D0B3F559
:1009D000402F6DD0B3F5002F4ED0CCE0B3F5B01F53
:1009E00000F0AF80B3F5B01F0CD8B3F5901F00F046
:1009F0009680B3F5A01F00F09780B3F5801F00F03C
:100A00008180B8E0B3F5D01F00F0AD80B3F5E01FF2
:100A100000F0AD80B3F5C01F00F0A180ABE002F0A4
:100A2000F9FD0390574B1B6803F4E0339B0B013334
:100A3000039AB2FBF3F30393A0E002F0EBFD039003
:100A4000504B1B6803F4E0339B0B0133039AB2FB5A
:100A5000F3F303934B4B9B6803F00F03039A22FAC3
:100A600003F303938AE002F0B1FD039086E00020D7
:100A7000FFF790FD039081E00020FFF78BFD0390CE
:100A8000404B9B6E03F0F0031B09039A22FA03F319
:100A9000039373E00020FFF77DFD0390394B9B6EBD
:100AA00003F470631B0A039A22FA03F3039365E0CD
:100AB0000020FFF76FFD0390324B9B6E03F4405311
:100AC0001C0B1020FFF7B8FC03462344039A22FABC
:100AD00003F3039352E00020FFF75CFD0390294BE2
:100AE0009B6E03F440531B0B039A22FA03F3039308
:100AF000244BDB6F03F007030133039AB2FBF3F3DC
:100B000003933BE00020FFF745FD03901D4B9B6ED8
:100B100003F00303039A22FA03F303932EE0012068
:100B2000FFF738FD039029E00120FFF733FD039024
:100B3000144B1B6F03F00303039A22FA03F303938E
:100B40001CE00120FFF726FD03900E4B1B6F03F006
:100B500030031B09039A22FA03F303930EE0FFF715
:100B6000EDFC03900AE0FFF7A7FC039006E0FFF717
:100B70007DFC039002E00023039300BF039B184613
:100B800004B010BD00800C4086B0019001238DF8A8
:100B900017304FF470530493019B03F00F0303933A
:100BA000039B013B042B00F2A58001A252F823F025
:100BB000C50B0000030C0000470C00008B0C00006C
:100BC000B70C0000504BDA6A049B1340B3F5805F0A
:100BD0000AD0B3F5005F03D0B3F5006F08D00BE087
:100BE00002238DF817300BE003238DF8173007E050
:100BF00004238DF8173003E005238DF8173000BF6C
:100C00007CE0414B9B6A03F00303022B07D0032BCC
:100C100009D0012B0BD103238DF8173012E00223EA
:100C20008DF817300EE006238DF817300AE0364BAA
:100C30009B6A03F48033002B03D009238DF817300F
:100C400000E000BF5AE0304B9B6A03F00C03082B16
:100C500007D00C2B09D0042B0BD103238DF81730B0
:100C600012E002238DF817300EE006238DF81730BE
:100C70000AE0254B9B6A03F48013002B03D0092361
:100C80008DF8173000E000BF38E007238DF81730EB
:100C90001D4B1B6803F08053002B03D0B3F1805F22
:100CA00004D02BE007238DF8173003E008238DF8DC
:100CB000173000BF22E0144BDB6A03F46033B3F556
:100CC000803F06D0B3F5003F07D0B3F5004F08D002
:100CD0000BE002238DF817300BE003238DF817305B
:100CE00007E008238DF8173003E001238DF8173053
:100CF00000BF03E000238DF8173000BF9DF81730C8
:100D0000184606B0704700BF00800C4010B588B090
:100D100001900B468DF803300323079303238DF8CE
:100D20001B3000230593019B03F00F030393039BE8
:100D3000013B042B00F2358101A252F823F000BFE1
:100D4000550D00002F0E00002F0E00000D0F0000AB
:100D5000390F00009DF80330023B072B00F223817E
:100D600001A252F823F000BF890D0000950D00008C
:100D7000A10D0000F70D0000A70F0000A70F000055
:100D8000A70F0000030E00000423079300238DF833
:100D90001B3037E00323079301238DF81B3031E02C
:100DA0000223079302238DF81B3002F0ABFC0446AC
:100DB000FFF78EFA03469C4213D97D4A7C4B1B6891
:100DC00043F0804343F060031360794B1B6C03F0E6
:100DD0001003002B0ED0774808210122FFF766FA96
:100DE00010E0734B724A126822F0600242F0200257
:100DF0001A6007E006E00123079303238DF81B30F8
:100E000000E000BF9DF81B3018460121012200F0D0
:100E1000D5F8FFF705FB664B079A5A6200F0EEFB28
:100E200002F0D4FB02900298FFF79CFABEE09DF816
:100E30000330013B082B00F2B88001A252F823F0E6
:100E4000650E00006B0E00007B0E0000AB0F000073
:100E5000AB0F00008B0E0000AB0F0000AB0F0000CB
:100E6000C30E00000023049330E000200121012282
:100E700000F0A4F80223049328E0012001210122BC
:100E800000F09CF80123049320E04B480421012248
:100E9000FFF70CFA0323049302F098FB0290FFF78C
:100EA00017FA0246029B9A420AD241481E210122A9
:100EB000FFF7FCF93F4808210122FFF7F7F905E0A9
:100EC00004E0002304930123059300BF039B022B3E
:100ED0000DD1374A364B9B6A23F4803323F003034A
:100EE00004991943059B1B040B4393625EE0304A4F
:100EF0002F4B9B6A23F4801323F00C030499890081
:100F00001943059B1B050B4393624FE09DF803308B
:100F1000072B02D0082B07D048E0254B244A126843
:100F200022F080521A6006E0214B214A126842F0FA
:100F300080521A6000BF39E09DF80330032B14D0B3
:100F4000082B22D0022B00D030E00020012101220A
:100F500000F034F8164B40225A6200BF144BDB6A93
:100F600003F48033002BF9D01AE001200121012283
:100F700000F024F80E4B60225A6200BF0C4BDB6A73
:100F800003F40033002BF9D00AE0094B20225A6207
:100F900000BF074BDB6A03F40043002BF9D000BF0E
:100FA00004E000BF02E000BF00E000BF08B010BDD9
:100FB00000800C4004800C4040800C4000B587B09D
:100FC000134602468DF807200A468DF806208DF854
:100FD00005309DF80730052B4DD801A252F823F0BB
:100FE000311000002310000007100000F90F00006E
:100FF00015100000771000000123049302230393CF
:10100000022305931EE0042304930823039308237B
:10101000059317E0102304932023039320230593C3
:1010200010E040230493802303938023059309E079
:101030004FF4807304934FF4007303934FF40073E1
:10104000059300BF9DF80630002B0ED00C4B049A80
:101050001A629DF80530002B0AD000BF084BDA6AEF
:10106000059B1340002BF9D002E0054B039A1A624E
:1010700000F0C4FA00E000BF07B05DF804FB00BF59
:1010800000800C4086B0039002910192039B03F113
:101090000473DA00029B13449B000593059B019A9D
:1010A0001A6006B0704700BF00B585B0019000918E
:1010B000019B0833184600210022FFF7E3FF019B44
:1010C0000C33184600210022FFF7DCFF009B5B7801
:1010D000012B02D0022B05D009E0254BDA69019BD8
:1010E000DA6209E0224B1A6A019BDA6204E0204BC3
:1010F0009A69019BDA6200BF009B1B781A05009B6E
:101100001B791B0403F4E0231A43009B5B781B024A
:101110001A43009B9B781B011A43009BDB789B00C2
:1011200013430393009B9B79002B03D0039B43F055
:1011300080030393009BDB79002B03D0039B43F0D8
:1011400040030393009B1B7A002B03D0039B43F0C7
:1011500002030393009B5B7A002B03D0039B43F0B5
:1011600001030393019B039A1A6005B05DF804FB29
:10117000B081E00F86B0039002910192029BDB7870
:101180001B010593029B1B78002B03D0059B43F0AA
:1011900001030593029B5B78002B03D0059B43F072
:1011A00004030593029B9B78002B03D0059B43F01F
:1011B00002030593019B002B03D0039B059ADA6081
:1011C00002E0039B059A9A6006B0704700B58BB0A9
:1011D000354B03F580531B680693334B03F580535F
:1011E0000C331B68069A13400693069B002B00DA0B
:1011F000FEE72D4B9B6B0593069A059B13400893C6
:101200000023079349E0002309933BE0089B03F088
:101210000103002B30D0244B9B6804930122099BCF
:1012200002FA03F30393204B03F580530833039A28
:101230001A60099B1B01049A1344DB680293029B0A
:10124000002B19D0029B1B7A0193029B1B7A83F01F
:101250000103DAB2029B1A72029B1B68002B0BD0AF
:10126000029B1B680998019A002A0CBF00220122E8
:10127000D1B2029A52689847089B5B080893099B71
:1012800001330993089B002BC0D1059BDA43069BD1
:1012900013400893079B01330793079B012BB2DD93
:1012A0000BB05DF804FB00BF00200C4008B502F055
:1012B0008DF908BD024B4AF6E8529A60704700BFAC
:1012C00000600C40024B0022C3F88420704700BF2E
:1012D00000800C40024B45F60E02C3F88420704794
:1012E00000800C4000B585B0394BD3F8843003F052
:1012F00001030393FFF7EEFF00230293354B1B68B6
:1013000003F00103029A13430293324B1B6803F06C
:101310001003029A134302932E4B1B6803F0400301
:10132000029A134302932B4B1B6803F00403029AA7
:1013300013430293274B1B6803F48073029A1343F1
:101340000293234B029A1A624FF470530193214B7C
:101350001A68019B1340B3F5805F06D0B3F5005FB8
:101360000ED0B3F5006F16D020E000BF184BDB6A3B
:1013700003F08003002BF9D0154B03225A6215E0CD
:1013800000BF134BDB6A03F40073002BF9D0104B42
:1013900004225A620AE000BF0D4BDB6A03F0080327
:1013A000002BF9D00A4B02225A6200BF094B1B687E
:1013B00003F00103002B02D1054B02221A62039BAA
:1013C000002B01D0FFF77EFF05B05DF804FB00BFE6
:1013D00000800C408001002082B0194B1B699BB239
:1013E00003F03F039BB21B02ADF80630144B9B6920
:1013F0009BB203F0F0039AB2BDF806301343ADF888
:1014000006300F4BDB6903F0F0031B099AB2BDF8FD
:1014100006301343ADF80630BDF80630B3F5827FD1
:1014200004D3BDF80630B3F5017F01D1012300E0FC
:10143000002303F00103DBB2184602B0704700BF7F
:10144000D0FF0FE000B587B003468DF80730214B81
:10145000DA6A214B1A60214B204A126942F00402D9
:101460001A61FFF7B9FF03468DF817309DF8173062
:10147000002B11D01A4B1A681A4B13400393184BC8
:10148000039AC3F88020164B5B6823F0460304934D
:10149000134B049AC3F8842030BF9DF81730002BFB
:1014A00005D00F4B039A1A600D4B049A5A609DF8B1
:1014B0000730002B02D0FFF715FF07E0064B1B6833
:1014C00003F48063002B01D1FFF7F0FE07B05DF855
:1014D00004FB00BF00800C408001002000ED00E014
:1014E00000E100E09CF1FD0000B587B003468DF8F7
:1014F0000730294BDA6A294B1A60274BD3F884301E
:1015000003F001030593FFF7E5FE234B4FF4207230
:101510001A62059B002B01D0FFF7D4FE204B204A16
:10152000126942F004021A61FFF756FF03468DF874
:1015300013309DF81330002B11D01A4B1A681A4B38
:1015400013400293174B029AC3F88020154B5B6837
:1015500023F046030393134B039AC3F8842030BF50
:101560009DF81330002B05D00E4B029A1A600D4BDC
:10157000039A5A609DF80730002B02D0FFF7B2FEA5
:1015800007E0064B1B6803F48063002B01D1FFF7D3
:101590008DFE07B05DF804FB00800C408001002048
:1015A00000ED00E000E100E09CF1FD0000B585B039
:1015B000114B1B6823F00C0343F0080302930E4BFE
:1015C0001B6843F00C030193FFF774FE00230393A1
:1015D00008E0094B029A1A60074B019A1A60039BB4
:1015E00001330393039B032BF3DD034B029A1A6031
:1015F00005B05DF804FB00BF00600C40024BDA6AE6
:10160000024B1A60704700BF00800C408001002030
:1016100010B483B002460B468DF807208DF80630D3
:101620009DF80730052B04D89DF80630032B00D811
:1016300000BF0D489DF807200B4C9DF807100B4686
:10164000DB000B449B0023441B6823F003019DF83F
:10165000063019431346DB0013449B000344196012
:1016600003B05DF8044B70470060004010B485B0D3
:101670000291019303468DF80F3013468DF80E301A
:101680009DF80F30052B03D8029B0F2B00D800BF0D
:101690009DF80E30002B21D0019B002B0FD04A4823
:1016A0009DF80F20029B012101FA03F3194613460E
:1016B000DB0013449B000344103319600EE04248E2
:1016C0009DF80F20029B012101FA03F319461346EE
:1016D000DB0013449B00034410335960029B072B2B
:1016E00020D839489DF80F20374C9DF80F100B4635
:1016F000DB000B449B0023445968029B9B000F2492
:1017000004FA03F3DB4319409DF80E40029B9B0053
:1017100004FA03F319431346DB0013449B0003440C
:10172000596027E028489DF80F20274C9DF80F109E
:101730000B46DB000B449B00234408331968029BD3
:1017400003F18043083B9B000F2404FA03F3DB43BF
:1017500019409DF80E40029B03F18043083B9B001B
:1017600004FA03F319431346DB0013449B000344BC
:10177000083319609DF80E30002B21D1019B002BFE
:101780000FD011489DF80F20029B012101FA03F3AD
:1017900019461346DB0013449B00034410331960C1
:1017A0000EE009489DF80F20029B012101FA03F386
:1017B00019461346DB0013449B0003441033596061
:1017C00005B05DF8044B70470060004086B00390A0
:1017D00002910192039A0F4B9A4208D1029B012B6E
:1017E00005D8019B1B0C1B04002B00D100BF029BE2
:1017F000002B02D0012B04D00AE0039B1033059389
:1018000003E0039B1433059300BF059B019A1A6004
:1018100006B070470020084084B00190009100237A
:101820000393009B1B7883F00103DBB2002B08D0ED
:10183000019B9B6803F00103002B02D0019B022255
:101840005A60009B5B78002B03D0039B43F48053CA
:101850000393009B9B78002B03D0039B43F480638E
:101860000393009BDB78002B03D0039B43F40063BE
:101870000393009B1B79002B03D0039B43F400735D
:101880000393009B5B79002B03D0039B43F480738D
:101890000393009B9B79002B03D0039B43F04003F1
:1018A0000393009BDB79002B03D0039B43F0800361
:1018B0000393009B1B7A9B00039A13430393009BA3
:1018C0005B7A1B01039A13430393009B9B7A039A51
:1018D00013430393019B039A1A60009B1B78002B10
:1018E00008D0019B9B6803F00103002B02D1019BF0
:1018F00001225A6004B0704782B001900091019BB0
:101900001B6C03F00103002B00D006E000BF019B1D
:101910005A6C009B1340002BF9D102B0704700BFF6
:1019200000B587B0039002910192029B002B12D167
:10193000039A164B9A4202D1154B059307E0039A7E
:10194000144B9A4202D1144B059300E01BE005981A
:10195000FFF71EF80290029B5A01019BB2FBF3F3C2
:101960000493049B203B0493049BDB000493049AA0
:1019700047F6F8731340049303980421FFF7BCFF64
:10198000039B049ADA6007B05DF804FB004008404E
:1019900040051400004408404015160000B585B00D
:1019A00001900B468DF80330019A114B9A4203D0F7
:1019B000019A104B9A4200D100BF9DF80330DB43DF
:1019C0000393039B03F005030393039B5B000393C3
:1019D0009DF80330039A1343039301980221FFF704
:1019E0008BFF019B039A5A6005B05DF804FB00BFB2
:1019F000004008400044084082B001900B468DF83A
:101A000003309DF80330002B08D000BF019B5B6CB6
:101A1000002BFBD1019B01221A6402E0019B0022F2
:101A20001A6402B0704700BF00B583B00190009106
:101A3000019A1B4B9A4203D0019A1A4B9A4200D149
:101A400000BF01980221FFF757FF019B0A225A604D
:101A500001980121FFF7D0FF019B1B6823F01C02B6
:101A6000009B1B7B1A43009B5B7B1A43009B9B7B69
:101A70001A43019B1A60009B5A68009B9B6801985F
:101A800011461A46FFF74CFF009B1B781A46019B34
:101A90005A6001980021FFF7AFFF03B05DF804FB27
:101AA000004008400044084082B0019000BF019B04
:101AB0009B6803F02003002BF9D0019BDB69DBB2AC
:101AC000184602B0704700BF00B583B001900B46C6
:101AD0008DF8033000BF019B9B6803F01003002BBF
:101AE000F9D001984021FFF707FF9DF80320019BE3
:101AF0009A6203B05DF804FB84B001901B4B5B69F4
:101B0000DBB203F00F03DBB29B008DF80F30174BF5
:101B10001B6903F0C0039B09DAB29DF80F30134331
:101B20008DF80F30019B9DF80F209A700F4B1B69A9
:101B3000DBB203F03F03DAB2019B5A700B4B9B6997
:101B4000DBB223F00F038DF80F30084BDB6903F095
:101B5000F0031B09DAB29DF80F3013438DF80F30F4
:101B6000019B9DF80F201A7004B07047D0FF0FE062
:101B700084B0039002910192039A2A4B9A420BD0AF
:101B8000039A294B9A4207D0039A284B9A4203D0D2
:101B9000039A274B9A4200D100BF019B1B789A06FB
:101BA000019B5B781B061A43019B9B781B041A431D
:101BB000019BDB781B031A43019B1B799B021A4391
:101BC000019B5B791B021A43019B9B791A43019B82
:101BD000DB79002B02D04FF4001300E000231A43FE
:101BE000019B1B7A002B02D04FF4801300E00023EE
:101BF0001A43019B5B7A002B01D0102300E00023E5
:101C00001A43019B9B7A002B01D0042300E00023A0
:101C10001A430399029B03331B010B441A6004B05F
:101C2000704700BF0000014000040140000801406F
:101C3000000C014000B587B00390029101928DF82D
:101C40000330029B002B03D12548FEF7A1FE029032
:101C50009DF80330202B0CD0202B02DC002B05D06C
:101C60003BE0402B08D0602B09D036E010230593D1
:101C700008E00823059305E00623059302E004230A
:101C8000059300BF029B9A00059B019901FB03F39A
:101C90005B0813440493059B019A02FB03F3049A27
:101CA000B2FBF3F30493049B043B0493049B9B015A
:101CB0000493049A0B4B13400493039B1B6823F07B
:101CC0006002039B1A60039B1A689DF803301A4355
:101CD000039B1A60039B049A5A6107B05DF804FBEA
:101CE00010810200C0FF1F0084B001900B468DF8E8
:101CF0000330019A124B9A420FD0019A114B9A422B
:101D00000BD0019A104B9A4207D0019A0F4B9A427E
:101D100003D0019A0E4B9A4200D100BF9DF80330C8
:101D2000DB430393039B03F005030393039B5A00D8
:101D3000019BDA609DF80320019BDA6004B07047D4
:101D400000C0004000C4004000C8004000E0004067
:101D500000E4004000B583B001900091019A244B4B
:101D60009A420FD0019A234B9A420BD0019A224BF0
:101D70009A4207D0019A214B9A4203D0019A204BF4
:101D80009A4200D100BF019800F03CF8009B9B7C78
:101D9000002B05D0019B1B6843F08042019B1A6019
:101DA000009BDB7C002B07D0009B1B7D43F01003C6
:101DB000DBB21A46019B9A65009B5B7B1A46009B2F
:101DC0001B8A1A43009BDB891A43019B5A60009BC4
:101DD0005968009B9A68009B1B7B0198FFF72AFFBC
:101DE000009B1B781A46019BDA6003B05DF804FB88
:101DF00000C0004000C4004000C8004000E00040B7
:101E000000E4004082B00190019A234B9A420FD027
:101E1000019A224B9A420BD0019A214B9A4207D049
:101E2000019A204B9A4203D0019A1F4B9A4200D14B
:101E300000BF019B40F6AA62DA60019B00221A6093
:101E4000019B41F205025A60019B00229A60019BAE
:101E500000225A61019B0022DA64019B41F6F9726B
:101E60009A64019B00225A65019A0B4B9A4202D157
:101E7000019B00221A65019B00229A65019A074B7B
:101E80009A4203D0019A064B9A4202D1019B00224A
:101E9000DA6502B0704700BF00C0004000C40040D7
:101EA00000C8004000E0004000E4004082B0019023
:101EB00000BF019B1B6903F08003002BF9D0019B3D
:101EC000DB69DBB2184602B0704700BF82B00190F8
:101ED0000B468DF8033000BF019B1B6903F04003E4
:101EE000002BF9D09DF80320019B5A6302B0704784
:101EF00082B0034600918DF807309DF80730052B1E
:101F000003D8009B0F2B00D800BF08489DF807207E
:101F1000009B012101FA03F319461346DB00134429
:101F20009B0003441033596002B0704700600040CA
:101F300082B0034600918DF807309DF80730052BDD
:101F400003D8009B0F2B00D800BF08489DF807203E
:101F5000009B012101FA03F319461346DB001344E9
:101F60009B0003441033196002B0704700600040CA
:101F700000B583B001900091009B002B0ED0019B17
:101F80001B78DBB21B09DAB2019B1B78DBB203F0D2
:101F90000F0310461946FFF7CBFF0DE0019B1B789E
:101FA000DBB21B09DAB2019B1B78DBB203F00F0333
:101FB00010461946FFF79CFF03B05DF804FB00BF15
:101FC00000B583B001900B468DF803309DF90330C6
:101FD000B3F1FF3F04D10B480B494A2201F066FCE4
:101FE0000A480121FEF764FC09480121FEF760FC64
:101FF000019A13789DF8031061F30703137003B07F
:102000005DF804FBE4590000F05900001081020063
:1020100000D2020000B583B001900B468DF803306A
:10202000019B5B78C3F38113DBB2002B4ED19DF88B
:102030000330042B04D0122B06D0022B08D00BE067
:1020400001238DF8033007E012238DF8033003E0FD
:1020500002238DF8033000BF9DF8033003F0100316
:10206000002B19D02F48019B1B785BB21B11DBB2F0
:10207000DBB203F00F02019B1B78DBB203F00F030E
:10208000012101FA03F319461346DB0013449B00B8
:102090000344103319602EE02248019B1B785BB289
:1020A0001B11DBB2DBB203F00F02019B1B78DBB22A
:1020B00003F00F03012101FA03F319461346DB0075
:1020C00013449B0003441033596014E09DF803301F
:1020D000042B04D0122B06D0022B08D00BE00423D3
:1020E0008DF8033007E00A238DF8033003E007235F
:1020F0008DF8033000BF9DF8033003F03F03D9B2E1
:10210000019A537861F305035370019B1B785AB20F
:102110009DF803301046194600F048F903B05DF809
:1021200004FB00BF0060004000B583B001900B4687
:102130008DF803309DF8033003F00303D9B2019A00
:10214000537861F3871353709DF80330002B02D04E
:10215000012B05D009E001980421FFF75BFF04E0A3
:1021600001980421FFF756FF00BF03B05DF804FBA0
:1021700082B00190024B019AC3F81C2102B0704753
:102180000060004082B0064BD3F810310193044B3D
:10219000D3F81421019B1340184602B0704700BFCA
:1021A0000060004082B0034600918DF807309DF832
:1021B0000730052B03D8009B0F2B00D800BF09491F
:1021C0009DF807201346DB0013449B000B44183393
:1021D0005A68009B22FA03F303F00103184602B089
:1021E000704700BF0060004000B585B003468DF821
:1021F00007309DF80720334B53F82230002B00D1D5
:102200005DE09DF8073003F00103002B0AD09DF834
:1022100007305B08DBB203F007032B4AD35C1B09D2
:10222000DBB20AE09DF807305B08DBB203F007037E
:10223000254AD35C03F00F03DBB29DF80720184654
:102240001146FFF7AFFF03468DF80E3000238DF8DF
:102250000F301E4BD3F80C219DF80730012101FAF5
:1022600003F31340002B07D09DF80E30002B03D151
:1022700002238DF80F3011E0144BD3F808219DF89C
:102280000730012101FA03F31340002B06D09DF81B
:102290000E30002B02D001238DF80F309DF807304F
:1022A0001846FFF765FF0A4B1B689DF80710054AA3
:1022B00052F821109DF80F2008461146984705B0A6
:1022C0005DF804FB88010020C80100200060004088
:1022D000D001002000B589B001901BE0019B06935E
:1022E000069B93FAA3F30593059B0493049BB3FA0F
:1022F00083F30393039BDBB20793079B012202FA4C
:1023000003F3DB43019A13400193079BDBB21846AA
:10231000FFF76AFF019B002BE0D109B05DF804FBD9
:1023200000B583B0FFF72EFF024645F25553134028
:1023300001930198FFF71CFF0198FFF7CBFF03B053
:102340005DF804FB00B583B0FFF71CFF02464AF6B8
:10235000AA23134001930198FFF70AFF0198FFF7A2
:10236000B9FF03B05DF804FB82B0034600918DF81D
:1023700007309DF80730052B03D8009B0F2B00D8A2
:1023800000BF09499DF807201346DB0013449B005A
:102390000B4408335A68009B22FA03F303F001034D
:1023A000184602B0704700BF0060004070B586B0AC
:1023B00002460B468DF807208DF806309DF9073050
:1023C00063F0FF03B3F1FF3F04D1194819492D22EF
:1023D00001F06CFA184B1B68002B06D1174801213D
:1023E000FEF766FA144B01221A609DF90730059337
:1023F000059B03F00F030493059B1B090393039BA9
:10240000DEB2049D9DF8063003F00F03DCB2039B9F
:10241000DAB2049B03F00F0310461946FFF7A4FF3E
:102420000346304629462246FFF720F906B070BD24
:10243000705A0000885A0000D401002000D2020027
:1024400082B0034600918DF807300CE0009B1B78AA
:102450009DF907205BB29A4202D1009B9B680AE07B
:10246000009B0C330093009B1B785BB2B3F1FF3FE2
:10247000ECD14FF0FF33184602B0704700B585B07D
:10248000034600918DF807309DF90730B3F1FF3F07
:1024900002D14FF0FF330EE09DF907301846009946
:1024A000FFF7CEFF0390039BB3F1FF3F02D1044837
:1024B00001F052FA039B184605B05DF804FB00BF1B
:1024C000045B000082B00190024B019A9A6102B055
:1024D000704700BF00000840014B1B691846704759
:1024E0000000084000B583B0FFF7F6FF0190019BA4
:1024F00003F00103002B07D00120FFF7E3FF0B4B94
:102500001B685A1C094B1A60019B03F00203002B45
:1025100009D00220FFF7D6FF054B1B68002B02D025
:10252000034B1B68984703B05DF804FBD8010020FB
:10253000DC01002082B0034600918DF807309DF940
:102540000730002B0CDA0C499DF8073003F00F031D
:10255000043B009AD2B25201D2B20B441A7609E07F
:1025600006499DF90730009AD2B25201D2B20B440B
:1025700083F8002302B0704700ED00E000E100E0C6
:1025800082B001900091019B009A9A6402B070475A
:1025900082B00190019BDA6A019B9B6B1340184645
:1025A00002B0704708B503480021002200F030FC5B
:1025B00008BD00BF00E0004008B505480021012229
:1025C00000F026FC02480121FFF7DAFF08BD00BF3A
:1025D00000E0004008B503480121002200F018FC8B
:1025E00008BD00BF00E4004008B5054801210122F4
:1025F00000F00EFC02480121FFF7C2FF08BD00BF3A
:1026000000E4004008B503480221002200F000FC6D
:1026100008BD00BF00C0004008B5054802210122E6
:1026200000F0F6FB02480121FFF7AAFF08BD00BF3A
:1026300000C0004008B503480321002200F0E8FB79
:1026400008BD00BF00C4004008B5054803210122B1
:1026500000F0DEFB02480121FFF792FF08BD00BF3A
:1026600000C4004008B503480421002200F0D0FB5C
:1026700008BD00BF00C8004008B50548042101227C
:1026800000F0C6FB02480121FFF77AFF08BD00BF3A
:1026900000C8004008B50948FFF77AFF0346002B41
:1026A00005D006480521002200F0B2FB04E00348F3
:1026B0000521012200F0ACFB08BD00BF004008402E
:1026C00008B50948FFF764FF0346002B05D006480C
:1026D0000621002200F09CFB04E0034806210122B1
:1026E00000F096FB08BD00BF0044084030B58DB037
:1026F0000190019B1A68274B9A4204D0019B1A68EB
:10270000254B9A421ED1254B08AC0FCB84E80F0015
:1027100000238DF820304FF416530A9300238DF8D0
:102720002C3000238DF82D3000238DF82E304FF4FF
:1027300000430993019B1A6808AB10461946FFF73E
:1027400073F924E0164B02AC1D460FCD0FC495E87B
:10275000030084E8030000238DF808304FF416537B
:10276000049300238DF8143005238DF815300023D1
:10277000ADF816304FF48053ADF81830094B039381
:10278000019B1A6802AB10461946FFF7E3FA0DB039
:1027900030BD00BF0040084000440840205B0000FE
:1027A000305B0000006CDC0282B00190019B1B6872
:1027B000154A934216D0144A934209D8134A9342B9
:1027C00016D0134A934215D0124A93420ED017E006
:1027D000114A934210D0114A93420FD0104A9342AB
:1027E00002D00DE000230CE001230AE0022308E000
:1027F000032306E0042304E0052302E0062300E0AF
:102800000023184602B0704700E0004000C40040BA
:1028100000C8004000C0004000400840004408409C
:1028200000E4004082B00190019B1B68154A93426E
:1028300016D0144A934209D8134A934216D0134A29
:10284000934215D0124A93420ED017E0114A934298
:1028500010D0114A93420FD0104A934202D00DE09B
:102860000F4B0CE00F4B0AE00F4B08E00F4B06E05C
:102870000F4B04E00F4B02E00F4B00E00F4B1846EC
:1028800002B0704700E0004000C4004000C80040B3
:1028900000C00040004008400044084000E4004000
:1028A0000032020000420200000202000012020098
:1028B000002202004005140040151600108102009D
:1028C00000B589B0019013460A468DF803208DF8B3
:1028D00002309DF9033018465D4901F0D7F80790A2
:1028E0009DF9023018465B4901F0D0F80690079830
:1028F000069901F08BF80590059BB3F1FF3F05D1D8
:102900005548564940F2591200F0D0FF059A019BF4
:102910001A609DF9033018464D49FFF7AFFD04904A
:102920009DF9023018464B49FFF7A8FD0390049823
:10293000039901F06BF80246019B5A60019B5B68AA
:10294000B3F1FF3F05D1464844494FF4B17200F05E
:10295000ADFF019B9DF802201A72019B9DF8032098
:102960005A72019B1B683F4A934216D03D4A9342DC
:1029700009D83D4A93423DD03C4A934249D03C4A13
:10298000934228D060E03B4A934251D03A4A934266
:1029900054D03A4A93420FD056E0394B142019468E
:1029A00000F0D8FD374B1520194600F0D3FD152057
:1029B0000121FFF7BFFD47E0334B1620194600F019
:1029C000C9FD324B1720194600F0C4FD1720012124
:1029D000FFF7B0FD38E02E4B0320194600F0BAFD9A
:1029E0002C4B0420194600F0B5FD04200121FFF70F
:1029F000A1FD29E0284B0F20194600F0ABFD274B25
:102A00001020194600F0A6FD10200121FFF792FDCD
:102A10001AE0234B1220194600F09CFD214B132095
:102A2000194600F097FD13200121FFF783FD0BE00D
:102A30001D4B1820194600F08DFD05E01B4B192099
:102A4000194600F087FD00BF09B05DF804FB00BF28
:102A5000BC570000D0580000CC5B00004C5B00006D
:102A6000E05B000000E0004000C4004000C80040FF
:102A700000C00040004008400044084000E400401E
:102A8000A5250000B9250000D5250000E925000096
:102A90000526000019260000352600004926000002
:102AA000652600007926000095260000C12600005A
:102AB00000B583B001900B468DF803309DF80330CC
:102AC000002B0ED0019B1B7A5BB218460121FFF749
:102AD0006DFC019B5B7A5BB218461421FFF766FC24
:102AE0000DE0019B1B7A5BB218460021FFF75EFCEC
:102AF000019B5B7A5BB218460021FFF757FC03B0DD
:102B00005DF804FB00B583B0019013460A468DF8CA
:102B100003208DF802309DF903209DF902300198C1
:102B200011461A46FFF7CCFE019B1A683F4B9A42AA
:102B300004D0019B1A683E4B9A4207D13D480221BE
:102B4000FEF7E4F83C480121FDF7B2FE0198FFF7DB
:102B500069FE034618460121FDF7AAFE0198FFF71A
:102B6000C5FD9DF90330402B0DD19DF90230412B5D
:102B700009D1019B1A68314B9A4204D101984FF454
:102B8000E13100F0A7F8019B1A68284B9A4204D063
:102B9000019B1A68264B9A4214D1019B1B68019A2B
:102BA0005268120242F003025A65019B1B6801221F
:102BB0005A63019B1B68019A1268126842F44052E2
:102BC0001A600BE0019B1B68019A5268120242F0E6
:102BD00003025A65019B1B6801229A64019B1A68D3
:102BE000164B9A4207D1164B01221A6015480199DB
:102BF0005C2202F0E7F801980121FFF759FF0198E4
:102C0000012100F021F8019B4FF0FF325A61019B36
:102C100001221A74019B4FF0FF329A62019B01223C
:102C200083F8242003B05DF804FB00BF0040084097
:102C300000440840030012000043040000E000408C
:102C4000000200200402002000B583B001900B4672
:102C50008DF80330019B1A681B4B9A4204D0019BEC
:102C60001A681A4B9A4211D19DF80330002B06D0F6
:102C7000019B1B6818460521FEF790FE17E0019B9B
:102C80001B6818460021FEF789FE10E09DF803300E
:102C9000002B06D0019B1B6818460521FFF724F87E
:102CA00005E0019B1B6818460021FFF71DF80198FD
:102CB000FFF77AFD03461A46054B002143F8221020
:102CC00003B05DF804FB00BF00400840004408402A
:102CD000E001002000B585B001900091019B1A68C9
:102CE000414B9A4204D0019B1A68404B9A426ED1E4
:102CF000009BFF2B05DC3E483E494FF4FC7200F080
:102D0000D5FD009BB3F5804F4BDD009A3A4B9A42BC
:102D100004DC009A42F6C6539A4205DC374835492E
:102D20004FF4FE7200F0C2FD35480621FDF7EEFFBC
:102D300001238DF80F30009A324B9A4203DD0123B4
:102D40008DF80F3014E0009A4BF21B739A4203DDAA
:102D500002238DF80F300BE0009A45F68D339A422E
:102D600003DD04238DF80F3002E008238DF80F30C7
:102D70000198FFF757FD02469DF80F30104619469F
:102D8000FDF776FC019B19689DF80F301E4A92FBF7
:102D9000F3F31A46009B084611461A46FEF7C0FD9B
:102DA0001EE017480221FDF7B1FF0198FFF73AFD39
:102DB000034618460121FDF75BFC019B1A68009B46
:102DC00010464FF400411A46FEF7AAFD08E0019BA9
:102DD0001A68009B10460D491A460023FEF72AFF89
:102DE00005B05DF804FB00BF004008400044084007
:102DF000085C00004C5B0000808D5B00305C0000D4
:102E000003001200366E0100001BB700006CDC02EC
:102E100000B585B00390029113468DF807300A4B38
:102E2000029A53F82230002B0AD0084B1B68064A3E
:102E3000029952F821109DF807200846114698473C
:102E400005B05DF804FB00BFE0010020FC0100209C
:102E500000B583B00190019B1A680C4B9A4204D0D4
:102E6000019B1A680A4B9A4206D1019B1B681846BF
:102E7000FEF71AFE034605E0019B1B681846FFF7A4
:102E800015F80346184603B05DF804FB00400840FF
:102E90000044084000B583B001900091019B1A687E
:102EA0000D4B9A4204D0019B1A680C4B9A4208D1F0
:102EB000019B1A68009BDBB210461946FEF704FE20
:102EC00007E0019B1A68009BDBB210461946FEF72B
:102ED000FDFF03B05DF804FB0040084000440840DB
:102EE000034B034A126922F004021A6130BF704793
:102EF00000ED00E072B6074B1B68B3F1FF3F04D052
:102F0000044B1B685A1C034B1A60024B1B68184683
:102F1000704700BF8401002082B00B4B1B68002B60
:102F20000DD0094B1B685A1E074B1A60064B1B68D5
:102F30000193019B002B00D162B6019B00E00023AE
:102F4000184602B0704700BF8401002008B5104B3E
:102F50001B68002B00D019E00D4B5B68002B02D0E2
:102F6000FFF7BEFF11E00A4B9B68002B03D0012046
:102F7000FEF768FA09E0064BDB68002B03D001205E
:102F8000FEF7B2FA01E0FEF711FB00BF08BD00BF7B
:102F90006002002000B583B003468DF80730FFF7CC
:102FA000A9FF9DF80730064A52F82320511C044A15
:102FB00042F82310FFF7B0FF03B05DF804FB00BF39
:102FC0006002002000B583B003468DF80730FFF79C
:102FD00091FF9DF80720094B53F82230002B08D0B1
:102FE0009DF80730054A52F82320511E034A42F843
:102FF0002310FFF791FF03B05DF804FB600200208F
:1030000082B003468DF80730074B9DF9072052091F
:103010009DF8071001F01F01012000FA01F143F8AB
:10302000221002B0704700BF00E100E084B00390BE
:1030300002910192039A029B03331B011344019AEC
:103040005A6004B0704700BF82B001900091019BAC
:10305000009A5A6202B0704782B001900B468DF818
:103060000330019A0E4B9A420BD0019A0D4B9A42B3
:1030700007D0019A0C4B9A4203D0019A0B4B9A420B
:1030800000D100BF9DF80330002B03D0019B01222B
:103090005A6002E0019B02225A6002B0704700BFF2
:1030A000000001400004014000080140000C014004
:1030B00082B001900091019B009A9A6102B0704722
:1030C00082B001900091019BDA68009BDB431A40BB
:1030D000019BDA6002B0704782B001900091019BC1
:1030E000DA68009B1A43019BDA6002B0704700BFA8
:1030F00082B00190019B1B69184602B0704700BF67
:1031000082B001900091019B009ADA6102B0704791
:1031100008B52548FFF7ECFF034603F01003002B2A
:1031200024D0224B1B889BB2002B0FD01F4B1B8837
:103130009BB21D4800211A46FFF778FF1B4B002267
:103140001A8019481021FFF7B3FF0FE0184B1B68D6
:10315000002B09D0164B1B685A1E154B1A601248DB
:103160001021FFF7A5FF01E000F05AFE0E48FFF71F
:10317000BFFF034603F00103002B13D00D4B1B6868
:103180005A1C0C4B1A600C4B1B78DBB21A04094B0F
:103190001B689A4202D8074B00221A60024801219C
:1031A000FFF786FF08BD00BF000001407602002047
:1031B00078020020E40000207C02002000B585B0E9
:1031C0003E4B1B78002B76D13C4B01221A703C48B9
:1031D0000121FDF76DFB3B480021FFF735FF3A4B1E
:1031E00030221A70384B1B78DBB2002B04D13748E1
:1031F0003749602200F05AFB0023039309E0324B69
:103200001B78DBB25B08DAB22F4B1A70039B0133D9
:1032100003932D4B1B78DBB203F00103002B02D18B
:10322000039B0A2BEBD9274B264A126822F07061C8
:10323000039A12060A431A6000238DF80030002317
:103240008DF8013000238DF8023000238DF8033013
:1032500000238DF8043000238DF8053000238DF80D
:10326000063000238DF8073000238DF80830002346
:103270008DF8093000238DF80A3002238DF80630CE
:103280006B46104800211A46FEF772FC0D480121DA
:10329000FFF722FF0F4B0220194600F05BF90220D6
:1032A000FFF7AEFE07484FF6FF71FFF729FF05480D
:1032B0000121FFF7D1FE05B05DF804FB7402002088
:1032C00000520200000001407C020020E45C00008B
:1032D000F85C00001131000030B587B0254B1B7839
:1032E000002B01D1FFF76AFF234B1B680393234890
:1032F000FFF7FEFE034603F00103002B02D0039B01
:10330000013303931D4B5B6A01931B4B1B680293B4
:103310001A48FFF7EDFE034603F00103002B02D02D
:10332000029B01330293039A029B9A42DCD1029BD7
:103330001A464FF000031D0445EA12451404019B90
:103340001A464FF0000342EA040243EA0503CDE9BE
:1033500004230B4B1B78DBB2DAB24FF00003DDE93C
:10336000040100F08BFD02460B461346184607B0D9
:1033700030BD00BF74020020E400002000000140C6
:103380007C02002030B587B0019000230593019B9B
:103390000493FFF7A1FF03460393374BDB6803F069
:1033A0001003002B02D10120FFF7F4FD3248102159
:1033B000FFF786FE049A039BD31A05932F4B1B78C5
:1033C000DBB21A46059B9A4209DB2C4B1B78DBB219
:1033D0000593FFF781FF034603F580730193274BA5
:1033E0001B78DBB21A46059B02FB03F30593234BC4
:1033F0001B78DBB21A46049B02FB03F30493059B84
:103400001A464FEAE273140C44EA03441D0C2246A8
:103410001B4B1A60049B9AB21A4B1A80059B9BB2F5
:10342000B3F5004F13DA164B1B68002B0FD0154B6A
:103430001B889BB203F500430F4800211A46FFF793
:10344000F5FD0F4B1B685A1E0D4B1A600AE00D4B21
:103450001B889BB2084800211A46FFF7E7FD094B7D
:1034600000221A8004481021FFF722FE0248102192
:10347000FFF732FE07B030BD000001407C020020A3
:10348000780200207602002008B5074BDB6803F0C5
:103490001003002B02D00120FFF794FD02481021F9
:1034A000FFF70EFE08BD00BF0000014008B502484E
:1034B0001021FFF7FDFD08BD0000014007488047CF
:1034C0000749084A084B9B1A40F30580043BC8583B
:1034D000D0503FF7FBAF0548004700001137000010
:1034E000F05E000000000020640100205501000093
:1034F000FEE7FEE7FEE7FEE7FEE7FEE7FEE7FEE7A4
:10350000FEE7FEE7FEE7FEE7FEE7FEE7FEE7FEE793
:10351000FEE7FEE7FEE7FEE7FEE7FEE7FEE7FEE783
:10352000FEE7FEE7FEE7FEE7FEE7FEE7FEE7FEE773
:10353000FEE7FEE7FEE7FEE7FEE7FEE7FEE7FEE763
:10354000FEE7FEE7FEE7FEE7FEE7FEE7FEE7FEE753
:10355000FEE700BF86B0034600918DF80730154B9B
:103560009B680593134B9B68002B19D1059B039314
:10357000114B0593002304930CE0049B9B00059AD8
:103580001344049A920003990A4412681A60049B37
:1035900001330493049B362BEFD9064B064A9A60FD
:1035A0009DF9073010339B00059A1344009A1A6066
:1035B00006B0704700ED00E000000020024BDB6C1D
:1035C0001B0EDBB218467047B081E00F00B583B028
:1035D00000F020F801900D4B1B6803F4E0339B0BC7
:1035E0000133019AB2FBF3F30193084B5B6803F0DC
:1035F0000F03019A22FA03F30193054B019A1A6013
:10360000019B184603B05DF804FB00BF00800C402E
:103610008002002000B583B02F4BDB6A03F47053A7
:10362000B3F5805F0AD0B3F5005F03D0B3F5006F48
:1036300008D00BE0294B1B68019347E04FF400438F
:10364000019343E0264B1B6801933FE0224BDB686C
:1036500003F4E063B3F5007F1BD0B3F5007F05D81A
:10366000002B24D0B3F5807F16D02BE0B3F5806F0C
:1036700009D0B3F5A06F03D0B3F5407F06D021E0A9
:10368000184B019321E0184B01931EE0174B019357
:103690001BE0174B019318E0FFF790FF0346122B36
:1036A00002D9144B019310E0134B01930DE0FFF787
:1036B00085FF0346122B02D9104B019305E0104BF6
:1036C000019302E00023019300BF00BF019B184655
:1036D00003B05DF804FB00BF00800C40EC0000204C
:1036E000E8000020003FAB01406F4001809FD50003
:1036F000C0D8A70040B56400C0CF6A00804F120058
:1037000040420F00014B1B6818467047E80000203C
:10371000704700BF4FF40043184670474FF47A7368
:1037200018467047014B1B6818467047EC00002094
:1037300000B583B0019000910198009900F006F85F
:10374000019B184603B05DF804FB00BF82B00190F6
:103750000091019B009A1A60019B00225A6102B0FD
:10376000704700BF00B583B00190019B1433184629
:103770000021FFF7DDFF019B184603B05DF804FB55
:1037800030B583B00190019B03241D4604E0284618
:1037900000F01CF83435013CB4F1FF3FF7D1019B38
:1037A0000022C3F8D020019B0022C3F8D420019B43
:1037B000002283F8D820019B184603B030BD00BF1B
:1037C00082B00190019B184602B0704700B583B0EB
:1037D0000190019B00221A60019B00225A60019B0C
:1037E00000229A60019B0022DA60019B00221A618C
:1037F000019B00225A61019B00229A6100230199DA
:103800001A1D92000A440021D160032B01D001331C
:10381000F5E7019B0022DA62019B002283F8302049
:10382000019B04331846FFF79DFF019B184603B028
:103830005DF804FB00B583B001900091019B012B62
:103840000CD1009A4FF6FF739A4207D10548FFF753
:1038500097FF04480449054A00F00AFB03B05DF8ED
:1038600004FB00BF8402002071380000E00000204B
:1038700010B582B00190019B002B0AD0019B03F18F
:10388000D004019B9C4204D0343C2046FFF798FFB3
:10389000F7E7019B184602B010BD00BF08B5012034
:1038A0004FF6FF71FFF7C6FF08BD00BF00B585B03A
:1038B00003900291019204480399029A019B00F03F
:1038C0004BF805B05DF804FB785D000000B585B0ED
:1038D00003AB1846432100F077F802AB18464221AB
:1038E00000F072F801AB1846422100F06DF86B460B
:1038F0001846432100F068F803AB18460121FEF793
:1039000037FB02AB18460021FEF732FB01AB18462D
:103910000021FEF72DFB6B4618460121FEF728FB20
:10392000962000F085FA03AB18460021FEF720FB35
:1039300002AB18460121FEF71BFB01AB1846012123
:10394000FEF716FB6B4618460021FEF711FB96208A
:1039500000F06EFAD0E700BF0FB400B583B005AB3E
:103960000193054B1B68DB6818460499019A01F026
:103970005BFC012000F0F6FF5401002000B585B08B
:10398000039001930B468DF80B3013468DF80A30E7
:103990009DF90B3003981946FEF712FB9DF90B3089
:1039A000B3F1FF3F0DD003980199FEF7E1FA0398B8
:1039B0000121FEF7B9FB9DF80A3003981946FEF77E
:1039C00029FB05B05DF804FB00B583B001900B4600
:1039D0008DF803309DF9033001981946002200F05C
:1039E00003F803B05DF804FB00B585B003900B4607
:1039F00001928DF80B309DF90B3003981946042283
:103A0000019BFFF7BBFF05B05DF804FB00B583B079
:103A100001900091019A009B9A4201D1019B10E014
:103A2000019BB3F1FF3F01D1009B0AE0009BB3F182
:103A3000FF3F01D1019B04E00448FFF78DFF4FF0E9
:103A4000FF33184603B05DF804FB00BFC05D000003
:103A500082B0034600918DF807300CE0009B1B7884
:103A60009DF907205BB29A4202D1009B5B680AE095
:103A7000009B0C330093009B1B785BB2B3F1FF3FBC
:103A8000ECD14FF0FF33184602B0704700B585B057
:103A9000034600918DF807304FF0FF3303939DF9F3
:103AA0000730B3F1FF3F02D14FF0FF330EE09DF935
:103AB000073018460099FFF7CBFF0390039BB3F143
:103AC000FF3F02D10348FFF747FF039B184605B0AD
:103AD0005DF804FBD45D000008B5054B1B68002BA6
:103AE00000D004E0034840214122FFF70BF808BD55
:103AF000000200200402002000B585B00190019B67
:103B0000022B01DC002318E0019BDA1E0D4B53F859
:103B100022300393019BDA1E0A4B002143F8221046
:103B2000039B002B02D14FF0FF3306E0039B1B6881
:103B300004331B68039898470346184605B05DF8A0
:103B400004FB00BF6003002000B589B00390029120
:103B500001920093039B022B1ADC1A4B1B68002B6B
:103B600001D1FFF7B9FF002306930AE0029A069BF2
:103B700013441B7814481946FFF78CF9069B013350
:103B80000693069A019B9A42F0D3019B079313E098
:103B9000039BDA1E0D4B53F822300593059B002B37
:103BA00002D14FF0FF3308E0059B1B681B680598A6
:103BB0000299019A98470790079B184609B05DF84B
:103BC00004FB00BF0002002004020020600300206C
:103BD00000B587B00390029101920093039B022BE2
:103BE0000FDC154B1B68002B01D1FFF775FF134845
:103BF000FFF72EF90346DAB2029B1A7001230593F0
:103C000014E0039BDA1E0E4B53F822300493049BFE
:103C1000002B02D14FF0FF3309E0049B1B680833EF
:103C20001B6804980299019A98470590059B1846CD
:103C300007B05DF804FB00BF000200200402002072
:103C40006003002000B585B00190019B022B01DCD0
:103C5000012312E0019BDA1E0A4B53F82230039332
:103C6000039B002B02D14FF0FF3306E0039B1B6840
:103C70000C331B68039898470346184605B05DF857
:103C800004FB00BF6003002000B587B003900291E1
:103C90000192039B022B01DC002314E0039BDA1E3C
:103CA0000B4B53F822300593059B002B02D14FF0AC
:103CB000FF3308E0059B1B6810331B6805980299C9
:103CC000019A98470346184607B05DF804FB00BF09
:103CD0006003002000B583B001900091019B012B8F
:103CE00005D0019B022B02D0019B002B05D1009B2C
:103CF0004FF400525A60002306E000F02DFE034608
:103D000009221A604FF0FF33184603B05DF804FB38
:103D100010B485B00190124B1B680393104B1A68C6
:103D2000019B13440293EFF308831C4623461A4673
:103D3000029B9A428CBF00230123DBB2002B05D0EB
:103D4000084B0C221A604FF0FF3303E0044B029A39
:103D50001A60039B184605B05DF8044B704700BF1E
:103D6000F00000207004002000B583B00190094BE2
:103D70001B689B68184600F0B7FE064B1B68DB68A3
:103D8000184600F0B1FE019B002B01D0FFF79EFD0D
:103D9000FEE700BF5401002010B584B00190019BE4
:103DA0001B68DB689847019B5B685B68002B04D14C
:103DB000019B1B689B6898472FE0019B5B685B68D1
:103DC0001C68019B1B685B6898470346E31A002B3D
:103DD00018DC019B5B685B680393019B5B68019A3D
:103DE0005268526892685A60019B5B681B68002B9E
:103DF00007D0019B5B681B68039A5268104698477E
:103E00000AE009E0019B1B681B69019A526852682D
:103E100012681046984700E0C5E704B010BD00BF27
:103E200008B50248FFF7B8FF08BD00BF285E0000D4
:103E300000B583B00190019B4FF47A7202FB03F34B
:103E4000184600F003F803B05DF804FB00B585B038
:103E50000190FFF741FA039000BFFFF73DFA0246D9
:103E6000039BD21A019B9A42F7D305B05DF804FB7D
:103E700003460846194600F05FBD00004BB942B941
:103E8000002908BF002802D04FF0FF31084600F09B
:103E90003BB882B0EC462DE9005000F01DF8DDF88B
:103EA00004E002B00CBC70472DE9704F089E144628
:103EB0001D468046894600F029F804FB01F3A4FB67
:103EC00000AB00FB05329344B8EB0A0869EB0B0921
:103ED000C6E90089BDE8708F2DE9704F089E144631
:103EE0001D468046894600F061F900FB05F5A0FB00
:103EF00004AB04FB0154A344B8EB0A0869EB0B09BB
:103F0000C6E90089BDE8708F704700BF00292DE920
:103F1000F00FC0F2A1800024002BC0F2988015465B
:103F200006460F46002B3FD18A4258D9B2FA82F397
:103F30004BB1C3F1200201FA03F720FA02F29D40CF
:103F400000FA03F61743290CB7FBF1F201FB1277D5
:103F5000A8B200FB02F34FEA164C4CEA0747BB42FB
:103F600009D97F1902F1FF3C80F00581BB4240F284
:103F70000281023A2F44FF1AB7FBF1F301FB1371E0
:103F800000FB03F0B6B246EA0141884208D949195C
:103F900003F1FF3780F0F180884240F2EE80023B6F
:103FA00043EA0242002303E08B420AD900231A4667
:103FB0001046194614B1404261EB4101BDE8F00FD3
:103FC0007047B3FA83F8B8F1000F40F088808B4255
:103FD00002D3824200F2E28000230122E8E712B914
:103FE0000123B3FBF2F5B5FA85F2002A3AD17F1B23
:103FF000280C1FFA85FC0123B7FBF0F100FB1177B9
:104000000CFB01F24FEA164848EA0747BA4207D9C3
:104010007F1901F1FF3802D2BA4200F2C480414652
:10402000BF1AB7FBF0F200FB12700CFB02FCB6B239
:1040300046EA0040844507D9401902F1FF3702D211
:10404000844500F2AE803A4642EA0142B0E7E443DA
:10405000524263EB430362E7404261EB41014FF0A0
:10406000FF3459E79540C2F1200927FA09F126FAF1
:1040700009F99740280CB1FBF0F800FB18111FFA62
:1040800085FC0CFB08F349EA07094FEA194747EAA0
:1040900001418B4206FA02F608D9491908F1FF32AC
:1040A0007AD28B4278D9A8F102082944C91AB1FB07
:1040B000F0F300FB13170CFB03F21FFA89F949EA2E
:1040C0000747BA4207D97F1903F1FF3160D2BA42DC
:1040D0005ED9023B2F44BF1A43EA08438CE7C8F17C
:1040E000200225FA02F103FA08FC27FA02F320FA6B
:1040F00002F207FA08F741EA0C0C4FEA1C49B3FB3D
:10410000F9F109FB11331FFA8CFA0AFB01FB174383
:104110003A0C42EA03439B4505FA08F008D913EB31
:104120000C0301F1FF3235D29B4533D90239634488
:10413000CBEB0303B3FBF9F209FB12330AFB02FAE0
:10414000BFB247EA0347BA4508D917EB0C0702F19B
:10415000FF331BD2BA4519D9023A674442EA0145F6
:10416000A5FB0001CAEB07078F424FF000030AD3FB
:1041700005D02A461CE76246FDE63B4610E706FAF4
:1041800008F68642F5D26A1E002311E71A46E5E7D3
:104190000B46A0E71146CBE7904687E743464246E9
:1041A00006E7023A50E702392F4439E72DE9F00FCC
:1041B000144605460E46002B43D18A4253D9B2FA23
:1041C00082F757B1C7F1200620FA06F601FA07F385
:1041D00002FA07F400FA07F51E43210CB6FBF1F2D0
:1041E00001FB1266A0B200FB02F32F0C47EA064661
:1041F000B34209D9361902F1FF3780F0FD80B3428E
:1042000040F2FA80023A2644F61AB6FBF1F301FBBB
:10421000136100FB03F0ADB245EA0141884208D9C1
:10422000091903F1FF3680F0E980884240F2E68008
:10423000023B43EA0242002310461946BDE8F00F54
:1042400070478B424CD8B3FA83F6002E4FD18B4285
:1042500002D3824200F2DD80BDE8F00F002301228C
:1042600010461946704712B90124B4FBF2F4B4FAAF
:1042700084F2002A40F08280091B260CA7B2012399
:10428000B1FBF6F006FB101107FB00F24FEA154CEC
:104290004CEA01418A4207D9091900F1FF3C02D2D8
:1042A0008A4200F2C8806046891AB1FBF6F206FB2A
:1042B000121107FB02F7ADB245EA0145AF4208D93A
:1042C0002C1902F1FF3180F09B80A74240F29880C8
:1042D000023A42EA004210461946BDE8F00F704724
:1042E00000231A4610461946BDE8F00F7047C6F184
:1042F000200522FA05F703FA06F421FA05F301FA7C
:1043000006FB20FA05F53C434FEA1448B3FBF8FCE2
:1043100008FB1C331FFA84F909FB0CFA45EA0B0B66
:104320004FEA1B4545EA03439A4502FA06F204D9CF
:104330001B190CF1FF356FD3AC46CAEB0303B3FB7B
:10434000F8F508FB153309FB05F91FFA8BFB4BEA5F
:104350000347B94504D93F1905F1FF3362D31D4620
:1043600045EA0C4CACFB0223C9EB07079F424FF018
:1043700000054AD346D062462B465DE79440C2F121
:10438000200921FA09FC914020FA09F9260CBCFB0E
:10439000F6F806FB18CCA7B207FB08F349EA0109B7
:1043A0004FEA194141EA0C4C634500FA02F509D97C
:1043B0001CEB040C08F1FF323BD2634539D9A8F15C
:1043C0000208A444C3EB0C0CBCFBF6F306FB13C1C0
:1043D00007FB03F21FFA89F949EA01418A4207D92A
:1043E000091903F1FF3022D28A4220D9023B21442D
:1043F000891A43EA084343E73A4605E7334618E794
:104400000A4666E7B0409042B5D20CF1FF32002375
:1044100012E7334632460FE79A458DD9ACF1020CCC
:1044200023448AE7B9459AD9023D274498E70346D1
:10443000DEE79046C6E70238214435E782B00346FE
:104440008DF80730074B9DF9072052099DF807109A
:1044500001F01F01012000FA01F143F8221002B01F
:10446000704700BF00E100E082B0034600918DF884
:10447000073008489DF80720009B012101FA03F34B
:1044800019461346DB0013449B0003441033596064
:1044900002B070470060004082B0034600918DF882
:1044A000073008489DF80720009B012101FA03F31B
:1044B00019461346DB0013449B0003441033196074
:1044C00002B070470060004000B583B00C4B1B6821
:1044D00001936B461846FDF70FFB019B1B0E0F2B3C
:1044E0000BD99DF80030032B07D1064B054A126803
:1044F00022F0500242F010021A6003B05DF804FB93
:10450000FC81E00FC0800C4082B001900091019BC3
:10451000009A9A6102B0704782B001900091019BAD
:10452000DA68009B1A43019BDA6002B0704700BF53
:1045300082B00190019B1B69184602B0704700BF12
:1045400082B001900091019B009A1A6202B07047FC
:1045500082B001900091019B009ADA6102B070472D
:1045600082B001900091019B1A69009B1A43019B44
:104570001A6102B0704700BF82B00190019B5B6975
:10458000184602B0704700BF82B001900091019BB5
:10459000009A9A6202B0704782B001900091019B2C
:1045A000DA6A009B1A43019BDA6202B0704700BFCF
:1045B00082B00190019B1B6A184602B0704700BF91
:1045C00008B50C480121FCF773F903200121FDF720
:1045D0001FF80320062105220023FDF747F80420D9
:1045E0000121FDF715F80420022105220023FDF723
:1045F0003DF808BD00D2020000B585B001238DF85A
:10460000043000238DF8053000238DF80630002398
:104610008DF8073000238DF8083000238DF809301D
:1046200000238DF80A3000238DF80B3000238DF81D
:104630000C3000238DF80D3000238DF80E3005204E
:1046400001210122FCF7BAFC15480921FCF75EFBA9
:1046500014480121FCF72CF913480121FCF728F933
:1046600001238DF8043001238DF808300F48002114
:1046700040F2A462FDF7AAF80C4B0122DA600B4865
:104680000421FFF789FF1A20FFF7D8FE01AB074886
:104690001946FDF7C1F8BFF34F8F05B05DF804FB75
:1046A0000200060030240A000043040000200840F5
:1046B00030B587B01E4B6C461D460FCD0FC495E834
:1046C000030084E803001B480121FCF7F1F80023F4
:1046D000019301238DF8013000238DF8003007236A
:1046E0008DF80B3000238DF80C3000238DF814303A
:1046F00000238DF80D3006238DF80A3001238DF844
:1047000009306B460C481946FBF788FD0A4B0A4AEC
:10471000126842F002021A6007480C210622FBF7D9
:1047200065FD05480121FFF7F7FE07B030BD00BF6A
:10473000305E0000009202000010004000B585B01D
:1047400000238DF8043000238DF8053001238DF807
:10475000063000238DF8073000238DF80830002341
:104760008DF8093000238DF80A3000238DF80B30C6
:1047700000238DF80C3000238DF80D3000238DF8C8
:10478000003000238DF8013000238DF80230002323
:104790008DF8033017480121FCF78AF800238DF8C3
:1047A000073000238DF8053002238DF806300023F2
:1047B0008DF80B3004238DF8083001AB4FF040200A
:1047C0001946FCF771FC4FF0402340221A63012385
:1047D0008DF800306B464FF0402019460022FCF760
:1047E000C9FC4FF040200121FFF7BAFE05B05DF88B
:1047F00004FB00BF0012030000B583B04148FFF77F
:10480000D7FE019000238DF8003000238DF8013091
:1048100000238DF8023000238DF8033039480199C8
:10482000FFF7B2FE019B03F00403002B64D00123C9
:104830008DF800306B464FF0402019460022FCF7FF
:1048400099FC4FF0402040F6F501FFF779FE2E4B22
:104850002D4A126842F001021A6000BF4FF0402357
:104860005B6903F00103002B14BF00230123DBB2BB
:10487000002BF3D100BF244B1B6903F00203002B74
:1048800014BF00230123DBB2002BF4D11E4B1B69A4
:1048900003F00103002B0CBF00230123DBB2002B2C
:1048A00004D004200221FFF7DFFD03E004200221F1
:1048B000FFF7F2FD144B144A126822F001021A604D
:1048C00000238DF800306B464FF04020194600223F
:1048D000FCF750FC4FF04020FFF74EFE01904FF0E8
:1048E00040200199FFF734FE0748FFF721FE0190B1
:1048F00005480199FFF708FEBFF34F8F03B05DF83D
:1049000004FB00BF002008400010004008B5FFF77E
:10491000DBFD0320FEF73EFBFFF752FE03200621DE
:10492000FFF7BAFDFFF768FEFFF7C2FEFFF706FFCD
:10493000FEF70CFBFCE700BF70B5064C06460D46C3
:1049400013462CB131462A460220AFF3008070BDD9
:10495000204670BD00000000014B1868704700BF82
:104960005401002008B5074B044613B10021AFF3F2
:104970000080054B1868836A03B198472046FFF70B
:10498000F3F900BF00000000AC5E00008A892DE949
:10499000F041054610070C4657D44B68002B02DC4B
:1049A0000B6C002B18DDE66AB6B102F480520023CE
:1049B00092B22F682B600AB1626D10E0216A28461E
:1049C0000123B047411C024609D12B683BB11D2B86
:1049D00001D0162B46D12F600020BDE8F081A389BD
:1049E0005B0705D56368D21A636B0BB1236CD21ACF
:1049F000E66A2846216A0023B047461CA28905D1F1
:104A00002B681BB11D2B01D0162B19D1002363601D
:104A10002369D104236004D5421C01D12B6803B95A
:104A20006065616B2F600029D6D004F14403994280
:104A300002D0284600F0D8F900206063BDE8F0817C
:104A400042F04002A281BDE8F0810E69002EC3D081
:104A50000B680E60C6EB030893070CBF4B6900237D
:104A60008B6012E0A3894FF0FF3043F04003A38135
:104A7000BDE8F081A76A2846216A32464346B84716
:104A80000028EFDD0644C0EB0808B8F1000FF1DCA8
:104A9000A2E7000038B50B6905460C46DBB118B13A
:104AA00083690BB900F086F80C4B9C4201D16C680D
:104AB00008E00B4B9C4201D1AC6803E0094B9C42DF
:104AC00008BFEC68B4F90C302BB128462146BDE88C
:104AD0003840FFF75BBF002038BD00BF485E0000D4
:104AE000685E0000885E0000014620B9044B05495D
:104AF000186800F0C9B8044B1868FFF7CBBF00BFB7
:104B0000AC5E0000954A000054010020F8B507464D
:104B100000F1480494B1A5686668013E0CD4AB89E5
:104B2000012B07D9B5F90E30013303D03846294699
:104B3000FFF7B0FF6835F0E72468EBE7F8BD000049
:104B4000002310B50446036043608360818143669F
:104B5000C28103614361836119465C30082200F021
:104B60003AF9054B24626362044BA362044BE3628F
:104B7000044B236310BD00BF394F00005B4F0000A2
:104B8000934F0000B74F000070B54B1E68255D4382
:104B90000E4605F1740100F06BF9044640B10021A6
:104BA00080E842000C30A06005F1680200F013F9C3
:104BB000204670BD836910B5044633BB8364C3646B
:104BC0000365124B124A1B688262984204BF01239C
:104BD000836100F01FF86060204600F01BF8A060C1
:104BE000204600F017F80421E06000226068FFF71B
:104BF000A7FFA06809210122FFF7A2FFE0681221A8
:104C00000222FFF79DFF0123A36110BDAC5E0000EF
:104C10000D4B0000F8B51B4B07461E68B36913B96E
:104C20003046FFF7C7FF4836B4687368013B04D4C9
:104C3000B4F90C5075B16834F8E733682BB93846CD
:104C40000421FFF7A1FF306008B13668ECE70C23C0
:104C50003B60F8BD4FF6FF73E3810123A3816566D6
:104C60002560A560656025616561A56104F15C0052
:104C70002946082200F0AFF86563A563A564E564E2
:104C80002046F8BDAC5E00002DE9F8438046894619
:104C900000F14804002694B1A5686768013F0CD470
:104CA000AB89012B07D9B5F90E30013303D040464B
:104CB0002946C84706436835F0E72468EBE73046E5
:104CC000BDE8F88370B50E4B0E4D0024ED1AAD1003
:104CD0001E46AC4204D056F8242090470134F8E731
:104CE00000F060FD084D094B0024ED1AAD101E4682
:104CF000AC4204D056F8242090470134F8E770BD48
:104D000058010020580100206001002058010020B7
:104D1000F0B58B8991B09E0705460C4625D4B1F9B4
:104D20000E10002908DAA389002713F0800F14BFA2
:104D300040264FF480660DE001AA00F0EDFC00284B
:104D4000F1DB029F4FF4806607F47047B7F500511E
:104D50004F424F412846314600F08AF860B9A38996
:104D60009A051DD443F00203A38104F14703236095
:104D700023610123636113E00A4BAB62A3892060C6
:104D800043F08003A381206166614FB12846B4F9E6
:104D90000E1000F0D3FC18B1A38943F00103A381E6
:104DA00011B0F0BD0D4B000010B5C9B202449042E5
:104DB000034605D01C7801308C42F8D1184610BD4E
:104DC000002010BD10B50023934203D0CC5CC45426
:104DD0000133F9E710BD02440346934202D003F8C1
:104DE000011BFAE77047000030B500293CD051F8AC
:104DF000042C0B1F1D49002AB8BF9B180A680C46DB
:104E000012B95A600B6030BD93420DD21968581820
:104E1000904203D15A581144426819605A60236085
:104E200030BD994203D80A4651680029F9D1146867
:104E300015199D420AD11B682344D018884213607B
:104E400012D10868034413604B680CE002D90C23AC
:104E5000036030BD18681C188C4203D10C68496887
:104E6000204418605960536030BD00BF6C040020BE
:104E700070B5CD1C25F0030508350C2D38BF0C2569
:104E8000002D06463FDB8D423DD3214B1C68184662
:104E90002146A1B10B685B1B0ED40B2B03D90B6011
:104EA000CC18CD501FE08C4202D1626802601AE03B
:104EB0004B6863600C4616E00C464968E9E7154C00
:104EC00023681BB9304600F027F820602946304699
:104ED00000F022F8431C014615D0C41C24F0030442
:104EE00084420AD1256004F10B00231D20F0070045
:104EF000C31A0BD05A42E25070BD3046611A00F01E
:104F00000BF80130EED10C233360002070BD00BFE0
:104F10006C0400206804002038B5064C00230546C8
:104F200008462360FEF7F4FE431C02D1236803B158
:104F30002B6038BD7004002010B50C46B1F90E107E
:104F400000F01EFC002803DB636D0344636510BDA5
:104F5000A38923F48053A38110BD2DE9F0411D46A0
:104F60008B890746DB050C46164605D5B1F90E10B0
:104F70000022022300F0F2FBA389384623F4805379
:104F8000A381B4F90E1032462B46BDE8F04100F083
:104F900033BB10B50C46B1F90E1000F0DFFB431C1B
:104FA000A38903D123F48053A38110BD43F480531C
:104FB000A381606510BDB1F90E1000F09DBB0346E2
:104FC00013F8012B002AFBD1181A01387047936897
:104FD00010B5013B002B936005DA9469A34208DB0E
:104FE000CBB20A2B05D01368581C10601970C8B2D8
:104FF00010BDBDE8104000F0ABBAF8B505460E464E
:105000001446D718BC4208D0284614F8011B324673
:10501000FFF7DDFF431CF5D100E00020F8BD0000E4
:105020002DE9F0439DB00D4617460393064618B18F
:1050300083690BB9FFF7BEFD734B9D4201D17568C3
:1050400008E0724B9D4201D1B56803E0704B9D4270
:1050500008BFF568AB8918070AD52B6943B100234F
:10506000099320238DF8293030238DF82A3038E039
:105070003046294600F0D2FA0028F0D04FF0FF3039
:10508000BEE0039A111D12680391002A70DB07929B
:10509000013423782E2B7DD05E4F217838460322B1
:1050A000FFF782FE30B1C71B4020B840049B01349B
:1050B00003430493217858480622671C8DF8281072
:1050C000FFF772FE002800F08980544B002B7CD142
:1050D000039B073323F0070308330393099B4344DF
:1050E00009933B461C4613F8012B1AB9B4EB070988
:1050F0000ED002E0252AF5D1F8E7304629463A4697
:105100004B46FFF77AFF013075D0099B4B4409935A
:105110002378002B6FD000234FF0FF3204930793C6
:10512000059206938DF853301A9304F101093C4F10
:105130004C46384621780522FFF736FE09F1010971
:10514000049B28B1C71B0120B84003430493EEE73A
:10515000D90644BF20228DF853201A0744BF2B22C2
:105160008DF8532022782A2A8BD0079B214605E010
:10517000524243F002030792049389E70C462278D7
:105180000131303A092A03D80A2000FB0323F5E74E
:1051900007937EE763782A2B09D1039B02341A1DFB
:1051A0001B680392002BB8BF4FF0FF330BE0611C6C
:1051B00000230C4622780131303A092A03D80A200C
:1051C00000FB0323F5E7059366E703AB0093304646
:1051D00004A92A46134BAFF3008007E003AB00930A
:1051E000304604A92A460F4B00F09EF8B0F1FF3F6D
:1051F00080467FF473AFAB895B063FF53FAF0998FC
:105200001DB0BDE8F08300BF485E0000685E00008E
:10521000885E0000B65E0000BA5E0000000000007C
:10522000B05E0000FB4F000030B51346044A05464F
:105230000C46106829462246BDE83040FFF7F0BE14
:10524000540100202DE9F84315461F468A680B6972
:1052500006469A42A8BF13462B6091F843200C469D
:10526000DDF820800AB101332B602368990602D54E
:105270002B6802332B60236813F006091DD094F8C5
:1052800043302268003318BF012392061FD5E1186E
:10529000302081F843005A1C94F845102244023310
:1052A00082F8431013E03046394604F11902012315
:1052B000C047013007D009F10109E2682B68D31A11
:1052C0009945F0DBDBE74FF0FF30BDE8F88330466F
:1052D000394604F14302C0470130F4D023682A68FC
:1052E00003F00603E168042B08BFC2EB0105236944
:1052F000A2680CBF25EAE57500259A42C4BFC3EB3E
:105300000203ED184FF00009A9450ADA3046394684
:1053100004F11A020123C0470130D4D009F1010978
:10532000F2E70020BDE8F8832DE9FF470E7E8046B6
:105330006E2E0C4691469A460C9D01F1430000F0FA
:10534000A58011D8632E22D009D8002E00F0AF809E
:10535000582E40F0BF8081F845607B4A4FE0642EB4
:105360001ED0692E1CD0B5E0732E00F0A48009D8A1
:105370006F2E2BD0702E40F0AD800B6843F02003D1
:105380000B6038E0752E21D0782E34D0A2E02B6847
:1053900001F142071A1D1B682A6081F842309DE026
:1053A00022682B6812F0800F03D01A1D2A601D6836
:1053B00005E05106F9D51A1D2A60B3F90050002DF9
:1053C00039DA2D236D4284F8433034E022682B68AB
:1053D00012F0800F03D01A1D2A601D6804E05206E7
:1053E000F9D51A1D2A601D88237E574A6F2B14BFDA
:1053F0000A2308231BE07823544A84F845302368A5
:10540000296813F0800F01F104062E6001D00D68A9
:1054100002E05F06FBD50D88DE0744BF43F02003A2
:1054200023601DB9236823F020032360102300218B
:1054300084F8431001E0444A0A236668002EA660FF
:1054400003DB216821F00401216005B96EB104F18C
:105450004201B5FBF3F603FB1655555D0F4601F807
:1054600001593546002EF4D100E00746082B0AD139
:105470002368DD0707D5626823699A4203DC30237D
:1054800007F8013C013FC01B20612CE009682B6834
:1054900011F0800F626904D0191D29601B681A6021
:1054A00005E04906F8D5191D29601B681A800023FC
:1054B0002361074617E02B681A1D2A601F683846CB
:1054C000FFF77DFD63682061984288BF23612369EF
:1054D000636005E004F1420784F842600123236120
:1054E000002384F84330CDF800A04046214603AAAB
:1054F0004B46FFF7A7FE013002D14FF0FF301FE00F
:10550000404649463A462369D0470130F5D02368E2
:105510009B0705D4E068039B9842B8BF18460FE08C
:105520000025E268039BD31A9D42F3DA40464946C0
:1055300004F119020123D0470130DED00135F0E734
:1055400004B0BDE8F08700BFC15E0000D25E00007D
:1055500070B50E461446054618B183690BB9FFF7BE
:1055600029FB224B9C4201D16C6808E0204B9C42F5
:1055700001D1AC6803E01F4B9C4208BFEC68A369F3
:10558000A360A3891A0709D523693BB12369206861
:10559000F6B2C01A636998420FDB08E0284621463C
:1055A00000F03CF80028F1D04FF0FF3070BD2846E5
:1055B0002146FFF76FFA0028F6D1A3680130013BBE
:1055C000A36023685A1C22601E706369984204D04D
:1055D000A389DB0707D50A2E05D128462146FFF708
:1055E00059FA0028E0D1304670BD00BF485E000087
:1055F000685E0000885E000038B5074C0546002054
:105600002060084611461A46FEF79EFA431C02D156
:10561000236803B12B6038BD70040020324B70B595
:105620001D6806460C4625B1AB6913B92846FFF73D
:10563000C1FA2E4B9C4201D16C6808E02C4B9C4275
:1056400001D1AC6803E02B4B9C4208BFEC68A289F7
:1056500093B2190720D4DD0605D4092342F0400295
:105660003360A2813BE0580712D5616B41B104F170
:105670004403994202D03046FFF7B6FB0023636330
:10568000A38923F02403A38100236360236923609B
:10569000A38943F00803A38123694BB9A38903F4C9
:1056A0002073B3F5007F03D030462146FFF730FB6F
:1056B000A38913F0010205D00022A2606269524260
:1056C000A26103E0990758BF6269A26022694AB9E2
:1056D00003F0800080B230B143F04003A3814FF06B
:1056E000FF3070BD002070BD54010020485E0000F6
:1056F000685E0000885E000038B5064C0023054651
:1057000008462360FEF7F8F9431C02D1236803B171
:105710002B6038BD7004002038B5074C00230546C7
:10572000084611462360FEF7D5FA431C02D12368D0
:1057300003B12B6038BD00BF7004002038B5064CA3
:105740000023054608462360FEF77CFA431C02D17D
:10575000236803B12B6038BD7004002038B5074CB6
:10576000054600202060084611461A46FEF78CFACE
:10577000431C02D1236803B12B6038BD70040020A4
:1057800038B5074C054600202060084611461A46E9
:10579000FEF71EFA431C02D1236803B12B6038BD0B
:1057A00070040020F8B500BFF8BC08BC9E467047E6
:1057B000F8B500BFF8BC08BC9E4670475600000014
:1057C00000E00040000000004000000000E0004059
:1057D000010000005A00000000E400400100000049
:1057E0001900000000E40040020000004200000038
:1057F00000E40040030000004A00000000C0004038
:10580000000000004700000000C000400100000050
:105810002B00000000C00040020000004D0000000E
:1058200000C00040030000001700000000C000405E
:10583000040000002000000000C400400000000040
:105840003000000000C400400100000037000000EC
:1058500000C40040020000002200000000C8004018
:10586000000000001300000000C80040010000001C
:105870003400000000400840000000001D0000004F
:1058800000400840010000004E00000000400840B9
:10589000020000005000000000400840030000002B
:1058A00052000000004008400400000026000000F4
:1058B00000440840000000000500000000440840CB
:1058C00001000000FF000000FFFFFFFFFFFFFFFFE0
:1058D0005700000000E00040000000004100000010
:1058E00000E00040010000005B00000000E4004018
:1058F000010000001A00000000E400400200000067
:105900004300000000E40040030000004B000000E2
:1059100000C00040000000004600000000C0004041
:10592000010000002A00000000C00040020000004A
:105930004C00000000C00040030000001800000000
:1059400000C00040040000002100000000C400402E
:10595000000000003100000000C400400100000011
:105960003600000000C400400200000023000000D8
:1059700000C80040000000001400000000C8004003
:105980000100000035000000004008400000000059
:105990001E00000000400840010000004F00000011
:1059A0000040084002000000510000000040084094
:1059B0000300000000000000004008400400000058
:1059C000270000000044084000000000060000001E
:1059D0000044084001000000FF000000FFFFFFFF3F
:1059E000FFFFFFFF70696E20213D204E4300000045
:1059F000443A2F446F63756D656E74732F436F75F2
:105A0000727365776F726B2F4543454E3530323375
:105A10002F53696D706C69636974795F576F726B2E
:105A200073706163652F4C69627261726965732F6F
:105A30006D6265642F746172676574732F68616C41
:105A40002F5441524745545F53696C69636F6E5FD1
:105A50004C6162732F5441524745545F45464D3364
:105A6000322F6770696F5F6170692E6300000000FC
:105A70002830784646464646463030207C70696E6F
:105A80002920213D204E4300443A2F446F63756D19
:105A9000656E74732F436F75727365776F726B2FBA
:105AA0004543454E353032332F53696D706C696311
:105AB0006974795F576F726B73706163652F4C699E
:105AC000627261726965732F6D6265642F746172B1
:105AD000676574732F68616C2F5441524745545F5A
