S0110000436C6F75645F5475622E7372656392
S113000020660020FD650000F5660000F56600002E
S113001000000000000000000000000000000000DC
S11300200000000000000000000000005D6A000005
S11300300000000000000000816B0000C96B00009C
S1130040F5660000F5660000F5660000253F000037
S1130050553B0000F5660000F5660000F5660000FB
S1130060F5660000F9480000114900002949000024
S113007041490000594900007149000045650000EC
S1130080596500006D650000F5660000F566000026
S1130090F56600000000000000000000E5390000E3
S11300A0F5660000F5660000F5660000F5660000E0
S11300B00000000010B5064C2378002B07D1054B37
S11300C0002B02D0044800E000BF0123237010BDC0
S11300D0900000200000000064CB0000084B10B525
S11300E0002B03D00749084800E000BF0748036815
S11300F0002B00D110BD064B002BFBD09847F9E72D
S1130100000000009400002064CB000064CB0000D9
S11301100000000080B582B000AF0200FB1D1A7021
S1130120064BFA1D127811001F220A40012191404A
S11301300A001A60C046BD4602B080BD00E100E07E
S113014080B582B000AF0200FB1D1A70074AFB1D88
S11301501B7819001F230B40012199400B00190043
S11301608023D150C046BD4602B080BD00E100E00E
S113017080B582B000AF0200FB1D1A70064BFA1D59
S1130180127811001F220A40012191400A001A60CE
S1130190C046BD4602B080BD00E100E080B584B039
S11301A000AF78607B681B68FB60FB68DB695A1EE4
S11301B09341DBB21800BD4604B080BD80B584B065
S11301C000AF78607B681B68FB607B681B68180065
S11301D00B4B9847030018000A4B9847C0467B68AE
S11301E01800094B9847031EF9D1FB681B680222CB
S11301F01A43FB681A60C046BD4604B080BDC046C1
S1130200AD480000710100009D01000080B584B07C
S113021000AF78607B681B68FB60FB681B7EDBB209
S11302201A00012313405A1E9341DBB21800BD4645
S113023004B080BD80B584B000AF78600A00BB1CF8
S11302401A807B681B68FB607B6818000A4B984720
S113025003001A0001235340DBB2002B01D0052315
S113026006E0BB1C1B88DB05DA0DFB689A620023E1
S11302701800BD4604B080BD0D02000080B582B0F8
S113028000AF78600A00FB1C1A707B6837229B5C05
S11302905AB2FB1C1B78012199400B005BB213433B
S11302A05BB2D9B27B6837229954C046BD4602B0CE
S11302B080BDC04680B582B000AF0D20074B984783
S11302C0FB1D074A12781A700D20064B9847FB1D38
S11302D01B781800BD4602B080BDC0464101000035
S11302E0EC4300201501000080B582B000AF7860B7
S11302F0154B1B78DBB2012B02D0022B12D01BE072
S1130300114B02221A701149114B11221800114B82
S11303109847114B1B789AB20D4B110018000F4BE4
S113032098470DE0084B03221A700D49084B01222F
S11303301800084B984703E0034B00221A70C0468C
S1130340C046BD4602B080BDEC430020F14300200E
S1130350044400206D510000F043002035020000E9
S11303600244002080B582B000AF7860024B1800D0
S1130370024B9847FEE7C04600B7000031A90000D1
S113038080B590B000AF3B1D0022DA703B1D012206
S11303905A703B1D01229A703B000022DA703B0028
S11303A001225A703B0001229A700823FB18002294
S11303B01A740823FB188022D2055A600823FB18FC
S11303C001221A700823FB18C02292059A600823A0
S11303D0FB180022DA740823FB1880225202DA6028
S11303E03B1D03221A703B0003221A703B1D1900A7
S11303F02A20254B98473B0019002B20224B984775
S11304000823FB1800229A740823FB1800221A758B
S11304100823FB1801225A740823FB181B4A9A610B
S11304200823FB182422002199540823FA18184998
S1130430184B1800184B9847031E04D0174B18008C
S1130440174B98471CE01749124B00221800164B13
S11304509847104B00211800144B984714490D4B32
S113046003221800104B98470A4B032118000F4B26
S113047098470D200F4B9847064B18000E4B984792
S1130480BD4610B080BDC046BD640000400D0300F1
S113049000180042044400204D4E00000CB7000038
S11304A031A90000E9020000255100007D0200008E
S11304B06503000015010000BD01000090B585B082
S11304C000AF78600A00FB1C1A701D4B9847031E8E
S11304D031D11C4B01221A7079681B4B02229B18E4
S11304E010221800194B9847174BC0225A70164B0C
S11304F040221A70144BFA1C12789A740F23FC18B9
S11305001149134B01221800124B98470300237022
S11305100F23FB181B78002B09D10B4B1B789AB2C5
S11305200B4B110018000C4B9847030004E00F23F9
S1130530FB181B7800E005231800BD4605B090BDEC
S1130540B5020000EC430020F043002049A2000063
S1130550044400206D5100003502000080B582B0D3
S113056000AF78607B68002B0CD0084B7A685A6027
S1130570064B00229A60C046044B1A6880235B0233
S11305801340F9D0C046BD4602B080BD10E000E083
S113059080B500AF00200F4B984702000E4B1A6045
S11305A00D4B18680D4BFA229100984703001A006E
S11305B0094B1A60084B1868084BFA2291009847B7
S11305C003001A00064B1A60064B05221A60C04647
S11305D0BD4680BDF9600000000000209198000035
S11305E00400002010E000E080B582B000AF786025
S11305F004E0074B1B681800064B98477B685A1E9B
S11306007A60002BF5D1C046BD4602B080BDC0461D
S1130610000000205D05000080B582B000AF786066
S113062002E00120054B98477B685A1E7A60002B34
S1130630F7D1C046BD4602B080BDC046E905000002
S113064080B582B000AF0200FB1D1A70FB1D1B7841
S1130650002B04D000210920054B984703E000211A
S11306600920044B9847C046BD4602B080BDC04631
S1130670C53A00000D3B000080B584B000AF78603F
S11306807B681B68FB60FB681B7EDBB21A000223DD
S113069013405A1E9341DBB21800BD4604B080BD1E
S11306A080B584B000AF78607B681B68FB60FB6832
S11306B01B7EDBB21A00012313405A1E9341DBB2A6
S11306C01800BD4604B080BD80B584B000AF78602A
S11306D07B681B68FB60FB681B7EDBB21A0004238B
S11306E013405A1E9341DBB21800BD4604B080BDCE
S11306F080B584B000AF78600A00BB1C1A807B68A8
S11307001B68FB607B6818000A4B984703001A00BB
S113071001235340DBB2002B01D0052306E0BB1CB0
S11307201B88DB05DA0DFB689A6200231800BD46BE
S113073004B080BDA106000080B584B000AF78602D
S113074039607B681B68BB607B6818001B4B98474B
S113075003001A0001235340DBB2002B01D0102305
S113076027E00F23FB1800221A70BB685B8B9BB237
S11307701A000423134006D00F23FB181E221A70FC
S1130780BB6804225A837B689B79012B08D1BB6820
S11307909B6A9BB2DB05DB0D9AB23B681A8005E0CD
S11307A0BB689B6ADBB29AB23B681A800F23FB18C2
S11307B01B781800BD4604B080BDC046C9060000C1
S11307C080B586B000AFF860B960BB1D1A801323F2
S11307D0FB1800221A701723FB1800221A70162324
S11307E0FB1800221A701423FB1800221A8010230D
S11307F0FB1800221A80FB68002B07D11323FB1877
S1130800FB601723FB1801221A700DE0BB68002B54
S113081007D11323FB18BB601623FB1801221A709F
S113082002E006235B426AE03749384B0122180094
S1130830374B98474CE0FB681A781423FB181A804E
S1130840C046324B1800334B984703001A0001236B
S11308505340DBB2002BF4D1C0461423FB181A8892
S11308602A4B110018002C4B9847031EF5D1C046A3
S1130870264B1800294B984703001A0001235340C4
S1130880DBB2002BF4D1C0461023FA181F4B110021
S11308901800234B9847031EF6D11023FB181B881E
S11308A0DAB2BB681A70BB1D1A88BB1D013A1A80E4
S11308B01623FB181B78002B02D1BB680133BB60E5
S11308C01723FB181B78002B02D1FB680133FB6054
S11308D0BB1D1B88002BAED1C0460C4B1800114B1E
S11308E0984703001A0001235340DBB2002BF4D1D4
S11308F00549064B00221800054B984700231800B1
S1130900BD4606B080BDC04640440020444400209B
S1130910DD4F0000A1060000F1060000C90600003A
S1130920390700007906000090B585B000AF0200D9
S11309303960FB1D1A700F23FB1800221A70FB1D6F
S11309401B78032B0FD13B68BB60BB681868BB687E
S11309505968BB681B890F22BC181A000F4B9847B3
S11309600300237012E00F23FB18FF221A70862362
S11309705A000B490B4B18000B4B98470B4B1800B4
S11309800B4B98470D200B4B9847C0460F23FB1881
S11309901B785BB21800BD4605B090BDC1070000CE
S11309A058B7000030B7000011A8000044B7000099
S11309B031A9000045A8000080B584B000AFF860FC
S11309C0B9607A607B68002B10D0BB681A78FB682A
S11309D01A70FB680133FB60BB680133BB607B6842
S11309E0013B7B607B68002BEFD100E0C046BD4635
S11309F004B080BD80B584B000AFF8607A600B238A
S1130A00FB180A1C1A707B68002B0ED0FB680B22A3
S1130A10BA1812781A70FB680133FB607B68013BDB
S1130A207B607B68002BF1D100E0C046BD4604B07A
S1130A3080BDC04680B584B000AF78600E23FB183B
S1130A4000221A8009E00E23FB181A880E23FB18D3
S1130A5001321A807B6801337B607B681B78002B32
S1130A60F1D10E23FB181B881800BD4604B080BDCD
S1130A7090B583B000AFFB1D00221A700120134B08
S1130A809847FC1D3B00124A19001000114B98476F
S1130A9003002370FB1D1B785BB2002B0DD13B6858
S1130AA0022213433B603B68FC1D094A19001000F5
S1130AB0094B98470300237000E0C046FB1D1B78D8
S1130AC05BB21800BD4603B090BDC04641060000AD
S1130AD070100000D51A0000F91A000090B583B018
S1130AE000AFFB1D00221A701C4B1B78DBB2002BDD
S1130AF021D11B4B1B78DBB2032B04D0184B1B7882
S1130B00DBB2042B17D1FC1D164B9847030023704E
S1130B10FB1D1B785BB2002B15D1FC1D124A134B35
S1130B2011001800124B984703002370FB1D1B781B
S1130B305BB2002B09D1094B1B78DBB20133DAB26B
S1130B40064B1A7002E0C04600E0C046FB1D1B784D
S1130B505BB21800BD4603B090BDC046AD00002096
S1130B60AC000020F9180000785600007410000052
S1130B70F91A000090B583B000AFFB1D00221A7073
S1130B80294B1B78DBB2002B06D0274B1B78DBB23A
S1130B90013BDAB2244B1A70234B1B78DBB2002BD7
S1130BA03AD1224B1B78DBB2032B04D01F4B1B78AA
S1130BB0DBB2042B30D100233B60FC1D1C4A1D4BCF
S1130BC0110018001C4B984703002370FB1D1B7871
S1130BD05BB2002B1DD1FC1D3B0019000120174BFB
S1130BE0984703002370FB1D1B785BB2002B12D1C6
S1130BF03B68022213400FD03B68022293433B60C0
S1130C003B68FC1D190001200B4B9847030023701F
S1130C1002E0C04600E0C046FB1D1B785BB2180032
S1130C20BD4603B090BDC046AD000020AC0000201E
S1130C302143000074100000F91A0000D51A0000C6
S1130C4090B589B000AF040008003A601900FB1D9C
S1130C50221C1A70BB1D021C1A703B1D0A1C1A8030
S1130C601F23FB18FF221A70BB1D1B787F22134021
S1130C70DAB21823FB185A701823FB18FA1D1278DD
S1130C801A701823FB1808225A803B6B002B11D0D2
S1130C901823FB185B889AB23823F9183423FB18FD
S1130CA009881B88CB189BB2D3189AB21823FB1857
S1130CB05A800AE01823FB185B889AB23B1D1B88F4
S1130CC0D3189AB21823FB185A801F23FC189B4B85
S1130CD09847030023701F23FB181B785BB2002B7B
S1130CE000D003E100233B610E23FB1800221A808D
S1130CF000237B61FB1D1A787B6913437B61BB1D59
S1130D001B781A027B6913437B611823FB185B88E9
S1130D109BB21A047B6913437B617B691F22BC1855
S1130D20874A19001000874B9847030023701F233C
S1130D30FB181B785BB2002B00D0EEE000237B6134
S1130D407B69022213437B617B691F22BC187E4AA4
S1130D50190010007B4B9847030023701F23FB18D6
S1130D601B785BB2002B00D0D9E000233B610E233B
S1130D70FB1800221A8031E01F23FC181423FB18EF
S1130D80714A19001000714B9847030023701F2308
S1130D90FB181B785BB2002B28D17B69022213401D
S1130DA013D11F23FC181023FB18694A19001000E3
S1130DB0664B9847030023701F23FB181B785BB214
S1130DC0002B15D000233B6112E00E23FB181B8877
S1130DD09BB201339AB20E23FB181A800E23FB1820
S1130DE01B889BB25B4A9342C6D902E0C04600E02E
S1130DF0C0463B69002B00D173E03B69BB601823FC
S1130E00FB185B889AB21823FB185A80BB681F2210
S1130E10BC181822B918082218004F4B9847030031
S1130E2023701F23FB181B785BB2002B00D078E0E3
S1130E30BB680833BB603B68002B15D0B8683B1D0A
S1130E401A881F23FC183B681900434B984703007A
S1130E5023701F23FB181B785BB2002B63D13B1D4F
S1130E601A88BB68D318BB603B6B002B21D0382396
S1130E70FB181A883B1D1B88D31A1A00BB68D318A9
S1130E80BB60B8683423FB181A881F23FC183B6B1B
S1130E901900314B9847030023701F23FB181B785C
S1130EA05BB2002B41D13423FB181A88BB68D318DA
S1130EB0BB603B699B007B617B69022213437B61BE
S1130EC07B691F22BC18254A190010001D4B984746
S1130ED0030023701F23FB181B785BB2002B15D073
S1130EE024E01F23FB18FD221A701FE0A023FF3308
S1130EF01A001B491B4B18001B4B98471B4B18002F
S1130F001B4B98470D201B4B98470FE01F23FC18E1
S1130F10194B98470300237008E0C04606E0C0461A
S1130F2004E0C04602E0C04600E0C0461F23FB18B0
S1130F301B785BB21800BD4609B090BDDD0A000005
S1130F408C100000F91A000078100000D51A000077
S1130F5000041500E7030000411C00006C100000B1
S1130F60A8B9000068B7000011A800007CB7000011
S1130F7031A9000045A80000750B000090B587B0AA
S1130F8002AF0F23FB18FA221A700F23FC18DA4B56
S1130F909847030023700F23FB181B785BB2002BC8
S1130FA000D092E10F23FC180823FB18D34A190040
S1130FB01000D34B9847030023700F23FB181B78B2
S1130FC05BB2002B00D072E1BB680122134000D158
S1130FD05CE10020CB4B9847BB6801229343BB6084
S1130FE0BB680F22BC18C54A19001000C64B9847AD
S1130FF0030023700F23FB181B785BB2002B00D077
S1131000BCE1C24B00221A70BB689B089AB20C2345
S1131010FB181205120D1A800C23FB181B88002BD9
S113102000D121E100233B600F23FC183B00B84AA8
S113103019001000B24B9847030023700F23FB18CC
S11310401B785BB2002B11D0E7235A00B149B24B95
S11310501800B24B9847B24B1800B24B98470D207A
S1131060B14B98470120A74B984788E13B680F2272
S1131070BC18391D04221800AC4B98470300237098
S11310803B1D5B889AB23B1D5A800F23FB181B78CB
S11310905BB2002B11D0EB235A009E499E4B1800E3
S11310A09E4B9847A24B18009E4B98470D209E4B91
S11310B098470120934B984761E13B1D5B889BB2A5
S11310C00C22BA1812889A422ED00C23FB181B88C3
S11310D03A1D528892B29B1A042B25DDE023FF337C
S11310E01A008C498C4B18008C4B98470C23FB1826
S11310F019883B1D5B889BB21A003B1D1B78DBB231
S11311001C003B1D5B78DBB28A4800932300834CB0
S1131110A0470D20844B984701207A4B98470F2312
S1131120FB18FA221A702AE13B1D1B78DBB2012B53
S113113012D1814B1B68002B00D17CE07E4B1B68D5
S11311403A1D5278D0B23A1D528892B2083A91B2FE
S11311503A68083298476EE03B1D1B78DBB2022BDD
S113116011D1764B1B68002B65D0744B1B683A1D5C
S11311705278D0B23A1D528892B2083A91B23A6883
S11311800832984757E03B1D1B78DBB2042B11D182
S11311906B4B1B68002B4ED0694B1B683A1D527871
S11311A0D0B23A1D528892B2083A91B23A680832E3
S11311B0984740E03B1D1B78DBB2062B11D1614BF5
S11311C01B68002B37D05F4B1B683A1D5278D0B296
S11311D03A1D528892B2083A91B23A680832984756
S11311E029E03B1D1B78DBB2072B11D1564B1B6842
S11311F0002B20D0544B1B683A1D5278D0B23A1DB4
S1131200528892B2083A91B23A680832984712E08A
S11312104E4A4049404B1800404B98474C4B1800ED
S1131220404B98470D20404B98470F23FB18FA2258
S11312301A70C046A3E0354B1B78DBB2002B53D1A8
S1131240444A3449344B1800344B9847424B1800F5
S1131250344B98470D20344B98470F23FC183F4BD1
S11312609847030023703FE00F23FB18FE221A70F7
S11312703B4A2849284B1800284B9847394B1800FB
S1131280284B98470D20284B984778E086239A00EE
S11312902049214B1800214B9847BA68324B110062
S11312A018001E4B98470D201F4B98471CE02F4AEF
S11312B01849194B1800194B98472D4B1800194B16
S11312C098470D20184B984759E089239A001149F3
S11312D0114B1800114B9847264B1800114B984797
S11312E00D20114B98474AE00F23FC18224B9847D6
S11312F00300237043E0C046DD0A000070100000C4
S1131300D51A000041060000F91A0000AE000020C2
S113131084100000B4B9000068B7000011A80000F0
S113132098B7000031A9000045A80000491B00003F
S1131330BCB70000D4B70000B0000020B400002007
S1131340B8000020C0000020BC0000200202000001
S113135014B80000090200002CB80000710A000053
S11313601102000050B8000064B800001E02000022
S113137080B80000A4B80000750B0000C0460F231D
S1131380FB181B785BB21800BD4605B090BDC04683
S113139090B583B000AFFB1D00221A7023E0184BF8
S11313A01B78DBB2013BDAB2154B1A70FC1D154BEE
S11313B0984703002370FB1D1B785BB2002B00D100
S11313C011E0114A1149124B1800124B9847FB1DAA
S11313D000229A56104B110018000E4B98470D200E
S11313E00E4B9847E2E7064B1B78DBB2002BD6D1B5
S11313F0FB1D1B785BB21800BD4603B090BDC04610
S1131400AF0000207D0F000043020000BCB90000C3
S113141068B7000011A80000C4B8000045A8000087
S113142080B582B000AF7860034B98470300180082
S1131430BD4602B080BDC0469113000090B587B090
S113144002AFF860080011007B600B23FB18021C3C
S11314501A700A23FB180A1C1A707C680A23FB18EA
S11314601A780B23FB181978F868002301932023BA
S1131470FB181B8800932300034CA04703001800AB
S1131480BD4605B090BDC0468D140000B0B5AAB0ED
S113149004AFF860080011007B600B23FB18021CEA
S11314A01A700A23FB180A1C1A709723FB180022CF
S11314B01A700A23FB181B78012B00D183E07B6888
S11314C0002B11D1D84AD949D94B1800D94B984788
S11314D0D94B1800D94B98470D20D94B98479723DF
S11314E0FB18F4221A70EFE10A23FB181B78022B75
S11314F069D17B681800D34B9847031E402B62D1F7
S11315009623FB1800221A707B689022BA18136085
S113151054E09623FB181B789022BA181268D3184B
S11315201B782F2B31D99623FB181B789022BA18DD
S11315301268D3181B78392B09D99623FB181B780A
S11315409022BA181268D3181B78402B1DD9962301
S1131550FB181B789022BA181268D3181B78462BF4
S113156009D99623FB181B789022BA181268D3184D
S11315701B78602B09D99623FB181B789022BA1884
S11315801268D3181B78662B11D9AF4AA749A84B08
S11315901800A84B9847AD4B1800A84B98470D204E
S11315A0A74B98479723FB18F4221A708CE19623D3
S11315B0FB181A789623FB1801321A709623FB182D
S11315C01B783F2BA5D90B23FB181B78002B04D0C9
S11315D00B23FB181B78202B11D99D4A9349944B5C
S11315E01800944B98479B4B1800944B98470D2038
S11315F0934B98479723FB18F4221A7064E1A823AD
S1131600FB181B880D2B16D9A823FB181B88FF2B4E
S113161011D0914A8549864B1800864B98478F4BC9
S11316201800864B98470D20854B98479723FB1845
S1131630F4221A7048E10B23FB181A78F968142372
S1131640FB1846331800864B98470B23FB181B786E
S11316501422BA184621D3185B1800221A701423D6
S1131660FB18A822BA18442112885A52AC23FB183A
S11316701B785A1E9341DBB219001423FB1867220E
S113168099541423FB188C22BA1813608C23FB186A
S11316901B680A22BA18412112785A540A23FB18EB
S11316A01B78032B00D07BE07B688822BA18136078
S11316B08C23FB181B688422BA1813608823FB1838
S11316C01B681B78013BDAB28423FB181B681A7071
S11316D08423FB181B681B78032B17D9614A5349D1
S11316E0534B1800534B98478423FB181B681B78F3
S11316F01A005D4B110018004E4B98470D20504BBB
S113170098479723FB18F4221A70DDE08823FB180E
S11317101B685B78013BDAB28423FB181B685A70A0
S11317208423FB181B685B780A2B1ED08423FB18C8
S11317301B685B781A2B18D090239A003B493C4BCA
S113174018003C4B98478423FB181B685B781A00ED
S1131750464B11001800374B98470D20384B9847DB
S11317609723FB18F4221A70AEE08423FB181B683D
S1131770981C8823FB181B68991C8823FB181B687A
S11317805B781A00364B98478823FB181B685B78F4
S11317901A008423FB181B689B1800229A7082E0AD
S11317A00A23FB181B78022B30D18223FC187B6898
S11317B01800244B9847030023808223FB181B88BE
S11317C0002B04D08223FB181B88402B11D9284AF4
S11317D01649174B1800174B9847264B1800174B00
S11317E098470D20164B98479723FB18F4221A703C
S11317F06AE08C23FB1818688223FB181B880133CA
S11318001A007B681900164B98474CE00A23FB1812
S11318101B78042B30D18C23FB181B6879683E227B
S113182018000F4B98473EE003020000F0BC000094
S1131830F8B9000011A80000A4BB000031A9000001
S113184045A80000350A00000F020000B8BB0000E4
S113185019020000C4BB000022020000D8BB000033
S1131860B909000039020000E4BB000000BC00001C
S11318704F0200001CBC00000A23FB181B78012B3C
S113188011D0154A1549164B1800164B9847164B9C
S11318901800164B98470D20154B98479723FB18B3
S11318A0F4221A7010E09723FC181423FA1800236A
S11318B0029300230193002300936C232821012029
S11318C00C4DA847030023709723FB181B785BB2C9
S11318D01800BD4626B0B0BD5F020000F0BC000099
S11318E0F8B9000011A8000038BC000031A90000BC
S11318F045A80000410C000090B585B000AF0F234F
S1131900FB1800221A700023BB600120644B984727
S11319100F23FC183B1D19000120624B984703005C
S113192023700F23FB181B785BB2002B0DD05E498C
S11319305E4B722218005E4B98475E4B18005E4B5C
S113194098470D205D4B9847A1E07B680222134322
S1131950190001205A4B98470120514B9847594B85
S11319601B680F22BC183A00110018004D4B984711
S1131970030023700F23FB181B785BB2002B08D1E4
S11319800F23FB181B785BB2002B62D13B68002B42
S11319905FD14C4B0E221A600120414B9847494BB2
S11319A01B680F22BC183A00110018003D4B9847E1
S11319B0030023700F23FB181B785BB2002B08D1A4
S11319C00F23FB181B785BB2002B42D13B68002B22
S11319D03FD13C4B13221A600120314B9847394BBD
S11319E01B680F22BC183A00110018002D4B9847B1
S11319F0030023700F23FB181B785BB2002B28D045
S1131A0029492A4B96221800294B98472E4B180037
S1131A10294B98470D20294B984738E00220204B4A
S1131A209847284B1B683A00110018001D4B984733
S1131A303B68042213400CD11B491C4BAA221800FA
S1131A401B4B9847214B18001B4B98470D201B4BF1
S1131A5098473B680422134009D1BB680133BB603B
S1131A60BA681B4B0321100098470B1ED6D03B6865
S1131A700422134006D17B6802221343190001207B
S1131A800F4B98473B680422134000D15DE70F23B6
S1131A90FB181B785BB21800BD4605B090BDC0466C
S1131AA019060000D51A00002CBE000004BD000079
S1131AB011A8000018BD000031A9000045A80000CD
S1131AC0F91A00000C00002038BD000058BD0000C9
S1131AD09D99000080B582B000AF786039603A68A3
S1131AE07B6811001800034B984703001800BD469B
S1131AF002B080BDBD2B000080B582B000AF78601D
S1131B0039603A687B6811001800034B984703005A
S1131B101800BD4602B080BD0D2C000080B584B015
S1131B2000AFF860B960BB1D1A80BB1D1A88B96884
S1131B30FB681800034B984703001800BD4604B027
S1131B4080BDC0465D2C000080B586B000AFF86053
S1131B50B9607A602D4B1A881023FB18083A1A8052
S1131B6000237B611323FB1800221A701023FB1837
S1131B701A887B689A4213D3BA687B69D1187B6848
S1131B809AB2FB681800224B98470300DAB2132379
S1131B90FB181B78D318DAB21323FB181A702DE044
S1131BA0BA687B69D1181023FB181A88FB681800DF
S1131BB0174B98470300DAB21323FB181B78D3188A
S1131BC0DAB21323FB181A701323FB181B785BB2C9
S1131BD0002B12D11023FB181B887A68D31A7B6060
S1131BE01023FB181B887A69D3187B611023FB1818
S1131BF01B88FA68D318FB60B8E7C0461323FB18A8
S1131C001B785BB21800BD4606B080BD08000020FA
S1131C101D1B000080B584B000AFF860B960BB1D27
S1131C201A80BB1D1A88B968FB681800034B9847D3
S1131C3003001800BD4604B080BDC046B52C0000AA
S1131C4080B586B000AFF860B9607A602D4B1A8811
S1131C501023FB18083A1A8000237B611323FB1816
S1131C6000221A701023FB181A887B689A4213D337
S1131C70BA687B69D1187B689AB2FB681800224B5A
S1131C8098470300DAB21323FB181B78D318DAB28F
S1131C901323FB181A702DE0BA687B69D11810233E
S1131CA0FB181A88FB681800174B98470300DAB230
S1131CB01323FB181B78D318DAB21323FB181A70FA
S1131CC01323FB181B785BB2002B12D11023FB18D3
S1131CD01B887A68D31A7B601023FB181B887A69E7
S1131CE0D3187B611023FB181B88FA68D318FB6098
S1131CF0B8E7C0461323FB181B785BB21800BD4637
S1131D0006B080BD08000020151C000080B586B018
S1131D1000AF78600A00BB1C1A800C23FB18002259
S1131D201A600C23FB187A685A600C23FB18BA1C3F
S1131D3012881A810C23FB1819000320034B9847BF
S1131D4003001800BD4606B080BDC0462909000046
S1131D5080B586B000AF78600A00BB1C1A800C23E3
S1131D60FB187A681A600C23FB1800225A600C23B3
S1131D70FB18BA1C12881A810C23FB1819000320C3
S1131D80034B984703001800BD4606B080BDC0460B
S1131D902909000080B582B000AF0200FB1D1A7053
S1131DA0BB1D0A1C1A70FB1D1B785A00BB1D1B7837
S1131DB05340034AD35C1800BD4602B080BDC04600
S1131DC03CBE000090B585B000AFB9607A600F23C7
S1131DD0FB18021C1A700EE0BB685A1CBA601A7811
S1131DE00F23FC180F23FB181B7811001800084B55
S1131DF09847030023707B685A1E7A60002BEBD14E
S1131E000F23FB181B781800BD4605B090BDC046D3
S1131E10951D000090B589B000AFB9607A603B6051
S1131E200F23FB18021C1A701F23FB1805221A70BB
S1131E301E23FB1801221A701423FB180F22BA1850
S1131E4012781A700F23FB181B78C13B0E2B00D994
S1131E501BE19A00B64BD3181B689F46BB681B0C4A
S1131E60DAB21423FB185A70BB681B0ADAB21423C3
S1131E70FB189A70BB68DAB21423FB18DA701F23BC
S1131E80FB1805221A7005E1BB681B0ADAB2142399
S1131E90FB185A703023FB181B78002B09D014232D
S1131EA0FB185B78802252421343DAB21423FB18E6
S1131EB05A70BB68DAB21423FB189A701423FB1807
S1131EC00022DA701F23FB1805221A70E2E01423A3
S1131ED0FB1800225A701423FB1800229A70142352
S1131EE0FB180022DA701F23FB1805221A70D1E0B8
S1131EF01423FB1800225A701423FB1800229A7032
S1131F001423FB180022DA701F23FB1805221A7011
S1131F10C0E01423FB18FF225A701423FB18FF227D
S1131F209A701423FB18FF22DA701F23FB18052272
S1131F301A70AFE0BB681B0CDAB21423FB185A709A
S1131F40BB681B0ADAB21423FB189A70BB68DAB2B6
S1131F501423FB18DA703B681B0ADAB21423FB184B
S1131F601A713B68DAB21423FB185A711F23FB1849
S1131F7007221A708EE0BB681B0CDAB21423FB181C
S1131F805A70BB681B0ADAB21423FB189A70BB6838
S1131F90DAB21423FB18DA703B681B0CDAB2142390
S1131FA0FB181A713B681B0ADAB21423FB185A7126
S1131FB03B68DAB21423FB189A711F23FB1808221A
S1131FC01A7067E0BB681B0ADAB21423FB185A7054
S1131FD03023FB181B78002B09D01423FB185B78E3
S1131FE0802252421343DAB21423FB185A70BB689E
S1131FF0DAB21423FB189A707B681B0EDAB214232E
S1132000FB18DA707B681B0CDAB21423FB181A7104
S11320107B681B0ADAB21423FB185A717B68DAB2A4
S11320201423FB189A711F23FB1808221A7031E03D
S1132030BB681B0CDAB21423FB185A70BB681B0A6A
S1132040DAB21423FB189A70BB68DAB21423FB18B3
S1132050DA707B681B0EDAB21423FB181A717B68E2
S11320601B0CDAB21423FB185A717B681B0ADAB210
S11320701423FB189A717B68DAB21423FB18DA7103
S11320801F23FB1809221A7004E01E23FB180022E8
S11320901A70C0461E23FB181B785BB2002B3ED07F
S11320A0244B1B78002B15D11F23FB181B785C1EB7
S11320B01F23FB181B78013B1A001423FB1819007B
S11320C07F201D4B98470300DB18DAB21423FB185A
S11320D01A5506E01F23FB181F22BA181278013A7A
S11320E01A701F23FB181B789AB21423FB181100D3
S11320F01800124B9847031E11D084235A0010492C
S1132100104B1800104B9847104B1800104B984771
S11321100D20104B98471E23FB1800221A701E2313
S1132120FB181B785BB21800BD4609B090BDC046D1
S1132130F4C30000C4000020C51D0000511D0000B0
S113214030C400003CBF000011A8000050BF0000D4
S113215031A9000045A8000080B584B000AF02009A
S1132160FB1D1A700F23FB1801221A70FB1D1B782C
S1132170CF2B07D0FB1D1B78C52B03D0FB1D1B7871
S1132180C62B0CD10D23FB18012118003A4B98479C
S1132190031E04D00F23FB1800221A7063E00E23E1
S11321A0FB180A221A700D23FB1801211800324B68
S11321B09847031E13D02823FF331A002F49304BAE
S11321C01800304B9847304B1800304B98470D207F
S11321D02F4B98470F23FB1800221A7043E00D235E
S11321E0FB181B78FA1D12789A420BD00E23FB18A9
S11321F01B785BB2DAB2013AD1B20E22BA1811706E
S1132200002BD0DC0E23FB180A221A700D23FB18B6
S113221001211800184B9847031E13D03623FF33AF
S11322201A001649164B1800164B9847164B1800FF
S1132230164B98470D20164B98470F23FB18002286
S11322401A7010E00D23FB181B78002B0BD00E2303
S1132250FB181B785BB2DAB2013AD1B20E22BA187B
S11322601170002BD2DC0F23FB181B785BB2180013
S1132270BD4604B080BDC0460D1D000038C400003A
S11322803CBF000011A800007CBF000031A9000081
S113229045A8000080B586B000AF78600800110042
S11322A0BB1C021C1A807B1C0A1C1A701123FB180D
S11322B001221A701423FB1800221A80BB1C1A88EE
S11322C080239B019A4205D81223FB18BA1C12885A
S11322D01A8004E01223FB18802292011A8016232C
S11322E0FB180A221A800B23FB18012118005F4BEC
S11322F09847031E13D05823FF331A005C495D4BE3
S113230018005D4B98475D4B18005D4B98470D20B6
S11323105C4B98471123FB1800221A7017E00B231B
S1132320FB181B781B09DBB21A000F2313400F2B79
S11323300CD01623FB1800229B5E9AB2013A91B28C
S11323401622BA181180002BCDD100E0C04611230B
S1132350FB181B785BB2002B00D17DE01623FB1821
S113236000229B5E002B18DC6423FF331A004049D3
S1132370404B1800404B98470B23FB181B781A005E
S1132380414B110018003C4B98470D203D4B98479A
S11323901123FB1800221A705FE01423FB1800229B
S11323A09B5E7A68D2181223FB181B881900100050
S11323B02E4B9847031E12D0B6235A002C492D4B9E
S11323C018002D4B9847314B18002D4B98470D2082
S11323D02C4B98471123FB1800221A703DE07B1CFC
S11323E01B78002B1FD12A4B1B78002B1BD10C23ED
S11323F0FB18022118001D4B9847031E13D07823A5
S1132400FF331A001A491B4B18001B4B9847214BEA
S113241018001B4B98470D201A4B98471123FB18A3
S113242000221A7019E01423FB181A881223FB18CF
S11324301B88D3189AB21423FB181A801223FB1892
S11324401A88BB1CB91C09888A1A1A80BB1C1B88F1
S1132450002B00D032E700E0C0461123FB181B78A4
S11324605BB21800BD4606B080BDC0460D1D00001D
S113247044C400003CBF000011A80000B0BF00002D
S113248031A9000045A80000E4BF000014C000000A
S1132490C400002044C0000080B586B000AF78605E
S11324A00A00BB1C1A801323FB1801221A700C2388
S11324B0FB1800221A801623FB1800221A80BB1C6A
S11324C01A8880239B019A4205D81423FB18BA1C4E
S11324D012881A8004E01423FB18802292011A80C7
S11324E01123FB18F0221A701623FB1800229B5E9E
S11324F0002B0FD1BB1C1A8880239B019A4204D85D
S11325001223FB1803221A7013E01223FB18012272
S11325101A700EE0BB1C1A8880239B019A4204D8CF
S11325201223FB1803221A7003E01223FB18022261
S11325301A701123FB181A781223FB181B78134303
S1132540DAB21123FB181A701123FB1801211800A9
S11325503C4B9847031E12D0D4235A003A493B4BB4
S113256018003B4B98473B4B18003B4B98470D20BA
S11325703A4B98471323FB1800221A705AE016238B
S1132580FB1800229B5E7A68D2181423FB181B8860
S1132590190010002B4B9847031E13D0B223FF33AE
S11325A01A002949294B1800294B98472C4B18002D
S11325B0294B98470D20294B98471323FB180022D9
S11325C01A7037E0274B1B78002B1BD10C23FB1808
S11325D0022118001B4B9847031E13D0BC23FF3362
S11325E01A001949194B1800194B98471E4B18002B
S11325F0194B98470D20194B98471323FB180022B9
S11326001A7017E01623FB181A881423FB181B886A
S1132610D3189AB21623FB181A80BB1CB91C1422B7
S1132620BA18098812888A1A1A80BB1C1B88002BC6
S113263000D044E71323FB181B785BB21800BD4697
S113264006B080BD511D000054C400003CBF000012
S113265011A8000078C0000031A9000045A80000BE
S1132660B0C00000C4000020E4C00000B0B586B0D3
S113267002AF786039600D23FB1801221A700F2312
S1132680FB18C9221A700E23FB1800221A707B68EB
S1132690302B08D80F23FB18C3221A700E23FB1803
S11326A001221A7007E00F23FB18C9221A700E23A7
S11326B0FB1800221A700D23FC183A6879680F235E
S11326C0FB1818780E23FB181B7800930423264D5F
S11326D0A847030023700D23FB181B785BB2012B62
S11326E012D0EC23FF331A002049214B1800214B50
S11326F098477A68204B110018001E4B98470D200C
S11327001E4B984700232BE00D23FC180F23FB18C6
S11327101B7818001A4B9847030023700D23FB18ED
S11327201B785BB2012B1AD0F223FF331A000F4936
S11327300F4B18000F4B98477A68124B1100180082
S11327400C4B98470D200D4B984700230093002312
S113275000220021CF20044CA047002300E00123E5
S11327601800BD4604B0B0BD151E000064C40000CE
S11327703CBF000011A800001CC1000045A80000D7
S11327805921000048C10000B0B588B002AFF8601C
S1132790B960BB1D1A801723FB18C7221A70BB1D12
S11327A01A881623FC18F9681723FB1818780023D5
S11327B0009313000022374DA8470300237016230B
S11327C0FB181B785BB2012B10D0334A3349344BCE
S11327D01800344B9847FA68334B11001800314BFA
S11327E098470D20314B984700234FE01623FC18DF
S11327F01723FB181B7818002D4B984703002370F0
S11328001623FB181B785BB2012B18D0294A2349E5
S1132810234B1800234B9847FA68274B11001800E4
S1132820204B98470D20214B984700230093002309
S113283000220021CF20174CA047002326E01623B6
S1132840FC18BB1D1A88BB68110018001B4B984765
S1132850030023701623FB181B785BB2012B14D0E2
S1132860174A0E490E4B18000E4B9847154B18008B
S1132870154B98470D200D4B9847002300930023D8
S113288000220021CF20034CA04701231800BD469D
S113289006B0B0BD151E00000F02000074C4000095
S11328A03CBF000011A8000080C1000045A8000042
S11328B05921000015020000B0C100009924000055
S11328C026020000E8C1000031A90000B0B586B0BE
S11328D002AF786039600D23FB1801221A700F23B0
S11328E0FB18CA221A700E23FB1800221A707B6888
S11328F0FF2B08D80F23FB18C4221A700E23FB18D1
S113290001221A7007E00F23FB18CA221A700E2343
S1132910FB1800221A700D23FC1879680F23FB188A
S113292018780E23FB181B78009304230022444DCF
S1132930A847030023700D23FB181B785BB2012BFF
S113294010D0404A4049414B1800414B98477A689F
S1132950404B110018003E4B98470D203E4B9847C2
S1132960002368E00D23FC180F23FB181B781800C4
S11329703A4B9847030023700D23FB181B785BB276
S1132980012B18D0364A3049304B1800304B984749
S11329907A68344B110018002D4B98470D202E4BAC
S11329A0984700230093002300220021CF20244CC9
S11329B0A04700233FE00D23FC180E23FB181A78D0
S11329C00823FB1804211800274B984703002370A1
S11329D00D23FB181B785BB2012B16D0234A1A492E
S11329E01A4B18001A4B9847214B1800214B984753
S11329F00D20194B98470023009300230022002147
S1132A00CF200F4CA047002315E00823FB181B78A8
S1132A101A000823FB185B781B021A430823FB18CF
S1132A209B781B041A430823FB18DB781B061A4304
S1132A303B681A6001231800BD4604B0B0BDC0460F
S1132A40151E00004502000084C400003CBF0000C5
S1132A5011A8000010C2000045A800005921000080
S1132A604B0200003CC2000095220000530200000B
S1132A7070C2000031A90000B0B588B002AFF860A0
S1132A80B960BB1D1A801723FB18C8221A70BB1D1E
S1132A901A881623FC18F9681723FB1818780023E2
S1132AA0009313000022394DA84703002370162316
S1132AB0FB181B785BB2012B11D09D239A0034497B
S1132AC0344B1800344B9847FA68344B1100180003
S1132AD0314B98470D20324B9847002352E0162380
S1132AE0FC181723FB181B7818002E4B984703007B
S1132AF023701623FB181B785BB2012B18D02A4ACB
S1132B002349244B1800244B9847FA68274B11009B
S1132B101800214B98470D20214B98470023009320
S1132B20002300220021CF20184CA047002329E0D5
S1132B301623FC18BB1D1988BB68002218001C4B07
S1132B409847030023701623FB181B785BB2012BF4
S1132B5017D0A1239A000E490E4B18000E4B98472C
S1132B60144B1800144B98470D200D4B9847002325
S1132B700093002300220021CF20044CA04700230F
S1132B8000E001231800BD4606B0B0BD151E0000CC
S1132B9094C400003CBF000011A8000090C20000D3
S1132BA045A80000592100007A020000C0C20000BC
S1132BB095220000F8C2000031A9000090B585B04C
S1132BC000AF786039600F23FC183A687B68110005
S1132BD018000D4B9847030023700F23FB181B7834
S1132BE05BB2012B04D10F23FB1800221A7003E0FF
S1132BF00F23FB18FA221A700F23FB181B785BB201
S1132C001800BD4605B090BDCD28000090B585B034
S1132C1000AF786039600F23FC183A687B681100B4
S1132C2018000D4B9847030023700F23FB181B78E3
S1132C305BB2012B04D10F23FB1800221A7003E0AE
S1132C400F23FB18FA221A700F23FB181B785BB2B0
S1132C501800BD4605B090BD6D26000090B587B044
S1132C6000AFF860B960BB1D1A801723FC18BB1DA8
S1132C701A88B968FB6818000D4B98470300237045
S1132C801723FB181B785BB2012B04D11723FB1805
S1132C9000221A7003E01723FB18FA221A70172374
S1132CA0FB181B785BB21800BD4607B090BDC04648
S1132CB0792A000090B587B000AFF860B960BB1DF9
S1132CC01A801723FC18BB1D1A88B968FB68180002
S1132CD00D4B9847030023701723FB181B785BB236
S1132CE0012B04D11723FB1800221A7003E01723C9
S1132CF0FB18FA221A701723FB181B785BB2180012
S1132D00BD4607B090BDC0468927000090B58BB082
S1132D1004AF040008001100BB1D221C1A807B1D97
S1132D20021C1A703B1D0A1C1A701723FB18FF2281
S1132D301A701523FB180B221A70BB1D1B88022B5B
S1132D4000D07EE07B1D1B78012B08D11523FB18D6
S1132D5007221A701623FB1800221A7067E07B1DE5
S1132D601B78022B08D11523FB180B221A7016238B
S1132D70FB1807221A705AE01723FB181B785BB262
S1132D8063E01623FB181B781A01324BD3183B61FE
S1132D903B699B7ADBB2002B42D13B6910220021B4
S1132DA018002D4B98473B6901229A722B4B1B88C4
S1132DB09BB201339AB2294B1A80284B1B889BB2D1
S1132DC0002B06D1254B1B889BB201339AB2234BAF
S1132DD01A80224B1B889AB23B69DA801723FB18AE
S1132DE01622BA1812781A703B1D1B780122134060
S1132DF026D00C23FB181722BA1812781A703B69D4
S1132E002122DA720C23FA1800230293002301937F
S1132E1000230093042350210220114CA0470FE00B
S1132E201623FB181A781623FB1801321A7016237E
S1132E30FA181523FB1812781B789A42A1D300E0E4
S1132E40C0461723FB181B785BB21800BD4607B0B9
S1132E5090BDC04684440020F5090000C60000204F
S1132E60410C0000B0B58AB004AF39601100FB1DFD
S1132E70021C1A70BB1D0A1C1A701723FB18FA22B5
S1132E801A70FB1D1B787F2B67D83B68002B64D01E
S1132E90FB1D1B785BB2354A1B01D3180A331B7820
S1132EA0DBB2012B59D1BB1D1B78002B55D0162347
S1132EB0FB1844221A70FB1D1B785BB22B4A1B01C2
S1132EC0D3180B331B78DBB21A00012313400FD045
S1132ED01623FB184B221A70FB1D1B785BB2234A86
S1132EE01B01D3180B331B78DAB20823FB185A7270
S1132EF00823FB18FA1D12781A7239680823FB1884
S1132F00082218001A4B9847FB1D1B785BB2174A1E
S1132F101B01D31806331B889AB20823FB185A8165
S1132F201723FC180823FA181623FB181978002312
S1132F30029300230193002300930C2302200D4DE0
S1132F40A847030023701723FB181B785BB2002BE0
S1132F5003D01723FB18F7221A701723FB181B78CA
S1132F605BB21800BD4606B0B0BDC0468444002024
S1132F70B9090000410C000090B58FB004AF040003
S1132F80B960100019000F23FB18221C1A700C23BF
S1132F90FB18021C1A80BB1D0A1C1A802623FB186E
S1132FA0062252421A800F23FB181B787F2B00D96C
S1132FB087E0BB68002B00D183E00C23FB181A8840
S1132FC0AF23DB009A4200D97BE00F23FB181B7868
S1132FD05BB2404A1B01D3180A331B78DBB2012BC6
S1132FE06FD12323FB1845221A702423FB18502287
S1132FF01A801023FB180F22BA1812781A701023A3
S1133000FB180C22BA1812885A800F23FB181B785D
S11330105BB2304A1B01D31806331B889AB21023C3
S1133020FB189A810F23FB181B785BB2062B03DD78
S11330302423FB1844221A800F23FB181B785BB24D
S1133040244A1B01D3180B331B78DBB21A0001236B
S113305013400FD02323FB184C221A700F23FB18A4
S113306000229A562423FB181A4912018A1808329E
S113307012881A802323FB181B78802252421343A0
S1133080D9B21023FA182423FB181B8802930C23AB
S1133090FB181B880193BB680093102302200E4C7D
S11330A0A04703001A002623FB181A802623FB18C6
S11330B000229B5E002B04D02623FB180E225242D2
S11330C01A802623FB1800229B5E1800BD460BB015
S11330D090BDC04684440020410C000090B58DB0E2
S11330E004AFB96011007B600F23FB18021C1A7037
S11330F00C23FB180A1C1A801E23FB1806225242BA
S11331001A800F23FB181B787F2B00D999E0BB682A
S1133110002B00D195E00C23FB181B88002B00D159
S11331208FE00F23FB181B785BB24A4A1B01D318AC
S11331300A331B78DBB2012B00D082E01E23FB187C
S113314000221A800F23FB1800229A56414B1201C9
S1133150B968D1500F23FB181B785BB23D4A1B01A1
S1133160D31804330C22BA1812881A800F23FB18C0
S11331701B785BB2374A1B01D3180C331B78DBB2C4
S1133180002B5ED11D23FB1846221A700F23FB1857
S11331901B785BB22F4A1B01D3180C3301221A701F
S11331A00F23FB181B785BB22A4A1B01D3180B337D
S11331B01B78DBB21A000123134003D01D23FB1834
S11331C04D221A707B68002B05D11423FB180122B1
S11331D052421A6003E01423FB187A681A6014231D
S11331E0FB180F22BA1812781A710F23FB181B78D8
S11331F05BB2184A1B01D31806331B889AB21423F6
S1133200FB18DA801423FA181D23FB1819780023FD
S113321002930023019300230093082302200E4C01
S1133220A04703001A001E23FB181A801E23FB1854
S113323000229B5E002B04D01E23FB180E22524258
S11332401A801E23FB1800229B5E1800BD4609B09D
S113325090BDC04684440020410C0000B0B588B045
S113326004AF0200FB1D1A700F23FB18FA221A7018
S1133270FB1D1B787F2B6AD8FB1D1B785BB2384A79
S11332801B01D3180A331B78DBB2012B5FD10E2349
S1133290FB1849221A700823FB18FA1D12781A70B9
S11332A0FB1D1B785BB22E4A1B01D31806331B8807
S11332B09AB20823FB185A80FB1D1B785BB2284A7C
S11332C01B01D3180A3300221A70FB1D1B785BB252
S11332D0234A1B01D318063300221A80FB1D1B78D6
S11332E05BB21F4A1B01D3180B331B78DBB21A00E5
S11332F00123134003D00E23FB184E221A700F2310
S1133300FC180823FA180E23FB18197800230293DB
S1133310002301930023009304230220114DA847A6
S1133320030023700F23FB181B785BB2002B03D020
S11333300F23FB18F7221A70FB1D1B785BB21A01CE
S1133340074BD318102200211800074B98470F236E
S1133350FB181B785BB21800BD4604B0B0BDC04674
S113336084440020410C0000F5090000B0B588B089
S113337004AF78600F23FB18FA221A707B681800D8
S1133380194B984703001A000E23FB181A700E23DA
S1133390FB181B78402B1FD80E23FB181B789BB2FD
S11333A0013399B20F23FC187A6800230293002397
S11333B00193002300930B00CA2102200B4DA84760
S11333C0030023700F23FB181B785BB2002B03D080
S11333D00F23FB18F7221A700F23FB181B785BB21C
S11333E01800BD4604B0B0BD350A0000410C000011
S11333F080B582B000AF104B1B68002B12D1EFF3E5
S113340010837B607B68002B09D172B6BFF35F8F9A
S11334100A4B00221A700A4B01221A7002E0084B70
S113342000221A70044B1B685A1C034B1A60C046D6
S1133430BD4602B080BDC046C80000201000002078
S1133440CC00002080B500AF0B4B1B685A1E0A4B02
S11334501A60094B1B68002B0AD1084B1B78DBB29E
S1133460002B05D0064B01221A70BFF35F8F62B6A2
S1133470C046BD4680BDC046C8000020CC00002028
S11334801000002080B584B000AF0200FB1D1A704C
S11334900F23FB18FA1D1278D2091A700E23FB1899
S11334A0FA1D127852091A700D4BBB600F23FB18DA
S11334B01B78002B0FD10F23FB181B789B001022C5
S11334C09446BC446344083B1A680E23FB181B78DB
S11334D0DB01D31800E000231800BD4604B080BD12
S11334E00044004180B582B000AF0200FB1D1A7099
S11334F0FB1D1B781800034B984703001800BD46BA
S113350002B080BD8534000080B582B000AF786021
S11335107B6800221A707B6801225A707B68002243
S11335209A70C046BD4602B080BDC04680B584B026
S113353000AF0200FB1D1A70BB1D0A1C1A70FB1D94
S11335401B7818000D4B98470300FB60FB1D1B788C
S11335501F22134001229A401300BB60BB1D1B783D
S1133560002B03D0FB68BA689A6102E0FB68BA6872
S11335705A61C046BD4604B080BDC046E534000073
S113358080B582B000AF3B1D18000E4B98473B1D21
S113359001221A703B1D190017200B4B984701217B
S11335A017200A4B98473B1D00221A703B1D01222D
S11335B05A703B1D19003720034B9847C046BD463F
S11335C002B080BD09350000153E00002D35000015
S11335D090B58BB000AF040008001100FB1D221C45
S11335E01A70BB1D021C1A707B1D0A1C1A70FA1D6E
S11335F0BB1D12781B781343DAB22423FB181A700C
S11336002423FB1800225A701823FB184F221A8017
S11336101823FB1801225A801823FB182422BA18F5
S11336205A601823FB1800221A721823FB18002270
S11336305A721823FB1800229A720C23FB184F228B
S11336401A807B1D1B789AB20C23FB185A800C231A
S1133650FB182422BA185A600C23FB1800221A7291
S11336600C23FB1800225A720C23FB1800229A72B6
S11336701823FA180D4B110018000D4B98470C2312
S1133680FA180A4B110018000A4B98472423FB1818
S11336901B781B021AB22423FB185B781BB213435A
S11336A01BB29BB21800BD460BB090BD4045002034
S11336B0C14400000943000090B587B000AF162351
S11336C0FC180222002100204D4B98470300238060
S11336D000230024BB60FC60FB1D01221A7016232A
S11336E0FB1800229B5E002B0DDAFB1D1B785B424E
S11336F0DAB2FB1D1A701623FB181622BA181288A8
S11337005204520C1A803F4B1B78012B22D002DC4E
S1133710002B05D06DE0022B36D0032B4FD068E090
S11337201623FB181622BA181288D2091A801623F7
S1133730FB181B88FA1D127852B25A43324B100000
S11337409847324C0022324BA04703000C00BB6068
S1133750FC604EE01623FB181622BA181288920950
S11337601A801623FB181B88FA1D127852B25A438A
S1133770254B10009847254C0022264BA0470300F8
S11337800C00BB60FC6034E01623FB181622BA1848
S1133790128852091A801623FB181B88FA1D127806
S11337A052B25A43184B10009847184C0022FF237A
S11337B09B05A04703000C00BB60FC6019E01623C6
S11337C0FB181622BA18128812091A801623FB183D
S11337D01B88FA1D127852B25A430B4B10009847BB
S11337E00A4C00220C4BA04703000C00BB60FC6099
S11337F0C046BB68FC6818002100BD4607B090BDF8
S1133800D1350000CD000020DDA000007D9B00002C
S11338100000E03F0000D03F0000B03F80B584B01E
S113382000AF78607B681B68FB60FB685B7EDBB283
S11338305BB2002B01DA012300E000231800BD462F
S113384004B080BD80B584B000AF78607B681B682D
S1133850FB60C0467B6818000B4B9847031EF9D1E8
S1133860FB681B7BDBB202221343DAB2FB681A73D8
S1133870C0467B681800044B9847031EF9D1C04624
S1133880BD4604B080BDC0461D38000080B584B07C
S113389000AF78600A00FB1C1A707B681B68FB6031
S11338A0FB68FA1C12789A75C046BD4604B080BD08
S11338B080B584B000AF0200FB1D1A70FB1D1A789E
S11338C0444B9200D358FB60FB681B681B7EDBB241
S11338D0BB60BB680122134045D0FB68DB7E1A0045
S11338E0012313403FD0FB689B7E1A000123134041
S11338F039D0FB681B6801221A76C046FB681800A1
S1133900354B9847031EF9D1FB685B69991CFA682B
S11339105161FA681268528B92B21A80FB681B8B51
S11339209BB2013B9BB2FA68191C1183002B08D08F
S1133930FB685B7F002B16D0FB681800274B984769
S113394011E0FB681B7FDBB2052B0CD1FB68002266
S11339501A77FB6801211800214B9847FB689B6884
S1133960FA6810009847BB680422134014D0FB681F
S11339701B6804221A76FB68DB7E1A0002231340BC
S11339800AD0FB689B7E1A000223134004D0FB6814
S1133990DB68FA6810009847BB680222134014D011
S11339A0FB681B6802221A76FB68DB7E1A0004237C
S11339B013400AD0FB689B7E1A000423134004D0F2
S11339C0FB681B69FA6810009847C046BD4604B0FE
S11339D080BDC046684500201D3800004538000001
S11339E08D38000080B500AF0020024B9847C046D8
S11339F0BD4680BDB138000080B584B000AF020080
S1133A00FB1D1A700F23FB18FA1D127852091A7045
S1133A100F23FB181B78002B0CD1094BBB600F2321
S1133A20FB181B789B0010229446BC446344083B5B
S1133A301B6800E000231800BD4604B080BDC046EA
S1133A400018004080B584B000AF0200FB1D1A705E
S1133A50FB1D1B7818000B4B98470300FB60FB1DF4
S1133A601B781F22134001229A401300BB60FB689D
S1133A701B69BA6813405A1E9341DBB21800BD4655
S1133A8004B080BDF939000080B584B000AF0200F5
S1133A90FB1D1A70FB1D1B781800094B9847030087
S1133AA0FB60FB1D1B781F22134001229A40130068
S1133AB0BB60FB68BA681A61C046BD4604B080BDED
S1133AC0F939000080B584B000AF0200FB1D1A7004
S1133AD0BB1D0A1C1A70BB1D1B78002B0ED1FB1DCD
S1133AE01B781800084B98470300FB60FB1D1B78EC
S1133AF001229A40FB68DA60002300E017231800D3
S1133B00BD4604B080BDC046F939000080B584B01C
S1133B1000AF0200FB1D1A70BB1D0A1C1A70BB1DEE
S1133B201B78002B0ED1FB1D1B781800084B9847FF
S1133B300300FB60FB1D1B7801229A40FB689A601E
S1133B40002300E017231800BD4604B080BDC04622
S1133B50F939000080B500AF154B00221A7020E03F
S1133B60134B1B781800134B9847031E13D0104BAC
S1133B701B781800104B98470D4B1B781A000F4BFD
S1133B809200D358002B06D0094B1B781A000B4B1C
S1133B909200D3589847064B1B780133DAB2044B92
S1133BA01A70034B1B780F2BDAD9C046BD4680BD73
S1133BB06C450020453A0000893A00007045002019
S1133BC080B582B000AF78607B6800221A70C0466E
S1133BD0BD4602B080BDC04680B582B000AF0200D1
S1133BE03960FB1D1A70FB1D1B78012B0AD0022BB8
S1133BF00FD0002B14D10E4B0D4A91693A680A4339
S1133C009A610FE00A4B0A4AD1693A680A43DA61B9
S1133C1008E0074B064A116A3A680A431A6201E04F
S1133C20172300E000231800BD4602B080BDC04643
S1133C300004004080B582B000AF0200FB1D1A7082
S1133C40064BFA1D127811001F220A4001219140EF
S1133C500A001A60C046BD4602B080BD00E100E023
S1133C6080B582B000AF0F4B3B6000237B6011E056
S1133C707B689B0008229446BC446344083B1B6851
S1133C805B78DBB25BB2002B01DA012306E07B68D0
S1133C9001337B607B68002BEAD000231800BD460B
S1133CA002B080BD0018004080B584B000AF2D4B39
S1133CB07B60402100202C4B98473B0018002B4B85
S1133CC098473B0000221A703B0019000520284B3E
S1133CD098470520274B98470023FB6018E0FB68B2
S1133CE09B0010229446BC4463440C3B1A68FB6856
S1133CF09B0010218C46BC4463440C3B1B681B781E
S1133D00DBB201210B43DBB21370FB680133FB60B0
S1133D10FB68002BE3D0C046174B9847031EFBD12A
S1133D200B23FB1800221A700DE00B23FB181A78E2
S1133D30124B92000021D1500B23FB181A780B234D
S1133D40FB1801321A700B23FB181B780F2BECD9CC
S1133D5004200B4B98470B4B9847C046BD4604B014
S1133D6080BDC04600180040D93B0000C13B0000A4
S1133D70D161000015620000613C00007045002024
S1133D80353C0000893D000080B582B000AF154B82
S1133D903B6000237B6018E07B689B00082294460C
S1133DA0BC446344083B1A687B689B0008218C462A
S1133DB0BC446344083B1B681B78DBB202210B4301
S1133DC0DBB213707B6801337B607B68002BE3D02C
S1133DD0C046054B9847031EFBD1C046BD4602B002
S1133DE080BDC04600180040613C000080B582B030
S1133DF000AF78607B6880221A707B6800225A705A
S1133E007B6801229A707B680022DA70C046BD4646
S1133E1002B080BD80B584B000AF02003960FB1DE4
S1133E201A700C23FB181800104B98470C23FB182E
S1133E3080221A703B681A780C23FB185A703B686E
S1133E405A780C23FB189A703B689A780C23FB1859
S1133E50DA700C23FA18FB1D1B7811001800044BB0
S1133E609847C046BD4604B080BDC046ED3D000045
S1133E70BD64000080B586B000AF7860284B7A68D6
S1133E809200D3587B617B691B683B610E23FB184E
S1133E907A69528A1A807B691B8A9AB20E23FB18AC
S1133EA00E21791809880A401A803B691B7ADAB214
S1133EB00C23FB181A803B69DB79DBB29AB20C2322
S1133EC0FB180C21791809880A401A800C23FB1866
S1133ED01B88802213400CD00E23FB181B8802225F
S1133EE0134002D07B69DB6898473B6980221A72D1
S1133EF011E00C23FB181B88012213400BD00E2366
S1133F00FB181B880122134002D07B699B689847E9
S1133F103B6901221A72C046BD4606B080BDC04648
S1133F20B045002080B500AF0020024B9847C04642
S1133F30BD4680BD753E000080B584B000AF78609A
S1133F407B681B68FB60FB68DB69072213405A1E11
S1133F509341DBB21800BD4604B080BD80B582B089
S1133F6000AF7860C0467B681800044B9847031E76
S1133F70F9D1C046BD4602B080BDC046393F0000FD
S1133F8080B584B000AF78607B681B68FB60FB6819
S1133F901B7EDBB21A00022313400BD0FB68022203
S1133FA01A76FB685B8B9BB21A000223134011D074
S1133FB0412310E0FB685B8B9BB21A00042313407F
S1133FC008D0FB685B68C02292021A43FB685A60FF
S1133FD0182300E000231800BD4604B080BDC0468D
S1133FE080B584B000AF78607B681B68BB600E232B
S1133FF0FB1800221A800FE00E23FB180E22BA18B9
S1134000128801321A807B681B890E22BA18128822
S11340109A4201D312230EE0BB681B7EDBB21A0066
S11340200123134006D1BB681B7EDBB21A000223B6
S11340301340E1D000231800BD4604B080BDC04643
S113404090B585B000AF78600A00FB1C1A707B68DD
S11340501B68FB60FB685B688022D2021A43FB6822
S11340605A60FB1C1A78FB685A620B23FC187B68A5
S11340701800074B984703002370FB6801221A7647
S11340800B23FB181B781800BD4605B090BDC04635
S1134090E13F000090B587B000AF786039607B687D
S11340A01B68FB601423FB183A6852881A80122399
S11340B0FB1800221A80FB681B681B01DB0FDBB2B4
S11340C01A000B23FB18511E8A411A703B685B7A55
S11340D0002B06D03B689A7A7B6811001800854B48
S11340E09847FB685B68844A1A40FB685A603B68DF
S11340F01B7A002B42D03B681B885A003B685B7AD2
S11341009B0313431A0080231B021A43FB685A6261
S11341101723FC187B681800784B9847030023701A
S1134120FB685B68744A1A40FB685A601723FB18E3
S11341301B78002B07D11723FC187B681800704BE1
S11341409847030023701723FB181B78002B11D109
S11341503B681B881B0A9BB2782213439BB25A000C
S11341603B685B7A9B031343012213431A00FB68E9
S11341705A620FE01723FB181B78B6E03B681B88D4
S11341805B0001221A433B685B7A9B0313431A00CA
S1134190FB685A621723FC187B681800574B984732
S11341A0030023700B23FB181B78002B0BD03B68F8
S11341B05B88012B07D1FB685B688022D2021A431B
S11341C0FB685A6005E0FB685B684B4A1A40FB6871
S11341D05A601723FB181B78002B07D11723FC18F0
S11341E07B681800464B9847030023701723FB187D
S11341F01B78002B00D075E04BE0FB685B8B9BB217
S11342001A002023134001D141236EE07B68DB7A3E
S1134210002B1ED00B23FB181B7801225340DBB26A
S1134220002B04D01423FB181B88002B09D00B236C
S1134230FB181B78002B0CD01423FB181B88012BB4
S113424007D1FB685B688022D2021A43FB685A607C
S11342501AE07B6818002B4B98473B685A68122376
S1134260FB181B8812217918581C0880D318FA6887
S11342702821525CD2B21A701723FC187B681800EC
S11342801E4B9847030023701723FB181B78002B41
S113429009D11423FB181B881422BA18591E118043
S11342A0002BAAD100E0C0467B689B7A002B0AD081
S11342B07B681800134B9847FB685B68C022920226
S11342C01A43FB685A607B6818000E4B98473B689A
S11342D05A681223FB181B88D318FA682821525CE9
S11342E0D2B21A701723FB181B781800BD4607B00A
S11342F090BDC04641400000FFFFFBFFE13F0000CE
S1134300813F00005D3F000080B582B000AF78605F
S113431039607B689B8B9BB2002B01D005230CE09A
S11343207B6801229A727B680122DA723A687B68A0
S113433011001800034B984703001800BD4602B053
S113434080BDC0469540000090B587B000AF78604E
S113435039607B681B68FB601423FB183A68528839
S11343601A807B681800514B98473B685B7A002B96
S113437006D03B689A7A7B68110018004C4B98472A
S1134380FB685B684B4A1A40FB685A603B681B7ABF
S1134390002B0DD03B681B885A003B685B7A9B035B
S11343A013431A0080231B021A43FB685A6209E074
S11343B03B681B885A003B685B7A9B0313431A00D3
S11343C0FB685A621723FC187B6818003A4B98471D
S11343D0030023701723FB181B78002B07D1172326
S11343E0FC187B681800354B98470300237017238B
S11343F0FB181B78002B52D11223FB1800221A80C1
S113440033E0FB685B8B9BB21A002023134001D17D
S1134410412347E07B681800244B98473B685A685F
S11344201223FB181B8812217918581C0880D318F2
S11344301978FB68282299541723FC187B68180004
S11344401D4B9847030023701723FB181B78002B80
S113445015D1FB685B8B9BB21A000423134004D074
S11344601723FB181E221A700AE01423FB181B885A
S11344701422BA18591E1180002BC2D100E0C04684
S11344807B689B7A002B0AD07B681800074B9847FF
S1134490FB685B68C02292021A43FB685A601723C8
S11344A0FB181B781800BD4607B090BD5D3F0000A7
S11344B041400000FFFFFBFFE13F0000813F00009F
S11344C080B582B000AF786039607B689B8B9BB20B
S11344D0002B01D005230CE07B6800229A727B68D4
S11344E00122DA723A687B6811001800034B98477E
S11344F003001800BD4602B080BDC0464943000019
S113450080B582B000AF78607B6800221A70C04624
S1134510BD4602B080BDC04680B586B000AFF8602D
S1134520B9607A601623FB1800221A80BB683B61CD
S1134530BB685A08FB689A4201D2402326E0BB6854
S11345405B083B610AE03A69FB68D31A3B611623B6
S1134550FB181A881623FB1801321A803A69FB6883
S11345609A42F0D21623FB181622BA181288013A7E
S11345701A801623FB181B88FF2B01D9402305E062
S11345807B681622BA1812881A8000231800BD46C8
S113459006B080BD80B584B000AF0200FB1D1A7068
S11345A0BB1D0A1C1A701A4B1B7801225340DBB244
S11345B0002B03D1BB1D1B78002B1BD00C23FB1835
S11345C01800144B98470C23FB18FA1D12781A7024
S11345D00C23FB18190013200F4B984713200F4B83
S11345E098470B4BFA1D12785A70094B01221A7026
S11345F0002308E0064B5B78FA1D12789A4201D139
S1134600002300E01D231800BD4604B080BDC04651
S1134610D000002001450000D161000015620000B7
S113462080B582B000AF78600A00FB1C1A707B680A
S11346304D4A93423FD04C4A934206D84B4A934248
S11346400FD04B4A934221D089E04A4A934200D189
S11346505BE0494A934200D16CE0484A93423FD020
S11346607DE0FB1C1B78012B0AD002DC002B05D05B
S113467075E0022B06D0032B06D070E0404B6FE0B0
S1134680404B6DE0404B6BE0404B69E0FB1C1B78FA
S1134690012B0AD002DC002B05D060E0022B06D0EF
S11346A0032B06D05BE003235AE0394B58E0394B27
S11346B056E0394B54E0FB1C1B78012B0AD002DC7A
S11346C0002B05D04BE0022B06D0032B06D046E08E
S11346D0324B45E0324B43E0324B41E0324B3FE05A
S11346E0FB1C1B78012B0AD002DC002B05D036E022
S11346F0022B06D0032B06D031E02C4B30E02C4BA0
S11347002EE02C4B2CE02C4B2AE0FB1C1B78012BBD
S11347100AD002DC002B05D021E0022B06D0032BAB
S113472006D01CE0254B1BE0254B19E0254B17E078
S1134730254B15E0FB1C1B78012B0AD002DC002B57
S113474005D00CE0022B06D0032B06D007E01F4B4C
S113475006E01F4B04E01F4B02E01F4B00E0002368
S11347601800BD4602B080BD00100042000800429F
S1134770000C004200180042001C004200140042D9
S11347800300040003000500030006000300070003
S11347900300010003001E0003001F0003000800C3
S11347A00300090003000A0003000B0003001000CB
S11347B003001100030012000300130003000C00A7
S11347C003000D0003000E0003000F000300160099
S11347D003001700030018000300190090B58BB004
S11347E000AF78600C23FB180F4A13CA13C313CA13
S11347F013C300237B620EE00C23FB187A6A920039
S1134800D3581A1E7B689A4202D17B6ADBB206E057
S11348107B6A01337B627B6A052BEDD90023180088
S1134820BD460BB090BDC046A0C4000080B582B0A8
S113483000AF0200FB1D1A70C046BD4602B080BD29
S113484080B584B000AF02003960FB1D1A70134BB1
S11348501B7801225340DBB2002B15D00023FB60F0
S11348600CE00F4BFA6892000E49D1500E4BFA68D7
S113487092000021D150FB680133FB60FB68052BDB
S1134880EFD9064B01221A70FB1D1A78044B9200D3
S11348903968D150C046BD4604B080BDD200002066
S11348A0D40000202D480000B445002090B585B008
S11348B000AF78600823FA180C4B10001900062387
S11348C01A000B4B98470F23FC187B681800094B00
S11348D09847030023700F23FB181B780822BA188B
S11348E0D35C5BB21800BD4605B090BDB8C40000EF
S11348F049A20000DD47000080B500AF034B1B68F0
S113490000209847C046BD4680BDC046D400002064
S113491080B500AF034B5B6801209847C046BD4695
S113492080BDC046D400002080B500AF034B9B6817
S113493002209847C046BD4680BDC046D400002032
S113494080B500AF034BDB6803209847C046BD46E3
S113495080BDC046D400002080B500AF034B1B6966
S113496004209847C046BD4680BDC046D400002000
S113497080B500AF034B5B6905209847C046BD4630
S113498080BDC046D400002080B582B000AF7860FE
S11349907B6880221A707B6800225A707B6801222F
S11349A09A707B680022DA70C046BD4602B080BDB2
S11349B080B584B000AF0200FB1D1A700F23FB18F2
S11349C0FA1D1278D2091A700E23FB18FA1D1278F8
S11349D052091A700D4BBB600F23FB181B78002B78
S11349E00FD10F23FB181B789B0010229446BC4464
S11349F06344083B1A680E23FB181B78DB01D318A9
S1134A0000E000231800BD4604B080BD004400410E
S1134A1080B582B000AF0200FB1D1A70FB1D1B782D
S1134A201800034B984703001800BD4602B080BD30
S1134A30B149000080B584B000AF0200FB1D1A70BC
S1134A40BB1D0A1C1A70FB1D1B7818000D4B9847E0
S1134A500300FB60FB1D1B781F22134001229A40B8
S1134A601300BB60BB1D1B78002B03D0FB68BA6826
S1134A709A6102E0FB68BA685A61C046BD4604B058
S1134A8080BDC046114A000080B582B000AF786096
S1134A907B6800221A70C046BD4602B080BDC04685
S1134AA080B582B000AF02003960FB1D1A70FB1D97
S1134AB01B78012B0AD0022B0FD0002B14D10E4BE4
S1134AC00D4A91693A680A439A610FE00A4B0A4A0F
S1134AD0D1693A680A43DA6108E0074B064A116A69
S1134AE03A680A431A6201E0172300E00023180021
S1134AF0BD4602B080BDC0460004004080B500AF92
S1134B00054B9B78DBB21A00022313405A1E9341D3
S1134B10DBB21800BD4680BD0020004180B584B0E2
S1134B2000AF78607B681B68FB60FB681B7EDBB2B0
S1134B301A00012313405A1E9341DBB21800BD46EC
S1134B4004B080BD80B584B000AF78607B681B681A
S1134B50FB60FB681B7EDBB21A00042313405A1E61
S1134B609341DBB21800BD4604B080BD80B584B06B
S1134B7000AF78600A00BB1C1A807B681B68FB606E
S1134B807B6818000A4B984703001A00012353401E
S1134B90DBB2002B01D0052306E0BB1C1B88DB0520
S1134BA0DA0DFB689A6200231800BD4604B080BD8C
S1134BB01D4B000080B584B000AF786039607B681D
S1134BC01B68BB607B6818001B4B984703001A00E6
S1134BD001235340DBB2002B01D0102327E00F2325
S1134BE0FB1800221A70BB685B8B9BB21A0004236B
S1134BF0134006D00F23FB181E221A70BB68042230
S1134C005A837B689B79012B08D1BB689B6A9BB252
S1134C10DB05DB0D9AB23B681A8005E0BB689B6A32
S1134C20DBB29AB23B681A800F23FB181B7818007A
S1134C30BD4604B080BDC046454B000090B593B05E
S1134C4000AF786039607B681B687B637B681B6896
S1134C503B631C23FB181800754B98471C23FB1857
S1134C6000225A703B681B78002B03D11C23FB18CD
S1134C7000229A703B689A6A0C23FB181A603B68FE
S1134C80DA6A0C23FB185A603B681A6B0C23FB1876
S1134C909A603B685A6B0C23FB18DA604723FB18B5
S1134CA000221A702CE04723FB181A780C23FB18F7
S1134CB09200D3583B643B6C002B09D14723FB186B
S1134CC01A783B6B110018005A4B984703003B6459
S1134CD03B6C01330DD03B6CDAB21C23FB181A7009
S1134CE03B6C1B0CDBB21C22BA1811001800524B8F
S1134CF098474723FB181A784723FB1801321A7088
S1134D004723FB181B78032BCDD93B681A787B68A3
S1134D105A713B681A7C7B689A713B689A7C7B6801
S1134D20DA713B681A7D7B681A720A23FB18002229
S1134D301A800023FB630023BB633B681B78012BB1
S1134D4029D17B681B6818003C4B98470300FB6221
S1134D50FB6A1433BB62BB6ADBB21800384B98475A
S1134D6003007B623B689B692322BC180A22BA18A1
S1134D70796A1800334B9847030023702323FB18E8
S1134D801B78002B01D017234EE00A23FB181B8845
S1134D90DAB27B6B1A733B685B68FA6B1343FB6391
S1134DA03B689B68FA6B1343FB633B68DB68FA6BF5
S1134DB01343FB633B681B7C1A00BB6B1343BB634D
S1134DC03B685B7C002B03D11F4B9847031E03D029
S1134DD0FB6B80221343FB633B689B7C002B04D05A
S1134DE0BB6B802292021343BB633B68DB7C002BCA
S1134DF004D0BB6B802292001343BB633B681B7DD2
S1134E00002B04D0BB6B802292011343BB637B6BEA
S1134E101A68FB6B1A437B6B1A607B6B5A68BB6B1B
S1134E201A437B6B5A6000231800BD4613B090BD33
S1134E308949000021460000BD640000DD470000F0
S1134E40F562000019450000FD4A000090B58BB0E2
S1134E5000AFF860B9607A60FB68BA681A60FB68F2
S1134E601B683B623B6A1B680222134001D01C236F
S1134E709CE03B6A1B680122134001D0052395E0A6
S1134E80FB681B6818004B4B98470300FB61FB69E8
S1134E900233BB61FB6914337B610122BB699A4015
S1134EA0130019000220444B98471023FB181800E4
S1134EB0424B98477B6824229A5C1023FB181A7093
S1134EC07B69DBB21022BA18110018003C4B9847DA
S1134ED07B69DBB218003B4B98477B6824229B5CC0
S1134EE000211800384B98477B681B78012B05D1AB
S1134EF03B6A1B680C221A433B6A1A602723FB187F
S1134F0000221A7010E02723FB181B78FA6802337A
S1134F109B00D318043300221A602723FB181A7845
S1134F202723FB1801321A702723FB181B78062B42
S1134F30E9D9FB680022DA62FB6800229A62FB6806
S1134F4000229A86FB6800221A86FB68362200211A
S1134F509954FB68372200219954FB6838220021B8
S1134F609954FB6803225A72FB6800221A71FB6889
S1134F701B681322BC1818000E4B984703002370BB
S1134F80124A1323FB181B7811001800104B984782
S1134F901323FB181A780F4B9200F968D1507A68E2
S1134FA0FB68110018000C4B984703001800BD461D
S1134FB00BB090BDDD470000A14A0000894A000003
S1134FC0D161000015620000954500000D530000FA
S1134FD041480000B44500203D4C000080B586B037
S1134FE000AFF860B960FB1D1A70FB685B79012B98
S1134FF001D015235CE0FB681B7A01225340DBB22D
S1135000002B54D0FB1D1B78002B4AD0BB685B7867
S1135010002B3FD0FB681800274B984703001A0069
S113502001235340DBB2002B07D0BB681B7801215E
S11350301800224B984705233AE0BB681B780021EF
S113504018001E4B9847BB689B789AB2FB68110006
S113505018001B4B9847FB68DB7901225340DBB2F5
S1135060002B24D0C046FB681800164B9847030059
S11350701A0001235340DBB2002BF4D11623FB1892
S113508000221A801623FA18FB68110018000E4B30
S113509098470CE0BB681B7800211800074B984721
S11350A005E0BB681B7801211800044B98470023D6
S11350B01800BD4606B080BD1D4B0000354A0000F7
S11350C06D4B0000454B0000B54B000080B586B029
S11350D000AFF860B960BB1D1A80FB68BA1D128866
S11350E09A86FB68BA1D12885A86FB68BA68DA6227
S11350F0FB68382205219954FB6801225A72FB6827
S11351001B687B61FB68DB79002B03D07B6905227C
S11351109A7502E07B6901229A75C046BD4606B0C5
S113512080BDC04680B584B000AFF860B960FB1D97
S11351301A70FB1D1B78FA6802339B00D3180433E2
S1135140BA681A60FB6836229B5C5AB2FB1D1B7856
S1135150012199400B005BB213435BB2D9B2FB68E7
S113516036229954C046BD4604B080BD80B584B093
S113517000AFF860B960BB1D1A80BB1D1B88002BF3
S113518001D117230FE0FB6838229B5CDBB2052BAF
S113519001D1052307E0BB1D1A88B968FB68180014
S11351A0034B984700231800BD4604B080BDC04699
S11351B0CD50000080B584B000AF78607B681B6878
S11351C0BB607B68DB6A1B78DAB20E23FB181A809B
S11351D07B68DB6A5A1C7B68DA627B689B79012BEB
S11351E013D17B68DB6A1B78DBB21B021AB20E2375
S11351F0FB1800215B5E13431AB20E23FB181A80BE
S11352007B68DB6A5A1C7B68DA620E23FB181B88F6
S1135210DB05DA0DBB689A627B689B8E9BB2013B0F
S11352209AB27B689A86C046BD4604B080BDC0462B
S113523080B584B000AF78607B681B68FB60084B66
S11352401B881A00FB689A627B685B8E9BB2013BE9
S11352509AB27B685A86C046BD4604B080BDC0463B
S1135260CC45002080B584B000AF78607B681B68B3
S1135270FB600A23FB1800221A80FB689A6A0A233F
S1135280FB181A807B685B8E9BB2013B9AB27B68E9
S11352905A86C046BD4604B080BDC04680B584B0C1
S11352A000AF78607B681B68FB60FB689B6A9AB2FE
S11352B00A23FB18D205D20D1A807B689B6A0A2246
S11352C0BA181288D2B21A707B689B6A5A1C7B681F
S11352D09A627B689B79012B0DD17B689B6A0A22B9
S11352E0BA181288120A92B2D2B21A707B689B6AF8
S11352F05A1C7B689A627B681B8E9BB2013B9AB2F4
S11353007B681A86C046BD4604B080BD80B586B0B1
S113531000AF0200FB1D1A70FB1D1A78964B920019
S1135320D3587B617B691B683B617B6937229A5C3C
S11353307B693621595C0F23FB180A401A703B69BC
S11353401B7EDAB20C23FB181A803B699B7DDBB20F
S11353509AB20C23FB180C21791809880A401A8088
S11353600C23FB181B880122134038D07B695B791E
S1135370012B10D17B695B7ADBB2002B0BD17B69EB
S113538018007E4B98477B695B8E9BB2002B02D141
S11353903B6901221A757B695B79012B1FD17B69FB
S11353A05B7ADBB2002B1AD07B691800744B9847E8
S11353B07B699B8E9BB2002B11D13B6901221A752C
S11353C07B695B7ADBB2012B09D17B69DB79012232
S11353D05340DBB2002B02D03B6902229A750C23A6
S11353E0FB181B880422134000D17EE03B695B8BD1
S11353F09BB21A000423134022D07B695B7ADBB290
S1135400012B14D07B6938221E2199547B69032215
S11354105A723B6905221A750F23FB181B78082260
S1135420134004D07B699B697A69100098473B69F3
S11354309A6A0A23FB181A803B6904225A8354E0AF
S11354407B695B7ADBB2012B1ED17B6918004D4B63
S113545098477B695B8E9BB2002B46D13B69042243
S11354601A757B693822002199547B6903225A7288
S11354700F23FB181B780122134036D07B69DB68AD
S11354807A691000984730E07B6918003E4B9847D2
S11354907B691B8E9BB2002B27D17B6938220021AC
S11354A099543B6904221A757B695B7ADBB2022B3F
S11354B00BD10F23FB181B780422134015D07B69F2
S11354C05B697A69100098470FE07B695B7ADBB20D
S11354D0002B0AD10F23FB181B780222134004D09F
S11354E07B691B697A69100098470C23FB181B8899
S11354F00222134024D07B695B79012B20D17B6984
S11355005B7ADBB2012B1BD17B69DB79012253402F
S1135510DBB2002B14D03B6902221A757B6903228B
S11355205A727B693822002199540F23FB181B7887
S11355300122134004D07B69DB687A691000984724
S11355400C23FB181B888022134010D03B69802257
S11355501A753B6980221A760F23FB181B784022A8
S1135560134004D07B695B6A7A6910009847C0468F
S1135570BD4606B080BDC046B4450020315200008F
S1135580B5510000655200009D52000080B582B004
S113559000AF78607B6801225A607B6800225A70F1
S11355A07B6806221A707B6800221A727B680022CC
S11355B05A72C046BD4602B080BDC04680B582B0B6
S11355C000AF78607B6800221A70C046BD4602B006
S11355D080BDC04680B582B000AF78607B68002291
S11355E01A707B6804225A707B6800229A707B6868
S11355F0802212029A607B680022DA707B680122A2
S11356001A717B6800221A737B6801225A737B68C3
S113561000229A73C046BD4602B080BD80B582B0F8
S113562000AF78607B6803221A707B6800225A708E
S11356307B6801229A70C046BD4602B080BDC04658
S113564080B582B000AF78607B6800221A707B68F6
S113565000225A807B6800229A807B6800229A711B
S11356607B680022DA717B6801225A707B6807220A
S11356701A727B683F225A817B6801221A737B6805
S11356800122DA817B6806221A82C046BD4602B036
S113569080BDC04680B582B000AF0200FB1D1A7009
S11356A0034AFB1D1B781372C046BD4602B080BD81
S11356B00004004080B582B000AF0200FB1D1A70E8
S11356C0BB1D0A1C1A70FB1D1B78012B08D0022B72
S11356D00BD0002B0ED10B4ABB1D1B7853720BE071
S11356E0084ABB1D1B78937206E0064ABB1D1B7853
S11356F0D37201E0172300E000231800BD4602B076
S113570080BDC0460004004080B582B000AF0200F6
S1135710FB1D1A70084AFB1D1B780F210B40D9B2E0
S113572053680F20014049001E2083430B435360FC
S1135730C046BD4602B080BD0040004180B500AF08
S1135740C046044BDB6810221340FAD0C046BD4665
S113575080BDC0460008004080B500AF0C4B02225B
S11357609A840C4B98470A4A0B4B9B68D362084AAD
S1135770094B5B689362064B00229A84054B984759
S1135780034A054B1B689BB29384C046BD4680BD4B
S1135790000800403D570000EC00002080B582B0B6
S11357A000AF0200FB1D1A70FB1D1B78082B40D8AC
S11357B09A00224BD3181B689F46214B1B6939E082
S11357C0204B1B6A9B059B0FDBB21A001E4BD34078
S11357D030E080231B022DE080231B022AE0184BBB
S11357E05B6927E0164B1B680222134001D100239A
S11357F020E0164B9847124B1B680422134009D033
S11358000020134B984702000D4B9B681B041B0C94
S113581053430FE00F4B0DE00A4A5023D35CDBB235
S11358201A000423134001D1002303E0044BDB6876
S113583000E000231800BD4602B080BDC0C40000D3
S1135840EC0000200008004000127A003D570000E0
S1135850F5620000006CDC0280B584B000AF7860B3
S11358601A4B1B6AFB607B681B781A1C03231340CA
S1135870DAB20D23FB1803210A4010001A78032121
S11358808A43111C021C0A431A707B689A780C2301
S1135890FB18D0011A787F210A40111C021C0A430C
S11358A01A707B685A780C23FB1801210A40900176
S11358B01A7840218A43111C021C0A431A70034BB4
S11358C0FA681A62C046BD4604B080BD00080040B4
S11358D080B584B000AF7860434A0C23FB18928AE9
S11358E01A807B685B781A1C07231340DAB20C23F6
S11358F0FB1807210A4010005A7807218A43111C1B
S1135900021C0A435A707B681B78002B06D10C23B7
S1135910FB181A7804210A431A7005E00C23FB18BB
S11359201A7804218A431A707B689A780C23FB182E
S113593001210A4050011A7820218A43111C021CBB
S11359400A431A707B68DA780C23FB1801210A4099
S113595010011A7810218A43111C021C0A431A7080
S11359607B681A790C23FB1801210A40D0001A78AD
S113597008218A43111C021C0A431A707B685A7B53
S11359800C23FB18D0011A787F210A40111C021C39
S11359900A431A707B681A7B0C23FB1801210A4006
S11359A090011A7840218A43111C021C0A431A7080
S11359B07B689A7B0C23FB1801210A4010015A785A
S11359C010218A43111C021C0A435A707B689A688E
S11359D0064B5A61044A0C23FB181B889382C04669
S11359E0BD4604B080BDC04600080040EC00002065
S11359F080B582B000AF78607B681B7A9B021B0481
S1135A001A0C7B685B899B059B0D1A432A4B5A60D1
S1135A107B689A797B68DB791343DBB21A007B6875
S1135A205B8813437A6892881A437B685B78DB014E
S1135A301A43214B1A607B681B78042B16D17B68B0
S1135A401B7B9B061A007B68DB891B0419001B4B1C
S1135A500B4013437A68128A1A43174B9A60164B09
S1135A601B687A6812781A43134B1A607B681B7898
S1135A70202B1CD17B681B7B9B061A007B68DB896F
S1135A801B0419000D4B0B4013437A68128A1A4306
S1135A90094B9A60084B1B687A68127804210A4300
S1135AA0D2B213438022D2001A43034B1A60C04679
S1135AB0BD4602B080BDC046EC0000200000FF03DC
S1135AC080B582B000AF0200FB1D1A70FB1D1B786D
S1135AD0082B3BD89A00214BD3181B689F46204BB8
S1135AE01F4A126A02210A431A62002331E01C4B46
S1135AF01B4A926902210A439A6129E0184A184B09
S1135B001B8A9BB202210B439BB2138220E0144AEE
S1135B10134B9B8A9BB202210B439BB2938217E0E7
S1135B20104B1B6802221A430E4B1A600E4B984707
S1135B300EE00B4A0A494423CB5CDBB202210B433F
S1135B40D9B24423D15403E0002302E0172300E038
S1135B5000231800BD4602B080BDC046E4C4000066
S1135B6000080040EC0000205957000080B584B0C4
S1135B7000AF0200FB1D1A700023FB60FB1D1B78A5
S1135B80082B21D89A00184BD3181B689F4608236A
S1135B90FB601BE00423FB6018E00123FB6015E0BD
S1135BA00223FB6012E0D023FB600FE00F4A502376
S1135BB0D35CDBB21A0003231340033B5A42534124
S1135BC0DBB20CE001230AE0002308E0074BDB68AA
S1135BD0FA681A40FB68D31A5A425341DBB21800E0
S1135BE0BD4604B080BDC04608C5000000080040A2
S1135BF080B582B000AF3B0002221A7000237B60A4
S1135C0009E07B68DBB23A0011001800054B9847A5
S1135C107B6801337B607B68242BF2D9C046BD4688
S1135C2002B080BDD161000080B5AAB000AF874B3F
S1135C30C222D2009A600220854B9847854B984730
S1135C409423FB181800844B98479423FB18802254
S1135C5012029A609423FB1800221A709423FB18F2
S1135C6003225A709423FB1800229A709423FB1881
S1135C700022DA709423FB1801221A719423FB1872
S1135C8000225A739423FB1800221A739423FB18DE
S1135C901800724B98470520714B9847C046052061
S1135CA0704B984703001A0001235340DBB2002BCA
S1135CB0F5D1664A938A80210B4393828023FB1893
S1135CC01800694B98478023FB1804221A7080231C
S1135CD0FB1800225A70654B1B689B0EA422BA184D
S1135CE01360A423FB181B683F2B03D11F23A4229A
