S0110000436C6F75645F5475622E7372656392
S214000000D8670020F9A90000F1AA000071DE000000
S21400001000000000000000000000000000000000DB
S21400002000000000000000000000000059AE0000C4
S214000030000000000000000081AF0000C9AF000013
S214000040F1AA0000F1AA0000F1AA0000417A00001F
S214000050CD740000F1AA0000F1AA0000F1AA000089
S214000060F1AA0000198100003181000049810000DA
S21400007061810000798100009181000041A90000A3
S21400008055A9000069A90000210100003501000003
S214000090490100000000000000000000F9720000A6
S2140000A0F1AA0000F1AA0000F1AA0000F1AA0000DF
S2140000B00000000010B5064C2378002B07D1054B36
S2140000C0002B02D0044800E000BF0123237010BDBF
S2140000D09C0000200000000078280100084B10B5A6
S2140000E0002B03D00749084800E000BF0748036814
S2140000F0002B00D110BD064B002BFBD09847F9E72C
S21400010000000000A00000207828010078280100E8
S2140001100000000080B500AFC046BD4680BDC046AA
S21400012080B500AF0020024B9847C046BD4680BD54
S2140001305D01000080B500AF0120024B9847C04625
S214000140BD4680BD5D01000080B500AF0220024BB9
S2140001509847C046BD4680BD5D01000080B584B0AE
S21400016000AF0200FB1D1A70FB1D1A78284B920088
S214000170D358FB60FB681B689B7BDBB2FA68127E79
S2140001801340DAB2FB68597E0B23FB180A401A703C
S2140001900B23FB181B780122134008D0FB689B68D2
S2140001A0FA6810009847FB681B6801229A730B23B5
S2140001B0FB181B780222134008D0FB68DB68FA683D
S2140001C010009847FB681B6802229A730B23FB18E3
S2140001D01B781022134008D0FB681B69FA681000D1
S2140001E09847FB681B6810229A730B23FB181B7832
S2140001F02022134008D0FB685B69FA681000984715
S214000200FB681B6820229A73C046BD4604B080BDBA
S214000210B045002080B582B000AF78607B680022D1
S2140002201A70C046BD4602B080BDC04680B582B0DA
S21400023000AF02003960FB1D1A70FB1D1B78012BF6
S2140002400AD0022B0FD0002B14D10E4B0D4A916909
S2140002503A680A439A610FE00A4B0A4AD1693A683B
S2140002600A43DA6108E0074B064A116A3A680A430D
S2140002701A6201E0172300E000231800BD4602B012
S21400028080BDC0460004004080B582B000AF7860F4
S2140002907B6880221A707B6800225A707B68012275
S2140002A09A707B680022DA70C046BD4602B080BDF8
S2140002B080B584B000AF78607B681B68FB60FB6825
S2140002C0DB7BDBB21A00802313405A1E9341DBB25D
S2140002D01800BD4604B080BD90B587B000AF78600A
S2140002E00823FB180D4A13CA13C300237B610DE0D5
S2140002F00823FB187A699200D2587B689A4202D18A
S2140003007B69DBB206E07B6901337B617B69022B8C
S214000310EED900231800BD4607B090BD080F0100B7
S21400032090B58DB000AFF860B9607A602E23FB18E8
S21400033000221A802D23FB1800221A702C23FB188B
S21400034000221A702923FC18BB681800BF4B984778
S214000350030023702423FA18BD4B10001900032352
S2140003601A00BC4B98471C23FA18BB4B1000190008
S21400037006231A00B74B98472B23FB1800221A7047
S2140003800EE02B23FB181A78FB680232920000213D
S214000390D1502B23FB181A782B23FB1801321A7026
S2140003A02B23FB181B78032BEBD9FB6800221A764D
S2140003B0FB6800225A762923FB181A78A74B92006E
S2140003C0F968D150FB68BA681A607B689B78082B7E
S2140003D008D12923FB181B7803330122134001D0D0
S2140003E01723C4E17B689A78FB681A71BB681B8880
S2140003F09BB21A000123134001D00523B7E1BB6866
S214000400DB7BDBB21A001023134001D01C23AEE1C5
S214000410BB681B889BB21A000223134001D01C2322
S214000420A5E17B681B7C002B17D01823FB1818004F
S2140004308B4B98477B689B69DAB21823FB181A70B7
S2140004401823FB1801225A707B685B69DBB21822FE
S214000450BA1811001800834B98477B681B7F002B47
S21400046017D01823FB1818007D4B98477B685B6AEB
S214000470DAB21823FB181A701823FB1801225A70D8
S2140004807B681B6ADBB21822BA1811001800754B7D
S21400049098472923FB181A781C23FB185200D35AB6
S2140004A019000220704B98477B689B78082B0BD16D
S2140004B02923FB181B785A1C1C23FB185200D35AFE
S2140004C019000220684B98471423FB181800674B46
S2140004D098477B681A781423FB181A702923FB1890
S2140004E01B782422BA18D35C1422BA1811001800FC
S2140004F05F4B98472923FB181B782422BA18D35C35
S21400050018005C4B98477B689A787B689B79134306
S214000510DBB29AB27B681B89134399B27B689A88D0
S2140005202E23FB180A431A807B685B78002B08D0C2
S2140005302E23FB182E22BA181288802109010A439E
S2140005401A80C046FB6818004B4B9847031EF9D12B
S214000550BB682E22BA1812881A807B685B7B002B39
S21400056003D02D23FB1804221A707B689B7B002B7C
S21400057007D02D23FB182D22BA18127801210A4322
S2140005801A70C046FB6818003B4B9847031EF9D10B
S214000590BB68FF221A712D23FB181B78002B0BD08B
S2140005A0C046FB681800344B9847031EF9D1BB6859
S2140005B02D22BA1812785A712C23FB187A68927A70
S2140005C01A702A23FB1800221A701CE02A23FB1834
S2140005D01B787A68D318DB7A002B0DD02A23FB18F9
S2140005E01B7810229A401300D9B22C23FB182C2219
S2140005F0BA1812780A431A702A23FB181A782A2384
S214000600FB1801321A702A23FB181B78012BDDD940
S214000610C046FB681800184B9847031EF9D1BB6804
S2140006202C22BA1812789A71C046FB681800124B32
S2140006309847031EF9D1FB681B79042B1ED0082BA4
S21400064000D170E0002B4BD090E0C046D9020000ED
S214000650140F010069F70000180F0100B0450020D4
S21400066089020000B9A800002D0200001502000053
S214000670CDA5000011A60000B1020000C046FB6830
S21400068018003D4B9847031EF9D17B6828229A5CD8
S214000690BB681A74C046FB681800374B9847031EA1
S2140006A0F9D17B6829229A5CBB681A75C046FB683C
S2140006B01800314B9847031EF9D17B682A229A5CB2
S2140006C0BB681A76C046FB6818002B4B9847031E7B
S2140006D0F9D17B682B229A5CBB685A76002346E0E9
S2140006E0C046FB681800244B9847031EF9D17B6868
S2140006F01A8DBB681A82C046FB6818001E4B9847C6
S214000700031EF9D17B685A8DBB681A83C046FB6806
S2140007101800194B9847031EF9D17B689A8DBB6861
S2140007205A83002323E0C046FB681800124B984704
S214000730031EF9D17B689A6ABB681A61C046FB68DB
S21400074018000D4B9847031EF9D17B68DA6ABB6820
S2140007509A61C046FB681800074B9847031EF9D1FC
S2140007607B681A6BBB68DA61002300E01723180069
S214000770BD460DB090BDC046B102000080B584B045
S21400078000AF786039607B681B68FB60C0467B689A
S2140007901800114B9847031EF9D17B681B79042B70
S2140007A004D0082B0ED0002B06D010E03B68DAB23F
S2140007B0FB681A7400230BE03B689AB2FB681A8247
S2140007C0002305E0FB683A681A61002300E017235F
S2140007D01800BD4604B080BDB102000090B583B0DD
S2140007E000AF0200FB1D1A700C4B186801235A421A
S2140007F0002300210A4CA047031E0BD0094BFA1D0C
S21400080012785A72054B1868002300220021064C05
S214000810A04700E0C046BD4603B090BDBC450020E2
S214000820D9B5000000460020D9B20000B0B500AF30
S214000830104B1B7B002B19D00E4B5B69591C0D4AC5
S2140008405161142B12D90C4B18680023002200218A
S2140008500A4CA047074B00221A73064B00225A6127
S214000860044B00221A610120054B9847C046BD463E
S214000870B0BDC0460046002018460020D9B2000091
S214000880DD070000B0B500AF0C4B1B7B01225340C8
S214000890DBB2002B0FD00A4B186800230022002181
S2140008A0084CA047054B00221A61044B01221A721D
S2140008B00120054B9847C046BD46B0BD0046002007
S2140008C018460020D9B20000DD070000B0B500AF22
S2140008D0104B1B7B01225340DBB2002B16D00E4B75
S2140008E018680023002200210C4CA047094B002268
S2140008F01A61084BDB7801225340DBB25A1E934143
S214000900DAB2044BDA700120054B9847C046BD4664
S214000910B0BDC0460046002018460020D9B20000F0
S214000920DD070000B0B500AF104B1B7B0122534023
S214000930DBB2002B16D00E4B1868002300220021D5
S2140009400C4CA047094B00221A61084B9B790122E8
S2140009505340DBB25A1E9341DAB2044B9A7101201F
S214000960054B9847C046BD46B0BDC0460046002071
S21400097018460020D9B20000DD070000B0B500AF71
S214000980094B1B7B01225340DBB2002B09D0074BDF
S2140009901868002300220021054CA047024B0022C5
S2140009A01A61C046BD46B0BD00460020184600206D
S2140009B0D9B2000090B583B000AF134B1B7B012269
S2140009C05340DBB2002B1AD00F4B00221A61FC1DDD
S2140009D00E4B984703002370FB1D1B78013BDBB2D0
S2140009E018000B4B9847031E09D10A4B18680023C2
S2140009F000220021084CA047034B01229A72C046F1
S214000A00BD4603B090BDC04600460020110E000053
S214000A10A10D000018460020D9B2000090B583B0A2
S214000A2000AF134B1B7B01225340DBB2002B1AD0C6
S214000A300F4B00221A61FC1D0E4B984703002370D3
S214000A40FB1D1B780133DBB218000B4B9847031EC7
S214000A5009D10A4B1868002300220021084CA04741
S214000A60034B01229A72C046BD4603B090BDC046F5
S214000A7000460020110E0000A10D000018460020C0
S214000A80D9B2000080B582B000AF7860454B1A78C6
S214000A907B681A707B680133424A52781A707B680A
S214000AA00233404A92781A703E4BDB79002B08D00E
S214000AB07B6804337A680432127804210A43D2B27F
S214000AC01A70384BDB78002B09D07B6804337A68C1
S214000AD00432127802210A43D2B21A7008E07B6808
S214000AE004337A680432127801210A43D2B21A70AB
S214000AF02C4B1B7A002B28D07B6803337A68033292
S214000B00127802210A43D2B21A707B6803337A68DD
S214000B100332127810210A43D2B21A70214B9B7905
S214000B20002B09D07B6803337A68033212780421DD
S214000B300A43D2B21A7008E07B6803337A6803323D
S214000B40127808210A43D2B21A70164B1B79002B72
S214000B5008D07B6803337A680332127840210A4350
S214000B60D2B21A700F4B1B7B002B08D07B68033366
S214000B707A680332127820210A43D2B21A70094BDF
S214000B805B79002B09D07B6803337A6803321278CE
S214000B90802149420A43D2B21A70C046BD4602B00E
S214000BA080BDC0460046002080B500AF194B984770
S214000BB0194B9847194B3F221A70184B3F225A7010
S214000BC0164B3F229A70154B0122DA70134B002207
S214000BD01A73124B00229A72104B00221A610F4BA6
S214000BE001225A720D4B00221A710C4B00229A7188
S214000BF00A4B00221A72094B0022DA71074B0022B8
S214000C005A710120064B98470200064B1A60C046F0
S214000C10BD4680BDF5150000FD1100000046002011
S214000C2099B20000BC45002080B582B000AF3B0002
S214000C30180005231A0000210E4B98470E4B5B7ACE
S214000C40002B13D00C4B9B7A01225340DBB2002BB7
S214000C500CD00020094B98473B001800084B9847DB
S214000C603B008F2205211800064B9847C046BD461C
S214000C7002B080BD7BF7000000460020DD070000C4
S214000C80850A00007912000080B582B000AF7B1D97
S214000C9000221A70BB1D01221A70FB1D00221A705A
S214000CA0344B1B78002B45D17B1D1800324B9847E0
S214000CB0031E06D0314B1800314B98477B1D00228F
S214000CC01A707B1D1B78002B2CD02A4B05221A701D
S214000CD020E0FB1D1A782B4BD200D35C7A1D1278CD
S214000CE01340DBB2002B10D0FB1D1B78254ADB001F
S214000CF0D31804331B68002B07D0FB1D1B78214A32
S214000D00DB00D31804331B689847FB1D1A78FB1DBD
S214000D1001321A70FB1D1A781A4BD200D35C002BD6
S214000D20D7D10DE0184B5B69002B09D0164B00227B
S214000D305A6105E00F4B1B78013BDAB20D4B1A7077
S214000D40114B1B7B01225340DBB2002B0DD00E4B08
S214000D501B69591C0C4A11610C4A934205D90A4B6F
S214000D6001221A7301200A4B9847C046BD4602B0BE
S214000D7080BDC046B800002099160000600F010034
S214000D8051FE0000200F0100004600201027000042
S214000D90DD07000080B500AFC046BD4680BDC0463A
S214000DA080B584B000AF0200FB1D1A70164B1B788E
S214000DB0002B08D00E23FB1844221A700F23FB18B2
S214000DC068221A7007E00E23FB1814221A700F23ED
S214000DD0FB1828221A70FA1D0E23FB1812781B78AF
S214000DE09A420CD3FA1D0F23FB1812781B789A42EE
S214000DF005D8064BFA1D12781A70002300E013235C
S214000E001800BD4604B080BD0D0000200C00002078
S214000E1080B500AF024B1B781800BD4680BDC046AB
S214000E200C00002080B582B000AF78607B6880221E
S214000E301A707B6800225A707B6801229A707B6861
S214000E400022DA70C046BD4602B080BD80B584B0D0
S214000E5000AF0200FB1D1A700F23FB18FA1D127854
S214000E60D2091A700E23FB18FA1D127852091A704E
S214000E700D4BBB600F23FB181B78002B0FD10F23E5
S214000E80FB181B789B0010229446BC446344083B26
S214000E901A680E23FB181B78DB01D31800E000232A
S214000EA01800BD4604B080BD0044004180B582B045
S214000EB000AF0200FB1D1A70FB1D1B781800034BC9
S214000EC0984703001800BD4602B080BD4D0E0000D6
S214000ED080B584B000AF0200FB1D1A70BB1D0A1C53
S214000EE01A70FB1D1B7818000D4B98470300FB601B
S214000EF0FB1D1B781F22134001229A401300BB6083
S214000F00BB1D1B78002B03D0FB68BA689A6102E011
S214000F10FB68BA685A61C046BD4604B080BDC0468C
S214000F20AD0E0000F0B583B000AF3B1D01221A7075
S214000F303B1D01225A703B1D00229A703B1D190072
S214000F400920124B984700212A20114B9847002071
S214000F50104B984703001D0000231E000E4B002474
S214000F6028003100C01861410C4C0D4A0023A047F0
S214000F7003000C0018000B4B984700210920044B77
S214000F809847C046BD4603B0F0BDC0463179000064
S214000F90D10E0000F5A40000BFCF6A00E5EE000009
S214000FA0C0CF6A0001000020F0B585B000AF002178
S214000FB02A20264B98470020254B984703003B6085
S214000FC000237B60234B002438687968C018614191
S214000FD0214C224A0023A04703000C001800204B97
S214000FE0984701210920194B98470020184B98472D
S214000FF003001D0000231E00164B002428003100AD
S214001000C0186141144C154A0023A04703000C0089
S2140010101800134B984701212A200C4B98470C23A5
S214001020FB1818000F4B98470C23FB1800225A7029
S2140010300C23FB1802221A700C23FB181900092037
S214001040094B9847C046BD4605B0F0BDD10E00001E
S214001050F5A40000BFCF6A00E5EE0000C0CF6A002E
S21400106001000020250E0000B9A80000F0B589B0E8
S21400107000AF02001723FB181A700F2310229446A5
S214001080BC44634400221A706DE01723FB181A78DC
S2140010900F2310218C46BC4463441B781A4113006E
S2140010A00122134004D001212A20354B984703E043
S2140010B000212A20324B98470020324B98470300E5
S2140010C01D0000231E00304B00245B1974411800DD
S2140010D021002E4C2E4A0023A04703000C001800C7
S2140010E02C4B984701210920254B98470020254B7B
S2140010F098470300BB600023FB60234B0024B868BE
S214001100F968C0186141214C214A0023A04703001A
S2140011100C0018001F4B984700210920184B9847D1
S2140011200020184B984703003B6000237B60164B5B
S214001130002438687968C0186141144C144A0023AA
S214001140A04703000C001800124B98470F231022EC
S2140011509446BC4463441A780F2310218C46BC4442
S214001160634401321A700F2310229446BC44634431
S2140011701B78072B89D9C046BD4609B0F0BDC046CE
S214001180D10E0000F5A40000BFCF6A00E5EE000017
S214001190C0CF6A000100002080B582B000AF020018
S2140011A0FB1D1A70BB1D0A1C1A700F4B98470F4B7D
S2140011B09847FB1D1B785BB23F2293435AB2BB1D78
S2140011C01B785BB23F210B405BB213435BB2DBB2D2
S2140011D01800074B9847074B9847074B984700233C
S2140011E01800BD4602B080BD19AF0000250F0000F4
S2140011F06D100000A90F00003DAF000080B582B062
S21400120000AF3B1D01221A703B1D01225A703B1D88
S21400121000229A703B1D19002A20054B9847012191
S2140012202A20044B9847C046BD4602B080BDC04643
S21400123031790000D10E000080B584B000AF020006
S214001240FB1D1A700F23FB1800221A70FB1D1B785B
S214001250002B03D00F23FB188B221A700F23FB18CA
S2140012601B7819008020034B984703001800BD46E2
S21400127004B080BD9911000090B587B000AF7860CB
S21400128008001100FB1C021C1A70BB1C0A1C1A70FA
S2140012901623FB1800221A70324B186801235A4294
S2140012A000230021304CA047031E01D1122355E035
S2140012B02E4B98470C23FB1818002D4B98470C23F1
S2140012C0FB1800225A700C23FB1802221A701023F7
S2140012D0FB1800221A701023FB1801225A701023E4
S2140012E0FB1800229A701023FB1819000820214BC7
S2140012F09847214B9847C020204B98471723FB1848
S21400130000221A700FE01723FB181B787A68D31890
S2140013101B781800194B98471723FB181A781723C1
S214001320FB1801321A701723FA18FB1C12781B7868
S2140013309A42E8D3124B98470C23FB181900082052
S214001340104B9847104B9847064B1868002300220E
S21400135000210E4CA0471623FB181B781800BD462C
S21400136007B090BDFC450020D9B5000019AF0000BD
S214001370250E000031790000250F00006D100000DA
S214001380A90F0000B9A800003DAF0000D9B20000C8
S21400139080B582B000AF78607B6880221A707B6868
S2140013A000225A707B6801229A707B680022DA70ED
S2140013B0C046BD4602B080BD80B584B000AF020016
S2140013C0FB1D1A700F23FB18FA1D1278D2091A702B
S2140013D00E23FB18FA1D127852091A700D4BBB60CB
S2140013E00F23FB181B78002B0FD10F23FB181B783D
S2140013F09B0010229446BC446344083B1A680E23A4
S214001400FB181B78DB01D31800E000231800BD464C
S21400141004B080BD0044004180B582B000AF020039
S214001420FB1D1A70064BFA1D127811001F220A4087
S214001430012191400A001A60C046BD4602B080BD38
S21400144000E100E080B582B000AF0200FB1D1A701C
S214001450FB1D1B781800034B984703001800BD4679
S21400146002B080BDB913000080B584B000AF0200A2
S214001470FB1D1A70FB1D1B7818000B4B98470300CA
S214001480FB60FB1D1B781F22134001229A401300AD
S214001490BB60FB681B6ABA6813405A1E9341DBB2F6
S2140014A01800BD4604B080BD4514000080B584B069
S2140014B000AF0200FB1D1A70BB1D0A1C1A70FB1D34
S2140014C01B7818000D4B98470300FB60FB1D1B782C
S2140014D01F22134001229A401300BB60BB1D1B78DD
S2140014E0002B03D0FB68BA689A6102E0FB68BA6812
S2140014F05A61C046BD4604B080BDC04645140000D3
S21400150080B584B000AF78607B681B68FB60FB68C2
S214001510DB695A1E9341DBB21800BD4604B080BD9D
S21400152080B582B000AF78607B6801221A707B6855
S21400153000225A607B6800229A607B68C022920371
S214001540DA607B6800221A747B6800225A747B6813
S21400155001229A747B680122DA747B6800221A756D
S2140015607B682422002199547B6818330C220021C2
S21400157018000A4B98477B68094A9A617B680022E4
S2140015809A627B680022DA627B6800221A637B68B4
S21400159000225A63C046BD4602B080BD7BF70000FD
S2140015A0A086010080B584B000AF78607B681B68B9
S2140015B0FB607B681B6818000B4B984703001800FD
S2140015C00A4B9847C0467B681800094B9847031E8D
S2140015D0F9D1FB681B6802221A43FB681A60C046F2
S2140015E0BD4604B080BDC046CD8000001914000082
S2140015F00115000080B58EB000AF3B0018001C4BF4
S21400160098473B001B4A9A623B001B4ADA623B0043
S214001610012252421A633B00012252425A633B00A7
S21400162080229202DA603B000022DA743B00134A02
S2140016309A613B00C02292059A603B002422042156
S21400164099543B0000225A743A000D490D4B18007D
S2140016500D4B9847031E04D00C4B18000C4B9847B4
S21400166003E0084B18000B4B9847BD460EB080BDF4
S214001670211500000200080002000900983A000048
S21400168000080042C04500206D860000840F01005F
S21400169051FE0000A5150000F0B54F464646C0B402
S2140016A089B000AFF860102308229446BC44634417
S2140016B001221A70102308229446BC446344012277
S2140016C05A70102308229446BC44634400229A7041
S2140016D0142308229446BC44634400221A70142340
S2140016E008229446BC44634401225A7014230822FC
S2140016F09446BC44634400229A700C230822944605
S214001700BC4463441800804B98470C230822944638
S214001710BC44634400225A707C4B186801235A422A
S214001720002300217A4CA047031E01D11223E3E0D8
S214001730784B9847102308229446BC44634419000B
S2140017400920754B9847142308229446BC446344EA
S21400175019000820704B98470820704B98470300E4
S2140017601A0001235340DBB2002B0AD0674B1868DF
S2140017700023002200216A4CA0476A4B98470523A5
S214001780BAE000210920684B98470020674B98472D
S21400179003003B6000237B6039687A680B00140006
S2140017A0DB1864415B185441614900225B185441C0
S2140017B0180021005F4C604A0023A04703000C007D
S2140017C018005E4B984701210920574B98470C2379
S2140017D008229446BC44634402221A700C23082252
S2140017E09446BC44634419000820554B98470C2384
S2140017F008229446BC44634402221A700C23082232
S2140018009446BC446344190009204D4B984717235F
S214001810994608239C46BC44E144F968494800239D
S2140018200122494CA046C04703004A4613701023C5
S21400183008229446BC44634419000920364B984756
S214001840142308229446BC44634419000820324BF3
S214001850984700210920344B98470020334B98477F
S21400186003001D0000231E002B003400DB1864411B
S2140018705B1974412E4900225B1854411800210060
S2140018802C4C2D4A0023A04703000C0018002B4BBD
S214001890984701210920244B98470C230822944698
S2140018A0BC44634402221A700C2308229446BC44AB
S2140018B0634419000820224B98470C2308229446BC
S2140018C0BC44634402221A700C2308229446BC448B
S2140018D06344190009201A4B98470C4B18680023DC
S2140018E0002200210E4CA0470E4B984717230822D3
S2140018F09446BC4463441B781800BD4609B00CBC33
S21400190090469946F0BDC04691130000FC45002065
S214001910D9B5000019AF0000317900006914000045
S214001920D9B200003DAF0000AD140000F5A40000E1
S214001930BFCF6A00E5EE0000C0CF6A0001000020BD
S214001940B9A80000C0450020FD87000080B584B01F
S21400195000AF0200FB1D1A700F23FB18FA1D127849
S214001960D2091A700E23FB18FA1D127852091A7043
S2140019700D4BBB600F23FB181B78002B0FD10F23DA
S214001980FB181B789B0010229446BC446344083B1B
S2140019901A680E23FB181B78DB01D31800E000231F
S2140019A01800BD4604B080BD0044004180B500AFBD
S2140019B0044B01221A70BFF35F8F62B6C046BD4665
S2140019C080BDC0461800002080B582B000AF02007F
S2140019D0FB1D1A70FB1D1B781800034B984703006D
S2140019E01800BD4602B080BD4D19000080B582B01B
S2140019F000AF78607B6800221A707B6801225A70FC
S214001A007B6800229A70C046BD4602B080BDC046C4
S214001A1080B584B000AF0200FB1D1A70BB1D0A1C07
S214001A201A70FB1D1B7818000D4B98470300FB60CF
S214001A30FB1D1B781F22134001229A401300BB6037
S214001A40BB1D1B78002B03D0FB68BA689A6102E0C6
S214001A50FB68BA685A61C046BD4604B080BDC04641
S214001A60C919000080B500AF044B1B68002B02D0DC
S214001A70024B1B689847C046BD4680BDBC00002090
S214001A8080B582B000AF3B1D18000C4B98473B1D3D
S214001A9001221A703B1D19001B20094B98473B1D5D
S214001AA019001C20064B98473B1D19002820044BA4
S214001AB09847C046BD4602B080BDC046ED1900003E
S214001AC03179000080B500AF0C4B00221A600C4B39
S214001AD098470C4B1B680122134004D0094B1B6827
S214001AE00222134001D1084B9847084B9847084BF1
S214001AF0984700231800BD4680BDC046BC000020A5
S214001B00811A000010E000E015010000151B00001F
S214001B10AD19000080B500AF00211C200C4B984783
S214001B2000211B200A4B984764200A4B9847012146
S214001B301C20074B98470A20064B984701211B207C
S214001B40034B98470A20034B9847C046BD4680BDC6
S214001B50111A0000591B0000F0B583B000AF786082
S214001B6015E000200E4B984703001D0000231E00C2
S214001B700C4B00245B197441180021000A4C0B4AD8
S214001B800023A04703000C001800094B98477B6809
S214001B905A1E7A60002BE4D1C046BD4603B0F0BDA5
S214001BA0F5A40000571B0000E5EE0000581B0000DF
S214001BB00100002080B586B000AF7860154B7A68CB
S214001BC01A600C23FB181800134B98470C23FB18BD
S214001BD029221A600C23FB1800225A600C23FB18DB
S214001BE001221A720C23FB180222DA720C23FB184D
S214001BF019000920094B9847094B002209211800B3
S214001C00084B984700210920074B9847C046BD4619
S214001C1006B080BDBC000020D97700000D7800001B
S214001C20651A0000D97300003D74000080B582B0CC
S214001C3000AF0200FB1D1A70FB1D1B78002B04D0A2
S214001C4000210920054B984703E000210920044B9A
S214001C509847C046BD4602B080BDC0463D740000F1
S214001C608574000080B584B000AF0200FB1D1A70BA
S214001C700F23FB18FA1D1278D2091A700E23FB18D0
S214001C80FA1D127852091A700D4BBB600F23FB1811
S214001C901B78002B0FD10F23FB181B789B001022FC
S214001CA09446BC446344083B1A680E23FB181B7812
S214001CB0DB01D31800E000231800BD4604B080BD49
S214001CC00044004180B582B000AF0200FB1D1A70D0
S214001CD0064BFA1D127811001F220A40012191407E
S214001CE00A001A60C046BD4602B080BD00E100E0B2
S214001CF080B582B000AF0200FB1D1A70074AFB1DBC
S214001D001B7819001F230B40012199400B00190076
S214001D108023D150C046BD4602B080BD00E100E041
S214001D2080B582B000AF0200FB1D1A70FB1D1B7849
S214001D301800034B984703001800BD4602B080BD4C
S214001D40651C000080B582B000AF78607B6800221A
S214001D501A707B6801225A707B6800229A70C0460F
S214001D60BD4602B080BDC04680B584B000AF02005C
S214001D70FB1D1A70BB1D0A1C1A70FB1D1B78180071
S214001D800D4B98470300FB60FB1D1B781F2213407A
S214001D9001229A401300BB60BB1D1B78002B03D0AA
S214001DA0FB68BA689A6102E0FB68BA685A61C04686
S214001DB0BD4604B080BDC046211D000080B584B07D
S214001DC000AF78607B681B68FB60FB68DB695A1EA7
S214001DD09341DBB21800BD4604B080BD80B582B02A
S214001DE000AF78607B6801221A707B6800225A6018
S214001DF07B6800229A607B68C0229203DA607B6868
S214001E0000221A747B6800225A747B6801229A7436
S214001E107B680122DA747B6800221A757B682422AC
S214001E20002199547B6818330C22002118000A4BB5
S214001E3098477B68094A9A617B6800229A627B68A9
S214001E400022DA627B6800221A637B6800225A63EB
S214001E50C046BD4602B080BD7BF70000A0860100EC
S214001E6080B582B000AF78607B680A221A707B6803
S214001E7000225A707B6800229A70C046BD4602B0A7
S214001E8080BDC04680B584B000AF786039603B68DE
S214001E901A787B681A703B685A787B685A703B6879
S214001EA09A787B689A700C23FB1818000B4B98479F
S214001EB00C23FB1801221A707B681B780C22BA18B8
S214001EC011001800064B98477B681B780121180004
S214001ED0044B9847C046BD4604B080BD451D000073
S214001EE031790000691D000080B584B000AF7860CD
S214001EF07B681B68FB607B681B6818000B4B984769
S214001F00030018000A4B9847C0467B681800094B28
S214001F109847031EF9D1FB681B6802221A43FB6828
S214001F201A60C046BD4604B080BDC046CD800000E5
S214001F30C51C0000BD1D000080B584B000AF7860F1
S214001F407B681B68FB607B681B6818000E4B984715
S214001F50030018000D4B9847C0467B6818000C4BD2
S214001F609847031EF9D1FB688F221A75FB688F22EB
S214001F701A76FB681B68022293431A00FB681A60F5
S214001F80C046BD4604B080BDCD800000F11C0000F8
S214001F90BD1D000080B584B000AF78607B681B680C
S214001FA0FB60FB681B7EDBB21A00022313405A1E3E
S214001FB09341DBB21800BD4604B080BD80B584B046
S214001FC000AF78607B681B68FB60FB681B7EDBB23B
S214001FD01A00012313405A1E9341DBB21800BD4677
S214001FE004B080BD80B584B000AF78607B681B68A5
S214001FF0FB60FB681B7EDBB21A00042313405A1EEC
S2140020009341DBB21800BD4604B080BD80B584B0F5
S21400201000AF78600A00BB1C1A807B681B68FB60F8
S2140020207B6818000A4B984703001A0001235340A8
S214002030DBB2002B01D0052306E0BB1C1B88DB05AA
S214002040DA0DFB689A6200231800BD4604B080BD16
S214002050BD1F000080B584B000AF786039607B6833
S2140020601B68BB607B6818001B4B984703001A0070
S21400207001235340DBB2002B01D0102327E00F23AF
S214002080FB1800221A70BB685B8B9BB21A000423F5
S214002090134006D00F23FB181E221A70BB680422BA
S2140020A05A837B689B79012B08D1BB689B6A9BB2DD
S2140020B0DB05DB0D9AB23B681A8005E0BB689B6ABD
S2140020C0DBB29AB23B681A800F23FB181B78180005
S2140020D0BD4604B080BDC046E51F000080B586B092
S2140020E000AFF860B960BB1D1A801323FB180022EE
S2140020F01A701723FB1800221A701623FB180022EA
S2140021001A701423FB1800221A801023FB180022D2
S2140021101A80FB68002B07D11323FB18FB601723DC
S214002120FB1801221A700DE0BB68002B07D11323A1
S214002130FB18BB601623FB1801221A7002E0062368
S2140021405B426AE03749384B01221800374B984704
S2140021504CE0FB681A781423FB181A80C046324BF2
S2140021601800334B984703001A0001235340DBB294
S214002170002BF4D1C0461423FB181A882A4B1100F2
S21400218018002C4B9847031EF5D1C046264B180066
S214002190294B984703001A0001235340DBB2002B5B
S2140021A0F4D1C0461023FA181F4B11001800234B19
S2140021B09847031EF6D11023FB181B88DAB2BB68BB
S2140021C01A70BB1D1A88BB1D013A1A801623FB180D
S2140021D01B78002B02D1BB680133BB601723FB18AA
S2140021E01B78002B02D1FB680133FB60BB1D1B88EC
S2140021F0002BAED1C0460C4B1800114B984703007D
S2140022001A0001235340DBB2002BF4D10549064BDC
S21400221000221800054B984700231800BD4606B05C
S21400222080BDC0461C4600202046002031890000A4
S214002230BD1F00000D200000E51F00005520000017
S214002240951F000080B592B000AF78604723FB185A
S21400225000221A700823FB181800264B98470823FC
S214002260FB180E221A700823FA18234B11001800C8
S214002270224B98470C23FB181800214B98470C2339
S214002280FB18C0229203DA600C23FB181D4A9A62E0
S2140022900C23FB181C4ADA620C23FB18012252425C
S2140022A01A630C23FB18194A5A630C23FB180022E6
S2140022B01A750C23FB18164A9A610C23FA1815494E
S2140022C0154B1800154B9847031E02D006235B4299
S2140022D00CE0114B1800124B9847124B9847012000
S2140022E0114B98474723FB181B785BB21800BD4676
S2140022F012B080BD611E00001C460020851E000036
S214002300DD1D000002000C0002000D0002000F00A0
S214002310001BB70000100042204600206D8600001B
S214002320E91E0000151B0000591B000090B585B083
S21400233000AF02003960FB1D1A700F23FB18002245
S2140023401A70FB1D1B78032B0FD13B68BB60BB6864
S2140023501868BB685968BB681B890F22BC181A002E
S2140023600F4B98470300237012E00F23FB18FF2241
S2140023701A7086235A000B490B4B18000B4B9847D4
S2140023800B4B18000B4B98470D200B4B9847C0463D
S2140023900F23FB181B785BB21800BD4605B090BD36
S2140023A0DD200000CC0F0100A40F010031FD00006D
S2140023B0B80F010051FE000065FD000080B582B038
S2140023C000AFFB1D00221A703B1D1800094B9847F2
S2140023D03B1D00221A703B1D00225A70064B180047
S2140023E0064B9847FB1D1B785BB21800BD4602B033
S2140023F080BDC046451D000020460020391F000055
S21400240080B584B000AFF860B9607A607B68002B56
S21400241010D0BB681A78FB681A70FB680133FB6043
S214002420BB680133BB607B68013B7B607B68002B2D
S214002430EFD100E0C046BD4604B080BD80B584B094
S21400244000AFF8607A600B23FB180A1C1A707B68D2
S214002450002B0ED0FB680B22BA1812781A70FB6895
S2140024600133FB607B68013B7B607B68002BF1D10E
S21400247000E0C046BD4604B080BDC04680B584B00E
S21400248000AF78600E23FB1800221A8009E00E23A6
S214002490FB181A880E23FB1801321A807B6801335A
S2140024A07B607B681B78002BF1D10E23FB181B8802
S2140024B01800BD4604B080BD80B584B000AFF8609B
S2140024C0B960BB1D1A8020E0FB681A78BB681B78D1
S2140024D09A4209D0FB681A78BB681B789A4201D2E8
S2140024E0FF2317E0012315E0FB681B78002B01D1C2
S2140024F000230FE0FB680133FB60BB680133BB6061
S214002500BB1DBA1D1288013A1A80BB1D1B88002B02
S214002510DAD100231800BD4604B080BD90B585B062
S21400252000AF786039603B685A1C3A600F22BA18D0
S2140025301B7813700F23FB181B78002B01D17B68C8
S21400254029E00C23FC183B681800154B984703003D
S21400255023807B685A1C7A600B22BA181B7813708B
S2140025600B23FB181B78002B01D1002313E00B2351
S214002570FA180F23FB1812781B789A42E9D10C231D
S214002580FB181A8839687B681800064B9847031EA4
S214002590DFD17B68013B1800BD4605B090BDC04644
S2140025A07D240000B924000080B500AF044B1B78E2
S2140025B0DBB20133DAB2024B1A70C046BD4680BDAC
S2140025C0C300002090B583B000AFFB1D00221A7038
S2140025D00120134B9847FC1D3B00124A19001000BF
S2140025E0114B984703002370FB1D1B785BB2002B32
S2140025F00DD13B68022213433B603B68FC1D094A31
S21400260019001000094B98470300237000E0C046ED
S214002610FB1D1B785BB21800BD4603B090BDC046DC
S2140026202D1C000070100000594700007D47000078
S21400263080B582B000AF3A60FB1D021C1A703B1DCD
S2140026400A1C1A80C046BD4602B080BD90B583B055
S21400265000AFFB1D00221A701C4B1B78DBB2002B50
S21400266021D11B4B1B78DBB2032B04D0184B1B78F5
S214002670DBB2042B17D1FC1D164B984703002370C2
S214002680FB1D1B785BB2002B15D1FC1D124A134BA9
S21400269011001800124B984703002370FB1D1B788F
S2140026A05BB2002B09D1094B1B78DBB20133DAB2DF
S2140026B0064B1A7002E0C04600E0C046FB1D1B78C1
S2140026C05BB21800BD4603B090BDC046C1000020F6
S2140026D0C00000202D3E0000785600007410000058
S2140026E07D47000090B583B000AFFB1D00221A7036
S2140026F0294B1B78DBB2002B06D0274B1B78DBB2AE
S214002700013BDAB2244B1A70234B1B78DBB2002B4A
S2140027103AD1224B1B78DBB2032B04D01F4B1B781D
S214002720DBB2042B30D100233B60FC1D1C4A1D4B42
S214002730110018001C4B984703002370FB1D1B78E4
S2140027405BB2002B1DD1FC1D3B0019000120174B6E
S214002750984703002370FB1D1B785BB2002B12D139
S2140027603B68022213400FD03B68022293433B6033
S2140027703B68FC1D190001200B4B98470300237093
S21400278002E0C04600E0C046FB1D1B785BB21800A6
S214002790BD4603B090BDC046C1000020C00000206A
S2140027A021430000741000007D47000059470000D8
S2140027B080B582B000AF78600E4B00221A600E4BD8
S2140027C000221A600D4B00221A700D4B00221A7060
S2140027D00C4B00221A700C4B18000C4B98470C4BF5
S2140027E0190003200B4B984700231800BD4602B083
S2140027F080BDC046C4000020C8000020C1000020E4
S214002800C0000020C3000020A9250000B51B000062
S21400281031260000F131000090B589B000AF040009
S21400282008003A601900FB1D221C1A70BB1D021C12
S2140028301A703B1D0A1C1A801F23FB18FF221A70F1
S214002840BB1D1B787F221340DAB21823FB185A7080
S2140028501823FB18FA1D12781A701823FB18082282
S2140028605A803B6B002B11D01823FB185B889AB25A
S2140028703823F9183423FB1809881B88CB189BB219
S214002880D3189AB21823FB185A800AE01823FB18AC
S2140028905B889AB23B1D1B88D3189AB21823FB1884
S2140028A05A801F23FC189B4B9847030023701F2356
S2140028B0FB181B785BB2002B00D003E100233B61C2
S2140028C00E23FB1800221A8000237B61FB1D1A785A
S2140028D07B6913437B61BB1D1B781A027B6913431C
S2140028E07B611823FB185B889BB21A047B69134331
S2140028F07B617B691F22BC18874A19001000874B32
S2140029009847030023701F23FB181B785BB2002B2D
S21400291000D0EEE000237B617B69022213437B61DB
S2140029207B691F22BC187E4A190010007B4B984713
S214002930030023701F23FB181B785BB2002B00D00C
S214002940D9E000233B610E23FB1800221A8031E0F9
S2140029501F23FC181423FB18714A19001000714B32
S2140029609847030023701F23FB181B785BB2002BCD
S21400297028D17B690222134013D11F23FC18102391
S214002980FB18694A19001000664B9847030023702D
S2140029901F23FB181B785BB2002B15D000233B616E
S2140029A012E00E23FB181B889BB201339AB20E234B
S2140029B0FB181A800E23FB181B889BB25B4A9342B7
S2140029C0C6D902E0C04600E0C0463B69002B00D1F5
S2140029D073E03B69BB601823FB185B889AB2182328
S2140029E0FB185A80BB681F22BC181822B918082288
S2140029F018004F4B9847030023701F23FB181B78C3
S214002A005BB2002B00D078E0BB680833BB603B6845
S214002A10002B15D0B8683B1D1A881F23FC183B688E
S214002A201900434B9847030023701F23FB181B789D
S214002A305BB2002B63D13B1D1A88BB68D318BB6002
S214002A403B6B002B21D03823FB181A883B1D1B88B4
S214002A50D31A1A00BB68D318BB60B8683423FB18B7
S214002A601A881F23FC183B6B1900314B984703004C
S214002A7023701F23FB181B785BB2002B41D1342335
S214002A80FB181A88BB68D318BB603B699B007B6148
S214002A907B69022213437B617B691F22BC18254A8F
S214002AA0190010001D4B9847030023701F23FB18C6
S214002AB01B785BB2002B15D024E01F23FB18FD22E9
S214002AC01A701FE0A023FF331A001B491B4B180087
S214002AD01B4B98471B4B18001B4B98470D201B4B56
S214002AE098470FE01F23FC18194B984703002370E4
S214002AF008E0C04606E0C04604E0C04602E0C04625
S214002B0000E0C0461F23FB181B785BB21800BD46CA
S214002B1009B090BD4D2600008C1000007D470000D7
S214002B20781000005947000000041500E703000075
S214002B30C54800006C1000003C120100DC0F0100CC
S214002B4031FD0000F00F010051FE000065FD0000A1
S214002B50E526000090B587B002AF0F23FB18FA22D7
S214002B601A700F23FC18DA4B9847030023700F23C4
S214002B70FB181B785BB2002B00D092E10F23FC18E9
S214002B800823FB18D34A19001000D34B98470300BC
S214002B9023700F23FB181B785BB2002B00D072E16A
S214002BA0BB680122134000D15CE10020CB4B984764
S214002BB0BB6801229343BB60BB680F22BC18C54AA2
S214002BC019001000C64B9847030023700F23FB180C
S214002BD01B785BB2002B00D0BCE1C24B00221A70FF
S214002BE0BB689B089AB20C23FB181205120D1A80BC
S214002BF00C23FB181B88002B00D121E100233B602F
S214002C000F23FC183B00B84A19001000B24B984737
S214002C10030023700F23FB181B785BB2002B11D028
S214002C20E7235A00B149B24B1800B24B9847B24B53
S214002C301800B24B98470D20B14B98470120A74B80
S214002C40984788E13B680F22BC18391D04221800FB
S214002C50AC4B9847030023703B1D5B889AB23B1D24
S214002C605A800F23FB181B785BB2002B11D0EB2386
S214002C705A009E499E4B18009E4B9847A24B180040
S214002C809E4B98470D209E4B98470120934B9847A4
S214002C9061E13B1D5B889BB20C22BA1812889A42EF
S214002CA02ED00C23FB181B883A1D528892B29B1A12
S214002CB0042B25DDE023FF331A008C498C4B1800CB
S214002CC08C4B98470C23FB1819883B1D5B889BB2DE
S214002CD01A003B1D1B78DBB21C003B1D5B78DBB289
S214002CE08A4800932300834CA0470D20844B9847C6
S214002CF001207A4B98470F23FB18FA221A702AE114
S214002D003B1D1B78DBB2012B12D1814B1B68002BBD
S214002D1000D17CE07E4B1B683A1D5278D0B23A1D3B
S214002D20528892B2083A91B23A68083298476EE0F2
S214002D303B1D1B78DBB2022B11D1764B1B68002B98
S214002D4065D0744B1B683A1D5278D0B23A1D528833
S214002D5092B2083A91B23A680832984757E03B1D5B
S214002D601B78DBB2042B11D16B4B1B68002B4ED0AB
S214002D70694B1B683A1D5278D0B23A1D528892B2FF
S214002D80083A91B23A680832984740E03B1D1B78F3
S214002D90DBB2062B11D1614B1B68002B37D05F4B83
S214002DA01B683A1D5278D0B23A1D528892B2083A41
S214002DB091B23A680832984729E03B1D1B78DBB28F
S214002DC0072B11D1564B1B68002B20D0544B1B6889
S214002DD03A1D5278D0B23A1D528892B2083A91B251
S214002DE03A680832984712E04E4A4049404B18006D
S214002DF0404B98474C4B1800404B98470D20404B93
S214002E0098470F23FB18FA221A70C046A3E0354BEA
S214002E101B78DBB2002B53D1444A3449344B18009C
S214002E20344B9847424B1800344B98470D20344B90
S214002E3098470F23FC183F4B9847030023703FE04A
S214002E400F23FB18FE221A703B4A2849284B18000D
S214002E50284B9847394B1800284B98470D20284B8D
S214002E60984778E086239A002049214B1800214B8A
S214002E709847BA68324B110018001E4B98470D2031
S214002E801F4B98471CE02F4A1849194B1800194B3E
S214002E9098472D4B1800194B98470D20184B98470C
S214002EA059E089239A001149114B1800114B984795
S214002EB0264B1800114B98470D20114B98474AE0B7
S214002EC00F23FC18224B98470300237043E0C046AC
S214002ED04D26000070100000594700002D1C000011
S214002EE07D470000C2000020841000004812010048
S214002EF0DC0F010031FD00000C10010051FE000047
S214002F0065FD0000CD4700003010010048100100AC
S214002F10C4000020C8000020CC000020D8000020FC
S214002F20D000002002020000881001000902000004
S214002F30A0100100C525000011020000C410010009
S214002F40D81001001E020000F41001001811010044
S214002F50E5260000C0460F23FB181B785BB218005E
S214002F60BD4605B090BDC04690B583B000AFFB1D12
S214002F7000221A7023E0184B1B78DBB2013BDAB252
S214002F80154B1A70FC1D154B984703002370FB1D4C
S214002F901B785BB2002B00D111E0114A1149124B8D
S214002FA01800124B9847FB1D00229A56104B110032
S214002FB018000E4B98470D200E4B9847E2E7064B3D
S214002FC01B78DBB2002BD6D1FB1D1B785BB218003A
S214002FD0BD4603B090BDC046C3000020552B000080
S214002FE04302000050120100DC0F010031FD00001A
S214002FF03811010065FD000090B589B000AFF8609B
S214003000B9601900BB1D1A807B1D0A1C1A701F238D
S214003010FB1800221A70FB68002B06D0BB68002B3A
S21400302003D0BB1D1B88002B1FD17B1D1B78002BDC
S21400303009D05F4B01221A701F23FC185D4B98477E
S21400304003002370ACE01F23FB18F4221A705A4AC0
S2140030505A495B4B18005B4B98475B4B18005B4B21
S21400306098470D205A4B98479AE01F23FC181423C4
S214003070FB18584A19001000574B98470300237056
S2140030801F23FB181B785BB2002B00D083E07B6904
S2140030909B089AB21C23FB181205120D1A801F23D8
S2140030A0FC181823FB184D4A190010004A4B984785
S2140030B0030023701F23FB181B785BB2002B00D085
S2140030C06BE0BA1D1C23FB1812881B889A4216D97F
S2140030D01F23FB18F4221A70414A3849384B18004F
S2140030E0384B9847BB1D19881C23FB181A883D4B84
S2140030F01800344B98470D20354B984750E0BB6975
S214003100FA689A420AD3BB1D1A88FB68D2181C2399
S214003110FB181988BB69CB189A4212D91F23FB18D3
S214003120F4221A70A0239A002449254B1800254B38
S21400313098472D4B1800254B98470D20244B984751
S2140031402EE0BB1D1A881F23FC18B968FB68180000
S214003150264B9847030023701F23FB181B785BB28F
S214003160002B1CD11C23FB181A88BB69D218BB1D68
S2140031701988FB68CB189A4203D07B1D1B78002B5E
S2140031800ED00B4B01221A701F23FC18094B9847D0
S2140031900300237004E0C04602E0C04600E0C046DC
S2140031A01F23FB181B785BB21800BD4609B090BD04
S2140031B0C2000020C5250000690200006012010060
S2140031C0DC0F010031FD00006811010051FE000017
S2140031D065FD0000701000005947000084100000D4
S2140031E07A02000088110100CC110100CD470000D2
S2140031F080B584B000AF02003960FB1D1A700F2343
S214003200FB1800221A70FB1D1B78072B1CD89A008F
S2140032101C4BD3181B689F461B4B3A681A6028E065
S2140032201A4B3A681A6024E0194B3A681A6020E094
S214003230184B3A681A601CE0174B3A681A6018E098
S214003240164B3A681A6014E0154A1649164B1800D1
S214003250164B9847FB1D1A78154B11001800134B98
S21400326098470D20134B98470F23FB18F4221A702B
S214003270C0460F23FB181B785BB21800BD4604B08F
S21400328080BDC0461C120100C8000020C4000020FB
S214003290CC000020D4000020D8000020D000002061
S2140032A0B90200006C120100DC0F010031FD0000C5
S2140032B01012010065FD000090B5ADB002AF3A6097
S2140032C0FB1D021C1A703B1D0A1C1A80FB1D1B7876
S2140032D02C2B16D19C23F918386800230422CC4CDA
S2140032E0A047031E00D0B6E1CA4B1B68002B00D1D6
S2140032F0B1E1C84B1B689C22BA1811002C209847D5
S214003300A9E1FB1D1B781B2B16D19423F9183868EE
S21400331000230822BE4CA047031E00D09BE1BD4BF5
S2140033201B68002B00D196E1BA4B1B689422BA1892
S21400333011001B2098478EE1FB1D1B78062B16D12B
S2140033400C23F918386801233022B14CA047031E1D
S21400335000D080E1AF4B1B68002B00D17BE1AD4B6A
S2140033601B680C22BA1811000620984773E1FB1D53
S2140033701B780E2B00D16EE1FB1D1B78322B16D16D
S2140033808423F918386800231022A14CA047031E96
S21400339000D060E19F4B1B68002B00D15BE19D4B8A
S2140033A01B688422BA1811003220984753E1FB1D8F
S2140033B01B782F2B1DD10C23FB186422002118002C
S2140033C0954B98470C23F918386800236422904CD4
S2140033D0A047031E00D03EE18E4B1B68002B00D199
S2140033E039E18C4B1B680C22BA1811002F20984725
S2140033F031E1FB1D1B78342B3AD18023F91838684D
S21400340000230422824CA047031E00D023E1834BF6
S2140034101800834B98478023FB181B681A00FF236D
S2140034201A4011008023FB181B681B0A1A00FF2392
S2140034301A408023FB181B681B0C1800FF2318403B
S21400344004008023FB181B681B0E7648009323009D
S214003450734CA0470D20744B98476E4B1B68002B8F
S21400346000D1F8E06B4B1B68002134209847F2E04F
S214003470FB1D1B78112B1ED16C4B00221A707C236F
S214003480F918386800230422614CA047031E00D0B8
S214003490E1E07C23FB181A78654B1A705D4B1B68BD
S2140034A0002B00D1D7E05B4B1B687C22BA181100BA
S2140034B011209847CFE0FB1D1B78132B16D10C2349
S2140034C0F918386800232C22514CA047031E00D060
S2140034D0C1E0504B1B68002B00D1BCE04D4B1B6875
S2140034E00C22BA18110013209847B4E0FB1D1B7875
S2140034F0042B16D1A023F918386800230422444C64
S214003500A047031E00D0A6E0424B1B68002B00D14C
S214003510A1E0404B1B68A022BA181100042098476F
S21400352099E0FB1D1B78652B16D1A023F918386887
S21400353000230422364CA047031E00D08BE0354BF8
S2140035401B68002B00D186E0324B1B68A022BA18FD
S2140035501100652098477EE0FB1D1B78092B16D1CD
S2140035600C23F918386801236422294CA047031E4F
S21400357000D070E0274B1B68002B00D16BE0254B7A
S2140035801B680C22BA1811000920984763E0FB1D3F
S2140035901B782A2B14D17823F918386801230422C3
S2140035A01B4CA047031E56D11A4B1B68002B52D04B
S2140035B0184B1B687822BA1811002A2098474AE050
S2140035C0FB1D1B78202B35D17023F9183868002393
S2140035D008220F4CA047031E3DD13B680833180055
S2140035E07023FB1819687023FB189A880123084C6F
S2140035F0A047031E2FD1074B1B68002B2BD0054B73
S2140036001B687022BA1811002020984723E0C04695
S214003610F92F0000E00000203D2400007C1201008D
S21400362031FD00008812010065FD0000DD0000206D
S214003630DC00002095235A0009490A4B18000A4B63
S2140036409847FB1D1A78094B11001800064B98473F
S2140036500D20074B9847C046BD462BB090BDC046D0
S214003660A0150100A812010031FD0000BC120100E7
S21400367065FD000090B58DB000AF78602F23FB1875
S21400368000221A700B23FB1801221A707B68002B8D
S21400369004D12F23FB18F4221A7085E07B681A6881
S2140036A0454B1A60454B00221A702F23FC180B233B
S2140036B0FB181800424B9847030023702F23FB1873
S2140036C01B785BB2002B6CD12F23FC1800203D4BDF
S2140036D09847030023702F23FB181B785BB2002B40
S2140036E05AD1394B19000120384B98472F23FC1824
S2140036F00C23FB181800364B984703002370354BF5
S2140037001800354B98470C23FB181B7919000C231F
S214003710FB185B791A000C23FB189B792F482E4C5C
S214003720A0470D202E4B98472A4B18002A4B984747
S2140037300C23FB18DB7919000C23FB181B7A1A00E4
S2140037400C23FB185B7A2748234CA0470D20244BFC
S2140037509847204B1800204B984723480023032205
S21400376013211D4CA0470D201D4B98472F23FB18F7
S2140037701B785BB20D3316D1D623FF331A001B49D4
S2140037801B4B1800144B98471A4B18001A4B9847B7
S2140037900D20134B984706E0C0460020174B98476D
S2140037A002E0C04600E0C0462F23FB181B785BB241
S2140037B01800BD460DB090BDE0000020DD000020E2
S2140037C0F94A0000B1270000B9320000F1310000CC
S2140037D0914900007C12010031FD0000E413010055
S2140037E065FD0000001401001C140100AC1501006A
S2140037F0A81201003814010051FE0000894C000098
S21400380080B582B000AF7860034B9847030018007D
S214003810BD4602B080BDC046692F000090B587B097
S21400382002AFF860080011007B600B23FB18021C37
S2140038301A700A23FB180A1C1A707C680A23FB18E5
S2140038401A780B23FB181978F868002301932023B5
S214003850FB181B8800932300034CA04703001800A6
S214003860BD4605B090BDC0466D380000B0B5AAB0E4
S21400387004AFF860080011007B600B23FB18021CE5
S2140038801A700A23FB180A1C1A709723FB180022CA
S2140038901A700A23FB181B78012B00D183E07B6883
S2140038A0002B11D1D84AD949D94B1800D94B984783
S2140038B0D94B1800D94B98470D20D94B98479723DA
S2140038C0FB18F4221A70EFE10A23FB181B78022B70
S2140038D069D17B681800D34B9847031E402B62D1F2
S2140038E09623FB1800221A707B689022BA18136081
S2140038F054E09623FB181B789022BA181268D31847
S2140039001B782F2B31D99623FB181B789022BA18D8
S2140039101268D3181B78392B09D99623FB181B7805
S2140039209022BA181268D3181B78402B1DD99623FC
S214003930FB181B789022BA181268D3181B78462BEF
S21400394009D99623FB181B789022BA181268D31848
S2140039501B78602B09D99623FB181B789022BA187F
S2140039601268D3181B78662B11D9AF4AA749A84B03
S2140039701800A84B9847AD4B1800A84B98470D2049
S214003980A74B98479723FB18F4221A708CE19623CE
S214003990FB181A789623FB1801321A709623FB1828
S2140039A01B783F2BA5D90B23FB181B78002B04D0C4
S2140039B00B23FB181B78202B11D99D4A9349944B57
S2140039C01800944B98479B4B1800944B98470D2033
S2140039D0934B98479723FB18F4221A7064E1A823A8
S2140039E0FB181B880D2B16D9A823FB181B88FF2B4A
S2140039F011D0914A8549864B1800864B98478F4BC5
S214003A001800864B98470D20854B98479723FB1840
S214003A10F4221A7048E10B23FB181A78F96814236D
S214003A20FB1846331800864B98470B23FB181B7869
S214003A301422BA184621D3185B1800221A701423D1
S214003A40FB18A822BA18442112885A52AC23FB1835
S214003A501B785A1E9341DBB219001423FB18672209
S214003A6099541423FB188C22BA1813608C23FB1865
S214003A701B680A22BA18412112785A540A23FB18E6
S214003A801B78032B00D07BE07B688822BA18136073
S214003A908C23FB181B688422BA1813608823FB1833
S214003AA01B681B78013BDAB28423FB181B681A706C
S214003AB08423FB181B681B78032B17D9614A5349CC
S214003AC0534B1800534B98478423FB181B681B78EE
S214003AD01A005D4B110018004E4B98470D20504BB6
S214003AE098479723FB18F4221A70DDE08823FB180A
S214003AF01B685B78013BDAB28423FB181B685A709C
S214003B008423FB181B685B780A2B1ED08423FB18C3
S214003B101B685B781A2B18D090239A003B493C4BC5
S214003B2018003C4B98478423FB181B685B781A00E8
S214003B30464B11001800374B98470D20384B9847D6
S214003B409723FB18F4221A70AEE08423FB181B6838
S214003B50981C8823FB181B68991C8823FB181B6875
S214003B605B781A00364B98478823FB181B685B78EF
S214003B701A008423FB181B689B1800229A7082E0A8
S214003B800A23FB181B78022B30D18223FC187B6893
S214003B901800244B9847030023808223FB181B88B9
S214003BA0002B04D08223FB181B88402B11D9284AEF
S214003BB01649174B1800174B9847264B1800174BFB
S214003BC098470D20164B98479723FB18F4221A7037
S214003BD06AE08C23FB1818688223FB181B880133C5
S214003BE01A007B681900164B98474CE00A23FB180E
S214003BF01B78042B30D18C23FB181B6879683E2277
S214003C0018000F4B98473EE003020000BC15010069
S214003C10A812010031FD00005414010051FE0000FE
S214003C2065FD00007D2400000F02000068140100FE
S214003C30190200007414010022020000881401001A
S214003C40012400003902000094140100B0140100A1
S214003C504F020000CC1401000A23FB181B78012B2E
S214003C6011D0154A1549164B1800164B9847164B97
S214003C701800164B98470D20154B98479723FB18AE
S214003C80F4221A7010E09723FC181423FA18002365
S214003C90029300230193002300936C232821012024
S214003CA00C4DA847030023709723FB181B785BB2C4
S214003CB01800BD4626B0B0BD5F020000BC1501006E
S214003CC0A812010031FD0000E814010051FE0000BA
S214003CD065FD00001928000090B585B000AF78603B
S214003CE039600F23FB1800221A700F23FC18144BA0
S214003CF09847030023700F23FB181B785BB2002B3A
S214003D0015D10F23FC183A687B68110018000D4B7C
S214003D109847030023700F23FB181B785BB2002B19
S214003D2005D10F23FC18084B9847030023700F2378
S214003D30FB181B785BB21800BD4605B090BDC046A8
S214003D404D26000009450000E526000090B585B028
S214003D5000AF78600F23FB1800221A700F23FC18A0
S214003D60124B9847030023700F23FB181B785BB297
S214003D70002B13D10F23FC187B6818000C4B9847B8
S214003D80030023700F23FB181B785BB2002B05D1B2
S214003D900F23FC18074B9847030023700F23FB18CC
S214003DA01B785BB21800BD4605B090BD4D260000DE
S214003DB00D460000E526000090B587B000AF78609D
S214003DC01723FB1800221A707B683B613A69A5230B
S214003DD05B0111001800134B98473B69002B18D065
S214003DE00023FB601723FC180C23FA18A5235B019D
S214003DF0110018000C4B9847030023701723FB187C
S214003E001B785BB2002BE1D1FA683B699A4202D07C
S214003E10DCE7C04600E0C04600231800BD4607B0F9
S214003E2090BDC0467D4700005947000090B585B05C
S214003E3000AF0F23FB1800221A700023BB6001207E
S214003E40644B98470F23FC183B1D19000120624B5A
S214003E509847030023700F23FB181B785BB2002BD8
S214003E600DD05E495E4B722218005E4B98475E4B43
S214003E7018005E4B98470D205D4B9847A1E07B6885
S214003E8002221343190001205A4B98470120514B38
S214003E909847594B1B680F22BC183A0011001800AF
S214003EA04D4B9847030023700F23FB181B785BB21B
S214003EB0002B08D10F23FB181B785BB2002B62D1B6
S214003EC03B68002B5FD14C4B0E221A600120414B01
S214003ED09847494B1B680F22BC183A00110018007F
S214003EE03D4B9847030023700F23FB181B785BB2EB
S214003EF0002B08D10F23FB181B785BB2002B42D196
S214003F003B68002B3FD13C4B13221A600120314BFB
S214003F109847394B1B680F22BC183A00110018004E
S214003F202D4B9847030023700F23FB181B785BB2BA
S214003F30002B28D029492A4B96221800294B98474F
S214003F402E4B1800294B98470D20294B984738E0F0
S214003F500220204B9847284B1B683A001100180097
S214003F601D4B98473B68042213400CD11B491C4B41
S214003F70AA2218001B4B9847214B18001B4B98474A
S214003F800D201B4B98473B680422134009D1BB68A1
S214003F900133BB60BA681B4B0321100098470B1E09
S214003FA0D6D03B680422134006D17B680222134316
S214003FB0190001200F4B98473B680422134000D19C
S214003FC05DE70F23FB181B785BB21800BD4605B0F3
S214003FD090BDC046591B000059470000F816010066
S214003FE0D015010031FD0000E415010051FE00006F
S214003FF065FD00007D470000140000200416010047
S2140040002416010005ED000090B583B000AFFC1D3E
S2140040103B00294A19001000284B984703002370DC
S214004020FB1D1B785BB2002B02D006235B423FE0F1
S2140040303B688022520013433B603B68FC1D1E4ACF
S214004040190010001E4B984703002370FB1D1B78B9
S2140040505BB2002B02D006235B4229E0FC1D3A002F
S214004060D0235B0111001800144B984703002370FF
S214004070FB1D1B785BB2002B02D006235B4217E0C9
S2140040803B688022520213433B603A68FC1DD023F3
S2140040905B01110018000A4B984703002370FB1DB4
S2140040A01B785BB2002B02D006235B4200E00023A5
S2140040B01800BD4603B090BD081400005947000024
S2140040C07D47000080B582B000AF324B1B68002BE6
S2140040D059D1304A80235B01110018002E4B9847B7
S2140040E0031E04D02B4B00221A6000234DE03B1D1C
S2140040F02A4A19001000284B9847031E04D0254B67
S21400410000221A60002340E0224B1B68244A934298
S21400411006D17B68012B29D01E4B224A1A6025E067
S2140041201C4B1B68204A93420DD17B68032B1DD085
S2140041307B68042B03D1174B1C4A1A6016E0154BFC
S2140041401B4A1A6012E0134B1B681A4A93420DD1A1
S214004150104AEC239B03110018000F4B9847031ED0
S21400416004D00C4B00221A6000230EE0094B1B689B
S214004170114A1A40074B1A60064B1B68A022D2024F
S2140041801A43044B1A60034B1B681800BD4602B066
S21400419080BDC046E400002059470000F41300002C
S2140041A0A0021000A1021000B0021000B102100020
S2140041B0B2021000F0001000FFFFF0FF80B586B0DE
S2140041C000AF0200FB1D1A700B23FB1800221A70AA
S2140041D000237B6100233B610023FB6000237B619F
S2140041E03B4B18003B4B984703007B617B69002BD9
S2140041F003DB0120384B9847F2E7C046374B1800E0
S214004200344B984703007B617B69012213407B6136
S2140042107B69002B12D100237B610BE001202E4B23
S21400422098472F4B18002B4B984703007B613B6940
S21400423001333B617B692B4A9342EFD1FB1D1B7810
S214004240022B0DD1284A294B11001800284B9847FD
S21400425080235B03274A19001000254B984715E07A
S214004260FB1D1B78032B0BD11F4A204B1100180097
S2140042701F4B98471F4B002118001D4B984705E021
S214004280FB1D1B78042B01D18023FB601A4B98473B
S21400429003001B051A0DE8239B009A4206D1FB6813
S2140042A0022213431800154B984703E0FB681800DA
S2140042B0124B9847124A0A4B110018000C4B9847AD
S2140042C00B23FB181B785BB21800BD4606B080BDFA
S2140042D01410000039470000591B0000BC070200FC
S2140042E00C000C009ED0AD107DD51C3CAC07020027
S2140042F07D4700008C100000C5400000B93D00005E
S214004300612F52EF80B588B000AF0200FB1D1A7017
S2140043101F23FB1800221A700023BB6100237B6159
S21400432001235B423B611D4BFB601D4BBB60FB1DCD
S2140043301B78022B03D0FB1D1B78032B19D1194BBE
S214004340FB60194BBB6014E00220184B9847FB68D3
S2140043501800174B98470300BB617B6901337B61EC
S2140043607A693B699A4204D31F23FB18FB221A7012
S2140043700CE0BA68BB699A42E6D1BB68084A934229
S21400438004D1064B002118000A4B98471F23FB1840
S2140043901B785BB21800BD4608B080BD8C100000CC
S2140043A036265302AC070200C3C15DD7591B000076
S2140043B0394700007D47000090B583B000AF00236A
S2140043C03B60BB1D0A221A70FC1D3A00A0235B014D
S2140043D0110018003F4B984703002370FB1D1B7805
S2140043E05BB2002B0CD03C4A3C493D4B18003D4B81
S2140043F098473D4B18003D4B98470D203C4B98473F
S2140044003B683C4A13403B603A68FC1DA0235B01B6
S21400441011001800384B984703002370FB1D1B78CB
S2140044205BB2002B10D0354A2C492D4B18002D4B73
S2140044309847334B18002D4B98470D202C4B984728
S214004440FB1D1B785BB241E0FC1D3A00A0235B011C
S214004450110018001F4B984703002370FB1D1B78A4
S2140044605BB2002B11D08F239A001C491C4B1800FE
S2140044701C4B9847234B18001C4B98470D201C4B91
S2140044809847FB1D1B785BB220E03A688023DB0070
S214004490134017D03B68174A13403B603A68FC1D30
S2140044A0A0235B0111001800134B984703002370EC
S2140044B0BB1D1A78BB1D013A1A70BB1D1B78002B5A
S2140044C0C2D100E0C046FB1D1B785BB21800BD469B
S2140044D003B090BD594700002F02000008170100E6
S2140044E0D015010031FD00007016010051FE0000DD
S2140044F065FD0000FFFBFFFF7D4700003502000062
S21400450088160100A016010090B589B000AF78604B
S21400451039600823FB18180008231A000021354BC1
S21400452098471F23FC181823FB18334A190010005D
S214004530324B9847030023701F23FB181B785BB28F
S214004540002B45D1BB69C022920213431F22BC1820
S2140045500822B91808221800294B98470300237030
S2140045601F23FB181B785BB2002B33D10823FB18E4
S2140045701B68BB61BB691B0C1B0406D17B6806224B
S214004580002118001F4B984725E0BB691B0CBB6138
S214004590BB69C022920213431F22BC181022B9180E
S2140045A006221800164B9847030023701023F918AC
S2140045B07B6806221800144B98473B68002B02D0F5
S2140045C03B6801221A701F23FB181B785BB20CE0B5
S2140045D0C04600E0C0463B68002B02D03B68002285
S2140045E01A701F23FB181B785BB21800BD4609B073
S2140045F090BDC0467BF7000008000C00594700003D
S214004600CD4700003D2400000124000090B589B08D
S21400461000AF78600823FB18180008231A00002152
S214004620294B98471F23FC181823FB18274A190004
S2140046301000274B9847030023701F23FB181B7896
S2140046405BB2002B35D1BB69C022920213431F22F6
S214004650BC180822B918082218001E4B98470300F9
S21400466023701F23FB181B785BB2002B23D1082373
S214004670FB181B68BB61BB691B041B0CBB61BB69D9
S214004680C022920213431F22BC181022B918062219
S2140046901800104B9847030023701023F9187B6806
S2140046A0062218000C4B98471F23FB181B785BB29A
S2140046B006E0C04600E0C0461F23FB181B785BB22E
S2140046C01800BD4609B090BD7BF7000008000C003E
S2140046D059470000CD4700000124000090B585B082
S2140046E000AF78600F23FB1800221A700F23FC1807
S2140046F07B681800054B9847030023700F23FB18B0
S2140047001B785BB21800BD4605B090BD4522000080
S21400471090B583B000AFFB1D00221A70FC1D054B40
S214004720984703002370FB1D1B785BB21800BD463C
S21400473003B090BDBD23000080B582B000AF7860A6
S2140047407B681800034B984703001800BD4602B06C
S21400475080BDC046D15D000080B582B000AF7860F5
S21400476039603A687B6811001800034B98470300CD
S2140047701800BD4602B080BDF55D000080B582B071
S21400478000AF786039603A687B6811001800034B08
S214004790984703001800BD4602B080BD455E000085
S2140047A080B584B000AFF860B960BB1D1A80BB1D31
S2140047B01A88B968FB681800034B9847030018006E
S2140047C0BD4604B080BDC046955E000080B586B08C
S2140047D000AFF860B9607A602D4B1A881023FB187A
S2140047E0083A1A8000237B611323FB1800221A70F4
S2140047F01023FB181A887B689A4213D3BA687B6921
S214004800D1187B689AB2FB681800224B98470300C1
S214004810DAB21323FB181B78D318DAB21323FB186B
S2140048201A702DE0BA687B69D1181023FB181A8815
S214004830FB681800174B98470300DAB21323FB18DF
S2140048401B78D318DAB21323FB181A701323FB183D
S2140048501B785BB2002B12D11023FB181B887A68DA
S214004860D31A7B601023FB181B887A69D3187B61E8
S2140048701023FB181B88FA68D318FB60B8E7C046FD
S2140048801323FB181B785BB21800BD4606B080BD2C
S21400489010000020A147000080B584B000AFF8608B
S2140048A0B960BB1D1A80BB1D1A88B968FB68180062
S2140048B0034B984703001800BD4604B080BDC046B1
S2140048C0ED5E000080B586B000AFF860B9607A6033
S2140048D02D4B1A881023FB18083A1A8000237B6198
S2140048E01323FB1800221A701023FB181A887B6803
S2140048F09A4213D3BA687B69D1187B689AB2FB6870
S2140049001800224B98470300DAB21323FB181B78D3
S214004910D318DAB21323FB181A702DE0BA687B6935
S214004920D1181023FB181A88FB681800174B9847F5
S2140049300300DAB21323FB181B78D318DAB213235A
S214004940FB181A701323FB181B785BB2002B12D1CE
S2140049501023FB181B887A68D31A7B601023FB1879
S2140049601B887A69D3187B611023FB181B88FA68AA
S214004970D318FB60B8E7C0461323FB181B785BB25E
S2140049801800BD4606B080BD100000209948000003
S21400499090B587B000AF78600023FB601723FB1844
S2140049A000221A701723FC180C23FB184C4A190017
S2140049B010004C4B984703002370FB684A4A93420A
S2140049C00AD11723FC180C23FB18484A19001000BC
S2140049D0444B984703002370FB681B0C1B12DAB28B
S2140049E07B68DA71FB681B0C1B11DBB20F221340CD
S2140049F0DAB27B681A72FB681B0CDBB20F2213401C
S214004A00DAB27B685A72FB681B12DAB27B681A71DC
S214004A10FB681B11DBB20F221340DAB27B685A71B7
S214004A20FB68DBB20F221340DAB27B689A71304B18
S214004A30984702007B681A607B681B791B021AB2D3
S214004A407B685B791B011BB2FF210B401BB2134333
S214004A501AB27B689B791BB20F210B401BB2134323
S214004A601AB21423FB181A801223FB18214A1A8044
S214004A707B68DB791B021AB27B681B7A1B011BB2B0
S214004A80FF210B401BB213431AB27B685B7A1BB242
S214004A900F210B401BB213431AB21023FB181A80C7
S214004AA01223FA181023FB1812881B889A4203D286
S214004AB01723FB18F3221A701223FA181423FB1874
S214004AC012881B889A4203D91723FB18F3221A7000
S214004AD01723FB181B785BB21800BD4607B090BDC5
S214004AE0AC07020059470000C3C15DD7481000005C
S214004AF0C54000003013000090B585B000AF786068
S214004B000F23FB1800221A707B68002B13D00E238D
S214004B10FB187A6812781A700E23FB181B78002B85
S214004B2004D00E23FB181B78042B08D90E23FB1881
S214004B3001221A7003E00E23FB1801221A700F23BD
S214004B40FC180020404B9847030023700F23FB18E7
S214004B501B785BB2002B0ED092235A003B493C4B8D
S214004B6018003C4B98473C4B18003C4B98470D2090
S214004B703B4B98475FE03B4B1800364B98473A4B09
S214004B8098470200394B11001800324B98470D2009
S214004B90334B9847364B98470F23FC180E23FB18C9
S214004BA01B781800334B9847030023700F23FB181D
S214004BB01B785BB2002B39D10F23FC180E23FB1891
S214004BC01B7818002C4B9847030023700F23FB1804
S214004BD01B785BB2002B2BD10E23FB181B78022B05
S214004BE029D00E23FB181B78032B24D00F23FC1888
S214004BF0224B9847030023700F23FB181B785BB2E9
S214004C00002B0ED0AE235A001049114B1800114B42
S214004C1098471B4B1800114B98470D20104B984790
S214004C2007E00F23FB181B785BB208E0C04600E0E5
S214004C30C046144B98470F23FB181B785BB218002E
S214004C40BD4605B090BDC046DD460000E017010039
S214004C501417010031FD00002817010051FE000066
S214004C6065FD000044170100C54000005017010014
S214004C70715C0000BD4100000543000009400000D3
S214004C80601701001147000090B585B000AF78604E
S214004C900F23FC182D4B9847030023700F23FB1897
S214004CA01B785BB2002B0ED0BA235A002849294B3A
S214004CB01800294B9847294B1800294B98470D2078
S214004CC0284B98473AE00F23FC180020264B9847BD
S214004CD0030023700F23FB181B785BB2002B0FD04A
S214004CE07C23FF331A001A491A4B18001A4B9847B0
S214004CF01E4B18001A4B98470D201A4B98471DE07C
S214004D000F23FC181A4B9847030023700F23FB1839
S214004D101B785BB2002B0FD08223FF331A000C499E
S214004D200C4B18000C4B9847124B18000C4B98472E
S214004D300D200C4B984701E00F4B98470F23FB18AC
S214004D401B785BB21800BD4605B090BDB9430000A5
S214004D50EC1701001417010031FD00008017010058
S214004D6051FE000065FD0000856E0000A0170100E2
S214004D7011470000C4170100B95D000080B586B079
S214004D8000AF78600A00BB1C1A800C23FB180022B8
S214004D901A600C23FB187A685A600C23FB18BA1C9E
S214004DA012881A810C23FB1819000320034B98471E
S214004DB003001800BD4606B080BDC0462D23000087
S214004DC080B586B000AF78600A00BB1C1A800C2342
S214004DD0FB187A681A600C23FB1800225A600C2312
S214004DE0FB18BA1C12881A810C23FB181900032022
S214004DF0034B984703001800BD4606B080BDC0466A
S214004E002D23000080B582B000AF0200FB1D1A7093
S214004E10BB1D0A1C1A70FB1D1B785A00BB1D1B7895
S214004E205340034AD35C1800BD4602B080BDC0465E
S214004E30FC17010090B585B000AFB9607A600F230B
S214004E40FB18021C1A700EE0BB685A1CBA601A786F
S214004E500F23FC180F23FB181B7811001800084BB3
S214004E609847030023707B685A1E7A60002BEBD1AC
S214004E700F23FB181B781800BD4605B090BDC04632
S214004E80054E000090B589B000AFB9607A603B600F
S214004E900F23FB18021C1A701F23FB1805221A701A
S214004EA01E23FB1801221A701423FB180F22BA18AF
S214004EB012781A700F23FB181B78C13B0E2B00D9F3
S214004EC01BE19A00B64BD3181B689F46BB681B0CA9
S214004ED0DAB21423FB185A70BB681B0ADAB2142322
S214004EE0FB189A70BB68DAB21423FB18DA701F231B
S214004EF0FB1805221A7005E1BB681B0ADAB21423F8
S214004F00FB185A703023FB181B78002B09D014238B
S214004F10FB185B78802252421343DAB21423FB1844
S214004F205A70BB68DAB21423FB189A701423FB1865
S214004F300022DA701F23FB1805221A70E2E0142301
S214004F40FB1800225A701423FB1800229A701423B0
S214004F50FB180022DA701F23FB1805221A70D1E016
S214004F601423FB1800225A701423FB1800229A7090
S214004F701423FB180022DA701F23FB1805221A7070
S214004F80C0E01423FB18FF225A701423FB18FF22DC
S214004F909A701423FB18FF22DA701F23FB180522D1
S214004FA01A70AFE0BB681B0CDAB21423FB185A70F9
S214004FB0BB681B0ADAB21423FB189A70BB68DAB215
S214004FC01423FB18DA703B681B0ADAB21423FB18AA
S214004FD01A713B68DAB21423FB185A711F23FB18A8
S214004FE007221A708EE0BB681B0CDAB21423FB187B
S214004FF05A70BB681B0ADAB21423FB189A70BB6897
S214005000DAB21423FB18DA703B681B0CDAB21423EE
S214005010FB181A713B681B0ADAB21423FB185A7184
S2140050203B68DAB21423FB189A711F23FB18082278
S2140050301A7067E0BB681B0ADAB21423FB185A70B2
S2140050403023FB181B78002B09D01423FB185B7841
S214005050802252421343DAB21423FB185A70BB68FC
S214005060DAB21423FB189A707B681B0EDAB214238C
S214005070FB18DA707B681B0CDAB21423FB181A7163
S2140050807B681B0ADAB21423FB185A717B68DAB203
S2140050901423FB189A711F23FB1808221A7031E09C
S2140050A0BB681B0CDAB21423FB185A70BB681B0AC9
S2140050B0DAB21423FB189A70BB68DAB21423FB1812
S2140050C0DA707B681B0EDAB21423FB181A717B6841
S2140050D01B0CDAB21423FB185A717B681B0ADAB26F
S2140050E01423FB189A717B68DAB21423FB18DA7162
S2140050F01F23FB1809221A7004E01E23FB18002247
S2140051001A70C0461E23FB181B785BB2002B3ED0DD
S214005110244B1B78002B15D11F23FB181B785C1E15
S2140051201F23FB181B78013B1A001423FB181900D9
S2140051307F201D4B98470300DB18DAB21423FB18B8
S2140051401A5506E01F23FB181F22BA181278013AD8
S2140051501A701F23FB181B789AB21423FB18110031
S2140051601800124B9847031E11D084235A0010498A
S214005170104B1800104B9847104B1800104B9847D0
S2140051800D20104B98471E23FB1800221A701E2372
S214005190FB181B785BB21800BD4609B090BDC04630
S2140051A0B41D0100E8000020354E0000C14D00008F
S2140051B0F01D0100FC18010031FD0000101901006F
S2140051C051FE000065FD000080B584B000AF02000F
S2140051D0FB1D1A700F23FB1801221A70FB1D1B788B
S2140051E0CF2B07D0FB1D1B78C52B03D0FB1D1B78D0
S2140051F0C62B0CD10D23FB18012118003A4B9847FB
S214005200031E04D00F23FB1800221A7063E00E233F
S214005210FB180A221A700D23FB1801211800324BC6
S2140052209847031E13D02823FF331A002F49304B0C
S2140052301800304B9847304B1800304B98470D20DD
S2140052402F4B98470F23FB1800221A7043E00D23BC
S214005250FB181B78FA1D12789A420BD00E23FB1807
S2140052601B785BB2DAB2013AD1B20E22BA181170CC
S214005270002BD0DC0E23FB180A221A700D23FB1815
S21400528001211800184B9847031E13D03623FF330E
S2140052901A001649164B1800164B9847164B18005E
S2140052A0164B98470D20164B98470F23FB180022E5
S2140052B01A7010E00D23FB181B78002B0BD00E2362
S2140052C0FB181B785BB2DAB2013AD1B20E22BA18DA
S2140052D01170002BD2DC0F23FB181B785BB2180072
S2140052E0BD4604B080BDC0467D4D0000F81D0100DF
S2140052F0FC18010031FD00003C19010051FE0000C1
S21400530065FD000080B586B000AF7860080011002B
S214005310BB1C021C1A807B1C0A1C1A701123FB186B
S21400532001221A701423FB1800221A80BB1C1A884C
S21400533080239B019A4205D81223FB18BA1C1288B8
S2140053401A8004E01223FB18802292011A8016238A
S214005350FB180A221A800B23FB18012118005F4B4A
S2140053609847031E13D05823FF331A005C495D4B41
S21400537018005D4B98475D4B18005D4B98470D2015
S2140053805C4B98471123FB1800221A7017E00B237A
S214005390FB181B781B09DBB21A000F2313400F2BD8
S2140053A00CD01623FB1800229B5E9AB2013A91B2EB
S2140053B01622BA181180002BCDD100E0C04611236A
S2140053C0FB181B785BB2002B00D17DE01623FB1880
S2140053D000229B5E002B18DC6423FF331A00404932
S2140053E0404B1800404B98470B23FB181B781A00BD
S2140053F0414B110018003C4B98470D203D4B9847F9
S2140054001123FB1800221A705FE01423FB180022F9
S2140054109B5E7A68D2181223FB181B8819001000AE
S2140054202E4B9847031E12D0B6235A002C492D4BFC
S21400543018002D4B9847314B18002D4B98470D20E0
S2140054402C4B98471123FB1800221A703DE07B1C5A
S2140054501B78002B1FD12A4B1B78002B1BD10C234B
S214005460FB18022118001D4B9847031E13D0782303
S214005470FF331A001A491B4B18001B4B9847214B49
S21400548018001B4B98470D201A4B98471123FB1802
S21400549000221A7019E01423FB181A881223FB182E
S2140054A01B88D3189AB21423FB181A801223FB18F1
S2140054B01A88BB1CB91C09888A1A1A80BB1C1B8850
S2140054C0002B00D032E700E0C0461123FB181B7803
S2140054D05BB21800BD4606B080BDC0467D4D0000DC
S2140054E0041E0100FC18010031FD000070190100C7
S2140054F051FE000065FD0000A4190100D41901004A
S214005500E8000020041A010080B586B000AF78607D
S2140055100A00BB1C1A801323FB1801221A700C23E6
S214005520FB1800221A801623FB1800221A80BB1CC8
S2140055301A8880239B019A4205D81423FB18BA1CAC
S21400554012881A8004E01423FB18802292011A8025
S2140055501123FB18F0221A701623FB1800229B5EFC
S214005560002B0FD1BB1C1A8880239B019A4204D8BB
S2140055701223FB1803221A7013E01223FB180122D1
S2140055801A700EE0BB1C1A8880239B019A4204D82E
S2140055901223FB1803221A7003E01223FB180222C0
S2140055A01A701123FB181A781223FB181B78134362
S2140055B0DAB21123FB181A701123FB180121180008
S2140055C03C4B9847031E12D0D4235A003A493B4B13
S2140055D018003B4B98473B4B18003B4B98470D2019
S2140055E03A4B98471323FB1800221A705AE01623EA
S2140055F0FB1800229B5E7A68D2181423FB181B88BF
S214005600190010002B4B9847031E13D0B223FF330C
S2140056101A002949294B1800294B98472C4B18008B
S214005620294B98470D20294B98471323FB18002237
S2140056301A7037E0274B1B78002B1BD10C23FB1866
S214005640022118001B4B9847031E13D0BC23FF33C0
S2140056501A001949194B1800194B98471E4B180089
S214005660194B98470D20194B98471323FB18002217
S2140056701A7017E01623FB181A881423FB181B88C9
S214005680D3189AB21623FB181A80BB1CB91C142216
S214005690BA18098812888A1A1A80BB1C1B88002B25
S2140056A000D044E71323FB181B785BB21800BD46F6
S2140056B006B080BDC14D0000141E0100FC1801009C
S2140056C031FD0000381A010051FE000065FD0000A3
S2140056D0701A0100E8000020A41A0100B0B586B0D8
S2140056E002AF786039600D23FB1801221A700F2371
S2140056F0FB18C9221A700E23FB1800221A707B684A
S214005700302B08D80F23FB18C3221A700E23FB1861
S21400571001221A7007E00F23FB18C9221A700E2305
S214005720FB1800221A700D23FC183A6879680F23BC
S214005730FB1818780E23FB181B7800930423264DBD
S214005740A847030023700D23FB181B785BB2012BC0
S21400575012D0EC23FF331A002049214B1800214BAE
S21400576098477A68204B110018001E4B98470D206A
S2140057701E4B984700232BE00D23FC180F23FB1825
S2140057801B7818001A4B9847030023700D23FB184C
S2140057901B785BB2012B1AD0F223FF331A000F4995
S2140057A00F4B18000F4B98477A68124B11001800E1
S2140057B00C4B98470D200D4B984700230093002371
S2140057C000220021CF20044CA047002300E0012344
S2140057D01800BD4604B0B0BD854E0000241E010072
S2140057E0FC18010031FD0000DC1A010065FD000018
S2140057F0C9510000081B0100B0B588B002AFF860C0
S214005800B960BB1D1A801723FB18C7221A70BB1D70
S2140058101A881623FC18F9681723FB181878002333
S214005820009313000022374DA84703002370162369
S214005830FB181B785BB2012B10D0334A3349344B2C
S2140058401800344B9847FA68334B11001800314B58
S21400585098470D20314B984700234FE01623FC183D
S2140058601723FB181B7818002D4B9847030023704E
S2140058701623FB181B785BB2012B18D0294A234944
S214005880234B1800234B9847FA68274B1100180043
S214005890204B98470D20214B984700230093002368
S2140058A000220021CF20174CA047002326E0162315
S2140058B0FC18BB1D1A88BB68110018001B4B9847C4
S2140058C0030023701623FB181B785BB2012B14D041
