:1000000018680020A9CD0000A1CE000061FA000010
:1000100000000000000000000000000000000000E0
:1000200000000000000000000000000009D20000F5
:10003000000000000000000031D3000079D3000070
:10004000A1CE0000A1CE0000A1CE0000B59D000011
:1000500041980000A1CE0000A1CE0000A1CE00007A
:10006000A1CE00008DA40000A5A40000BDA4000046
:10007000D5A40000EDA4000005A50000F1CC00000F
:1000800005CD000019CD0000C90F0000DD0F0000F4
:10009000F10F000000000000000000006D9600005D
:1000A000A1CE0000A1CE0000A1CE0000A1CE000094
:1000B0000000000010B5064C2378002B07D1054B3B
:1000C000002B02D0044800E000BF0123237010BDC4
:1000D000A00000200000000040430100084B10B5C4
:1000E000002B03D00749084800E000BF0748036819
:1000F000002B00D110BD064B002BFBD09847F9E731
:1001000000000000A4000020404301004043010023
:100110000000000080B500AFC046BD4680BDC046AF
:1001200080B586B000AFF860B9607A60FB685A6845
:100130007B689A4201D3002314E0FB685B68591C7A
:10014000FA6851601B01BA68D3187B617B69012290
:1001500052429A607B699A687B695A607B69002287
:10016000DA607B691800BD4606B080BD80B584B0FA
:1001700000AFF8607A603B600B23FB180A1C1A7012
:10018000FB680B22BA1812781A70FB687A685A60FA
:10019000FB683A689A60FB680022DA60C046BD4698
:1001A00004B080BD90B587B000AFF860B9607A60E8
:1001B0003B60FB681B687B6131E0FB681B68BA68C9
:1001C000D3181B78202B37D006DC092B0EDB0A2B2B
:1001D00032DD0D2B30D009E03A2B2DD002DC2C2B58
:1001E0002AD003E05D2B27D07D2B25D0FB681B6830
:1001F000BA68D3181B781F2B06D9FB681B68BA682E
:10020000D3181B787E2B05D97A69FB681A60022304
:100210005B423AE0FB681B685A1CFB681A60FB688B
:100220001A687B689A4208D2FB681B68BA68D318C0
:100230001B78002BC1D100E0C0463B68002B06D1E3
:10024000FB681B685A1EFB681A6000231DE0BA6A2F
:100250003968FB6818000F4B984703003B613B6906
:10026000002B05D17A69FB681A6001235B420CE020
:10027000FB681B687A6938690421074CA047FB6852
:100280001B685A1EFB681A6000231800BD4607B0A1
:1002900090BDC046210100006D01000090B589B0FD
:1002A00000AFF860B9607A603B60FB681B68BB61B7
:1002B000FB681B685A1CFB681A60ACE0FB681B6893
:1002C000BA68D2181723FB1812781A701723FB1874
:1002D0001B78222B1FD13B68002B01D10023ACE0FF
:1002E0003A6B3968FB681800564B984703003B612E
:1002F0003B69002B05D1BA69FB681A6001235B4298
:100300009BE0BB695A1CFB681B68386903214E4C93
:10031000A047002391E01723FB181B785C2B00D02B
:1003200074E0FB681B685A1C7B689A4200D36DE03E
:10033000FB681B685A1CFB681A60FB681B68BA687C
:10034000D3181B78223B532B59D89A003F4BD31814
:100350001B689F46FB681B685A1CFB681A600023D9
:10036000FB6137E0FB681B68BA68D3181B782F2B3A
:1003700006D9FB681B68BA68D3181B78392B21D9BA
:10038000FB681B68BA68D3181B78402B06D9FB683A
:100390001B68BA68D3181B78462B13D9FB681B68F7
:1003A000BA68D3181B78602B06D9FB681B68BA683B
:1003B000D3181B78662B05D9BA69FB681A6002232B
:1003C0005B423AE0FB681B685A1CFB681A60FB69D9
:1003D0000133FB61FB69032B0BDCFB681A687B684C
:1003E0009A4206D2FB681B68BA68D3181B78002BA8
:1003F000B8D1FB681B685A1EFB681A6006E0BA6930
:10040000FB681A6002235B4217E0C046FB681B686A
:100410005A1CFB681A60FB681A687B689A4207D20C
:10042000FB681B68BA68D3181B78002B00D045E71F
:10043000BA69FB681A6003235B421800BD4609B025
:1004400090BDC046210100006D010000B0250100F3
:1004500090B58DB002AFF860B9607A603B60FB6820
:100460005B683B6263E1FB681B68BA68D2181F23B4
:10047000FB1812781A701F23FB181B782C2B00D145
:10048000DCE00FDC0D2B00D141E104DC093B012B4A
:1004900000D919E13BE1202B00D138E1222B00D11A
:1004A000A0E011E15D2B42D005DC3A2B00D1BEE08B
:1004B0005B2B05D008E17B2B02D07D2B37D003E1ED
:1004C0003B6A01333B623B68002B00D121E1BA6BF0
:1004D0003968FB681800AE4B98470300BB61BB69E5
:1004E000002B02D101235B424EE1FB689B68013384
:1004F00007D0FB689B681B013A68D318DA680132A1
:10050000DA601F23FB181B787B2B01D1012200E04E
:100510000222BB691A70FB681B681A00BB695A602B
:10052000FB685B68013B1A00FB689A60FAE03B6875
:10053000002B00D1EFE01F23FB181B787D2B01D18E
:10054000012200E002221E23FB181A70FB685B6880
:10055000013B7B6224E07B6A1B013A68D318BB61D4
:10056000BB695B68013318D0BB699B68013314D148
:10057000BB691B781E22BA1812789A4202D0022355
:100580005B4201E1FB68012252429A60FB681B68F2
:1005900001331A00BB699A6005E07B6A013B7B620C
:1005A0007B6A002BD7DA7B6A013317D102235B42C7
:1005B000EAE07B6A1B013A68D318BB61BB695B68E0
:1005C000013308D0BB699B68013304D1FB687A6AA8
:1005D0009A60C046A6E07B6A013B7B627B6A002B87
:1005E000E7DA9FE03C687A68B968F868BB6B00930B
:1005F0002300684CA04703007B617B69002B01DA74
:100600007B69C1E03B6A01333B62FB689B68013355
:1006100000D182E03B68002B00D17EE0FB689B6844
:100620001B013A68D318DA680132DA6075E0FB68BA
:100630005B68013B1A00FB689A6073E03B68002B23
:1006400000D16CE0FB689B68013300D167E0FB6878
:100650009B681B013A68D3181B78022B5FD0FB689C
:100660009B681B013A68D3181B78012B57D0FB6895
:100670005B68013B7B6223E07B6A1B013A68D3180D
:100680001B78022B06D07B6A1B013A68D3181B78B3
:10069000012B12D17B6A1B013A68D3185B680133C6
:1006A0000BD07B6A1B013A68D3189B68013304D1D5
:1006B000FB687A6A9A60C04631E07B6A013B7B62E4
:1006C0007B6A002BD8DA2AE03C687A68B968F86857
:1006D000BB6B00932300304CA04703007B617B6918
:1006E000002B01DA7B694FE03B6A01333B62FB6818
:1006F0009B68013315D03B68002B12D0FB689B68C8
:100700001B013A68D318DA680132DA6009E0C046A2
:1007100008E0C04606E0C04604E0C04602E0C0462D
:1007200000E0C046FB681B685A1CFB681A60FB6847
:100730001A687B689A4207D2FB681B68BA68D318AC
:100740001B78002B00D08EE63B68002B1BD0FB688B
:100750005B68013B7B6213E07B6A1B013A68D3183C
:100760005B68013309D07B6A1B013A68D3189B6828
:10077000013302D103235B4206E07B6A013B7B62CB
:100780007B6A002BE8DA3B6A1800BD460BB090BDCF
:10079000210100009D020000A501000080B582B08B
:1007A00000AF78607B6800221A607B6800225A6084
:1007B0007B68012252429A60C046BD4602B080BDAD
:1007C00080B586B000AFF860B9607A601423FB187A
:1007D00000221A607B685B681A00FB6899187B68C6
:1007E0009A687B685B68D31A1A001423FB181800F8
:1007F000074B98471423FB181800064B9847030033
:10080000DBB21800044B9847C046BD4606B080BD19
:10081000210E0100810D010059270000B0B584B000
:1008200002AF786039603B68FF2213401C003B68D0
:100830001B0A1A00FF231A4015003B681B0C1A0004
:10084000FF2313403A68120E79680848019200931A
:100850002B002200064CA0473A687B681100180064
:10086000044B9847C046BD4602B0B0BD20270100EA
:1008700025150100DD01010080B582B000AF3A60AE
:10088000FB1D021C1A70BB1D0A1C1A703A68BB1DA6
:100890001978FB1D1B785BB21800034B9847C046C4
:1008A000BD4602B080BDC0464D02010090B587B084
:1008B00002AF02003960FB1D1A70FB1D1B782C2B48
:1008C00002D0322B25D042E03B68FB60FB681B78EE
:1008D000012B04D1204B1800204B984736E0FB68D1
:1008E0001B78002B32D11E4B18001C4B98471D4B18
:1008F0001B78DBB2032B29D11A4B04221A701A4A37
:100900001A48FF230093130002221B21184CA04712
:100910001CE03B68BB60174B1A68174B1A60BB683A
:100920001B781900BB6801331B781A00BB680233BF
:100930001B781C00BB6803331B781048009323000E
:100940000F4CA047074B03221A7000E0C046C04678
:10095000BD4605B090BDC0465827010045160100B0
:1009600094270100BC000020D4270100E0270100EB
:1009700009530000C0000020D0000020FC27010027
:100980002515010090B585B000AF786039600E2361
:10099000FC187B681800474B9847030023800E2300
:1009A000FB181B88042B00D87FE00E23FB181B8844
:1009B000013B7A68D2183B6805331B7819000F2376
:1009C0000B40092B08DD3B6805331B780F210B40DA
:1009D000DBB23733DBB207E03B6805331B780F210E
:1009E0000B40DBB23033DBB213700E23FB181B88D5
:1009F000023B7A68D2183B6805331B781B09DBB2CF
:100A000019000F230B40092B07DD3B6805331B78CA
:100A10001B09DBB23733DBB206E03B6805331B78DA
:100A20001B09DBB23033DBB213700E23FB181B88BB
:100A3000043B7A68D2183B6804331B7819000F23F3
:100A40000B40092B08DD3B6804331B780F210B405A
:100A5000DBB23733DBB207E03B6804331B780F218E
:100A60000B40DBB23033DBB213700E23FB181B8854
:100A7000053B7A68D2183B6804331B781B09DBB24C
:100A800019000F230B40092B07DD3B6804331B784B
:100A90001B09DBB23733DBB206E03B6804331B785B
:100AA0001B09DBB23033DBB21370C046BD4605B064
:100AB00090BDC046693F000090B58DB002AF3B4B82
:100AC00098470C23FB18182200211800384B984730
:100AD0000C23FB18374A1A60374B1A68374B1A60D9
:100AE0002723FC180C23FB181800354B98470300EC
:100AF00023702723FB181B785BB2002B04D0314BEB
:100B00001800314B9847FEE7304B9847304A314B3D
:100B100011001800304B9847FA1C3B1D11001800BB
:100B20002E4B9847FB1C1B78002B08D12C4B180030
:100B3000254B98472B4B1800234B9847FEE73B1D4E
:100B40001800294B98473A1D284B11001800284BD4
:100B50009847284B18001C4B9847274B18001A4BF6
:100B60009847224B254A26492648274CA047002073
:100B7000264B98470200264B1A60254B1B681F4ADC
:100B80001F491800234B9847234B18000E4B9847DA
:100B9000224A2348FF230093130002221B21214CE9
:100BA000A047C046BD460BB090BDC046B135000061
:100BB000330E0100AD080000C0000020CC00002072
:100BC0006151000038280100451601001581000020
:100BD0001D0800007908000065810000C55700006D
:100BE0005C28010094280100395800000C00002006
:100BF00085090000E0280100E42801000827010021
:100C0000002701001829010025150100F502010047
:100C1000D4000020450301005C290100D427010015
:100C2000E02701000953000090B5C5B000AF0023D4
:100C3000002484225200BA1813605460FB1DFF3355
:100C400000221A80264B882252009446BC446344FA
:100C5000180080235B001A000021224B9847224B8A
:100C6000984703007A1CFF321360204B1B78DBB2DD
:100C7000032B30D11E4B1A681E4B1A600023002430
:100C800084225200BA18136054601B4B984703002B
:100C90001A4A1B4938001B4CA0473A001A4B110056
:100CA00018001A4B98471A4B1B6853229B56180082
:100CB000184B9847164B1B68522200219954144B2D
:100CC0001B68502202219954114B1B683A000B49B2
:100CD0001800114B9847C046BD4645B090BDC04670
:100CE000F0FEFFFF330E0100751F0000BC00002066
:100CF000C0000020C4000020212800000C000020BB
:100D00009C29010055180100C0290100251501008A
:100D1000D4000020DD860000C903010090B589B031
:100D200002AF1723FB1800221A708D4B1B78DBB221
:100D3000032B00D00FE18B4B1B6852229B5C002BD6
:100D400000D008E1874B1B6851229B5C002B0BD025
:100D5000844B1B6851229B5C022B10D1814B1B687A
:100D600050229B5C002B0AD17F4B18007F4B984789
:100D70007C4B1B687E4A110018007E4B9847794BCC
:100D80001B6818007C4B98470300FB60FB68002B36
:100D900000D1C7E0FB68981C1723FB181A78774925
:100DA00013005B009B189B005C581723FB181A78F4
:100DB000724913005B009B189B00CB1804331B780F
:100DC0001A0021006E4B98476E4B1B781B011800D0
:100DD0006D4B98470300BB60BB68002B04D16B4B85
:100DE0001800624B98479EE0694B1800694B984782
:100DF000FB681800684B98470400624B1B781A0088
:100E0000BB68F968624800922200644CA047030066
:100E10007B607B6801330AD15A4B1B780133DAB20D
:100E2000584B1A70BB6818005D4B9847CCE77B683D
:100E3000023304D1BB681800594B98479FE77B6881
:100E4000033304D1BB681800554B984797E7BB683C
:100E50003B613B691B78012B02D13B6910333B613D
:100E60003B695B681A00FB689B184E490622180014
:100E7000434B9847031E4CD1BB681800484B98471A
:100E80001723FB181722BA1812781A7077E73B69F4
:100E90005B681A00FB6898181723FB181A78374903
:100EA00013005B009B189B0059583B699A683B698B
:100EB0005B68D31A1A00324B9847031E10D11723D0
:100EC000FB181A782D4913005B009B189B00CB1868
:100ED00008331B683A6910323969F868984711E09D
:100EE0001723FB181A781723FB1801321A701723DF
:100EF000FB181A78214913005B009B189B005B5874
:100F0000002BC4D13B6920333B611723FB1800221F
:100F10001A703B691B78002BE9D1BB681800204B85
:100F200098472CE7C046204B1A68204B1B68D21A02
:100F3000FA239B009A420ED91B4B1A681B4B1A606E
:100F40001B4B1800094B9847064B1B68084A1100B9
:100F50001800084B9847C046BD4607B090BDC04634
:100F6000BC000020D4000020DC290100451601004F
:100F70000C000020C10501003D0701005C2A0100B2
:100F8000CB1801001B000020F90D0100FC29010015
:100F9000B84500209D070000BD1801005104000065
:100FA0000D0E0100302A0100C0000020C800002002
:100FB000382A010080B500AF0020024B9847C04698
:100FC000BD4680BDED52000080B500AF0020024B51
:100FD0009847C046BD4680BD0510000080B500AFF3
:100FE0000120024B9847C046BD4680BD0510000059
:100FF00080B500AF0220024B9847C046BD4680BD79
:101000000510000080B584B000AF0200FB1D1A700F
:10101000FB1D1A78284B9200D358FB60FB681B68B5
:101020009B7BDBB2FA68127E1340DAB2FB68597E12
:101030000B23FB180A401A700B23FB181B780122A4
:10104000134008D0FB689B68FA6810009847FB685B
:101050001B6801229A730B23FB181B780222134092
:1010600008D0FB68DB68FA6810009847FB681B68CB
:1010700002229A730B23FB181B781022134008D00E
:10108000FB681B69FA6810009847FB681B68102210
:101090009A730B23FB181B782022134008D0FB689F
:1010A0005B69FA6810009847FB681B6820229A73F6
:1010B000C046BD4604B080BDCC45002080B582B09E
:1010C00000AF78607B6800221A70C046BD4602B04F
:1010D00080BDC04680B582B000AF02003960FB1D04
:1010E0001A70FB1D1B78012B0AD0022B0FD0002B8E
:1010F00014D10E4B0D4A91693A680A439A610FE088
:101100000A4B0A4AD1693A680A43DA6108E0074B98
:10111000064A116A3A680A431A6201E0172300E09E
:1011200000231800BD4602B080BDC0460004004048
:1011300080B582B000AF78607B6880221A707B68CF
:1011400000225A707B6801229A707B680022DA7054
:10115000C046BD4602B080BD80B584B000AF7860A7
:101160007B681B68FB60FB68DB7BDBB21A008023BB
:1011700013405A1E9341DBB21800BD4604B080BD37
:1011800090B587B000AF78600823FB180D4A13CAEA
:1011900013C300237B610DE00823FB187A699200DA
:1011A000D2587B689A4202D17B69DBB206E07B6948
:1011B00001337B617B69022BEED900231800BD4609
:1011C00007B090BD742A010090B58DB000AFF860F3
:1011D000B9607A602E23FB1800221A802D23FB1899
:1011E00000221A702C23FB1800221A702923FC18E5
:1011F000BB681800BF4B9847030023702423FA18DC
:10120000BD4B1000190003231A00BC4B98471C2348
:10121000FA18BB4B1000190006231A00B74B984769
:101220002B23FB1800221A700EE02B23FB181A78D0
:10123000FB68023292000021D1502B23FB181A7850
:101240002B23FB1801321A702B23FB181B78032B5E
:10125000EBD9FB6800221A76FB6800225A76292314
:10126000FB181A78A74B9200F968D150FB68BA684E
:101270001A607B689B78082B08D12923FB181B7800
:1012800003330122134001D01723C4E17B689A780D
:10129000FB681A71BB681B889BB21A0001231340BC
:1012A00001D00523B7E1BB68DB7BDBB21A0010235A
:1012B000134001D01C23AEE1BB681B889BB21A000F
:1012C0000223134001D01C23A5E17B681B7C002B6B
:1012D00017D01823FB1818008B4B98477B689B6925
:1012E000DAB21823FB181A701823FB1801225A705F
:1012F0007B685B69DBB21822BA1811001800834BB7
:1013000098477B681B7F002B17D01823FB18180009
:101310007D4B98477B685B6ADAB21823FB181A701A
:101320001823FB1801225A707B681B6ADBB2182253
:10133000BA1811001800754B98472923FB181A7822
:101340001C23FB185200D35A19000220704B9847F7
:101350007B689B78082B0BD12923FB181B785A1C20
:101360001C23FB185200D35A19000220684B9847DF
:101370001423FB181800674B98477B681A781423CE
:10138000FB181A702923FB181B782422BA18D35C87
:101390001422BA18110018005F4B98472923FB1834
:1013A0001B782422BA18D35C18005C4B98477B68E2
:1013B0009A787B689B791343DBB29AB27B681B896E
:1013C000134399B27B689A882E23FB180A431A802C
:1013D0007B685B78002B08D02E23FB182E22BA18CE
:1013E0001288802109010A431A80C046FB68180050
:1013F0004B4B9847031EF9D1BB682E22BA181288AE
:101400001A807B685B7B002B03D02D23FB18042202
:101410001A707B689B7B002B07D02D23FB182D2295
:10142000BA18127801210A431A70C046FB681800E6
:101430003B4B9847031EF9D1BB68FF221A712D233D
:10144000FB181B78002B0BD0C046FB681800344BF0
:101450009847031EF9D1BB682D22BA1812785A7129
:101460002C23FB187A68927A1A702A23FB18002220
:101470001A701CE02A23FB181B787A68D318DB7AD1
:10148000002B0DD02A23FB181B7810229A40130042
:10149000D9B22C23FB182C22BA1812780A431A70DE
:1014A0002A23FB181A782A23FB1801321A702A23E0
:1014B000FB181B78012BDDD9C046FB681800184BC0
:1014C0009847031EF9D1BB682C22BA1812789A717A
:1014D000C046FB681800124B9847031EF9D1FB6801
:1014E0001B79042B1ED0082B00D170E0002B4BD0B1
:1014F00090E0C04681110000802A0100210E010009
:10150000842A0100CC4500203111000069CC000084
:10151000D5100000BD1000007DC90000C1C9000049
:1015200059110000C046FB6818003D4B9847031E48
:10153000F9D17B6828229A5CBB681A74C046FB68A4
:101540001800374B9847031EF9D17B6829229A5C13
:10155000BB681A75C046FB681800314B9847031EDC
:10156000F9D17B682A229A5CBB681A76C046FB6870
:1015700018002B4B9847031EF9D17B682B229A5CED
:10158000BB685A76002346E0C046FB681800244B2F
:101590009847031EF9D17B681A8DBB681A82C04632
:1015A000FB6818001E4B9847031EF9D17B685A8DC3
:1015B000BB681A83C046FB681800194B9847031E86
:1015C000F9D17B689A8DBB685A83002323E0C0461B
:1015D000FB681800124B9847031EF9D17B689A6A82
:1015E000BB681A61C046FB6818000D4B9847031E84
:1015F000F9D17B68DA6ABB689A61C046FB6818005B
:10160000074B9847031EF9D17B681A6BBB68DA61F8
:10161000002300E017231800BD460DB090BDC04662
:101620005911000080B584B000AF786039607B68E4
:101630001B68FB60C0467B681800114B9847031E6F
:10164000F9D17B681B79042B04D0082B0ED0002B1A
:1016500006D010E03B68DAB2FB681A7400230BE096
:101660003B689AB2FB681A82002305E0FB683A687F
:101670001A61002300E017231800BD4604B080BDA6
:101680005911000080B582B000AF0200FB1D1A7036
:10169000084B9847084BFA1D12785A72064B0022E5
:1016A0009A72054B0022DA72044B9847C046BD4639
:1016B00002B080BDC9D2000018460020EDD2000063
:1016C00090B583B000AF02003960FB1D1A70FB1D9E
:1016D0001B78632B0DD9FB1D1A78254B6421100054
:1016E00098470300DBB21A00224B9A5C3B681A70E1
:1016F00002E03B6800221A70FB1D1A781C4B642123
:10170000100098470300DBB2642252425343D9B21F
:10171000FB1DFA1D12788A181A703B685C1CFB1DB1
:101720001A78134B0A21100098470300DBB21A0005
:10173000104B9B5C2370FB1D1A780D4B0A21100087
:1017400098470300DBB20A2252425343D9B2FB1D31
:10175000FA1D12788A181A703B680233FA1D127843
:1017600004498A5C1A70C046BD4603B090BDC046AD
:10177000E90701008C2A0100B0B500AF104B1B7BBC
:10178000002B19D00E4B5B69591C0D4A51610A2B75
:1017900012D90C4B18680023002200210A4CA047E4
:1017A000074B00221A73064B00225A61044B002299
:1017B0001A610120054B9847C046BD46B0BDC046E2
:1017C00018460020C845002089D600008516000074
:1017D000B0B500AF094B1B7B01225340DBB2002B9D
:1017E00009D0064B00221A61054B1868002300221D
:1017F0000021044CA047C046BD46B0BD184600209D
:10180000C845002089D60000B0B500AF1D4B1B7B3A
:1018100001225340DBB2002B31D01B4B1868002350
:1018200000220021194CA047164B00221A61154BCB
:10183000DB79002B05D0134B0022DA710020144B0A
:101840009847104B1B7A002B10D00E4B00221A72B7
:101850000020104B98470B4B9B79002B0CD0094B69
:1018600000229A7100200C4B984705E0054B01229D
:101870001A720120074B98470120084B9847C04631
:10188000BD46B0BD18460020C845002089D60000DE
:10189000D9280000A128000061280000851600005A
:1018A000B0B500AF124B1B7B01225340DBB2002BC3
:1018B0001BD0104B18680023002200210E4CA047BB
:1018C0000B4B00221A610A4BDB7801225340DBB23A
:1018D0005A1E9341DAB2064BDA70054BDB781800DA
:1018E000064B98470120064B9847C046BD46B0BD01
:1018F00018460020C845002089D60000C1260000F7
:1019000085160000B0B500AF1E4B1B7B0122534073
:10191000DBB2002B32D01C4B1868002300220021C0
:101920001A4CA047174B00221A61164B9B790122D3
:101930005340DBB25A1E9341DAB2124B9A71114BEB
:10194000DB79002B05D00F4B0022DA710020104B01
:1019500098470C4B1B7A01225340DBB2002B05D079
:10196000084B01221A7201200A4B9847054B9B79BC
:101970001800094B98470120084B9847C046BD46C0
:10198000B0BDC04618460020C845002089D60000DA
:10199000D9280000A1280000612800008516000059
:1019A000B0B500AF1C4B1B7B01225340DBB2002BB8
:1019B0002FD0194BDB7901225340DBB25A1E9341E1
:1019C000DAB2154BDA71144B1B7A002B0FD0124B85
:1019D000DB79002B0BD0104B00221A720E4B002229
:1019E0009A7100200D4B984700200D4B98470A4BE9
:1019F000DB7918000B4B98470B4B1868002300222B
:101A000000210A4CA047044B00221A610120084B18
:101A10009847C046BD46B0BD18460020612800006A
:101A2000A1280000D9280000C845002089D6000060
:101A30008516000090B583B000AF164B1B7B0122CA
:101A40005340DBB2002B20D0124B00221A61FC1D48
:101A5000114B984703002370FB1D1B78013BDBB241
:101A600018000E4B9847031E0FD10D4B186800232A
:101A7000002200210B4CA04700200B4B9847054B40
:101A800001229A72034B0022DA72C046BD4603B0AF
:101A900090BDC046184600200D28000059270000C0
:101AA000C845002089D600008516000090B583B097
:101AB00000AF164B1B7B01225340DBB2002B20D022
:101AC000124B00221A61FC1D114B98470300237032
:101AD000FB1D1B780133DBB218000E4B9847031E29
:101AE0000FD10D4B18680023002200210B4CA0479A
:101AF00000200B4B9847054B01229A72034B0022A2
:101B0000DA72C046BD4603B090BDC04618460020FC
:101B10000D28000059270000C845002089D6000084
:101B20008516000080B582B000AF7860454B1A780A
:101B30007B681A707B680133424A52781A707B685E
:101B40000233404A92781A703E4BDB79002B08D062
:101B50007B6804337A680432127804210A43D2B2D3
:101B60001A70384BDB78002B09D07B6804337A6815
:101B70000432127802210A43D2B21A7008E07B685C
:101B800004337A680432127801210A43D2B21A70FF
:101B90002C4B1B7A002B28D07B6803337A680332E6
:101BA000127802210A43D2B21A707B6803337A6832
:101BB0000332127810210A43D2B21A70214B9B795A
:101BC000002B09D07B6803337A6803321278042132
:101BD0000A43D2B21A7008E07B6803337A68033292
:101BE000127808210A43D2B21A70164B1B79002BC7
:101BF00008D07B6803337A680332127840210A43A5
:101C0000D2B21A700F4B1B7B002B08D07B680333BA
:101C10007A680332127820210A43D2B21A70094B33
:101C20005B79002B09D07B6803337A680332127822
:101C3000802149420A43D2B21A70C046BD4602B062
:101C400080BDC0461846002080B500AF104B9847B5
:101C5000104B9847104B1822002118000F4B984743
:101C60000D4B3F221A700C4B3F225A700A4B3F22F9
:101C70009A70094B0122DA70074B01225A72012037
:101C8000074B98470200074B1A60C046BD4680BD0F
:101C9000E1300000E92C000018460020330E01005E
:101CA00049D60000D845002080B582B000AF3B0087
:101CB000180005231A0000210E4B98470E4B5B7A43
:101CC000002B13D00C4B9B7A01225340DBB2002B2C
:101CD0000CD00020094B98473B001800084B984750
:101CE0003B008F2205211800064B9847C046BD4691
:101CF00002B080BD330E010018460020851600009A
:101D0000251B0000652D000090B583B000AF3B009F
:101D1000180005231A0000214B4B98474B4B9B7A28
:101D2000002B40D03B001800494B9847494B1B788B
:101D3000002B09D03B0000221A703B0000225A7091
:101D40003B0000229A700BE0FC1D434B98470300B8
:101D500023703A00FB1D1B78110018003F4B984779
:101D60003A4BDB7A5A1CD1B2384AD172042B09D9CA
:101D7000364B0022DA72354B00229A72354B002224
:101D80001A7009E0334B1B7801225340DBB25A1E14
:101D90009341DAB22F4B1A703B008F2205211800B5
:101DA0002F4B98471CE0FC1D2E4B984703002370D7
:101DB000FB1D1B78FF2B07D0244AFB1D1B7811004D
:101DC0001800264B984708E0204B3F221A701F4B03
:101DD0003F225A701D4B3F229A700120224B984798
:101DE0001A4B9B79002B13D01E4B984703001C0005
:101DF000194B9847030001339C4220DB134B002210
:101E00009A710020194B98470120174B984716E00C
:101E10000E4B1B7A002B12D0124B984703001C006C
:101E20000D4B98470300013B9C4208DA074B012207
:101E30009A7101200D4B984701200B4B9847C046E3
:101E4000BD4603B090BDC046330E010018460020C9
:101E5000251B0000D80000200D280000C11600003E
:101E6000652D000021280000851600006128000073
:101E700080B582B000AFBB1D00221A70FB1D00228E
:101E80001A70344B1B78002B45D1BB1D1800324B08
:101E90009847031E06D0314B1800314B9847BB1DA5
:101EA00000221A70BB1D1B78002B2CD0294B052259
:101EB0001A7020E0FB1D1A782A4BD200D35CBA1DA1
:101EC00012781340DBB2002B10D0FB1D1B78254A83
:101ED000DB00D31804331B68002B07D0FB1D1B78D5
:101EE000204ADB00D31804331B689847FB1D1A787F
:101EF000FB1D01321A70FB1D1A781A4BD200D35CFD
:101F0000002BD7D10DE0184B5B69002B09D0164B85
:101F100000225A6105E00F4B1B78013BDAB20D4BF2
:101F20001A70114B1B7B01225340DBB2002B0DD0EA
:101F30000D4B1B69591C0C4A11610C4A934205D97F
:101F4000094B01221A730120094B9847C046BD4630
:101F500002B080BDD900002085310000E02A0100D8
:101F600045160100982A010018460020102700009D
:101F70008516000080B500AF014B1800BD4680BD3E
:101F80001846002080B584B000AF0200FB1D1A7017
:101F90000F23FB18FA1D1278D2091A700E23FB18B2
:101FA000FA1D127852091A700D4BBB600F23FB18F3
:101FB0001B78002B0FD10F23FB181B789B001022DE
:101FC0009446BC446344083B1A680E23FB181B78F4
:101FD000DB01D31800E000231800BD4604B080BD2B
:101FE0000044004180B582B000AF0200FB1D1A70B2
:101FF000064BFA1D127811001F220A400121914060
:102000000A001A60C046BD4602B080BD00E100E093
:1020100080B584B000AF78607B681B68FB60FB68AC
:102020005B7EDBB25BB2002B01DA012300E0002310
:102030001800BD4604B080BD80B586B000AF7860A2
:102040007B681B683B613B691B7EDBB2FB60002346
:102050007B61FB680122134003D07B69012213439B
:102060007B61FB680422134003D07B690222134387
:102070007B61FB680222134003D07B690422134377
:102080007B617B691800BD4606B080BD80B584B019
:1020900000AF786039607B681B68BB600023FB6021
:1020A0003B680122134003D0FB6801221343FB600D
:1020B0003B680222134003D0FB6804221343FB60F9
:1020C0003B680422134003D0FB6802221343FB60E9
:1020D000FB68DAB2BB681A76C046BD4604B080BD64
:1020E00080B584B000AF78607B681B68FB60C04639
:1020F0007B681800104B9847031EF9D117200F4B2F
:102100009847FB680F229A75FB680F221A76FB68C6
:102110001B78DBB202221343DAB2FB681A70C046A6
:102120007B681800044B9847031EF9D10023180060
:10213000BD4604B080BDC04611200000E51F000070
:1021400080B584B000AF78607B681B68FB60C046D8
:102150007B6818000B4B9847031EF9D1FB681B7B6B
:10216000DBB202221343DAB2FB681A73C0467B6803
:102170001800044B9847031EF9D1C046BD4604B071
:1021800080BDC0461120000080B584B000AF7860EB
:1021900039607B681800184B9847020001231340F0
:1021A00001D1052323E07B681B68FB60C0467B6888
:1021B0001800124B9847031EF9D1FB685B8B9AB24B
:1021C0003B681A807B68012118000D4B98477B689B
:1021D0001800094B984702000423134006D07B687F
:1021E00004211800064B98471E2300E00023180026
:1021F000BD4604B080BDC04639200000112000005B
:102200008D20000080B582B000AF0200FB1D1A7067
:10221000FB1D1B781800034B984703001800BD46B0
:1022200002B080BD851F000080B584B000AF020001
:10223000FB1D1A70FB1D1B7818000B4B9847030001
:10224000FB60FB1D1B781F22134001229A401300E4
:10225000BB60FB681B69BA6813405A1E9341DBB22E
:102260001800BD4604B080BD0522000080B584B0D2
:1022700000AF0200FB1D1A70BB1D0A1C1A70FB1D6B
:102280001B7818000D4B98470300FB60FB1D1B7863
:102290001F22134001229A401300BB60BB1D1B7814
:1022A000002B03D0FB68BA689A6102E0FB68BA6849
:1022B0005A61C046BD4604B080BDC046052200003C
:1022C00080B584B000AF0200FB1D1A700E23FB180E
:1022D000FA1D12781A800E23FB181B88203B1A0067
:1022E00013009B009A18084B09211000984703001F
:1022F0001A000E23FB181A800E23FB181B88DBB272
:102300001800BD4604B080BDFD08010080B584B052
:1023100000AF0200FB1D1A700E23FB18FA1D127885
:102320001A800E23FB181A881300DB009A18094B39
:1023300005211000984703009AB20E23FB182032A3
:102340001A800E23FB181B88DBB21800BD4604B0B0
:1023500080BDC046FD08010090B583B000AF786035
:102360003E4B186801235A42002300213C4CA047F1
:1023700006203C4B984703001A003B4B1B789A42BF
:1023800013D00620374B9847031E07D000210620A4
:10239000364B98470020364B984706E0012106202F
:1023A000324B98470120324B984719202D4B9847C4
:1023B00003001A002C4B5B789A4213D01920294B4A
:1023C0009847031E07D000211920284B984700206A
:1023D000274B984706E001211920244B98470120FC
:1023E000234B984718201F4B984703001A001E4B99
:1023F0009B789A4213D018201A4B9847031E07D097
:1024000000211820194B98470020194B984706E0E7
:1024100001211820154B98470120154B9847122091
:10242000104B984703001A000F4BDB789A4297D065
:1024300012200C4B9847031E07D0002112200B4B93
:10244000984700200A4B98478AE701211220074B42
:1024500098470120064B984782E7C046DC000020E1
:1024600089D9000029220000304600206D2200009A
:10247000C5E2000080B584B000AF0200BB1D1A8029
:102480000023FB6011E00D4AFB689B00D318023368
:102490001B88BA1D12889A4204D8084BFA68920029
:1024A000D35C06E0FB680133FB60FB68682BEAD96C
:1024B000FF231800BD4604B080BDC046042B0100B8
:1024C00090B591B002AF424B082200211800414B59
:1024D00098473F4B01225A713D4B50229A713C4B19
:1024E000FF22DA713423FB1802221A703423FB18FE
:1024F00002225A703423FB1800229A703423FB18EE
:1025000019000620344B98473423FB181900192072
:10251000314B98473423FB18190018202E4B98474D
:102520003423FB18190012202B4B98473B1D180031
:102530002A4B98473B1DE022D2005A803B1D0222C5
:102540005A703B1D00221A713B1D00221A703B1D60
:1025500012221A733B1DF02212059A603A1D20497F
:10256000204B1800204B9847204B02211800204B8D
:1025700098471C4B18001F4B984780239A001E4910
:102580001E48002301930023009300231C4CA04706
:10259000031E012B03D01B4B18001B4B9847032233
:1025A00000210120194B98470200194B1A60184B63
:1025B0001B68002B03D1174B1800134B9847094B8E
:1025C0001800154B9847C046BD460FB090BDC04699
:1025D00030460020330E0100A59C0000218D000034
:1025E0000040004238460020B19300001C0000204B
:1025F00071930000E1200000A82C01005923000085
:1026000085DF0000B42C01004516010055D50000FF
:10261000DC000020DC2C01004121000090B583B0DB
:1026200000AF204B1800204B9847020001231340B5
:1026300034D03A1D1B4B110018001C4B98473B1D12
:102640001B88FC1D18001A4B984703002370FB1DC4
:102650001B78FF2B1ED0174BFA1D1278DA71154B21
:10266000DA79144B9B799A4214D2124BDB78002B07
:1026700010D0104B1B7801225340DBB2002B06D147
:102680000C4B5B7801225340DBB2002B02D00120BF
:10269000094B9847034B1800084B9847C046BD4666
:1026A00003B090BD38460020392000008921000089
:1026B0007524000030460020612800004121000000
:1026C00080B582B000AF0200FB1D1A701F4B5B7912
:1026D000FA1D12789A4234D01C4BFA1D12785A71A6
:1026E000FB1D1B78002B16D0184BDB79FF2B08D075
:1026F000164BDB791800164B984703001A00134B52
:10270000DA71124B9B791800114B984703001A009D
:102710000E4B9A7115E00D4BDB79FF2B08D00B4B5C
:10272000DB7918000B4B984703001A00074BDA714E
:10273000064B9B791800074B984703001A00034B80
:102740009A71C046BD4602B080BDC04630460020EA
:102750000D230000C122000090B585B000AF02003B
:10276000FB1D1A700D23FB18254A92791A70244B11
:102770005B79002B08D00E23FB1844221A700F231C
:10278000FB1868221A7011E00D23FC180D23FB18AA
:102790001B7818001B4B9847030023700E23FB186F
:1027A00014221A700F23FB1828221A70FA1D0E2308
:1027B000FB1812781B789A421DD3FA1D0F23FB18C1
:1027C00012781B789A4216D80D4B5B790122534040
:1027D000DBB2002B09D0FB1D1B7818000A4B984771
:1027E00003001A00064B9A7103E0054BFA1D12789C
:1027F0009A71002300E013231800BD4605B090BD78
:1028000030460020C12200000D23000080B500AF3B
:10281000024B9B791800BD4680BDC0463046002063
:1028200090B583B000AFFB1D0B4AD2791A700A4BEA
:102830005B7901225340DBB2002B07D0064BDB79DA
:10284000FC1D1800054B984703002370FB1D1B78E7
:102850001800BD4603B090BD30460020C1220000E4
:1028600090B583B000AF0200FB1D1A70094BFA1D32
:1028700012781A70074BFA1D12785A70064B1868B6
:10288000002300220021054CA047C046BD4603B0EE
:1028900090BDC04630460020DC00002089D60000F4
:1028A00090B583B000AF0200FB1D1A70074BFA1DF4
:1028B0001278DA70064B1868002300220021054CBC
:1028C000A047C046BD4603B090BDC046304600207C
:1028D000DC00002089D6000090B583B000AF020074
:1028E000FB1D1A70074BFA1D12789A70064B186878
:1028F000002300220021054CA047C046BD4603B07E
:1029000090BDC04630460020DC00002089D6000083
:1029100080B582B000AF78607B6880221A707B68D7
:1029200000225A707B6801229A707B680022DA705C
:10293000C046BD4602B080BD80B584B000AF020085
:10294000FB1D1A700F23FB18FA1D1278D2091A709A
:102950000E23FB18FA1D127852091A700D4BBB603A
:102960000F23FB181B78002B0FD10F23FB181B78AC
:102970009B0010229446BC446344083B1A680E2313
:10298000FB181B78DB01D31800E000231800BD46BC
:1029900004B080BD0044004180B582B000AF0200A9
:1029A000FB1D1A70FB1D1B781800034B9847030092
:1029B0001800BD4602B080BD3929000080B584B042
:1029C00000AF0200FB1D1A70BB1D0A1C1A70FB1D14
:1029D0001B7818000D4B98470300FB60FB1D1B780C
:1029E0001F22134001229A401300BB60BB1D1B78BD
:1029F000002B03D0FB68BA689A6102E0FB68BA68F2
:102A00005A61C046BD4604B080BDC0469929000049
:102A1000F0B583B000AF3B1D01221A703B1D0122AF
:102A20005A703B1D00229A703B1D19000920124B61
:102A3000984700212A20114B98470020104B9847B7
:102A400003001D0000231E000E4B0024280031004F
:102A5000C01861410C4C0D4A0023A04703000C0034
:102A600018000B4B984700210920044B9847C0469B
:102A7000BD4603B0F0BDC046A59C0000BD290000C6
:102A8000A5C80000BFCF6A00D50A0100C0CF6A0008
:102A900001000020F0B585B000AF00212A20264BB0
:102AA00098470020254B984703003B6000237B603C
:102AB000234B002438687968C0186141214C224AB0
:102AC0000023A04703000C001800204B9847012169
:102AD0000920194B98470020184B984703001D0008
:102AE00000231E00164B002428003100C01861414D
:102AF000144C154A0023A04703000C001800134B88
:102B0000984701212A200C4B98470C23FB181800EA
:102B10000F4B98470C23FB1800225A700C23FB180C
:102B200002221A700C23FB1819000920094B984740
:102B3000C046BD4605B0F0BDBD290000A5C80000D7
:102B4000BFCF6A00D50A0100C0CF6A000100002093
:102B50001129000069CC0000F0B589B000AF020077
:102B60001723FB181A700F2310229446BC446344A9
:102B700000221A706DE01723FB181A780F2310211A
:102B80008C46BC4463441B781A4113000122134055
:102B900004D001212A20354B984703E000212A2048
:102BA000324B98470020324B984703001D0000230A
:102BB0001E00304B00245B197441180021002E4C7C
:102BC0002E4A0023A04703000C0018002C4B984706
:102BD00001210920254B98470020254B98470300E9
:102BE000BB600023FB60234B0024B868F968C01861
:102BF0006141214C214A0023A04703000C0018002A
:102C00001F4B984700210920184B98470020184B6C
:102C1000984703003B6000237B60164B0024386814
:102C20007968C0186141144C144A0023A04703007E
:102C30000C001800124B98470F2310229446BC44F6
:102C400063441A780F2310218C46BC44634401323C
:102C50001A700F2310229446BC4463441B78072B40
:102C600089D9C046BD4609B0F0BDC046BD290000A7
:102C7000A5C80000BFCF6A00D50A0100C0CF6A0016
:102C80000100002080B582B000AF0200FB1D1A7069
:102C9000BB1D0A1C1A700F4B98470F4B9847FB1D22
:102CA0001B785BB23F2293435AB2BB1D1B785BB2C9
:102CB0003F210B405BB213435BB2DBB21800074B02
:102CC0009847074B9847074B984700231800BD4685
:102CD00002B080BDC9D20000112A0000592B0000AB
:102CE000952A0000EDD2000080B582B000AF3B1DF8
:102CF00001221A703B1D01225A703B1D00229A705E
:102D00003B1D19002A20054B984701212A20044B1E
:102D10009847C046BD4602B080BDC046A59C000095
:102D2000BD29000080B584B000AF0200FB1D1A7001
:102D30000F23FB1800221A70FB1D1B78002B03D0F9
:102D40000F23FB188B221A700F23FB181B78190016
:102D50008020034B984703001800BD4604B080BD97
:102D6000852C000090B587B000AF78600800110096
:102D7000FB1C021C1A70BB1C0A1C1A701623FB18C1
:102D800000221A70324B186801235A420023002196
:102D9000304CA047031E01D1122355E02E4B98471B
:102DA0000C23FB1818002D4B98470C23FB1800220E
:102DB0005A700C23FB1802221A701023FB180022F1
:102DC0001A701023FB1801225A701023FB180022DE
:102DD0009A701023FB1819000820214B9847214BAB
:102DE0009847C020204B98471723FB1800221A70E1
:102DF0000FE01723FB181B787A68D3181B7818008C
:102E0000194B98471723FB181A781723FB18013220
:102E10001A701723FA18FB1C12781B789A42E8D311
:102E2000124B98470C23FB1819000820104B9847A9
:102E3000104B9847064B18680023002200210E4CC7
:102E4000A0471623FB181B781800BD4607B090BD9D
:102E5000C445002089D90000C9D200001129000012
:102E6000A59C0000112A0000592B0000952A0000A3
:102E700069CC0000EDD2000089D6000080B582B098
:102E800000AF78607B6880221A707B6800225A70DD
:102E90007B6801229A707B680022DA70C046BD46CA
:102EA00002B080BD80B584B000AF0200FB1D1A7077
:102EB0000F23FB18FA1D1278D2091A700E23FB1883
:102EC000FA1D127852091A700D4BBB600F23FB18C4
:102ED0001B78002B0FD10F23FB181B789B001022AF
:102EE0009446BC446344083B1A680E23FB181B78C5
:102EF000DB01D31800E000231800BD4604B080BDFC
:102F00000044004180B582B000AF0200FB1D1A7082
:102F1000064BFA1D127811001F220A400121914030
:102F20000A001A60C046BD4602B080BD00E100E064
:102F300080B582B000AF0200FB1D1A70FB1D1B782C
:102F40001800034B984703001800BD4602B080BD2F
:102F5000A52E000080B584B000AF0200FB1D1A70E2
:102F6000FB1D1B7818000B4B98470300FB60FB1DF3
:102F70001B781F22134001229A401300BB60FB689C
:102F80001B6ABA6813405A1E9341DBB21800BD4653
:102F900004B080BD312F000080B584B000AF0200C6
:102FA000FB1D1A70BB1D0A1C1A70FB1D1B78180034
:102FB0000D4B98470300FB60FB1D1B781F2213403D
:102FC00001229A401300BB60BB1D1B78002B03D06D
:102FD000FB68BA689A6102E0FB68BA685A61C04649
:102FE000BD4604B080BDC046312F000080B584B01E
:102FF00000AF78607B681B68FB60FB68DB695A1E6A
:103000009341DBB21800BD4604B080BD80B582B0EC
:1030100000AF78607B6801221A707B6800225A60DA
:103020007B6800229A607B68C0229203DA607B682A
:1030300000221A747B6800225A747B6801229A74F9
:103040007B680122DA747B6800221A757B6824226F
:10305000002199547B6818330C22002118000A4B78
:1030600098477B68094A9A617B6800229A627B686C
:103070000022DA627B6800221A637B6800225A63AE
:10308000C046BD4602B080BD330E0100A0860100DF
:1030900080B584B000AF78607B681B68FB607B689C
:1030A0001B6818000B4B9847030018000A4B984701
:1030B000C0467B681800094B9847031EF9D1FB688E
:1030C0001B6802221A43FB681A60C046BD4604B062
:1030D00080BDC04641A40000052F0000ED2F000078
:1030E00080B58EB000AF3B0018001C4B98473B00EA
:1030F0001B4A9A623B001B4ADA623B0001225242A1
:103100001A633B00012252425A633B008022920222
:10311000DA603B000022DA743B00134A9A613B00FC
:10312000C02292059A603B002422042199543B005E
:1031300000225A743A000D490D4B18000D4B984768
:10314000031E04D00C4B18000C4B984703E0084BAF
:1031500018000B4B9847BD460EB080BD0D300000E7
:103160000200080002000900983A0000000800422E
:10317000DC450020E1A90000F82C01004516010003
:1031800091300000F0B54F464646C0B489B000AF5C
:10319000F860102308229446BC44634401221A704C
:1031A000102308229446BC44634401225A70102321
:1031B00008229446BC44634400229A7014230822D7
:1031C0009446BC44634400221A7014230822944697
:1031D000BC44634401225A70142308229446BC4420
:1031E000634400229A700C2308229446BC44634432
:1031F0001800804B98470C2308229446BC44634433
:1032000000225A707C4B186801235A420023002187
:103210007A4CA047031E01D11223E3E0784B984774
:10322000102308229446BC44634419000920754BBE
:103230009847142308229446BC446344190008208C
:10324000704B98470820704B984703001A000123E1
:103250005340DBB2002B0AD0674B186800230022D2
:1032600000216A4CA0476A4B98470523BAE0002129
:103270000920684B98470020674B984703003B6044
:1032800000237B6039687A680B001400DB18644106
:103290005B185441614900225B1854411800210019
:1032A0005F4C604A0023A04703000C0018005E4BEF
:1032B000984701210920574B98470C230822944630
:1032C000BC44634402221A700C2308229446BC4476
:1032D000634419000820554B98470C230822944654
:1032E000BC44634402221A700C2308229446BC4456
:1032F0006344190009204D4B98471723994608232A
:103300009C46BC44E144F968494800230122494CE9
:10331000A046C04703004A46137010230822944673
:10332000BC44634419000920364B984714230822F3
:103330009446BC44634419000820324B984700214E
:103340000920344B98470020334B984703001D0059
:1033500000231E002B003400DB1864415B1974410C
:103360002E4900225B185441180021002C4C2D4A94
:103370000023A04703000C0018002B4B98470121A5
:103380000920244B98470C2308229446BC446344EC
:1033900002221A700C2308229446BC44634419008C
:1033A0000820224B98470C2308229446BC446344CF
:1033B00002221A700C2308229446BC44634419006C
:1033C00009201A4B98470C4B186800230022002153
:1033D0000E4CA0470E4B9847172308229446BC4436
:1033E00063441B781800BD4609B00CBC9046994652
:1033F000F0BDC0467D2E0000C445002089D90000E4
:10340000C9D20000A59C0000552F000089D60000FD
:10341000EDD20000992F0000A5C80000BFCF6A00C0
:10342000D50A0100C0CF6A000100002069CC00006D
:10343000DC45002071AB000080B584B000AF020015
:10344000FB1D1A700F23FB18FA1D1278D2091A708F
:103450000E23FB18FA1D127852091A700D4BBB602F
:103460000F23FB181B78002B0FD10F23FB181B78A1
:103470009B0010229446BC446344083B1A680E2308
:10348000FB181B78DB01D31800E000231800BD46B1
:1034900004B080BD0044004180B500AF044B012260
:1034A0001A70BFF35F8F62B6C046BD4680BDC0468E
:1034B0002C00002080B582B000AF0200FB1D1A7006
:1034C000FB1D1B781800034B984703001800BD46EE
:1034D00002B080BD3934000080B582B000AF7860A2
:1034E0007B6800221A707B6801225A707B68002278
:1034F0009A70C046BD4602B080BDC04680B584B05B
:1035000000AF0200FB1D1A70BB1D0A1C1A70FB1DC8
:103510001B7818000D4B98470300FB60FB1D1B78C0
:103520001F22134001229A401300BB60BB1D1B7871
:10353000002B03D0FB68BA689A6102E0FB68BA68A6
:103540005A61C046BD4604B080BDC046B5340000D7
:1035500080B500AF044B1B68002B02D0024B1B68E8
:103560009847C046BD4680BDE000002080B582B0CF
:1035700000AF3B1D18000C4B98473B1D01221A70F1
:103580003B1D19001B20094B98473B1D19001C20AF
:10359000064B98473B1D19002820044B9847C0460E
:1035A000BD4602B080BDC046D9340000A59C0000D5
:1035B00080B500AF0C4B00221A600C4B98470C4BA7
:1035C0001B680122134004D0094B1B6802221340E0
:1035D00001D1084B9847084B9847084B9847002360
:1035E0001800BD4680BDC046E00000206D350000DB
:1035F00010E000E0150100000136000099340000E1
:1036000080B500AF00211C200C4B984700211B20E7
:103610000A4B984764200A4B984701211C20074B0E
:1036200098470A20064B984701211B20034B9847D7
:103630000A20034B9847C046BD4680BDFD340000BC
:1036400045360000F0B583B000AF786015E000208B
:103650000E4B984703001D0000231E000C4B002456
:103660005B197441180021000A4C0B4A0023A04743
:1036700003000C001800094B98477B685A1E7A60BB
:10368000002BE4D1C046BD4603B0F0BDA5C8000084
:10369000571B0000D50A0100581B00000100002044
:1036A00080B586B000AF7860154B7A681A600C233D
:1036B000FB181800134B98470C23FB1829221A609B
:1036C0000C23FB1800225A600C23FB1801221A72EB
:1036D0000C23FB180222DA720C23FB1819000920B4
:1036E000094B9847094B002209211800084B9847BD
:1036F00000210920074B9847C046BD4606B080BD53
:10370000E00000204D9B0000819B0000513500002F
:103710004D970000B197000080B582B000AF020065
:10372000FB1D1A70FB1D1B78002B04D00021092003
:10373000054B984703E000210920044B9847C046F9
:10374000BD4602B080BDC046B1970000F9970000A9
:1037500080B584B000AF0200FB1D1A700F23FB1868
:10376000FA1D1278D2091A700E23FB18FA1D12786E
:1037700052091A700D4BBB600F23FB181B78002BEE
:103780000FD10F23FB181B789B0010229446BC44DA
:103790006344083B1A680E23FB181B78DB01D3181F
:1037A00000E000231800BD4604B080BD0044004185
:1037B00080B582B000AF0200FB1D1A70064BFA1DE7
:1037C000127811001F220A40012191400A001A605C
:1037D000C046BD4602B080BD00E100E080B582B0C9
:1037E00000AF0200FB1D1A70074AFB1D1B78190071
:1037F0001F230B40012199400B0019008023D15059
:10380000C046BD4602B080BD00E100E080B582B098
:1038100000AF0200FB1D1A70FB1D1B781800034B44
:10382000984703001800BD4602B080BD5137000024
:1038300080B582B000AF78607B6800221A707B6828
:1038400001225A707B6800229A70C046BD4602B0C1
:1038500080BDC04680B584B000AF0200FB1D1A7069
:10386000BB1D0A1C1A70FB1D1B7818000D4B9847D6
:103870000300FB60FB1D1B781F22134001229A40AE
:103880001300BB60BB1D1B78002B03D0FB68BA681C
:103890009A6102E0FB68BA685A61C046BD4604B04E
:1038A00080BDC0460D38000080B584B000AF7860A0
:1038B0007B681B68FB60FB68DB695A1E9341DBB2C7
:1038C0001800BD4604B080BD80B582B000AF7860FE
:1038D0007B6801221A707B6800225A607B68002294
:1038E0009A607B68C0229203DA607B6800221A74B7
:1038F0007B6800225A747B6801229A747B680122DB
:10390000DA747B6800221A757B682422002199549E
:103910007B6818330C22002118000A4B98477B68FB
:10392000094A9A617B6800229A627B680022DA6207
:103930007B6800221A637B6800225A63C046BD463A
:1039400002B080BD330E0100A086010080B582B0B8
:1039500000AF78607B680A221A707B6800225A7078
:103960007B6800229A70C046BD4602B080BDC0464A
:1039700080B584B000AF786039603B681A787B68A6
:103980001A703B685A787B685A703B689A787B68F3
:103990009A700C23FB1818000B4B98470C23FB184C
:1039A00001221A707B681B780C22BA1811001800CB
:1039B000064B98477B681B7801211800044B9847F9
:1039C000C046BD4604B080BD31380000A59C000053
:1039D0005538000080B584B000AF78607B681B6804
:1039E000FB607B681B6818000B4B984703001800AE
:1039F0000A4B9847C0467B681800094B9847031E3E
:103A0000F9D1FB681B6802221A43FB681A60C046A2
:103A1000BD4604B080BDC04641A40000B1370000DF
:103A2000A938000080B584B000AF78607B681B685F
:103A3000FB607B681B6818000E4B9847030018005A
:103A40000D4B9847C0467B6818000C4B9847031EE7
:103A5000F9D1FB688F221A75FB688F221A76FB68F2
:103A60001B68022293431A00FB681A60C046BD46D9
:103A700004B080BD41A40000DD370000A93800007B
:103A800080B584B000AF78607B681B68FB60FB6822
:103A90001B7EDBB21A00022313405A1E9341DBB295
:103AA0001800BD4604B080BD80B584B000AF78601A
:103AB0007B681B68FB60FB681B7EDBB21A0001237E
:103AC00013405A1E9341DBB21800BD4604B080BDBE
:103AD00080B584B000AF78607B681B68FB60FB68D2
:103AE0001B7EDBB21A00042313405A1E9341DBB243
:103AF0001800BD4604B080BD80B584B000AF7860CA
:103B00000A00BB1C1A807B681B68FB607B6818007E
:103B10000A4B984703001A0001235340DBB2002BE5
:103B200001D0052306E0BB1C1B88DB05DA0DFB6812
:103B30009A6200231800BD4604B080BDA93A000077
:103B400080B584B000AF786039607B681B68BB606B
:103B50007B6818001B4B984703001A000123534051
:103B6000DBB2002B01D0102327E00F23FB1800222B
:103B70001A70BB685B8B9BB21A000423134006D0FB
:103B80000F23FB181E221A70BB6804225A837B681D
:103B90009B79012B08D1BB689B6A9BB2DB05DB0DCF
:103BA0009AB23B681A8005E0BB689B6ADBB29AB2A6
:103BB0003B681A800F23FB181B781800BD4604B021
:103BC00080BDC046D13A000080B586B000AFF86035
:103BD000B960BB1D1A801323FB1800221A7017232B
:103BE000FB1800221A701623FB1800221A701423E7
:103BF000FB1800221A801023FB1800221A80FB6891
:103C0000002B07D11323FB18FB601723FB1801229D
:103C10001A700DE0BB68002B07D11323FB18BB60A3
:103C20001623FB1801221A7002E006235B426AE0A9
:103C30003749384B01221800374B98474CE0FB6856
:103C40001A781423FB181A80C046324B1800334BE5
:103C5000984703001A0001235340DBB2002BF4D134
:103C6000C0461423FB181A882A4B110018002C4B4D
:103C70009847031EF5D1C046264B1800294B98479C
:103C800003001A0001235340DBB2002BF4D1C046DD
:103C90001023FA181F4B11001800234B9847031EDE
:103CA000F6D11023FB181B88DAB2BB681A70BB1D53
:103CB0001A88BB1D013A1A801623FB181B78002BAB
:103CC00002D1BB680133BB601723FB181B78002BA4
:103CD00002D1FB680133FB60BB1D1B88002BAED1FA
:103CE000C0460C4B1800114B984703001A000123E3
:103CF0005340DBB2002BF4D10549064B00221800DB
:103D0000054B984700231800BD4606B080BDC0464D
:103D1000584600205C460020A5AC0000A93A0000EF
:103D2000F93A0000D13A0000413B0000813A00001E
:103D300080B592B000AF78604723FB1800221A705C
:103D40000823FB181800264B98470823FB180E225F
:103D50001A700823FA18234B11001800224B9847B9
:103D60000C23FB181800214B98470C23FB18C0228A
:103D70009203DA600C23FB181D4A9A620C23FB188D
:103D80001C4ADA620C23FB18012252421A630C23EC
:103D9000FB18194A5A630C23FB1800221A750C23CE
:103DA000FB18164A9A610C23FA181549154B18008E
:103DB000154B9847031E02D006235B420CE0114BC3
:103DC0001800124B9847124B98470120114B984707
:103DD0004723FB181B785BB21800BD4612B080BDAC
:103DE0004D3900005846002071390000C9380000E4
:103DF00002000C0002000D0002000F00001BB700C3
:103E0000001000425C460020E1A90000D539000006
:103E1000013600004536000090B585B000AF0200C5
:103E20003960FB1D1A700F23FB1800221A70FB1D4E
:103E30001B78032B0FD13B68BB60BB681868BB685D
:103E40005968BB681B890F22BC181A000F4B984792
:103E50000300237012E00F23FB18FF221A70862341
:103E60005A000B490B4B18000B4B98470B4B180093
:103E70000B4B98470D200B4B9847C0460F23FB1860
:103E80001B785BB21800BD4605B090BDC93B000071
:103E9000402D0100182D0100251501002C2D0100D9
:103EA000451601005915010080B582B000AFFB1D19
:103EB00000221A703B1D1800094B98473B1D002239
:103EC0001A703B1D00225A70064B1800064B98478B
:103ED000FB1D1B785BB21800BD4602B080BDC0461A
:103EE000313800005C460020253A000080B584B0DF
:103EF00000AFF860B9607A607B68002B10D0BB68B7
:103F00001A78FB681A70FB680133FB60BB680133E9
:103F1000BB607B68013B7B607B68002BEFD100E0DE
:103F2000C046BD4604B080BD80B584B000AFF86027
:103F30007A600B23FB180A1C1A707B68002B0ED0CA
:103F4000FB680B22BA1812781A70FB680133FB6009
:103F50007B68013B7B607B68002BF1D100E0C046B1
:103F6000BD4604B080BDC04680B584B000AF786067
:103F70000E23FB1800221A8009E00E23FB181A8872
:103F80000E23FB1801321A807B6801337B607B684B
:103F90001B78002BF1D10E23FB181B881800BD469F
:103FA00004B080BD80B584B000AFF860B960BB1DBF
:103FB0001A8020E0FB681A78BB681B789A4209D007
:103FC000FB681A78BB681B789A4201D2FF2317E07E
:103FD000012315E0FB681B78002B01D100230FE0C3
:103FE000FB680133FB60BB680133BB60BB1DBA1DBE
:103FF0001288013A1A80BB1D1B88002BDAD10023DE
:104000001800BD4604B080BD90B585B000AF7860A3
:1040100039603B685A1C3A600F22BA181B7813703B
:104020000F23FB181B78002B01D17B6829E00C23A0
:10403000FC183B681800154B9847030023807B68E9
:104040005A1C7A600B22BA181B7813700B23FB18CA
:104050001B78002B01D1002313E00B23FA180F2348
:10406000FB1812781B789A42E9D10C23FB181A88A6
:1040700039687B681800064B9847031EDFD17B68C0
:10408000013B1800BD4605B090BDC046693F000029
:10409000A53F000080B500AF044B1B78DBB20133B5
:1040A000DAB2024B1A70C046BD4680BDE700002060
:1040B00090B583B000AFFB1D00221A700120134B96
:1040C0009847FC1D3B00124A19001000114B9847FD
:1040D00003002370FB1D1B785BB2002B0DD13B68E6
:1040E000022213433B603B68FC1D094A1900100083
:1040F000094B98470300237000E0C046FB1D1B7866
:104100005BB21800BD4603B090BDC0461937000031
:1041100070100000456200006962000080B582B046
:1041200000AF3A60FB1D021C1A703B1D0A1C1A806E
:10413000C046BD4602B080BD90B583B000AFFB1D48
:1041400000221A701C4B1B78DBB2002B21D11B4BB9
:104150001B78DBB2032B04D0184B1B78DBB2042B8B
:1041600017D1FC1D164B984703002370FB1D1B78CD
:104170005BB2002B15D1FC1D124A134B1100180025
:10418000124B984703002370FB1D1B785BB2002B7A
:1041900009D1094B1B78DBB20133DAB2064B1A7036
:1041A00002E0C04600E0C046FB1D1B785BB2180071
:1041B000BD4603B090BDC046E5000020E4000020ED
:1041C0001959000078560000741000006962000060
:1041D00090B583B000AFFB1D00221A70294B1B78ED
:1041E000DBB2002B06D0274B1B78DBB2013BDAB2E7
:1041F000244B1A70234B1B78DBB2002B3AD1224B95
:104200001B78DBB2032B04D01F4B1B78DBB2042BD3
:1042100030D100233B60FC1D1C4A1D4B11001800CF
:104220001C4B984703002370FB1D1B785BB2002BCF
:104230001DD1FC1D3B0019000120174B98470300BE
:104240002370FB1D1B785BB2002B12D13B6802224E
:1042500013400FD03B68022293433B603B68FC1D38
:10426000190001200B4B98470300237002E0C04661
:1042700000E0C046FB1D1B785BB21800BD4603B0D2
:1042800090BDC046E5000020E4000020214300006E
:1042900074100000696200004562000080B582B0C1
:1042A00000AF78600E4B00221A600E4B00221A609D
:1042B0000D4B00221A700D4B00221A700C4B00227D
:1042C0001A700C4B18000C4B98470C4B190003202C
:1042D0000B4B984700231800BD4602B080BDC04676
:1042E000E8000020EC000020E5000020E4000020B1
:1042F000E700002095400000A13600001D410000AD
:10430000DD4C000090B589B000AF040008003A60B1
:104310001900FB1D221C1A70BB1D021C1A703B1DCC
:104320000A1C1A801F23FB18FF221A70BB1D1B7862
:104330007F221340DAB21823FB185A701823FB1897
:10434000FA1D12781A701823FB1808225A803B6B4A
:10435000002B11D01823FB185B889AB23823F91868
:104360003423FB1809881B88CB189BB2D3189AB248
:104370001823FB185A800AE01823FB185B889AB2AE
:104380003B1D1B88D3189AB21823FB185A801F2391
:10439000FC189B4B9847030023701F23FB181B78C6
:1043A0005BB2002B00D003E100233B610E23FB181E
:1043B00000221A8000237B61FB1D1A787B6913435E
:1043C0007B61BB1D1B781A027B6913437B61182339
:1043D000FB185B889BB21A047B6913437B617B6982
:1043E0001F22BC18874A19001000874B984703000A
:1043F00023701F23FB181B785BB2002B00D0EEE06C
:1044000000237B617B69022213437B617B691F224E
:10441000BC187E4A190010007B4B9847030023709C
:104420001F23FB181B785BB2002B00D0D9E00023C0
:104430003B610E23FB1800221A8031E01F23FC1879
:104440001423FB18714A19001000714B98470300A0
:1044500023701F23FB181B785BB2002B28D17B69CC
:104460000222134013D11F23FC181023FB18694AA2
:1044700019001000664B9847030023701F23FB1898
:104480001B785BB2002B15D000233B6112E00E239A
:10449000FB181B889BB201339AB20E23FB181A80BB
:1044A0000E23FB181B889BB25B4A9342C6D902E0DD
:1044B000C04600E0C0463B69002B00D173E03B6979
:1044C000BB601823FB185B889AB21823FB185A802C
:1044D000BB681F22BC181822B918082218004F4BBD
:1044E0009847030023701F23FB181B785BB2002B37
:1044F00000D078E0BB680833BB603B68002B15D068
:10450000B8683B1D1A881F23FC183B681900434BF1
:104510009847030023701F23FB181B785BB2002B06
:1045200063D13B1D1A88BB68D318BB603B6B002B63
:1045300021D03823FB181A883B1D1B88D31A1A0078
:10454000BB68D318BB60B8683423FB181A881F23D4
:10455000FC183B6B1900314B9847030023701F2355
:10456000FB181B785BB2002B41D13423FB181A884F
:10457000BB68D318BB603B699B007B617B690222EF
:1045800013437B617B691F22BC18254A1900100068
:104590001D4B9847030023701F23FB181B785BB249
:1045A000002B15D024E01F23FB18FD221A701FE0FA
:1045B000A023FF331A001B491B4B18001B4B9847C5
:1045C0001B4B18001B4B98470D201B4B98470FE0C7
:1045D0001F23FC18194B98470300237008E0C046BE
:1045E00006E0C04604E0C04602E0C04600E0C04627
:1045F0001F23FB181B785BB21800BD4609B090BDA5
:10460000394100008C100000696200007810000041
:104610004562000000041500E7030000B1630000DC
:104620006C100000B02F0100502D01002515010075
:10463000642D01004516010059150100D14100000B
:1046400090B587B002AF0F23FB18FA221A700F2320
:10465000FC18DA4B9847030023700F23FB181B78D4
:104660005BB2002B00D092E10F23FC180823FB184B
:10467000D34A19001000D34B9847030023700F232F
:10468000FB181B785BB2002B00D072E1BB680122E3
:10469000134000D15CE10020CB4B9847BB6801225E
:1046A0009343BB60BB680F22BC18C54A19001000B9
:1046B000C64B9847030023700F23FB181B785BB28F
:1046C000002B00D0BCE1C24B00221A70BB689B08D3
:1046D0009AB20C23FB181205120D1A800C23FB183A
:1046E0001B88002B00D121E100233B600F23FC1825
:1046F0003B00B84A19001000B24B984703002370E2
:104700000F23FB181B785BB2002B11D0E7235A0054
:10471000B149B24B1800B24B9847B24B1800B24B9C
:1047200098470D20B14B98470120A74B984788E147
:104730003B680F22BC18391D04221800AC4B984767
:10474000030023703B1D5B889AB23B1D5A800F23E8
:10475000FB181B785BB2002B11D0EB235A009E494B
:104760009E4B18009E4B9847A24B18009E4B9847B3
:104770000D209E4B98470120934B984761E13B1DCC
:104780005B889BB20C22BA1812889A422ED00C2356
:10479000FB181B883A1D528892B29B1A042B25DD08
:1047A000E023FF331A008C498C4B18008C4B984740
:1047B0000C23FB1819883B1D5B889BB21A003B1D1C
:1047C0001B78DBB21C003B1D5B78DBB28A48009390
:1047D0002300834CA0470D20844B984701207A4B3F
:1047E00098470F23FB18FA221A702AE13B1D1B7809
:1047F000DBB2012B12D1814B1B68002B00D17CE076
:104800007E4B1B683A1D5278D0B23A1D528892B244
:10481000083A91B23A68083298476EE03B1D1B781F
:10482000DBB2022B11D1764B1B68002B65D0744B89
:104830001B683A1D5278D0B23A1D528892B2083A9B
:1048400091B23A680832984757E03B1D1B78DBB2BB
:10485000042B11D16B4B1B68002B4ED0694B1B688E
:104860003A1D5278D0B23A1D528892B2083A91B2AB
:104870003A680832984740E03B1D1B78DBB2062BB4
:1048800011D1614B1B68002B37D05F4B1B683A1D61
:104890005278D0B23A1D528892B2083A91B23A6830
:1048A0000832984729E03B1D1B78DBB2072B11D15A
:1048B000564B1B68002B20D0544B1B683A1D527876
:1048C000D0B23A1D528892B2083A91B23A68083290
:1048D000984712E04E4A4049404B1800404B9847D9
:1048E0004C4B1800404B98470D20404B98470F23E6
:1048F000FB18FA221A70C046A3E0354B1B78DBB2D6
:10490000002B53D1444A3449344B1800344B984758
:10491000424B1800344B98470D20344B98470F23D7
:10492000FC183F4B9847030023703FE00F23FB1810
:10493000FE221A703B4A2849284B1800284B9847FA
:10494000394B1800284B98470D20284B984778E0A2
:1049500086239A002049214B1800214B9847BA68BA
:10496000324B110018001E4B98470D201F4B9847E3
:104970001CE02F4A1849194B1800194B98472D4B2A
:104980001800194B98470D20184B984759E0892378
:104990009A001149114B1800114B9847264B1800EB
:1049A000114B98470D20114B98474AE00F23FC18F4
:1049B000224B98470300237043E0C0463941000072
:1049C00070100000456200001937000069620000A5
:1049D000E600002084100000BC2F0100502D0100D3
:1049E00025150100802D0100451601005915010013
:1049F000B9620000A42D0100BC2D0100E8000020D8
:104A0000EC000020F0000020FC000020F40000205A
:104A100002020000FC2D010009020000142E01001A
:104A2000B140000011020000382E01004C2E0100A0
:104A30001E020000682E01008C2E0100D1410000F2
:104A4000C0460F23FB181B785BB21800BD4605B0AB
:104A500090BDC04690B583B000AFFB1D00221A7018
:104A600023E0184B1B78DBB2013BDAB2154B1A700E
:104A7000FC1D154B984703002370FB1D1B785BB290
:104A8000002B00D111E0114A1149124B1800124BB2
:104A90009847FB1D00229A56104B110018000E4B30
:104AA00098470D200E4B9847E2E7064B1B78DBB288
:104AB000002BD6D1FB1D1B785BB21800BD4603B09E
:104AC00090BDC046E70000204146000043020000C0
:104AD000C42F0100502D010025150100AC2E01004E
:104AE0005915010090B589B000AFF860B9601900A0
:104AF000BB1D1A807B1D0A1C1A701F23FB18002285
:104B00001A70FB68002B06D0BB68002B03D0BB1DBE
:104B10001B88002B1FD17B1D1B78002B09D05F4BFE
:104B200001221A701F23FC185D4B98470300237065
:104B3000ACE01F23FB18F4221A705A4A5A495B4B07
:104B400018005B4B98475B4B18005B4B98470D2058
:104B50005A4B98479AE01F23FC181423FB18584A15
:104B600019001000574B9847030023701F23FB18B0
:104B70001B785BB2002B00D083E07B699B089AB264
:104B80001C23FB181205120D1A801F23FC18182372
:104B9000FB184D4A190010004A4B98470300237038
:104BA0001F23FB181B785BB2002B00D06BE0BA1DF3
:104BB0001C23FB1812881B889A4216D91F23FB1846
:104BC000F4221A70414A3849384B1800384B98473C
:104BD000BB1D19881C23FB181A883D4B1800344B49
:104BE00098470D20354B984750E0BB69FA689A42C8
:104BF0000AD3BB1D1A88FB68D2181C23FB1819881E
:104C0000BB69CB189A4212D91F23FB18F4221A70E1
:104C1000A0239A002449254B1800254B98472D4B7B
:104C20001800254B98470D20244B98472EE0BB1DBC
:104C30001A881F23FC18B968FB681800264B984790
:104C4000030023701F23FB181B785BB2002B1CD1C1
:104C50001C23FB181A88BB69D218BB1D1988FB6876
:104C6000CB189A4203D07B1D1B78002B0ED00B4B28
:104C700001221A701F23FC18094B98470300237068
:104C800004E0C04602E0C04600E0C0461F23FB1817
:104C90001B785BB21800BD4609B090BDE60000204D
:104CA000B140000069020000D42F0100502D010026
:104CB00025150100DC2E01004516010059150100E3
:104CC0007010000045620000841000007A020000AD
:104CD000FC2E0100402F0100B962000080B584B0B5
:104CE00000AF02003960FB1D1A700F23FB18002271
:104CF0001A70FB1D1B78072B1CD89A001C4BD3186D
:104D00001B689F461B4B3A681A6028E01A4B3A68AA
:104D10001A6024E0194B3A681A6020E0184B3A6890
:104D20001A601CE0174B3A681A6018E0164B3A6894
:104D30001A6014E0154A1649164B1800164B98478E
:104D4000FB1D1A78154B11001800134B98470D20C6
:104D5000134B98470F23FB18F4221A70C0460F23F9
:104D6000FB181B785BB21800BD4604B080BDC0467E
:104D7000902F0100EC000020E8000020F00000204F
:104D8000F8000020FC000020F4000020B902000020
:104D9000E02F0100502D010025150100842F010096
:104DA0005915010090B5ADB002AF3A60FB1D021C71
:104DB0001A703B1D0A1C1A80FB1D1B782C2B16D168
:104DC0009C23F918386800230422CC4CA047031E0A
:104DD00000D0B6E1CA4B1B68002B00D1B1E1C84B33
:104DE0001B689C22BA1811002C209847A9E1FB1DD2
:104DF0001B781B2B16D19423F9183868002308223E
:104E0000BE4CA047031E00D09BE1BD4B1B68002B8E
:104E100000D196E1BA4B1B689422BA1811001B20EE
:104E200098478EE1FB1D1B78062B16D10C23F91831
:104E3000386801233022B14CA047031E00D080E126
:104E4000AF4B1B68002B00D17BE1AD4B1B680C22E4
:104E5000BA1811000620984773E1FB1D1B780E2B32
:104E600000D16EE1FB1D1B78322B16D18423F9187B
:104E7000386800231022A14CA047031E00D060E137
:104E80009F4B1B68002B00D15BE19D4B1B6884226C
:104E9000BA1811003220984753E1FB1D1B782F2BC5
:104EA0001DD10C23FB18642200211800954B984754
:104EB0000C23F918386800236422904CA047031E85
:104EC00000D03EE18E4B1B68002B00D139E18C4BAA
:104ED0001B680C22BA1811002F20984731E1FB1DE6
:104EE0001B78342B3AD18023F91838680023042228
:104EF000824CA047031E00D023E1834B1800834B54
:104F000098478023FB181B681A00FF231A401100E2
:104F10008023FB181B681B0A1A00FF231A408023FA
:104F2000FB181B681B0C1800FF231840040080238B
:104F3000FB181B681B0E764800932300734CA04798
:104F40000D20744B98476E4B1B68002B00D1F8E086
:104F50006B4B1B68002134209847F2E0FB1D1B7847
:104F6000112B1ED16C4B00221A707C23F918386863
:104F700000230422614CA047031E00D0E1E07C2303
:104F8000FB181A78654B1A705D4B1B68002B00D11B
:104F9000D7E05B4B1B687C22BA18110011209847A0
:104FA000CFE0FB1D1B78132B16D10C23F9183868A2
:104FB00000232C22514CA047031E00D0C1E0504BCF
:104FC0001B68002B00D1BCE04D4B1B680C22BA18AB
:104FD000110013209847B4E0FB1D1B78042B16D159
:104FE000A023F918386800230422444CA047031E6C
:104FF00000D0A6E0424B1B68002B00D1A1E0404B43
:105000001B68A022BA1811000420984799E0FB1DE4
:105010001B78652B16D1A023F918386800230422C9
:10502000364CA047031E00D08BE0354B1B68002B8D
:1050300000D186E0324B1B68A022BA18110065200F
:1050400098477EE0FB1D1B78092B16D10C23F9181D
:10505000386801236422294CA047031E00D070E069
:10506000274B1B68002B00D16BE0254B1B680C22E3
:10507000BA1811000920984763E0FB1D1B782A2B02
:1050800014D17823F9183868012304221B4CA04757
:10509000031E56D11A4B1B68002B52D0184B1B68AD
:1050A0007822BA1811002A2098474AE0FB1D1B7885
:1050B000202B35D17023F9183868002308220F4CB3
:1050C000A047031E3DD13B68083318007023FB182E
:1050D00019687023FB189A880123084CA047031E07
:1050E0002FD1074B1B68002B2BD0054B1B68702260
:1050F000BA1811002020984723E0C046E54A000076
:1051000004010020293F0000F02F010025150100B7
:10511000FC2F0100591501000101002000010020B1
:1051200095235A0009490A4B18000A4B9847FB1D62
:105130001A78094B11001800064B98470D20074BB1
:105140009847C046BD462BB090BDC0461433010001
:105150001C300100251501003030010059150100F7
:1051600090B58DB000AF78602F23FB1800221A7025
:105170000B23FB1801221A707B68002B04D12F230C
:10518000FB18F4221A7085E07B681A68454B1A6098
:10519000454B00221A702F23FC180B23FB18180014
:1051A000424B9847030023702F23FB181B785BB2F8
:1051B000002B6CD12F23FC1800203D4B9847030097
:1051C00023702F23FB181B785BB2002B5AD1394B6D
:1051D00019000120384B98472F23FC180C23FB188B
:1051E0001800364B984703002370354B1800354B99
:1051F00098470C23FB181B7919000C23FB185B79CB
:105200001A000C23FB189B792F482E4CA0470D2029
:105210002E4B98472A4B18002A4B98470C23FB1813
:10522000DB7919000C23FB181B7A1A000C23FB18DE
:105230005B7A2748234CA0470D20244B9847204BEE
:105240001800204B984723480023032213211D4CAC
:10525000A0470D201D4B98472F23FB181B785BB2EE
:105260000D3316D1D623FF331A001B491B4B1800F0
:10527000144B98471A4B18001A4B98470D20134BA4
:10528000984706E0C0460020174B984702E0C0460A
:1052900000E0C0462F23FB181B785BB21800BD4608
:1052A0000DB090BD0401002001010020E565000063
:1052B0009D420000A54D0000DD4C00007D64000013
:1052C000F02F01002515010058310100591501008A
:1052D0007431010090310100203301001C300100C5
:1052E000AC310100451601007567000080B582B041
:1052F00000AF7860034B984703001800BD4602B02A
:1053000080BDC046554A000090B587B002AFF86036
:10531000080011007B600B23FB18021C1A700A2383
:10532000FB180A1C1A707C680A23FB181A780B23D6
:10533000FB181978F868002301932023FB181B88B9
:1053400000932300034CA04703001800BD4605B09E
:1053500090BDC04659530000B0B5AAB004AFF86084
:10536000080011007B600B23FB18021C1A700A2333
:10537000FB180A1C1A709723FB1800221A700A23C4
:10538000FB181B78012B00D183E07B68002B11D127
:10539000D84AD949D94B1800D94B9847D94B18004E
:1053A000D94B98470D20D94B98479723FB18F422E7
:1053B0001A70EFE10A23FB181B78022B69D17B6876
:1053C0001800D34B9847031E402B62D19623FB183D
:1053D00000221A707B689022BA18136054E096235A
:1053E000FB181B789022BA181268D3181B782F2B41
:1053F00031D99623FB181B789022BA181268D3185B
:105400001B78392B09D99623FB181B789022BA18E0
:105410001268D3181B78402B1DD99623FB181B78D4
:105420009022BA181268D3181B78462B09D99623F4
:10543000FB181B789022BA181268D3181B78602BBF
:1054400009D99623FB181B789022BA181268D31832
:105450001B78662B11D9AF4AA749A84B1800A84B57
:105460009847AD4B1800A84B98470D20A74B98477D
:105470009723FB18F4221A708CE19623FB181A78F4
:105480009623FB1801321A709623FB181B783F2BCA
:10549000A5D90B23FB181B78002B04D00B23FB187A
:1054A0001B78202B11D99D4A9349944B1800944B9B
:1054B00098479B4B1800944B98470D20934B984767
:1054C0009723FB18F4221A7064E1A823FB181B88A9
:1054D0000D2B16D9A823FB181B88FF2B11D0914A3E
:1054E0008549864B1800864B98478F4B1800864B92
:1054F00098470D20854B98479723FB18F4221A7084
:1055000048E10B23FB181A78F9681423FB1846337B
:105510001800864B98470B23FB181B781422BA18E7
:105520004621D3185B1800221A701423FB18A822F6
:10553000BA18442112885A52AC23FB181B785A1E01
:105540009341DBB219001423FB18672299541423EA
:10555000FB188C22BA1813608C23FB181B680A22D4
:10556000BA18412112785A540A23FB181B78032BCE
:1055700000D07BE07B688822BA1813608C23FB186C
:105580001B688422BA1813608823FB181B681B78D9
:10559000013BDAB28423FB181B681A708423FB18C2
:1055A0001B681B78032B17D9614A5349534B1800CA
:1055B000534B98478423FB181B681B781A005D4BDC
:1055C000110018004E4B98470D20504B98479723D9
:1055D000FB18F4221A70DDE08823FB181B685B7847
:1055E000013BDAB28423FB181B685A708423FB1832
:1055F0001B685B780A2B1ED08423FB181B685B7822
:105600001A2B18D090239A003B493C4B18003C4B76
:1056100098478423FB181B685B781A00464B1100DF
:105620001800374B98470D20384B98479723FB18A5
:10563000F4221A70AEE08423FB181B68981C8823A0
:10564000FB181B68991C8823FB181B685B781A00E1
:10565000364B98478823FB181B685B781A00842315
:10566000FB181B689B1800229A7082E00A23FB1823
:105670001B78022B30D18223FC187B681800244B46
:105680009847030023808223FB181B88002B04D03B
:105690008223FB181B88402B11D9284A1649174B27
:1056A0001800174B9847264B1800174B98470D20AA
:1056B000164B98479723FB18F4221A706AE08C2344
:1056C000FB1818688223FB181B8801331A007B68BB
:1056D0001900164B98474CE00A23FB181B78042B43
:1056E00030D18C23FB181B6879683E2218000F4BC1
:1056F00098473EE003020000303301001C300100F7
:1057000025150100C8310100451601005915010099
:10571000693F00000F020000DC31010019020000A7
:10572000E831010022020000FC310100ED3E0000E2
:105730003902000008320100243201004F0200004B
:10574000403201000A23FB181B78012B11D0154AA7
:105750001549164B1800164B9847164B1800164B58
:1057600098470D20154B98479723FB18F4221A7081
:1057700010E09723FC181423FA1800230293002347
:105780000193002300936C23282101200C4DA8478E
:10579000030023709723FB181B785BB21800BD46EB
:1057A00026B0B0BD5F020000303301001C300100A4
:1057B000251501005C320100451601005915010054
:1057C0000543000090B585B000AF786039600F23C5
:1057D000FB1800221A700F23FC18144B9847030083
:1057E00023700F23FB181B785BB2002B15D10F23FE
:1057F000FC183A687B68110018000D4B98470300AD
:1058000023700F23FB181B785BB2002B05D10F23ED
:10581000FC18084B9847030023700F23FB181B78D4
:105820005BB21800BD4605B090BDC04639410000CE
:10583000F55F0000D141000090B585B000AF786001
:105840000F23FB1800221A700F23FC18124B9847E5
:10585000030023700F23FB181B785BB2002B13D1BE
:105860000F23FC187B6818000C4B9847030023702B
:105870000F23FB181B785BB2002B05D10F23FC18FC
:10588000074B9847030023700F23FB181B785BB26C
:105890001800BD4605B090BD39410000F960000018
:1058A000D141000090B587B000AF78601723FB1896
:1058B00000221A707B683B613A69A5235B011100E5
:1058C0001800134B98473B69002B18D00023FB604E
:1058D0001723FC180C23FA18A5235B0111001800EC
:1058E0000C4B9847030023701723FB181B785BB2FF
:1058F000002BE1D1FA683B699A4202D0DCE7C0464E
:1059000000E0C04600231800BD4607B090BDC04669
:10591000696200004562000090B585B000AF0F23BA
:10592000FB1800221A700023BB600120644B9847CB
:105930000F23FC183B1D19000120624B9847030000
:1059400023700F23FB181B785BB2002B0DD05E4930
:105950005E4B722218005E4B98475E4B18005E4B00
:1059600098470D205D4B9847A1E07B6802221343C6
:10597000190001205A4B98470120514B9847594B29
:105980001B680F22BC183A00110018004D4B9847B5
:10599000030023700F23FB181B785BB2002B08D188
:1059A0000F23FB181B785BB2002B62D13B68002BE6
:1059B0005FD14C4B0E221A600120414B9847494B56
:1059C0001B680F22BC183A00110018003D4B984785
:1059D000030023700F23FB181B785BB2002B08D148
:1059E0000F23FB181B785BB2002B42D13B68002BC6
:1059F0003FD13C4B13221A600120314B9847394B61
:105A00001B680F22BC183A00110018002D4B984754
:105A1000030023700F23FB181B785BB2002B28D0E8
:105A200029492A4B96221800294B98472E4B1800DB
:105A3000294B98470D20294B984738E00220204BEE
:105A40009847284B1B683A00110018001D4B9847D7
:105A50003B68042213400CD11B491C4BAA2218009E
:105A60001B4B9847214B18001B4B98470D201B4B95
:105A700098473B680422134009D1BB680133BB60DF
:105A8000BA681B4B0321100098470B1ED6D03B6809
:105A90000422134006D17B6802221343190001201F
:105AA0000F4B98473B680422134000D15DE70F235A
:105AB000FB181B785BB21800BD4605B090BDC04610
:105AC00045360000456200006C340100443301009B
:105AD0002515010058330100451601005915010034
